{
  "_format": "hh-sol-artifact-1",
  "contractName": "DeGuildPlus",
  "sourceName": "contracts/DeGuild/V2/DeGuild+.sol",
  "abi": [
    {
      "inputs": [
        {
          "internalType": "string",
          "name": "name_",
          "type": "string"
        },
        {
          "internalType": "string",
          "name": "symbol_",
          "type": "string"
        },
        {
          "internalType": "string",
          "name": "baseURI_",
          "type": "string"
        },
        {
          "internalType": "address",
          "name": "addressDGT_",
          "type": "address"
        }
      ],
      "stateMutability": "nonpayable",
      "type": "constructor"
    },
    {
      "anonymous": false,
      "inputs": [
        {
          "indexed": false,
          "internalType": "uint256",
          "name": "jobId",
          "type": "uint256"
        },
        {
          "indexed": true,
          "internalType": "address",
          "name": "client",
          "type": "address"
        }
      ],
      "name": "JobAdded",
      "type": "event"
    },
    {
      "anonymous": false,
      "inputs": [
        {
          "indexed": false,
          "internalType": "uint256",
          "name": "jobId",
          "type": "uint256"
        },
        {
          "indexed": true,
          "internalType": "address",
          "name": "criminal",
          "type": "address"
        }
      ],
      "name": "JobCaseClosed",
      "type": "event"
    },
    {
      "anonymous": false,
      "inputs": [
        {
          "indexed": true,
          "internalType": "uint256",
          "name": "jobId",
          "type": "uint256"
        }
      ],
      "name": "JobCaseOpened",
      "type": "event"
    },
    {
      "anonymous": false,
      "inputs": [
        {
          "indexed": false,
          "internalType": "uint256",
          "name": "jobId",
          "type": "uint256"
        },
        {
          "indexed": true,
          "internalType": "address",
          "name": "taker",
          "type": "address"
        }
      ],
      "name": "JobCompleted",
      "type": "event"
    },
    {
      "anonymous": false,
      "inputs": [
        {
          "indexed": false,
          "internalType": "uint256",
          "name": "jobId",
          "type": "uint256"
        },
        {
          "indexed": true,
          "internalType": "address",
          "name": "taker",
          "type": "address"
        }
      ],
      "name": "JobTaken",
      "type": "event"
    },
    {
      "anonymous": false,
      "inputs": [
        {
          "indexed": true,
          "internalType": "address",
          "name": "previousOwner",
          "type": "address"
        },
        {
          "indexed": true,
          "internalType": "address",
          "name": "newOwner",
          "type": "address"
        }
      ],
      "name": "OwnershipTransferred",
      "type": "event"
    },
    {
      "inputs": [
        {
          "internalType": "uint256",
          "name": "bonus",
          "type": "uint256"
        },
        {
          "internalType": "address",
          "name": "taker",
          "type": "address"
        },
        {
          "internalType": "address[]",
          "name": "certificates",
          "type": "address[]"
        },
        {
          "internalType": "uint256[][]",
          "name": "skills",
          "type": "uint256[][]"
        },
        {
          "internalType": "uint8",
          "name": "difficulty",
          "type": "uint8"
        }
      ],
      "name": "addJob",
      "outputs": [
        {
          "internalType": "bool",
          "name": "",
          "type": "bool"
        }
      ],
      "stateMutability": "nonpayable",
      "type": "function"
    },
    {
      "inputs": [
        {
          "internalType": "uint256",
          "name": "id",
          "type": "uint256"
        }
      ],
      "name": "cancel",
      "outputs": [
        {
          "internalType": "bool",
          "name": "",
          "type": "bool"
        }
      ],
      "stateMutability": "nonpayable",
      "type": "function"
    },
    {
      "inputs": [
        {
          "internalType": "uint256",
          "name": "id",
          "type": "uint256"
        }
      ],
      "name": "complete",
      "outputs": [
        {
          "internalType": "bool",
          "name": "",
          "type": "bool"
        }
      ],
      "stateMutability": "nonpayable",
      "type": "function"
    },
    {
      "inputs": [],
      "name": "deguildCoin",
      "outputs": [
        {
          "internalType": "address",
          "name": "",
          "type": "address"
        }
      ],
      "stateMutability": "view",
      "type": "function"
    },
    {
      "inputs": [
        {
          "internalType": "uint256",
          "name": "id",
          "type": "uint256"
        }
      ],
      "name": "forceCancel",
      "outputs": [
        {
          "internalType": "bool",
          "name": "",
          "type": "bool"
        }
      ],
      "stateMutability": "nonpayable",
      "type": "function"
    },
    {
      "inputs": [
        {
          "internalType": "uint256",
          "name": "jobId",
          "type": "uint256"
        },
        {
          "internalType": "address",
          "name": "taker",
          "type": "address"
        }
      ],
      "name": "isQualified",
      "outputs": [
        {
          "internalType": "bool",
          "name": "",
          "type": "bool"
        }
      ],
      "stateMutability": "view",
      "type": "function"
    },
    {
      "inputs": [
        {
          "internalType": "uint256",
          "name": "jobId",
          "type": "uint256"
        }
      ],
      "name": "jobInfo",
      "outputs": [
        {
          "internalType": "uint256",
          "name": "",
          "type": "uint256"
        },
        {
          "internalType": "address",
          "name": "",
          "type": "address"
        },
        {
          "internalType": "address",
          "name": "",
          "type": "address"
        },
        {
          "internalType": "address[]",
          "name": "",
          "type": "address[]"
        },
        {
          "internalType": "uint256[][]",
          "name": "",
          "type": "uint256[][]"
        },
        {
          "internalType": "uint8",
          "name": "",
          "type": "uint8"
        },
        {
          "internalType": "uint8",
          "name": "",
          "type": "uint8"
        }
      ],
      "stateMutability": "view",
      "type": "function"
    },
    {
      "inputs": [
        {
          "internalType": "address",
          "name": "account",
          "type": "address"
        }
      ],
      "name": "jobOf",
      "outputs": [
        {
          "internalType": "uint256",
          "name": "",
          "type": "uint256"
        }
      ],
      "stateMutability": "view",
      "type": "function"
    },
    {
      "inputs": [
        {
          "internalType": "uint256",
          "name": "jobId",
          "type": "uint256"
        }
      ],
      "name": "jobURI",
      "outputs": [
        {
          "internalType": "string",
          "name": "",
          "type": "string"
        }
      ],
      "stateMutability": "view",
      "type": "function"
    },
    {
      "inputs": [],
      "name": "jobsCount",
      "outputs": [
        {
          "internalType": "uint256",
          "name": "",
          "type": "uint256"
        }
      ],
      "stateMutability": "view",
      "type": "function"
    },
    {
      "inputs": [
        {
          "internalType": "uint256",
          "name": "id",
          "type": "uint256"
        },
        {
          "internalType": "bool",
          "name": "decision",
          "type": "bool"
        }
      ],
      "name": "judge",
      "outputs": [
        {
          "internalType": "bool",
          "name": "",
          "type": "bool"
        }
      ],
      "stateMutability": "nonpayable",
      "type": "function"
    },
    {
      "inputs": [],
      "name": "name",
      "outputs": [
        {
          "internalType": "string",
          "name": "",
          "type": "string"
        }
      ],
      "stateMutability": "view",
      "type": "function"
    },
    {
      "inputs": [],
      "name": "owner",
      "outputs": [
        {
          "internalType": "address",
          "name": "",
          "type": "address"
        }
      ],
      "stateMutability": "view",
      "type": "function"
    },
    {
      "inputs": [
        {
          "internalType": "uint256",
          "name": "jobId",
          "type": "uint256"
        }
      ],
      "name": "ownersOf",
      "outputs": [
        {
          "internalType": "address",
          "name": "",
          "type": "address"
        },
        {
          "internalType": "address",
          "name": "",
          "type": "address"
        }
      ],
      "stateMutability": "view",
      "type": "function"
    },
    {
      "inputs": [],
      "name": "renounceOwnership",
      "outputs": [],
      "stateMutability": "nonpayable",
      "type": "function"
    },
    {
      "inputs": [
        {
          "internalType": "uint256",
          "name": "id",
          "type": "uint256"
        }
      ],
      "name": "report",
      "outputs": [
        {
          "internalType": "bool",
          "name": "",
          "type": "bool"
        }
      ],
      "stateMutability": "nonpayable",
      "type": "function"
    },
    {
      "inputs": [],
      "name": "symbol",
      "outputs": [
        {
          "internalType": "string",
          "name": "",
          "type": "string"
        }
      ],
      "stateMutability": "view",
      "type": "function"
    },
    {
      "inputs": [
        {
          "internalType": "uint256",
          "name": "id",
          "type": "uint256"
        }
      ],
      "name": "take",
      "outputs": [
        {
          "internalType": "bool",
          "name": "",
          "type": "bool"
        }
      ],
      "stateMutability": "nonpayable",
      "type": "function"
    },
    {
      "inputs": [
        {
          "internalType": "address",
          "name": "newOwner",
          "type": "address"
        }
      ],
      "name": "transferOwnership",
      "outputs": [],
      "stateMutability": "nonpayable",
      "type": "function"
    },
    {
      "inputs": [
        {
          "internalType": "address[]",
          "name": "certificates",
          "type": "address[]"
        },
        {
          "internalType": "uint256[][]",
          "name": "skills",
          "type": "uint256[][]"
        }
      ],
      "name": "verifySkills",
      "outputs": [
        {
          "internalType": "bool",
          "name": "",
          "type": "bool"
        }
      ],
      "stateMutability": "view",
      "type": "function"
    }
  ],
  "bytecode": "0x60806040526040518060200160405280600181525060096000820151816000015550503480156200002f57600080fd5b5060405162005f7538038062005f75833981810160405281019062000055919062000351565b62000075620000696200014c60201b60201c565b6200015460201b60201c565b83600690805190602001906200008d92919062000218565b508260079080519060200190620000a692919062000218565b5080600560006101000a81548173ffffffffffffffffffffffffffffffffffffffff021916908373ffffffffffffffffffffffffffffffffffffffff16021790555081600890805190602001906200010092919062000218565b5080600a60006101000a81548173ffffffffffffffffffffffffffffffffffffffff021916908373ffffffffffffffffffffffffffffffffffffffff16021790555050505050620005c6565b600033905090565b60008060009054906101000a900473ffffffffffffffffffffffffffffffffffffffff169050816000806101000a81548173ffffffffffffffffffffffffffffffffffffffff021916908373ffffffffffffffffffffffffffffffffffffffff1602179055508173ffffffffffffffffffffffffffffffffffffffff168173ffffffffffffffffffffffffffffffffffffffff167f8be0079c531659141344cd1fd0a4f28419497f9722a3daafe3b4186f6b6457e060405160405180910390a35050565b8280546200022690620004d1565b90600052602060002090601f0160209004810192826200024a576000855562000296565b82601f106200026557805160ff191683800117855562000296565b8280016001018555821562000296579182015b828111156200029557825182559160200191906001019062000278565b5b509050620002a59190620002a9565b5090565b5b80821115620002c4576000816000905550600101620002aa565b5090565b6000620002df620002d98462000431565b62000408565b905082815260208101848484011115620002f857600080fd5b620003058482856200049b565b509392505050565b6000815190506200031e81620005ac565b92915050565b600082601f8301126200033657600080fd5b815162000348848260208601620002c8565b91505092915050565b600080600080608085870312156200036857600080fd5b600085015167ffffffffffffffff8111156200038357600080fd5b620003918782880162000324565b945050602085015167ffffffffffffffff811115620003af57600080fd5b620003bd8782880162000324565b935050604085015167ffffffffffffffff811115620003db57600080fd5b620003e98782880162000324565b9250506060620003fc878288016200030d565b91505092959194509250565b60006200041462000427565b905062000422828262000507565b919050565b6000604051905090565b600067ffffffffffffffff8211156200044f576200044e6200056c565b5b6200045a826200059b565b9050602081019050919050565b600062000474826200047b565b9050919050565b600073ffffffffffffffffffffffffffffffffffffffff82169050919050565b60005b83811015620004bb5780820151818401526020810190506200049e565b83811115620004cb576000848401525b50505050565b60006002820490506001821680620004ea57607f821691505b602082108114156200050157620005006200053d565b5b50919050565b62000512826200059b565b810181811067ffffffffffffffff821117156200053457620005336200056c565b5b80604052505050565b7f4e487b7100000000000000000000000000000000000000000000000000000000600052602260045260246000fd5b7f4e487b7100000000000000000000000000000000000000000000000000000000600052604160045260246000fd5b6000601f19601f8301169050919050565b620005b78162000467565b8114620005c357600080fd5b50565b61599f80620005d66000396000f3fe608060405234801561001057600080fd5b506004361061012c5760003560e01c80637ae681a5116100ad578063a584ab2911610071578063a584ab2914610399578063d5fbcf42146103ca578063f2fde38b146103e8578063f438f01914610404578063f9fa7e8f146104345761012c565b80637ae681a5146102cd5780638da5cb5b146102fd57806395d89b411461031b578063969b1cdb14610339578063971d852f146103695761012c565b80634fbefc6e116100f45780634fbefc6e1461020f5780634fd9efc41461022d5780635ce5ee691461025d578063715018a6146102935780637a2687a41461029d5761012c565b806306fdde03146101315780632dab557b1461014f57806340e58ee51461017f57806341a08aaf146101af57806343de3352146101df575b600080fd5b610139610464565b604051610146919061464a565b60405180910390f35b61016960048036038101906101649190613bc2565b6104f6565b6040516101769190614a0c565b60405180910390f35b61019960048036038101906101949190613cc1565b61053f565b6040516101a69190614614565b60405180910390f35b6101c960048036038101906101c49190613df6565b610860565b6040516101d69190614614565b60405180910390f35b6101f960048036038101906101f49190613d13565b610e33565b6040516102069190614614565b60405180910390f35b6102176111bc565b6040516102249190614570565b60405180910390f35b61024760048036038101906102429190613cc1565b6111e6565b6040516102549190614614565b60405180910390f35b61027760048036038101906102729190613cc1565b6116f0565b60405161028a9796959493929190614a27565b60405180910390f35b61029b6119db565b005b6102b760048036038101906102b29190613cc1565b611a63565b6040516102c4919061464a565b60405180910390f35b6102e760048036038101906102e29190613d4f565b611bed565b6040516102f49190614614565b60405180910390f35b61030561215e565b6040516103129190614570565b60405180910390f35b610323612187565b604051610330919061464a565b60405180910390f35b610353600480360381019061034e9190613cc1565b612219565b6040516103609190614614565b60405180910390f35b610383600480360381019061037e9190613cc1565b612450565b6040516103909190614614565b60405180910390f35b6103b360048036038101906103ae9190613cc1565b612970565b6040516103c192919061458b565b60405180910390f35b6103d2612a32565b6040516103df9190614a0c565b60405180910390f35b61040260048036038101906103fd9190613bc2565b612a4f565b005b61041e60048036038101906104199190613cc1565b612b47565b60405161042b9190614614565b60405180910390f35b61044e60048036038101906104499190613beb565b612ee8565b60405161045b9190614614565b60405180910390f35b60606006805461047390614dd5565b80601f016020809104026020016040519081016040528092919081815260200182805461049f90614dd5565b80156104ec5780601f106104c1576101008083540402835291602001916104ec565b820191906000526020600020905b8154815290600101906020018083116104cf57829003601f168201915b5050505050905090565b6000600260008373ffffffffffffffffffffffffffffffffffffffff1673ffffffffffffffffffffffffffffffffffffffff168152602001908152602001600020549050919050565b600061054a8261322f565b610589576040517f08c379a0000000000000000000000000000000000000000000000000000000008152600401610580906148cc565b60405180910390fd5b61059161329b565b73ffffffffffffffffffffffffffffffffffffffff166004600084815260200190815260200160002060010160009054906101000a900473ffffffffffffffffffffffffffffffffffffffff1673ffffffffffffffffffffffffffffffffffffffff1614610634576040517f08c379a000000000000000000000000000000000000000000000000000000000815260040161062b906148ac565b60405180910390fd5b60016004600084815260200190815260200160002060050160009054906101000a900460ff1660ff161461069d576040517f08c379a00000000000000000000000000000000000000000000000000000000081526004016106949061490c565b60405180910390fd5b600a60009054906101000a900473ffffffffffffffffffffffffffffffffffffffff1673ffffffffffffffffffffffffffffffffffffffff1663a9059cbb6001600085815260200190815260200160002060009054906101000a900473ffffffffffffffffffffffffffffffffffffffff1660046000868152602001908152602001600020600001546040518363ffffffff1660e01b81526004016107439291906145eb565b602060405180830381600087803b15801561075d57600080fd5b505af1158015610771573d6000803e3d6000fd5b505050506040513d601f19601f820116820180604052508101906107959190613c57565b6107d4576040517f08c379a00000000000000000000000000000000000000000000000000000000081526004016107cb9061476c565b60405180910390fd5b60636004600084815260200190815260200160002060050160006101000a81548160ff021916908360ff16021790555060006001600084815260200190815260200160002060006101000a81548173ffffffffffffffffffffffffffffffffffffffff021916908373ffffffffffffffffffffffffffffffffffffffff16021790555060019050919050565b600061086a61329b565b73ffffffffffffffffffffffffffffffffffffffff1661088861215e565b73ffffffffffffffffffffffffffffffffffffffff16146108de576040517f08c379a00000000000000000000000000000000000000000000000000000000081526004016108d59061486c565b60405180910390fd5b6108e78361322f565b610926576040517f08c379a000000000000000000000000000000000000000000000000000000000815260040161091d906148cc565b60405180910390fd5b60006004600085815260200190815260200160002060050160009054906101000a900460ff1660ff161461098f576040517f08c379a00000000000000000000000000000000000000000000000000000000081526004016109869061484c565b60405180910390fd5b6000808315610a0f576004600086815260200190815260200160002060010160009054906101000a900473ffffffffffffffffffffffffffffffffffffffff1691506004600086815260200190815260200160002060020160009054906101000a900473ffffffffffffffffffffffffffffffffffffffff169050610a82565b6004600086815260200190815260200160002060020160009054906101000a900473ffffffffffffffffffffffffffffffffffffffff1691506004600086815260200190815260200160002060010160009054906101000a900473ffffffffffffffffffffffffffffffffffffffff1690505b6000600a6004600088815260200190815260200160002060000154610aa79190614cbc565b9050600a60009054906101000a900473ffffffffffffffffffffffffffffffffffffffff1673ffffffffffffffffffffffffffffffffffffffff1663a9059cbb610aef61215e565b836040518363ffffffff1660e01b8152600401610b0d9291906145eb565b602060405180830381600087803b158015610b2757600080fd5b505af1158015610b3b573d6000803e3d6000fd5b505050506040513d601f19601f82011682018060405250810190610b5f9190613c57565b610b9e576040517f08c379a0000000000000000000000000000000000000000000000000000000008152600401610b959061478c565b60405180910390fd5b806004600088815260200190815260200160002060000154036004600088815260200190815260200160002060000181905550600a60009054906101000a900473ffffffffffffffffffffffffffffffffffffffff1673ffffffffffffffffffffffffffffffffffffffff1663a9059cbb84600460008a8152602001908152602001600020600001546040518363ffffffff1660e01b8152600401610c449291906145eb565b602060405180830381600087803b158015610c5e57600080fd5b505af1158015610c72573d6000803e3d6000fd5b505050506040513d601f19601f82011682018060405250810190610c969190613c57565b610cd5576040517f08c379a0000000000000000000000000000000000000000000000000000000008152600401610ccc906146cc565b60405180910390fd5b6001600360008473ffffffffffffffffffffffffffffffffffffffff1673ffffffffffffffffffffffffffffffffffffffff16815260200190815260200160002060006101000a81548160ff02191690831515021790555060036004600088815260200190815260200160002060050160006101000a81548160ff021916908360ff160217905550600060026000600460008a815260200190815260200160002060020160009054906101000a900473ffffffffffffffffffffffffffffffffffffffff1673ffffffffffffffffffffffffffffffffffffffff1673ffffffffffffffffffffffffffffffffffffffff168152602001908152602001600020819055508173ffffffffffffffffffffffffffffffffffffffff167f3153f56b4c6b1e149a1bd8d73fdb7d149a7a8f073dd0a5581f623122b45250ff87604051610e1e9190614a0c565b60405180910390a26001935050505092915050565b6000610e3e8361322f565b610e7d576040517f08c379a0000000000000000000000000000000000000000000000000000000008152600401610e74906149cc565b60405180910390fd5b600060046000858152602001908152602001600020600301805480602002602001604051908101604052809291908181526020018280548015610f1557602002820191906000526020600020905b8160009054906101000a900473ffffffffffffffffffffffffffffffffffffffff1673ffffffffffffffffffffffffffffffffffffffff1681526020019060010190808311610ecb575b50505050509050600060046000868152602001908152602001600020600401805480602002602001604051908101604052809291908181526020016000905b82821015610fc657838290600052602060002001805480602002602001604051908101604052809291908181526020018280548015610fb257602002820191906000526020600020905b815481526020019060010190808311610f9e575b505050505081526020019060010190610f54565b50505050905060005b82518110156111ae576000838281518110611013577f4e487b7100000000000000000000000000000000000000000000000000000000600052603260045260246000fd5b6020026020010151905060005b838381518110611059577f4e487b7100000000000000000000000000000000000000000000000000000000600052603260045260246000fd5b602002602001015151811015611199578173ffffffffffffffffffffffffffffffffffffffff16636704fe9f888686815181106110bf577f4e487b7100000000000000000000000000000000000000000000000000000000600052603260045260246000fd5b602002602001015184815181106110ff577f4e487b7100000000000000000000000000000000000000000000000000000000600052603260045260246000fd5b60200260200101516040518363ffffffff1660e01b81526004016111249291906145eb565b60206040518083038186803b15801561113c57600080fd5b505afa158015611150573d6000803e3d6000fd5b505050506040513d601f19601f820116820180604052508101906111749190613c57565b611186576000955050505050506111b6565b808061119190614e38565b915050611020565b505080806111a690614e38565b915050610fcf565b506001925050505b92915050565b6000600560009054906101000a900473ffffffffffffffffffffffffffffffffffffffff16905090565b6000600360006111f461329b565b73ffffffffffffffffffffffffffffffffffffffff1673ffffffffffffffffffffffffffffffffffffffff16815260200190815260200160002060009054906101000a900460ff161561127c576040517f08c379a00000000000000000000000000000000000000000000000000000000081526004016112739061498c565b60405180910390fd5b6112858261322f565b6112c4576040517f08c379a00000000000000000000000000000000000000000000000000000000081526004016112bb906148cc565b60405180910390fd5b6004600083815260200190815260200160002060010160009054906101000a900473ffffffffffffffffffffffffffffffffffffffff1673ffffffffffffffffffffffffffffffffffffffff1661131961329b565b73ffffffffffffffffffffffffffffffffffffffff161415611370576040517f08c379a00000000000000000000000000000000000000000000000000000000081526004016113679061488c565b60405180910390fd5b6113818261137c61329b565b610e33565b6113c0576040517f08c379a00000000000000000000000000000000000000000000000000000000081526004016113b7906147ec565b60405180910390fd5b6000600260006113ce61329b565b73ffffffffffffffffffffffffffffffffffffffff1673ffffffffffffffffffffffffffffffffffffffff1681526020019081526020016000205414611449576040517f08c379a0000000000000000000000000000000000000000000000000000000008152600401611440906149ac565b60405180910390fd5b60016004600084815260200190815260200160002060050160009054906101000a900460ff1660ff16146114b2576040517f08c379a00000000000000000000000000000000000000000000000000000000081526004016114a99061466c565b60405180910390fd5b6004600083815260200190815260200160002060050160029054906101000a900460ff161561158b576114e361329b565b73ffffffffffffffffffffffffffffffffffffffff166004600084815260200190815260200160002060020160009054906101000a900473ffffffffffffffffffffffffffffffffffffffff1673ffffffffffffffffffffffffffffffffffffffff1614611586576040517f08c379a000000000000000000000000000000000000000000000000000000000815260040161157d9061472c565b60405180910390fd5b6115e8565b61159361329b565b6004600084815260200190815260200160002060020160006101000a81548173ffffffffffffffffffffffffffffffffffffffff021916908373ffffffffffffffffffffffffffffffffffffffff1602179055505b81600260006115f561329b565b73ffffffffffffffffffffffffffffffffffffffff1673ffffffffffffffffffffffffffffffffffffffff1681526020019081526020016000208190555060026004600084815260200190815260200160002060050160006101000a81548160ff021916908360ff1602179055506004600083815260200190815260200160002060020160009054906101000a900473ffffffffffffffffffffffffffffffffffffffff1673ffffffffffffffffffffffffffffffffffffffff167f63d05f037a34bfd9732c85be51fc52a421f621694ced20c350480d44d6a3b3fa836040516116df9190614a0c565b60405180910390a260019050919050565b60008060006060806000806117048861322f565b611743576040517f08c379a000000000000000000000000000000000000000000000000000000000815260040161173a906149cc565b60405180910390fd5b6000600460008a815260200190815260200160002060405180610100016040529081600082015481526020016001820160009054906101000a900473ffffffffffffffffffffffffffffffffffffffff1673ffffffffffffffffffffffffffffffffffffffff1673ffffffffffffffffffffffffffffffffffffffff1681526020016002820160009054906101000a900473ffffffffffffffffffffffffffffffffffffffff1673ffffffffffffffffffffffffffffffffffffffff1673ffffffffffffffffffffffffffffffffffffffff1681526020016003820180548060200260200160405190810160405280929190818152602001828054801561189f57602002820191906000526020600020905b8160009054906101000a900473ffffffffffffffffffffffffffffffffffffffff1673ffffffffffffffffffffffffffffffffffffffff1681526020019060010190808311611855575b5050505050815260200160048201805480602002602001604051908101604052809291908181526020016000905b8282101561193f5783829060005260206000200180548060200260200160405190810160405280929190818152602001828054801561192b57602002820191906000526020600020905b815481526020019060010190808311611917575b5050505050815260200190600101906118cd565b5050505081526020016005820160009054906101000a900460ff1660ff1660ff1681526020016005820160019054906101000a900460ff1660ff1660ff1681526020016005820160029054906101000a900460ff1615151515815250509050806000015181602001518260400151836060015184608001518560a001518660c00151975097509750975097509750975050919395979092949650565b6119e361329b565b73ffffffffffffffffffffffffffffffffffffffff16611a0161215e565b73ffffffffffffffffffffffffffffffffffffffff1614611a57576040517f08c379a0000000000000000000000000000000000000000000000000000000008152600401611a4e9061486c565b60405180910390fd5b611a6160006132a3565b565b6060611a6e8261322f565b611aad576040517f08c379a0000000000000000000000000000000000000000000000000000000008152600401611aa49061482c565b60405180910390fd5b6000611ab7613367565b90506000815111611ad75760405180602001604052806000815250611be5565b803073ffffffffffffffffffffffffffffffffffffffff1673__$124e1a4c5367a62965a30c61a01a42cb5d$__637cd6f8ff90916040518263ffffffff1660e01b8152600401611b279190614555565b60006040518083038186803b158015611b3f57600080fd5b505af4158015611b53573d6000803e3d6000fd5b505050506040513d6000823e3d601f19601f82011682018060405250810190611b7c9190613c80565b604051602001611b8d92919061450f565b604051602081830303815290604052611ba5846133f9565b604051602001611bb59190614533565b604051602081830303815290604052604051602001611bd59291906144eb565b6040516020818303038152906040525b915050919050565b600060036000611bfb61329b565b73ffffffffffffffffffffffffffffffffffffffff1673ffffffffffffffffffffffffffffffffffffffff16815260200190815260200160002060009054906101000a900460ff1615611c83576040517f08c379a0000000000000000000000000000000000000000000000000000000008152600401611c7a9061498c565b60405180910390fd5b8473ffffffffffffffffffffffffffffffffffffffff16611ca261329b565b73ffffffffffffffffffffffffffffffffffffffff161415611cf9576040517f08c379a0000000000000000000000000000000000000000000000000000000008152600401611cf09061474c565b60405180910390fd5b611d038484612ee8565b611d42576040517f08c379a0000000000000000000000000000000000000000000000000000000008152600401611d39906149ec565b60405180910390fd5b6000670de0b6b3a76400008760648560ff168660ff16020201029050600a60009054906101000a900473ffffffffffffffffffffffffffffffffffffffff1673ffffffffffffffffffffffffffffffffffffffff166323b872dd611da461329b565b30846040518463ffffffff1660e01b8152600401611dc4939291906145b4565b602060405180830381600087803b158015611dde57600080fd5b505af1158015611df2573d6000803e3d6000fd5b505050506040513d601f19601f82011682018060405250810190611e169190613c57565b611e55576040517f08c379a0000000000000000000000000000000000000000000000000000000008152600401611e4c906146cc565b60405180910390fd5b604051806101000160405280828152602001611e6f61329b565b73ffffffffffffffffffffffffffffffffffffffff1681526020018773ffffffffffffffffffffffffffffffffffffffff168152602001868152602001858152602001600160ff1681526020018460ff168152602001600073ffffffffffffffffffffffffffffffffffffffff168873ffffffffffffffffffffffffffffffffffffffff161415151581525060046000611f0960096135a6565b81526020019081526020016000206000820151816000015560208201518160010160006101000a81548173ffffffffffffffffffffffffffffffffffffffff021916908373ffffffffffffffffffffffffffffffffffffffff16021790555060408201518160020160006101000a81548173ffffffffffffffffffffffffffffffffffffffff021916908373ffffffffffffffffffffffffffffffffffffffff1602179055506060820151816003019080519060200190611fcb929190613767565b506080820151816004019080519060200190611fe89291906137f1565b5060a08201518160050160006101000a81548160ff021916908360ff16021790555060c08201518160050160016101000a81548160ff021916908360ff16021790555060e08201518160050160026101000a81548160ff02191690831515021790555090505061205661329b565b6001600061206460096135a6565b815260200190815260200160002060006101000a81548173ffffffffffffffffffffffffffffffffffffffff021916908373ffffffffffffffffffffffffffffffffffffffff160217905550600460006120be60096135a6565b815260200190815260200160002060010160009054906101000a900473ffffffffffffffffffffffffffffffffffffffff1673ffffffffffffffffffffffffffffffffffffffff167f327cf9892362c183c2af9b498e32bc51574d160377970d6d50080a3e8482e41361213160096135a6565b60405161213e9190614a0c565b60405180910390a261215060096135b4565b600191505095945050505050565b60008060009054906101000a900473ffffffffffffffffffffffffffffffffffffffff16905090565b60606007805461219690614dd5565b80601f01602080910402602001604051908101604052809291908181526020018280546121c290614dd5565b801561220f5780601f106121e45761010080835404028352916020019161220f565b820191906000526020600020905b8154815290600101906020018083116121f257829003601f168201915b5050505050905090565b60006122248261322f565b612263576040517f08c379a000000000000000000000000000000000000000000000000000000000815260040161225a906148cc565b60405180910390fd5b60026004600084815260200190815260200160002060050160009054906101000a900460ff1660ff16146122cc576040517f08c379a00000000000000000000000000000000000000000000000000000000081526004016122c39061468c565b60405180910390fd5b6122d461329b565b73ffffffffffffffffffffffffffffffffffffffff166004600084815260200190815260200160002060010160009054906101000a900473ffffffffffffffffffffffffffffffffffffffff1673ffffffffffffffffffffffffffffffffffffffff1614806123ab575061234661329b565b73ffffffffffffffffffffffffffffffffffffffff166004600084815260200190815260200160002060020160009054906101000a900473ffffffffffffffffffffffffffffffffffffffff1673ffffffffffffffffffffffffffffffffffffffff16145b6123ea576040517f08c379a00000000000000000000000000000000000000000000000000000000081526004016123e19061480c565b60405180910390fd5b60006004600084815260200190815260200160002060050160006101000a81548160ff021916908360ff160217905550817ffb1aa198fcd90bf08aa0f027f902f0d28476e1d21d434cd858d37c1c8041b99060405160405180910390a260019050919050565b600061245b8261322f565b61249a576040517f08c379a0000000000000000000000000000000000000000000000000000000008152600401612491906148cc565b60405180910390fd5b60026004600084815260200190815260200160002060050160009054906101000a900460ff1660ff1614612503576040517f08c379a00000000000000000000000000000000000000000000000000000000081526004016124fa906147cc565b60405180910390fd5b61250b61329b565b73ffffffffffffffffffffffffffffffffffffffff166004600084815260200190815260200160002060010160009054906101000a900473ffffffffffffffffffffffffffffffffffffffff1673ffffffffffffffffffffffffffffffffffffffff16146125ae576040517f08c379a00000000000000000000000000000000000000000000000000000000081526004016125a59061492c565b60405180910390fd5b6000603260046000858152602001908152602001600020600001546125d39190614cbc565b9050600a60009054906101000a900473ffffffffffffffffffffffffffffffffffffffff1673ffffffffffffffffffffffffffffffffffffffff1663a9059cbb61261b61215e565b836040518363ffffffff1660e01b81526004016126399291906145eb565b602060405180830381600087803b15801561265357600080fd5b505af1158015612667573d6000803e3d6000fd5b505050506040513d601f19601f8201168201806040525081019061268b9190613c57565b6126ca576040517f08c379a00000000000000000000000000000000000000000000000000000000081526004016126c1906146cc565b60405180910390fd5b806004600085815260200190815260200160002060000154036004600085815260200190815260200160002060000181905550600a60009054906101000a900473ffffffffffffffffffffffffffffffffffffffff1673ffffffffffffffffffffffffffffffffffffffff1663a9059cbb6004600086815260200190815260200160002060020160009054906101000a900473ffffffffffffffffffffffffffffffffffffffff1660046000878152602001908152602001600020600001546040518363ffffffff1660e01b81526004016127a69291906145eb565b602060405180830381600087803b1580156127c057600080fd5b505af11580156127d4573d6000803e3d6000fd5b505050506040513d601f19601f820116820180604052508101906127f89190613c57565b612837576040517f08c379a000000000000000000000000000000000000000000000000000000000815260040161282e9061494c565b60405180910390fd5b60036004600085815260200190815260200160002060050160006101000a81548160ff021916908360ff1602179055506000600260006004600087815260200190815260200160002060020160009054906101000a900473ffffffffffffffffffffffffffffffffffffffff1673ffffffffffffffffffffffffffffffffffffffff1673ffffffffffffffffffffffffffffffffffffffff168152602001908152602001600020819055506004600084815260200190815260200160002060020160009054906101000a900473ffffffffffffffffffffffffffffffffffffffff1673ffffffffffffffffffffffffffffffffffffffff167f16a7286196330eaff0c7db2ec34ead9c6d2d023b356b62ee7ea644c842a84b678460405161295e9190614a0c565b60405180910390a26001915050919050565b60008061297c8361322f565b6129bb576040517f08c379a00000000000000000000000000000000000000000000000000000000081526004016129b2906149cc565b60405180910390fd5b6004600084815260200190815260200160002060010160009054906101000a900473ffffffffffffffffffffffffffffffffffffffff166004600085815260200190815260200160002060020160009054906101000a900473ffffffffffffffffffffffffffffffffffffffff1691509150915091565b60006001612a4060096135a6565b612a4a9190614ced565b905090565b612a5761329b565b73ffffffffffffffffffffffffffffffffffffffff16612a7561215e565b73ffffffffffffffffffffffffffffffffffffffff1614612acb576040517f08c379a0000000000000000000000000000000000000000000000000000000008152600401612ac29061486c565b60405180910390fd5b600073ffffffffffffffffffffffffffffffffffffffff168173ffffffffffffffffffffffffffffffffffffffff161415612b3b576040517f08c379a0000000000000000000000000000000000000000000000000000000008152600401612b32906146ec565b60405180910390fd5b612b44816132a3565b50565b6000612b5161329b565b73ffffffffffffffffffffffffffffffffffffffff16612b6f61215e565b73ffffffffffffffffffffffffffffffffffffffff1614612bc5576040517f08c379a0000000000000000000000000000000000000000000000000000000008152600401612bbc9061486c565b60405180910390fd5b612bce8261322f565b612c0d576040517f08c379a0000000000000000000000000000000000000000000000000000000008152600401612c04906148cc565b60405180910390fd5b60636004600084815260200190815260200160002060050160009054906101000a900460ff1660ff1614158015612c6b575060036004600084815260200190815260200160002060050160009054906101000a900460ff1660ff1614155b612caa576040517f08c379a0000000000000000000000000000000000000000000000000000000008152600401612ca1906148ec565b60405180910390fd5b600a60009054906101000a900473ffffffffffffffffffffffffffffffffffffffff1673ffffffffffffffffffffffffffffffffffffffff1663a9059cbb6001600085815260200190815260200160002060009054906101000a900473ffffffffffffffffffffffffffffffffffffffff1660046000868152602001908152602001600020600001546040518363ffffffff1660e01b8152600401612d509291906145eb565b602060405180830381600087803b158015612d6a57600080fd5b505af1158015612d7e573d6000803e3d6000fd5b505050506040513d601f19601f82011682018060405250810190612da29190613c57565b612de1576040517f08c379a0000000000000000000000000000000000000000000000000000000008152600401612dd89061470c565b60405180910390fd5b60636004600084815260200190815260200160002060050160006101000a81548160ff021916908360ff1602179055506000600260006004600086815260200190815260200160002060020160009054906101000a900473ffffffffffffffffffffffffffffffffffffffff1673ffffffffffffffffffffffffffffffffffffffff1673ffffffffffffffffffffffffffffffffffffffff1681526020019081526020016000208190555060006001600084815260200190815260200160002060006101000a81548173ffffffffffffffffffffffffffffffffffffffff021916908373ffffffffffffffffffffffffffffffffffffffff16021790555060019050919050565b6000601e835110612f2e576040517f08c379a0000000000000000000000000000000000000000000000000000000008152600401612f25906147ac565b60405180910390fd5b8251825114612f72576040517f08c379a0000000000000000000000000000000000000000000000000000000008152600401612f69906146ac565b60405180910390fd5b60005b8351811015613223576000848281518110612fb9577f4e487b7100000000000000000000000000000000000000000000000000000000600052603260045260246000fd5b6020026020010151905061300c7fa6996df8000000000000000000000000000000000000000000000000000000008273ffffffffffffffffffffffffffffffffffffffff166135ca90919063ffffffff16565b61301b57600092505050613229565b6014848381518110613056577f4e487b7100000000000000000000000000000000000000000000000000000000600052603260045260246000fd5b6020026020010151511061309f576040517f08c379a00000000000000000000000000000000000000000000000000000000081526004016130969061496c565b60405180910390fd5b60005b8483815181106130db577f4e487b7100000000000000000000000000000000000000000000000000000000600052603260045260246000fd5b60200260200101515181101561320e578173ffffffffffffffffffffffffffffffffffffffff166365d604496040518163ffffffff1660e01b815260040160206040518083038186803b15801561313157600080fd5b505afa158015613145573d6000803e3d6000fd5b505050506040513d601f19601f820116820180604052508101906131699190613cea565b8584815181106131a2577f4e487b7100000000000000000000000000000000000000000000000000000000600052603260045260246000fd5b602002602001015182815181106131e2577f4e487b7100000000000000000000000000000000000000000000000000000000600052603260045260246000fd5b6020026020010151106131fb5760009350505050613229565b808061320690614e38565b9150506130a2565b5050808061321b90614e38565b915050612f75565b50600190505b92915050565b60008073ffffffffffffffffffffffffffffffffffffffff166001600084815260200190815260200160002060009054906101000a900473ffffffffffffffffffffffffffffffffffffffff1673ffffffffffffffffffffffffffffffffffffffff1614159050919050565b600033905090565b60008060009054906101000a900473ffffffffffffffffffffffffffffffffffffffff169050816000806101000a81548173ffffffffffffffffffffffffffffffffffffffff021916908373ffffffffffffffffffffffffffffffffffffffff1602179055508173ffffffffffffffffffffffffffffffffffffffff168173ffffffffffffffffffffffffffffffffffffffff167f8be0079c531659141344cd1fd0a4f28419497f9722a3daafe3b4186f6b6457e060405160405180910390a35050565b60606008805461337690614dd5565b80601f01602080910402602001604051908101604052809291908181526020018280546133a290614dd5565b80156133ef5780601f106133c4576101008083540402835291602001916133ef565b820191906000526020600020905b8154815290600101906020018083116133d257829003601f168201915b5050505050905090565b60606000821415613441576040518060400160405280600181526020017f300000000000000000000000000000000000000000000000000000000000000081525090506135a1565b600082905060005b6000821461347357808061345c90614e38565b915050600a8261346c9190614cbc565b9150613449565b60008167ffffffffffffffff8111156134b5577f4e487b7100000000000000000000000000000000000000000000000000000000600052604160045260246000fd5b6040519080825280601f01601f1916602001820160405280156134e75781602001600182028036833780820191505090505b5090505b6000851461359a576001826135009190614ced565b9150600a8561350f9190614e81565b603061351b9190614c66565b60f81b818381518110613557577f4e487b7100000000000000000000000000000000000000000000000000000000600052603260045260246000fd5b60200101907effffffffffffffffffffffffffffffffffffffffffffffffffffffffffffff1916908160001a905350600a856135939190614cbc565b94506134eb565b8093505050505b919050565b600081600001549050919050565b6001816000016000828254019250508190555050565b60006135d5836135ef565b80156135e757506135e6838361363c565b5b905092915050565b600061361b827f01ffc9a70000000000000000000000000000000000000000000000000000000061363c565b801561363557506136338263ffffffff60e01b61363c565b155b9050919050565b6000806301ffc9a760e01b83604051602401613658919061462f565b604051602081830303815290604052907bffffffffffffffffffffffffffffffffffffffffffffffffffffffff19166020820180517bffffffffffffffffffffffffffffffffffffffffffffffffffffffff838183161783525050505090506000808573ffffffffffffffffffffffffffffffffffffffff16617530846040516136e291906144d4565b6000604051808303818686fa925050503d806000811461371e576040519150601f19603f3d011682016040523d82523d6000602084013e613723565b606091505b509150915060208151101561373e5760009350505050613761565b81801561375b57508080602001905181019061375a9190613c57565b5b93505050505b92915050565b8280548282559060005260206000209081019282156137e0579160200282015b828111156137df5782518260006101000a81548173ffffffffffffffffffffffffffffffffffffffff021916908373ffffffffffffffffffffffffffffffffffffffff16021790555091602001919060010190613787565b5b5090506137ed9190613851565b5090565b828054828255906000526020600020908101928215613840579160200282015b8281111561383f57825182908051906020019061382f92919061386e565b5091602001919060010190613811565b5b50905061384d91906138bb565b5090565b5b8082111561386a576000816000905550600101613852565b5090565b8280548282559060005260206000209081019282156138aa579160200282015b828111156138a957825182559160200191906001019061388e565b5b5090506138b79190613851565b5090565b5b808211156138db57600081816138d291906138df565b506001016138bc565b5090565b50805460008255906000526020600020908101906138fd9190613851565b50565b600061391361390e84614ac9565b614aa4565b9050808382526020820190508285602086028201111561393257600080fd5b60005b8581101561396257816139488882613a9c565b845260208401935060208301925050600181019050613935565b5050509392505050565b600061397f61397a84614af5565b614aa4565b9050808382526020820190508285602086028201111561399e57600080fd5b60005b858110156139e857813567ffffffffffffffff8111156139c057600080fd5b8086016139cd8982613b05565b855260208501945060208401935050506001810190506139a1565b5050509392505050565b6000613a05613a0084614b21565b614aa4565b90508083825260208201905082856020860282011115613a2457600080fd5b60005b85811015613a545781613a3a8882613b83565b845260208401935060208301925050600181019050613a27565b5050509392505050565b6000613a71613a6c84614b4d565b614aa4565b905082815260208101848484011115613a8957600080fd5b613a94848285614da2565b509392505050565b600081359050613aab8161590d565b92915050565b600082601f830112613ac257600080fd5b8135613ad2848260208601613900565b91505092915050565b600082601f830112613aec57600080fd5b8135613afc84826020860161396c565b91505092915050565b600082601f830112613b1657600080fd5b8135613b268482602086016139f2565b91505092915050565b600081359050613b3e81615924565b92915050565b600081519050613b5381615924565b92915050565b600082601f830112613b6a57600080fd5b8151613b7a848260208601613a5e565b91505092915050565b600081359050613b928161593b565b92915050565b600081519050613ba78161593b565b92915050565b600081359050613bbc81615952565b92915050565b600060208284031215613bd457600080fd5b6000613be284828501613a9c565b91505092915050565b60008060408385031215613bfe57600080fd5b600083013567ffffffffffffffff811115613c1857600080fd5b613c2485828601613ab1565b925050602083013567ffffffffffffffff811115613c4157600080fd5b613c4d85828601613adb565b9150509250929050565b600060208284031215613c6957600080fd5b6000613c7784828501613b44565b91505092915050565b600060208284031215613c9257600080fd5b600082015167ffffffffffffffff811115613cac57600080fd5b613cb884828501613b59565b91505092915050565b600060208284031215613cd357600080fd5b6000613ce184828501613b83565b91505092915050565b600060208284031215613cfc57600080fd5b6000613d0a84828501613b98565b91505092915050565b60008060408385031215613d2657600080fd5b6000613d3485828601613b83565b9250506020613d4585828601613a9c565b9150509250929050565b600080600080600060a08688031215613d6757600080fd5b6000613d7588828901613b83565b9550506020613d8688828901613a9c565b945050604086013567ffffffffffffffff811115613da357600080fd5b613daf88828901613ab1565b935050606086013567ffffffffffffffff811115613dcc57600080fd5b613dd888828901613adb565b9250506080613de988828901613bad565b9150509295509295909350565b60008060408385031215613e0957600080fd5b6000613e1785828601613b83565b9250506020613e2885828601613b2f565b9150509250929050565b6000613e3e8383613e76565b60208301905092915050565b6000613e568383613f76565b905092915050565b6000613e6a83836144a7565b60208301905092915050565b613e7f81614d21565b82525050565b613e8e81614d21565b82525050565b613e9d81614d21565b82525050565b6000613eae82614bae565b613eb88185614c0c565b9350613ec383614b7e565b8060005b83811015613ef4578151613edb8882613e32565b9750613ee683614be5565b925050600181019050613ec7565b5085935050505092915050565b6000613f0c82614bb9565b613f168185614c1d565b935083602082028501613f2885614b8e565b8060005b85811015613f645784840389528151613f458582613e4a565b9450613f5083614bf2565b925060208a01995050600181019050613f2c565b50829750879550505050505092915050565b6000613f8182614bc4565b613f8b8185614c2e565b9350613f9683614b9e565b8060005b83811015613fc7578151613fae8882613e5e565b9750613fb983614bff565b925050600181019050613f9a565b5085935050505092915050565b613fdd81614d33565b82525050565b613fec81614d3f565b82525050565b6000613ffd82614bcf565b6140078185614c3f565b9350614017818560208601614da2565b80840191505092915050565b600061402e82614bda565b6140388185614c4a565b9350614048818560208601614da2565b61405181614f6e565b840191505092915050565b600061406782614bda565b6140718185614c5b565b9350614081818560208601614da2565b80840191505092915050565b600061409a603283614c4a565b91506140a582614f7f565b604082019050919050565b60006140bd603583614c4a565b91506140c882614fce565b604082019050919050565b60006140e0604683614c4a565b91506140eb8261501d565b606082019050919050565b6000614103603083614c4a565b915061410e82615092565b604082019050919050565b6000614126602683614c4a565b9150614131826150e1565b604082019050919050565b6000614149602e83614c4a565b915061415482615130565b604082019050919050565b600061416c603083614c4a565b91506141778261517f565b604082019050919050565b600061418f604183614c4a565b915061419a826151ce565b606082019050919050565b60006141b2601d83614c4a565b91506141bd82615243565b602082019050919050565b60006141d5602d83614c4a565b91506141e08261526c565b604082019050919050565b60006141f8604683614c4a565b9150614203826152bb565b606082019050919050565b600061421b603683614c4a565b915061422682615330565b604082019050919050565b600061423e602583614c4a565b91506142498261537f565b604082019050919050565b6000614261603383614c4a565b915061426c826153ce565b604082019050919050565b6000614284602b83614c4a565b915061428f8261541d565b604082019050919050565b60006142a7603383614c4a565b91506142b28261546c565b604082019050919050565b60006142ca602083614c4a565b91506142d5826154bb565b602082019050919050565b60006142ed602583614c4a565b91506142f8826154e4565b604082019050919050565b6000614310602d83614c4a565b915061431b82615533565b604082019050919050565b6000614333602f83614c4a565b915061433e82615582565b604082019050919050565b6000614356603383614c4a565b9150614361826155d1565b604082019050919050565b6000614379602783614c4a565b915061438482615620565b604082019050919050565b600061439c602f83614c4a565b91506143a78261566f565b604082019050919050565b60006143bf602e83614c4a565b91506143ca826156be565b604082019050919050565b60006143e2604683614c4a565b91506143ed8261570d565b606082019050919050565b6000614405602483614c4a565b915061441082615782565b604082019050919050565b6000614428602883614c4a565b9150614433826157d1565b604082019050919050565b600061444b602d83614c4a565b915061445682615820565b604082019050919050565b600061446e600183614c5b565b91506144798261586f565b600182019050919050565b6000614491604583614c4a565b915061449c82615898565b606082019050919050565b6144b081614d8b565b82525050565b6144bf81614d8b565b82525050565b6144ce81614d95565b82525050565b60006144e08284613ff2565b915081905092915050565b60006144f78285613ff2565b91506145038284613ff2565b91508190509392505050565b600061451b828561405c565b9150614527828461405c565b91508190509392505050565b600061453e82614461565b915061454a828461405c565b915081905092915050565b600060208201905061456a6000830184613e94565b92915050565b60006020820190506145856000830184613e85565b92915050565b60006040820190506145a06000830185613e85565b6145ad6020830184613e85565b9392505050565b60006060820190506145c96000830186613e85565b6145d66020830185613e85565b6145e360408301846144b6565b949350505050565b60006040820190506146006000830185613e85565b61460d60208301846144b6565b9392505050565b60006020820190506146296000830184613fd4565b92915050565b60006020820190506146446000830184613fe3565b92915050565b600060208201905081810360008301526146648184614023565b905092915050565b600060208201905081810360008301526146858161408d565b9050919050565b600060208201905081810360008301526146a5816140b0565b9050919050565b600060208201905081810360008301526146c5816140d3565b9050919050565b600060208201905081810360008301526146e5816140f6565b9050919050565b6000602082019050818103600083015261470581614119565b9050919050565b600060208201905081810360008301526147258161413c565b9050919050565b600060208201905081810360008301526147458161415f565b9050919050565b6000602082019050818103600083015261476581614182565b9050919050565b60006020820190508181036000830152614785816141a5565b9050919050565b600060208201905081810360008301526147a5816141c8565b9050919050565b600060208201905081810360008301526147c5816141eb565b9050919050565b600060208201905081810360008301526147e58161420e565b9050919050565b6000602082019050818103600083015261480581614231565b9050919050565b6000602082019050818103600083015261482581614254565b9050919050565b6000602082019050818103600083015261484581614277565b9050919050565b600060208201905081810360008301526148658161429a565b9050919050565b60006020820190508181036000830152614885816142bd565b9050919050565b600060208201905081810360008301526148a5816142e0565b9050919050565b600060208201905081810360008301526148c581614303565b9050919050565b600060208201905081810360008301526148e581614326565b9050919050565b6000602082019050818103600083015261490581614349565b9050919050565b600060208201905081810360008301526149258161436c565b9050919050565b600060208201905081810360008301526149458161438f565b9050919050565b60006020820190508181036000830152614965816143b2565b9050919050565b60006020820190508181036000830152614985816143d5565b9050919050565b600060208201905081810360008301526149a5816143f8565b9050919050565b600060208201905081810360008301526149c58161441b565b9050919050565b600060208201905081810360008301526149e58161443e565b9050919050565b60006020820190508181036000830152614a0581614484565b9050919050565b6000602082019050614a2160008301846144b6565b92915050565b600060e082019050614a3c600083018a6144b6565b614a496020830189613e85565b614a566040830188613e85565b8181036060830152614a688187613ea3565b90508181036080830152614a7c8186613f01565b9050614a8b60a08301856144c5565b614a9860c08301846144c5565b98975050505050505050565b6000614aae614abf565b9050614aba8282614e07565b919050565b6000604051905090565b600067ffffffffffffffff821115614ae457614ae3614f3f565b5b602082029050602081019050919050565b600067ffffffffffffffff821115614b1057614b0f614f3f565b5b602082029050602081019050919050565b600067ffffffffffffffff821115614b3c57614b3b614f3f565b5b602082029050602081019050919050565b600067ffffffffffffffff821115614b6857614b67614f3f565b5b614b7182614f6e565b9050602081019050919050565b6000819050602082019050919050565b6000819050602082019050919050565b6000819050602082019050919050565b600081519050919050565b600081519050919050565b600081519050919050565b600081519050919050565b600081519050919050565b6000602082019050919050565b6000602082019050919050565b6000602082019050919050565b600082825260208201905092915050565b600082825260208201905092915050565b600082825260208201905092915050565b600081905092915050565b600082825260208201905092915050565b600081905092915050565b6000614c7182614d8b565b9150614c7c83614d8b565b9250827fffffffffffffffffffffffffffffffffffffffffffffffffffffffffffffffff03821115614cb157614cb0614eb2565b5b828201905092915050565b6000614cc782614d8b565b9150614cd283614d8b565b925082614ce257614ce1614ee1565b5b828204905092915050565b6000614cf882614d8b565b9150614d0383614d8b565b925082821015614d1657614d15614eb2565b5b828203905092915050565b6000614d2c82614d6b565b9050919050565b60008115159050919050565b60007fffffffff0000000000000000000000000000000000000000000000000000000082169050919050565b600073ffffffffffffffffffffffffffffffffffffffff82169050919050565b6000819050919050565b600060ff82169050919050565b60005b83811015614dc0578082015181840152602081019050614da5565b83811115614dcf576000848401525b50505050565b60006002820490506001821680614ded57607f821691505b60208210811415614e0157614e00614f10565b5b50919050565b614e1082614f6e565b810181811067ffffffffffffffff82111715614e2f57614e2e614f3f565b5b80604052505050565b6000614e4382614d8b565b91507fffffffffffffffffffffffffffffffffffffffffffffffffffffffffffffffff821415614e7657614e75614eb2565b5b600182019050919050565b6000614e8c82614d8b565b9150614e9783614d8b565b925082614ea757614ea6614ee1565b5b828206905092915050565b7f4e487b7100000000000000000000000000000000000000000000000000000000600052601160045260246000fd5b7f4e487b7100000000000000000000000000000000000000000000000000000000600052601260045260246000fd5b7f4e487b7100000000000000000000000000000000000000000000000000000000600052602260045260246000fd5b7f4e487b7100000000000000000000000000000000000000000000000000000000600052604160045260246000fd5b6000601f19601f8301169050919050565b7f4944654775696c64506c75733a2074686973206a6f62206973206e6f7420617660008201527f61696c626c6520746f2062652074616b656e0000000000000000000000000000602082015250565b7f4944654775696c64506c75733a2074686973206a6f62206973206e6f7420617660008201527f61696c626c6520746f206265207265706f727465640000000000000000000000602082015250565b7f4944654775696c64506c75733a2073697a6573206f6620736b696c6c2061727260008201527f617920616e6420636572746966696361746520617272617920617265206e6f7460208201527f20657175616c0000000000000000000000000000000000000000000000000000604082015250565b7f4944654775696c64506c75733a206e6f7420656e6f7567682066756e6420746f60008201527f207472616e736665722072657761726400000000000000000000000000000000602082015250565b7f4f776e61626c653a206e6577206f776e657220697320746865207a65726f206160008201527f6464726573730000000000000000000000000000000000000000000000000000602082015250565b7f4944654775696c64506c75733a206e6f7420656e6f7567682066756e6420746f60008201527f2072657475726e20726577617264000000000000000000000000000000000000602082015250565b7f4944654775696c64506c75733a2061737369676e65642061646472657373206960008201527f73206e6f74207468652063616c6c657200000000000000000000000000000000602082015250565b7f4944654775696c64506c75733a2063616c6c65722063616e6e6f74206173736960008201527f676e20746869732074616b6572206164647265737320746f2074686973206a6f60208201527f6200000000000000000000000000000000000000000000000000000000000000604082015250565b7f4944654775696c64506c75733a206e6f7420656e6f7567682066756e64000000600082015250565b7f4944654775696c64506c75733a206e6f7420656e6f7567682066756e6420746f60008201527f207472616e736665722066656500000000000000000000000000000000000000602082015250565b7f4944654775696c64506c75733a20726571756972656d656e742063657274696660008201527f696361746520616464726573736573206c6172676572207468616e203330206160208201527f6464726573730000000000000000000000000000000000000000000000000000604082015250565b7f4944654775696c64506c75733a2074686973206a6f62206973206e6f7420617660008201527f61696c626c6520746f20626520636f6d706c6574656400000000000000000000602082015250565b7f4944654775696c64506c75733a2063616c6c6572206973206e6f74207175616c60008201527f6966696564000000000000000000000000000000000000000000000000000000602082015250565b7f4944654775696c64506c75733a206f6e6c79207374616b65686f6c646572732060008201527f63616e207265706f72742074686973206a6f6200000000000000000000000000602082015250565b7f4944654775696c64506c75733a2055524920717565727920666f72206e6f6e6560008201527f78697374656e74206a6f62000000000000000000000000000000000000000000602082015250565b7f4944654775696c64506c75733a2074686973206a6f62206973206e6f7420617660008201527f61696c626c6520746f206265206a756467656400000000000000000000000000602082015250565b7f4f776e61626c653a2063616c6c6572206973206e6f7420746865206f776e6572600082015250565b7f4944654775696c64506c75733a2063616c6c65722063616e6e6f74206265206360008201527f6c69656e74000000000000000000000000000000000000000000000000000000602082015250565b7f4944654775696c64506c75733a206f6e6c7920636c69656e742063616e20636160008201527f6e63656c2074686973206a6f6200000000000000000000000000000000000000602082015250565b7f4944654775696c64506c75733a206f776e657220717565727920666f72206e6f60008201527f6e6578697374656e7420746f6b656e0000000000000000000000000000000000602082015250565b7f4944654775696c64506c75733a206a6f6220697320616c72656164792063616e60008201527f63656c6c6564206f7220636f6d706c6574656400000000000000000000000000602082015250565b7f4944654775696c64506c75733a2074686973206a6f6220697320616c7265616460008201527f792074616b656e00000000000000000000000000000000000000000000000000602082015250565b7f4944654775696c64506c75733a206f6e6c7920636c69656e742063616e20636f60008201527f6d706c6574652074686973206a6f620000000000000000000000000000000000602082015250565b7f4944654775696c64506c75733a206e6f7420656e6f7567682066756e6420746f60008201527f207472616e736665722066656573000000000000000000000000000000000000602082015250565b7f4944654775696c64506c75733a206d6f7265207468616e20323020736b696c6c60008201527f7320726571756972656420666f72206f6e65206365727469666963617465206160208201527f6464726573730000000000000000000000000000000000000000000000000000604082015250565b7f4944654775696c64506c75733a2063616c6c657220686173206265656e20626160008201527f6e6e656400000000000000000000000000000000000000000000000000000000602082015250565b7f4944654775696c64506c75733a2063616c6c657220697320616c72656164792060008201527f6f63637570696564000000000000000000000000000000000000000000000000602082015250565b7f4944654775696c64506c75733a206f776e657220717565727920666f72206e6f60008201527f6e6578697374656e74206a6f6200000000000000000000000000000000000000602082015250565b7f2f00000000000000000000000000000000000000000000000000000000000000600082015250565b7f4944654775696c64506c75733a20616c6c20736b696c6c73206d75737420737560008201527f70706f72742049536b696c6c4365727469666963617465506c757320696e746560208201527f7266616365000000000000000000000000000000000000000000000000000000604082015250565b61591681614d21565b811461592157600080fd5b50565b61592d81614d33565b811461593857600080fd5b50565b61594481614d8b565b811461594f57600080fd5b50565b61595b81614d95565b811461596657600080fd5b5056fea2646970667358221220d56a69c612cbadb82f059cadf51c3ab18d23789c198370093a4cd17df251586a64736f6c63430008040033",
  "linkReferences": {
    "contracts/Utils/EIP-55.sol": {
      "ChecksumLib": [
        {
          "length": 20,
          "start": 8391
        }
      ]
    }
  },
  "deployedLinkReferences": {
    "contracts/Utils/EIP-55.sol": {
      "ChecksumLib": [
        {
          "length": 20,
          "start": 6897
        }
      ]
    }
  }
}