{
  "_format": "hh-sol-artifact-1",
  "contractName": "DeGuildPlus",
  "sourceName": "contracts/DeGuild/V2/DeGuild+.sol",
  "abi": [
    {
      "inputs": [
        {
          "internalType": "string",
          "name": "name_",
          "type": "string"
        },
        {
          "internalType": "string",
          "name": "symbol_",
          "type": "string"
        },
        {
          "internalType": "string",
          "name": "baseURI_",
          "type": "string"
        },
        {
          "internalType": "address",
          "name": "addressDGT_",
          "type": "address"
        }
      ],
      "stateMutability": "nonpayable",
      "type": "constructor"
    },
    {
      "anonymous": false,
      "inputs": [
        {
          "indexed": false,
          "internalType": "uint256",
          "name": "jobId",
          "type": "uint256"
        },
        {
          "indexed": true,
          "internalType": "address",
          "name": "client",
          "type": "address"
        }
      ],
      "name": "JobAdded",
      "type": "event"
    },
    {
      "anonymous": false,
      "inputs": [
        {
          "indexed": false,
          "internalType": "uint256",
          "name": "jobId",
          "type": "uint256"
        },
        {
          "indexed": true,
          "internalType": "address",
          "name": "criminal",
          "type": "address"
        }
      ],
      "name": "JobCaseClosed",
      "type": "event"
    },
    {
      "anonymous": false,
      "inputs": [
        {
          "indexed": true,
          "internalType": "uint256",
          "name": "jobId",
          "type": "uint256"
        }
      ],
      "name": "JobCaseOpened",
      "type": "event"
    },
    {
      "anonymous": false,
      "inputs": [
        {
          "indexed": false,
          "internalType": "uint256",
          "name": "jobId",
          "type": "uint256"
        },
        {
          "indexed": true,
          "internalType": "address",
          "name": "taker",
          "type": "address"
        }
      ],
      "name": "JobCompleted",
      "type": "event"
    },
    {
      "anonymous": false,
      "inputs": [
        {
          "indexed": false,
          "internalType": "uint256",
          "name": "jobId",
          "type": "uint256"
        },
        {
          "indexed": true,
          "internalType": "address",
          "name": "taker",
          "type": "address"
        }
      ],
      "name": "JobTaken",
      "type": "event"
    },
    {
      "anonymous": false,
      "inputs": [
        {
          "indexed": true,
          "internalType": "address",
          "name": "previousOwner",
          "type": "address"
        },
        {
          "indexed": true,
          "internalType": "address",
          "name": "newOwner",
          "type": "address"
        }
      ],
      "name": "OwnershipTransferred",
      "type": "event"
    },
    {
      "inputs": [
        {
          "internalType": "uint256",
          "name": "bonus",
          "type": "uint256"
        },
        {
          "internalType": "address",
          "name": "taker",
          "type": "address"
        },
        {
          "internalType": "address[]",
          "name": "certificates",
          "type": "address[]"
        },
        {
          "internalType": "uint256[][]",
          "name": "skills",
          "type": "uint256[][]"
        },
        {
          "internalType": "uint8",
          "name": "difficulty",
          "type": "uint8"
        }
      ],
      "name": "addJob",
      "outputs": [
        {
          "internalType": "bool",
          "name": "",
          "type": "bool"
        }
      ],
      "stateMutability": "nonpayable",
      "type": "function"
    },
    {
      "inputs": [
        {
          "internalType": "uint256",
          "name": "id",
          "type": "uint256"
        }
      ],
      "name": "cancel",
      "outputs": [
        {
          "internalType": "bool",
          "name": "",
          "type": "bool"
        }
      ],
      "stateMutability": "nonpayable",
      "type": "function"
    },
    {
      "inputs": [
        {
          "internalType": "uint256",
          "name": "id",
          "type": "uint256"
        }
      ],
      "name": "complete",
      "outputs": [
        {
          "internalType": "bool",
          "name": "",
          "type": "bool"
        }
      ],
      "stateMutability": "nonpayable",
      "type": "function"
    },
    {
      "inputs": [],
      "name": "deguildCoin",
      "outputs": [
        {
          "internalType": "address",
          "name": "",
          "type": "address"
        }
      ],
      "stateMutability": "view",
      "type": "function"
    },
    {
      "inputs": [
        {
          "internalType": "uint256",
          "name": "id",
          "type": "uint256"
        }
      ],
      "name": "forceCancel",
      "outputs": [
        {
          "internalType": "bool",
          "name": "",
          "type": "bool"
        }
      ],
      "stateMutability": "nonpayable",
      "type": "function"
    },
    {
      "inputs": [
        {
          "internalType": "uint256",
          "name": "jobId",
          "type": "uint256"
        },
        {
          "internalType": "address",
          "name": "taker",
          "type": "address"
        }
      ],
      "name": "isQualified",
      "outputs": [
        {
          "internalType": "bool",
          "name": "",
          "type": "bool"
        }
      ],
      "stateMutability": "view",
      "type": "function"
    },
    {
      "inputs": [
        {
          "internalType": "uint256",
          "name": "jobId",
          "type": "uint256"
        }
      ],
      "name": "jobInfo",
      "outputs": [
        {
          "internalType": "uint256",
          "name": "",
          "type": "uint256"
        },
        {
          "internalType": "address",
          "name": "",
          "type": "address"
        },
        {
          "internalType": "address",
          "name": "",
          "type": "address"
        },
        {
          "internalType": "address[]",
          "name": "",
          "type": "address[]"
        },
        {
          "internalType": "uint256[][]",
          "name": "",
          "type": "uint256[][]"
        },
        {
          "internalType": "uint8",
          "name": "",
          "type": "uint8"
        },
        {
          "internalType": "uint8",
          "name": "",
          "type": "uint8"
        }
      ],
      "stateMutability": "view",
      "type": "function"
    },
    {
      "inputs": [
        {
          "internalType": "address",
          "name": "account",
          "type": "address"
        }
      ],
      "name": "jobOf",
      "outputs": [
        {
          "internalType": "uint256",
          "name": "",
          "type": "uint256"
        }
      ],
      "stateMutability": "view",
      "type": "function"
    },
    {
      "inputs": [
        {
          "internalType": "uint256",
          "name": "jobId",
          "type": "uint256"
        }
      ],
      "name": "jobURI",
      "outputs": [
        {
          "internalType": "string",
          "name": "",
          "type": "string"
        }
      ],
      "stateMutability": "view",
      "type": "function"
    },
    {
      "inputs": [],
      "name": "jobsCount",
      "outputs": [
        {
          "internalType": "uint256",
          "name": "",
          "type": "uint256"
        }
      ],
      "stateMutability": "view",
      "type": "function"
    },
    {
      "inputs": [
        {
          "internalType": "uint256",
          "name": "id",
          "type": "uint256"
        },
        {
          "internalType": "bool",
          "name": "decision",
          "type": "bool"
        },
        {
          "internalType": "bool",
          "name": "isCompleted",
          "type": "bool"
        },
        {
          "internalType": "uint256",
          "name": "feeRate",
          "type": "uint256"
        },
        {
          "internalType": "uint256",
          "name": "clientRate",
          "type": "uint256"
        },
        {
          "internalType": "uint256",
          "name": "takerRate",
          "type": "uint256"
        }
      ],
      "name": "judge",
      "outputs": [
        {
          "internalType": "bool",
          "name": "",
          "type": "bool"
        }
      ],
      "stateMutability": "nonpayable",
      "type": "function"
    },
    {
      "inputs": [],
      "name": "name",
      "outputs": [
        {
          "internalType": "string",
          "name": "",
          "type": "string"
        }
      ],
      "stateMutability": "view",
      "type": "function"
    },
    {
      "inputs": [],
      "name": "owner",
      "outputs": [
        {
          "internalType": "address",
          "name": "",
          "type": "address"
        }
      ],
      "stateMutability": "view",
      "type": "function"
    },
    {
      "inputs": [
        {
          "internalType": "uint256",
          "name": "jobId",
          "type": "uint256"
        }
      ],
      "name": "ownersOf",
      "outputs": [
        {
          "internalType": "address",
          "name": "",
          "type": "address"
        },
        {
          "internalType": "address",
          "name": "",
          "type": "address"
        }
      ],
      "stateMutability": "view",
      "type": "function"
    },
    {
      "inputs": [],
      "name": "renounceOwnership",
      "outputs": [],
      "stateMutability": "nonpayable",
      "type": "function"
    },
    {
      "inputs": [
        {
          "internalType": "uint256",
          "name": "id",
          "type": "uint256"
        }
      ],
      "name": "report",
      "outputs": [
        {
          "internalType": "bool",
          "name": "",
          "type": "bool"
        }
      ],
      "stateMutability": "nonpayable",
      "type": "function"
    },
    {
      "inputs": [],
      "name": "symbol",
      "outputs": [
        {
          "internalType": "string",
          "name": "",
          "type": "string"
        }
      ],
      "stateMutability": "view",
      "type": "function"
    },
    {
      "inputs": [
        {
          "internalType": "uint256",
          "name": "id",
          "type": "uint256"
        }
      ],
      "name": "take",
      "outputs": [
        {
          "internalType": "bool",
          "name": "",
          "type": "bool"
        }
      ],
      "stateMutability": "nonpayable",
      "type": "function"
    },
    {
      "inputs": [
        {
          "internalType": "address",
          "name": "newOwner",
          "type": "address"
        }
      ],
      "name": "transferOwnership",
      "outputs": [],
      "stateMutability": "nonpayable",
      "type": "function"
    },
    {
      "inputs": [
        {
          "internalType": "address[]",
          "name": "certificates",
          "type": "address[]"
        },
        {
          "internalType": "uint256[][]",
          "name": "skills",
          "type": "uint256[][]"
        }
      ],
      "name": "verifySkills",
      "outputs": [
        {
          "internalType": "bool",
          "name": "",
          "type": "bool"
        }
      ],
      "stateMutability": "view",
      "type": "function"
    }
  ],
  "bytecode": "0x60806040526040518060200160405280600181525060096000820151816000015550503480156200002f57600080fd5b50604051620060ba380380620060ba833981810160405281019062000055919062000351565b62000075620000696200014c60201b60201c565b6200015460201b60201c565b83600690805190602001906200008d92919062000218565b508260079080519060200190620000a692919062000218565b5080600560006101000a81548173ffffffffffffffffffffffffffffffffffffffff021916908373ffffffffffffffffffffffffffffffffffffffff16021790555081600890805190602001906200010092919062000218565b5080600a60006101000a81548173ffffffffffffffffffffffffffffffffffffffff021916908373ffffffffffffffffffffffffffffffffffffffff16021790555050505050620005c6565b600033905090565b60008060009054906101000a900473ffffffffffffffffffffffffffffffffffffffff169050816000806101000a81548173ffffffffffffffffffffffffffffffffffffffff021916908373ffffffffffffffffffffffffffffffffffffffff1602179055508173ffffffffffffffffffffffffffffffffffffffff168173ffffffffffffffffffffffffffffffffffffffff167f8be0079c531659141344cd1fd0a4f28419497f9722a3daafe3b4186f6b6457e060405160405180910390a35050565b8280546200022690620004d1565b90600052602060002090601f0160209004810192826200024a576000855562000296565b82601f106200026557805160ff191683800117855562000296565b8280016001018555821562000296579182015b828111156200029557825182559160200191906001019062000278565b5b509050620002a59190620002a9565b5090565b5b80821115620002c4576000816000905550600101620002aa565b5090565b6000620002df620002d98462000431565b62000408565b905082815260208101848484011115620002f857600080fd5b620003058482856200049b565b509392505050565b6000815190506200031e81620005ac565b92915050565b600082601f8301126200033657600080fd5b815162000348848260208601620002c8565b91505092915050565b600080600080608085870312156200036857600080fd5b600085015167ffffffffffffffff8111156200038357600080fd5b620003918782880162000324565b945050602085015167ffffffffffffffff811115620003af57600080fd5b620003bd8782880162000324565b935050604085015167ffffffffffffffff811115620003db57600080fd5b620003e98782880162000324565b9250506060620003fc878288016200030d565b91505092959194509250565b60006200041462000427565b905062000422828262000507565b919050565b6000604051905090565b600067ffffffffffffffff8211156200044f576200044e6200056c565b5b6200045a826200059b565b9050602081019050919050565b600062000474826200047b565b9050919050565b600073ffffffffffffffffffffffffffffffffffffffff82169050919050565b60005b83811015620004bb5780820151818401526020810190506200049e565b83811115620004cb576000848401525b50505050565b60006002820490506001821680620004ea57607f821691505b602082108114156200050157620005006200053d565b5b50919050565b62000512826200059b565b810181811067ffffffffffffffff821117156200053457620005336200056c565b5b80604052505050565b7f4e487b7100000000000000000000000000000000000000000000000000000000600052602260045260246000fd5b7f4e487b7100000000000000000000000000000000000000000000000000000000600052604160045260246000fd5b6000601f19601f8301169050919050565b620005b78162000467565b8114620005c357600080fd5b50565b615ae480620005d66000396000f3fe608060405234801561001057600080fd5b506004361061012c5760003560e01c80638da5cb5b116100ad578063c6ba161f11610071578063c6ba161f1461039a578063d5fbcf42146103ca578063f2fde38b146103e8578063f438f01914610404578063f9fa7e8f146104345761012c565b80638da5cb5b146102cd57806395d89b41146102eb578063969b1cdb14610309578063971d852f14610339578063a584ab29146103695761012c565b80634fd9efc4116100f45780634fd9efc4146101fd5780635ce5ee691461022d578063715018a6146102635780637a2687a41461026d5780637ae681a51461029d5761012c565b806306fdde03146101315780632dab557b1461014f57806340e58ee51461017f57806343de3352146101af5780634fbefc6e146101df575b600080fd5b610139610464565b6040516101469190614c18565b60405180910390f35b61016960048036038101906101649190614166565b6104f6565b6040516101769190614fba565b60405180910390f35b61019960048036038101906101949190614265565b61053f565b6040516101a69190614be2565b60405180910390f35b6101c960048036038101906101c491906142b7565b610860565b6040516101d69190614be2565b60405180910390f35b6101e7610be9565b6040516101f49190614b3e565b60405180910390f35b61021760048036038101906102129190614265565b610c13565b6040516102249190614be2565b60405180910390f35b61024760048036038101906102429190614265565b61111d565b60405161025a9796959493929190614fd5565b60405180910390f35b61026b611408565b005b61028760048036038101906102829190614265565b611490565b6040516102949190614c18565b60405180910390f35b6102b760048036038101906102b291906142f3565b61161a565b6040516102c49190614be2565b60405180910390f35b6102d5611b8b565b6040516102e29190614b3e565b60405180910390f35b6102f3611bb4565b6040516103009190614c18565b60405180910390f35b610323600480360381019061031e9190614265565b611c46565b6040516103309190614be2565b60405180910390f35b610353600480360381019061034e9190614265565b611e7d565b6040516103609190614be2565b60405180910390f35b610383600480360381019061037e9190614265565b6123aa565b604051610391929190614b59565b60405180910390f35b6103b460048036038101906103af919061439a565b61246c565b6040516103c19190614be2565b60405180910390f35b6103d261300a565b6040516103df9190614fba565b60405180910390f35b61040260048036038101906103fd9190614166565b613027565b005b61041e60048036038101906104199190614265565b61311f565b60405161042b9190614be2565b60405180910390f35b61044e6004803603810190610449919061418f565b61348c565b60405161045b9190614be2565b60405180910390f35b606060068054610473906153dd565b80601f016020809104026020016040519081016040528092919081815260200182805461049f906153dd565b80156104ec5780601f106104c1576101008083540402835291602001916104ec565b820191906000526020600020905b8154815290600101906020018083116104cf57829003601f168201915b5050505050905090565b6000600260008373ffffffffffffffffffffffffffffffffffffffff1673ffffffffffffffffffffffffffffffffffffffff168152602001908152602001600020549050919050565b600061054a826137d3565b610589576040517f08c379a000000000000000000000000000000000000000000000000000000000815260040161058090614e9a565b60405180910390fd5b61059161383f565b73ffffffffffffffffffffffffffffffffffffffff166004600084815260200190815260200160002060010160009054906101000a900473ffffffffffffffffffffffffffffffffffffffff1673ffffffffffffffffffffffffffffffffffffffff1614610634576040517f08c379a000000000000000000000000000000000000000000000000000000000815260040161062b90614dfa565b60405180910390fd5b60016004600084815260200190815260200160002060050160009054906101000a900460ff1660ff161461069d576040517f08c379a000000000000000000000000000000000000000000000000000000000815260040161069490614e5a565b60405180910390fd5b600a60009054906101000a900473ffffffffffffffffffffffffffffffffffffffff1673ffffffffffffffffffffffffffffffffffffffff1663a9059cbb6001600085815260200190815260200160002060009054906101000a900473ffffffffffffffffffffffffffffffffffffffff1660046000868152602001908152602001600020600001546040518363ffffffff1660e01b8152600401610743929190614bb9565b602060405180830381600087803b15801561075d57600080fd5b505af1158015610771573d6000803e3d6000fd5b505050506040513d601f19601f8201168201806040525081019061079591906141fb565b6107d4576040517f08c379a00000000000000000000000000000000000000000000000000000000081526004016107cb90614d1a565b60405180910390fd5b60636004600084815260200190815260200160002060050160006101000a81548160ff021916908360ff16021790555060006001600084815260200190815260200160002060006101000a81548173ffffffffffffffffffffffffffffffffffffffff021916908373ffffffffffffffffffffffffffffffffffffffff16021790555060019050919050565b600061086b836137d3565b6108aa576040517f08c379a00000000000000000000000000000000000000000000000000000000081526004016108a190614e9a565b60405180910390fd5b60006004600085815260200190815260200160002060030180548060200260200160405190810160405280929190818152602001828054801561094257602002820191906000526020600020905b8160009054906101000a900473ffffffffffffffffffffffffffffffffffffffff1673ffffffffffffffffffffffffffffffffffffffff16815260200190600101908083116108f8575b50505050509050600060046000868152602001908152602001600020600401805480602002602001604051908101604052809291908181526020016000905b828210156109f3578382906000526020600020018054806020026020016040519081016040528092919081815260200182805480156109df57602002820191906000526020600020905b8154815260200190600101908083116109cb575b505050505081526020019060010190610981565b50505050905060005b8251811015610bdb576000838281518110610a40577f4e487b7100000000000000000000000000000000000000000000000000000000600052603260045260246000fd5b6020026020010151905060005b838381518110610a86577f4e487b7100000000000000000000000000000000000000000000000000000000600052603260045260246000fd5b602002602001015151811015610bc6578173ffffffffffffffffffffffffffffffffffffffff16636704fe9f88868681518110610aec577f4e487b7100000000000000000000000000000000000000000000000000000000600052603260045260246000fd5b60200260200101518481518110610b2c577f4e487b7100000000000000000000000000000000000000000000000000000000600052603260045260246000fd5b60200260200101516040518363ffffffff1660e01b8152600401610b51929190614bb9565b60206040518083038186803b158015610b6957600080fd5b505afa158015610b7d573d6000803e3d6000fd5b505050506040513d601f19601f82011682018060405250810190610ba191906141fb565b610bb357600095505050505050610be3565b8080610bbe90615440565b915050610a4d565b50508080610bd390615440565b9150506109fc565b506001925050505b92915050565b6000600560009054906101000a900473ffffffffffffffffffffffffffffffffffffffff16905090565b600060036000610c2161383f565b73ffffffffffffffffffffffffffffffffffffffff1673ffffffffffffffffffffffffffffffffffffffff16815260200190815260200160002060009054906101000a900460ff1615610ca9576040517f08c379a0000000000000000000000000000000000000000000000000000000008152600401610ca090614cfa565b60405180910390fd5b610cb2826137d3565b610cf1576040517f08c379a0000000000000000000000000000000000000000000000000000000008152600401610ce890614e9a565b60405180910390fd5b6004600083815260200190815260200160002060010160009054906101000a900473ffffffffffffffffffffffffffffffffffffffff1673ffffffffffffffffffffffffffffffffffffffff16610d4661383f565b73ffffffffffffffffffffffffffffffffffffffff161415610d9d576040517f08c379a0000000000000000000000000000000000000000000000000000000008152600401610d9490614c9a565b60405180910390fd5b610dae82610da961383f565b610860565b610ded576040517f08c379a0000000000000000000000000000000000000000000000000000000008152600401610de490614cda565b60405180910390fd5b600060026000610dfb61383f565b73ffffffffffffffffffffffffffffffffffffffff1673ffffffffffffffffffffffffffffffffffffffff1681526020019081526020016000205414610e76576040517f08c379a0000000000000000000000000000000000000000000000000000000008152600401610e6d90614dda565b60405180910390fd5b60016004600084815260200190815260200160002060050160009054906101000a900460ff1660ff1614610edf576040517f08c379a0000000000000000000000000000000000000000000000000000000008152600401610ed690614e5a565b60405180910390fd5b6004600083815260200190815260200160002060050160029054906101000a900460ff1615610fb857610f1061383f565b73ffffffffffffffffffffffffffffffffffffffff166004600084815260200190815260200160002060020160009054906101000a900473ffffffffffffffffffffffffffffffffffffffff1673ffffffffffffffffffffffffffffffffffffffff1614610fb3576040517f08c379a0000000000000000000000000000000000000000000000000000000008152600401610faa90614d5a565b60405180910390fd5b611015565b610fc061383f565b6004600084815260200190815260200160002060020160006101000a81548173ffffffffffffffffffffffffffffffffffffffff021916908373ffffffffffffffffffffffffffffffffffffffff1602179055505b816002600061102261383f565b73ffffffffffffffffffffffffffffffffffffffff1673ffffffffffffffffffffffffffffffffffffffff1681526020019081526020016000208190555060026004600084815260200190815260200160002060050160006101000a81548160ff021916908360ff1602179055506004600083815260200190815260200160002060020160009054906101000a900473ffffffffffffffffffffffffffffffffffffffff1673ffffffffffffffffffffffffffffffffffffffff167f63d05f037a34bfd9732c85be51fc52a421f621694ced20c350480d44d6a3b3fa8360405161110c9190614fba565b60405180910390a260019050919050565b6000806000606080600080611131886137d3565b611170576040517f08c379a000000000000000000000000000000000000000000000000000000000815260040161116790614e9a565b60405180910390fd5b6000600460008a815260200190815260200160002060405180610100016040529081600082015481526020016001820160009054906101000a900473ffffffffffffffffffffffffffffffffffffffff1673ffffffffffffffffffffffffffffffffffffffff1673ffffffffffffffffffffffffffffffffffffffff1681526020016002820160009054906101000a900473ffffffffffffffffffffffffffffffffffffffff1673ffffffffffffffffffffffffffffffffffffffff1673ffffffffffffffffffffffffffffffffffffffff168152602001600382018054806020026020016040519081016040528092919081815260200182805480156112cc57602002820191906000526020600020905b8160009054906101000a900473ffffffffffffffffffffffffffffffffffffffff1673ffffffffffffffffffffffffffffffffffffffff1681526020019060010190808311611282575b5050505050815260200160048201805480602002602001604051908101604052809291908181526020016000905b8282101561136c5783829060005260206000200180548060200260200160405190810160405280929190818152602001828054801561135857602002820191906000526020600020905b815481526020019060010190808311611344575b5050505050815260200190600101906112fa565b5050505081526020016005820160009054906101000a900460ff1660ff1660ff1681526020016005820160019054906101000a900460ff1660ff1660ff1681526020016005820160029054906101000a900460ff1615151515815250509050806000015181602001518260400151836060015184608001518560a001518660c00151975097509750975097509750975050919395979092949650565b61141061383f565b73ffffffffffffffffffffffffffffffffffffffff1661142e611b8b565b73ffffffffffffffffffffffffffffffffffffffff1614611484576040517f08c379a000000000000000000000000000000000000000000000000000000000815260040161147b90614dba565b60405180910390fd5b61148e6000613847565b565b606061149b826137d3565b6114da576040517f08c379a00000000000000000000000000000000000000000000000000000000081526004016114d190614e9a565b60405180910390fd5b60006114e461390b565b905060008151116115045760405180602001604052806000815250611612565b803073ffffffffffffffffffffffffffffffffffffffff1673__$124e1a4c5367a62965a30c61a01a42cb5d$__637cd6f8ff90916040518263ffffffff1660e01b81526004016115549190614b23565b60006040518083038186803b15801561156c57600080fd5b505af4158015611580573d6000803e3d6000fd5b505050506040513d6000823e3d601f19601f820116820180604052508101906115a99190614224565b6040516020016115ba929190614add565b6040516020818303038152906040526115d28461399d565b6040516020016115e29190614b01565b604051602081830303815290604052604051602001611602929190614ab9565b6040516020818303038152906040525b915050919050565b60006003600061162861383f565b73ffffffffffffffffffffffffffffffffffffffff1673ffffffffffffffffffffffffffffffffffffffff16815260200190815260200160002060009054906101000a900460ff16156116b0576040517f08c379a00000000000000000000000000000000000000000000000000000000081526004016116a790614cfa565b60405180910390fd5b8473ffffffffffffffffffffffffffffffffffffffff166116cf61383f565b73ffffffffffffffffffffffffffffffffffffffff161415611726576040517f08c379a000000000000000000000000000000000000000000000000000000000815260040161171d90614d9a565b60405180910390fd5b611730848461348c565b61176f576040517f08c379a000000000000000000000000000000000000000000000000000000000815260040161176690614f3a565b60405180910390fd5b6000670de0b6b3a76400008760648560ff168660ff16020201029050600a60009054906101000a900473ffffffffffffffffffffffffffffffffffffffff1673ffffffffffffffffffffffffffffffffffffffff166323b872dd6117d161383f565b30846040518463ffffffff1660e01b81526004016117f193929190614b82565b602060405180830381600087803b15801561180b57600080fd5b505af115801561181f573d6000803e3d6000fd5b505050506040513d601f19601f8201168201806040525081019061184391906141fb565b611882576040517f08c379a000000000000000000000000000000000000000000000000000000000815260040161187990614f5a565b60405180910390fd5b60405180610100016040528082815260200161189c61383f565b73ffffffffffffffffffffffffffffffffffffffff1681526020018773ffffffffffffffffffffffffffffffffffffffff168152602001868152602001858152602001600160ff1681526020018460ff168152602001600073ffffffffffffffffffffffffffffffffffffffff168873ffffffffffffffffffffffffffffffffffffffff1614151515815250600460006119366009613b4a565b81526020019081526020016000206000820151816000015560208201518160010160006101000a81548173ffffffffffffffffffffffffffffffffffffffff021916908373ffffffffffffffffffffffffffffffffffffffff16021790555060408201518160020160006101000a81548173ffffffffffffffffffffffffffffffffffffffff021916908373ffffffffffffffffffffffffffffffffffffffff16021790555060608201518160030190805190602001906119f8929190613d0b565b506080820151816004019080519060200190611a15929190613d95565b5060a08201518160050160006101000a81548160ff021916908360ff16021790555060c08201518160050160016101000a81548160ff021916908360ff16021790555060e08201518160050160026101000a81548160ff021916908315150217905550905050611a8361383f565b60016000611a916009613b4a565b815260200190815260200160002060006101000a81548173ffffffffffffffffffffffffffffffffffffffff021916908373ffffffffffffffffffffffffffffffffffffffff16021790555060046000611aeb6009613b4a565b815260200190815260200160002060010160009054906101000a900473ffffffffffffffffffffffffffffffffffffffff1673ffffffffffffffffffffffffffffffffffffffff167f327cf9892362c183c2af9b498e32bc51574d160377970d6d50080a3e8482e413611b5e6009613b4a565b604051611b6b9190614fba565b60405180910390a2611b7d6009613b58565b600191505095945050505050565b60008060009054906101000a900473ffffffffffffffffffffffffffffffffffffffff16905090565b606060078054611bc3906153dd565b80601f0160208091040260200160405190810160405280929190818152602001828054611bef906153dd565b8015611c3c5780601f10611c1157610100808354040283529160200191611c3c565b820191906000526020600020905b815481529060010190602001808311611c1f57829003601f168201915b5050505050905090565b6000611c51826137d3565b611c90576040517f08c379a0000000000000000000000000000000000000000000000000000000008152600401611c8790614e9a565b60405180910390fd5b60026004600084815260200190815260200160002060050160009054906101000a900460ff1660ff1614611cf9576040517f08c379a0000000000000000000000000000000000000000000000000000000008152600401611cf090614eda565b60405180910390fd5b611d0161383f565b73ffffffffffffffffffffffffffffffffffffffff166004600084815260200190815260200160002060010160009054906101000a900473ffffffffffffffffffffffffffffffffffffffff1673ffffffffffffffffffffffffffffffffffffffff161480611dd85750611d7361383f565b73ffffffffffffffffffffffffffffffffffffffff166004600084815260200190815260200160002060020160009054906101000a900473ffffffffffffffffffffffffffffffffffffffff1673ffffffffffffffffffffffffffffffffffffffff16145b611e17576040517f08c379a0000000000000000000000000000000000000000000000000000000008152600401611e0e90614d7a565b60405180910390fd5b60006004600084815260200190815260200160002060050160006101000a81548160ff021916908360ff160217905550817ffb1aa198fcd90bf08aa0f027f902f0d28476e1d21d434cd858d37c1c8041b99060405160405180910390a260019050919050565b6000611e88826137d3565b611ec7576040517f08c379a0000000000000000000000000000000000000000000000000000000008152600401611ebe90614e9a565b60405180910390fd5b60026004600084815260200190815260200160002060050160009054906101000a900460ff1660ff1614611f30576040517f08c379a0000000000000000000000000000000000000000000000000000000008152600401611f2790614eda565b60405180910390fd5b611f3861383f565b73ffffffffffffffffffffffffffffffffffffffff166004600084815260200190815260200160002060010160009054906101000a900473ffffffffffffffffffffffffffffffffffffffff1673ffffffffffffffffffffffffffffffffffffffff1614611fdb576040517f08c379a0000000000000000000000000000000000000000000000000000000008152600401611fd290614e1a565b60405180910390fd5b6000612710607d6004600086815260200190815260200160002060000154612003919061529b565b61200d919061526a565b9050600a60009054906101000a900473ffffffffffffffffffffffffffffffffffffffff1673ffffffffffffffffffffffffffffffffffffffff1663a9059cbb612055611b8b565b836040518363ffffffff1660e01b8152600401612073929190614bb9565b602060405180830381600087803b15801561208d57600080fd5b505af11580156120a1573d6000803e3d6000fd5b505050506040513d601f19601f820116820180604052508101906120c591906141fb565b612104576040517f08c379a00000000000000000000000000000000000000000000000000000000081526004016120fb90614f1a565b60405180910390fd5b806004600085815260200190815260200160002060000154036004600085815260200190815260200160002060000181905550600a60009054906101000a900473ffffffffffffffffffffffffffffffffffffffff1673ffffffffffffffffffffffffffffffffffffffff1663a9059cbb6004600086815260200190815260200160002060020160009054906101000a900473ffffffffffffffffffffffffffffffffffffffff1660046000878152602001908152602001600020600001546040518363ffffffff1660e01b81526004016121e0929190614bb9565b602060405180830381600087803b1580156121fa57600080fd5b505af115801561220e573d6000803e3d6000fd5b505050506040513d601f19601f8201168201806040525081019061223291906141fb565b612271576040517f08c379a000000000000000000000000000000000000000000000000000000000815260040161226890614d1a565b60405180910390fd5b60036004600085815260200190815260200160002060050160006101000a81548160ff021916908360ff1602179055506000600260006004600087815260200190815260200160002060020160009054906101000a900473ffffffffffffffffffffffffffffffffffffffff1673ffffffffffffffffffffffffffffffffffffffff1673ffffffffffffffffffffffffffffffffffffffff168152602001908152602001600020819055506004600084815260200190815260200160002060020160009054906101000a900473ffffffffffffffffffffffffffffffffffffffff1673ffffffffffffffffffffffffffffffffffffffff167f16a7286196330eaff0c7db2ec34ead9c6d2d023b356b62ee7ea644c842a84b67846040516123989190614fba565b60405180910390a26001915050919050565b6000806123b6836137d3565b6123f5576040517f08c379a00000000000000000000000000000000000000000000000000000000081526004016123ec90614e9a565b60405180910390fd5b6004600084815260200190815260200160002060010160009054906101000a900473ffffffffffffffffffffffffffffffffffffffff166004600085815260200190815260200160002060020160009054906101000a900473ffffffffffffffffffffffffffffffffffffffff1691509150915091565b600061247661383f565b73ffffffffffffffffffffffffffffffffffffffff16612494611b8b565b73ffffffffffffffffffffffffffffffffffffffff16146124ea576040517f08c379a00000000000000000000000000000000000000000000000000000000081526004016124e190614dba565b60405180910390fd5b6124f3876137d3565b612532576040517f08c379a000000000000000000000000000000000000000000000000000000000815260040161252990614e9a565b60405180910390fd5b6127108410612576576040517f08c379a000000000000000000000000000000000000000000000000000000000815260040161256d90614e7a565b60405180910390fd5b61271083106125ba576040517f08c379a00000000000000000000000000000000000000000000000000000000081526004016125b190614d3a565b60405180910390fd5b61271082106125fe576040517f08c379a00000000000000000000000000000000000000000000000000000000081526004016125f590614c7a565b60405180910390fd5b61271082848661260e9190615214565b6126189190615214565b14612658576040517f08c379a000000000000000000000000000000000000000000000000000000000815260040161264f90614eba565b60405180910390fd5b60006004600089815260200190815260200160002060050160009054906101000a900460ff1660ff16146126c1576040517f08c379a00000000000000000000000000000000000000000000000000000000081526004016126b890614f9a565b60405180910390fd5b600080600061271087600460008d8152602001908152602001600020600001540281612716577f4e487b7100000000000000000000000000000000000000000000000000000000600052601260045260246000fd5b04925061271086600460008d8152602001908152602001600020600001540281612769577f4e487b7100000000000000000000000000000000000000000000000000000000600052601260045260246000fd5b04915061271085600460008d81526020019081526020016000206000015402816127bc577f4e487b7100000000000000000000000000000000000000000000000000000000600052601260045260246000fd5b049050600a60009054906101000a900473ffffffffffffffffffffffffffffffffffffffff1673ffffffffffffffffffffffffffffffffffffffff1663a9059cbb612805611b8b565b856040518363ffffffff1660e01b8152600401612823929190614bb9565b602060405180830381600087803b15801561283d57600080fd5b505af1158015612851573d6000803e3d6000fd5b505050506040513d601f19601f8201168201806040525081019061287591906141fb565b6128b4576040517f08c379a00000000000000000000000000000000000000000000000000000000081526004016128ab90614f1a565b60405180910390fd5b600a60009054906101000a900473ffffffffffffffffffffffffffffffffffffffff1673ffffffffffffffffffffffffffffffffffffffff1663a9059cbb600460008d815260200190815260200160002060010160009054906101000a900473ffffffffffffffffffffffffffffffffffffffff16846040518363ffffffff1660e01b8152600401612947929190614bb9565b602060405180830381600087803b15801561296157600080fd5b505af1158015612975573d6000803e3d6000fd5b505050506040513d601f19601f8201168201806040525081019061299991906141fb565b6129d8576040517f08c379a00000000000000000000000000000000000000000000000000000000081526004016129cf90614efa565b60405180910390fd5b600a60009054906101000a900473ffffffffffffffffffffffffffffffffffffffff1673ffffffffffffffffffffffffffffffffffffffff1663a9059cbb600460008d815260200190815260200160002060020160009054906101000a900473ffffffffffffffffffffffffffffffffffffffff16836040518363ffffffff1660e01b8152600401612a6b929190614bb9565b602060405180830381600087803b158015612a8557600080fd5b505af1158015612a99573d6000803e3d6000fd5b505050506040513d601f19601f82011682018060405250810190612abd91906141fb565b612afc576040517f08c379a0000000000000000000000000000000000000000000000000000000008152600401612af390614c5a565b60405180910390fd5b82600460008c81526020019081526020016000206000015403600460008c815260200190815260200160002060000181905550600060026000600460008e815260200190815260200160002060020160009054906101000a900473ffffffffffffffffffffffffffffffffffffffff1673ffffffffffffffffffffffffffffffffffffffff1673ffffffffffffffffffffffffffffffffffffffff168152602001908152602001600020819055508715612dd6576003600460008c815260200190815260200160002060050160006101000a81548160ff021916908360ff160217905550600460008b815260200190815260200160002060020160009054906101000a900473ffffffffffffffffffffffffffffffffffffffff1673ffffffffffffffffffffffffffffffffffffffff167f16a7286196330eaff0c7db2ec34ead9c6d2d023b356b62ee7ea644c842a84b678b604051612c5c9190614fba565b60405180910390a28815612d8157600160036000600460008e815260200190815260200160002060010160009054906101000a900473ffffffffffffffffffffffffffffffffffffffff1673ffffffffffffffffffffffffffffffffffffffff1673ffffffffffffffffffffffffffffffffffffffff16815260200190815260200160002060006101000a81548160ff021916908315150217905550600460008b815260200190815260200160002060010160009054906101000a900473ffffffffffffffffffffffffffffffffffffffff1673ffffffffffffffffffffffffffffffffffffffff167f3153f56b4c6b1e149a1bd8d73fdb7d149a7a8f073dd0a5581f623122b45250ff8b604051612d749190614fba565b60405180910390a2612dd1565b600073ffffffffffffffffffffffffffffffffffffffff167f3153f56b4c6b1e149a1bd8d73fdb7d149a7a8f073dd0a5581f623122b45250ff8b604051612dc89190614fba565b60405180910390a25b612ff9565b6001600460008c815260200190815260200160002060050160006101000a81548160ff021916908360ff1602179055506000600460008c815260200190815260200160002060020160006101000a81548173ffffffffffffffffffffffffffffffffffffffff021916908373ffffffffffffffffffffffffffffffffffffffff1602179055506000600460008c815260200190815260200160002060050160026101000a81548160ff0219169083151502179055508815612fa857600160036000600460008e815260200190815260200160002060020160009054906101000a900473ffffffffffffffffffffffffffffffffffffffff1673ffffffffffffffffffffffffffffffffffffffff1673ffffffffffffffffffffffffffffffffffffffff16815260200190815260200160002060006101000a81548160ff021916908315150217905550600460008b815260200190815260200160002060020160009054906101000a900473ffffffffffffffffffffffffffffffffffffffff1673ffffffffffffffffffffffffffffffffffffffff167f3153f56b4c6b1e149a1bd8d73fdb7d149a7a8f073dd0a5581f623122b45250ff8b604051612f9b9190614fba565b60405180910390a2612ff8565b600073ffffffffffffffffffffffffffffffffffffffff167f3153f56b4c6b1e149a1bd8d73fdb7d149a7a8f073dd0a5581f623122b45250ff8b604051612fef9190614fba565b60405180910390a25b5b600193505050509695505050505050565b600060016130186009613b4a565b61302291906152f5565b905090565b61302f61383f565b73ffffffffffffffffffffffffffffffffffffffff1661304d611b8b565b73ffffffffffffffffffffffffffffffffffffffff16146130a3576040517f08c379a000000000000000000000000000000000000000000000000000000000815260040161309a90614dba565b60405180910390fd5b600073ffffffffffffffffffffffffffffffffffffffff168173ffffffffffffffffffffffffffffffffffffffff161415613113576040517f08c379a000000000000000000000000000000000000000000000000000000000815260040161310a90614cba565b60405180910390fd5b61311c81613847565b50565b600061312961383f565b73ffffffffffffffffffffffffffffffffffffffff16613147611b8b565b73ffffffffffffffffffffffffffffffffffffffff161461319d576040517f08c379a000000000000000000000000000000000000000000000000000000000815260040161319490614dba565b60405180910390fd5b6131a6826137d3565b6131e5576040517f08c379a00000000000000000000000000000000000000000000000000000000081526004016131dc90614e9a565b60405180910390fd5b60006004600084815260200190815260200160002060050160009054906101000a900460ff1660ff161461324e576040517f08c379a000000000000000000000000000000000000000000000000000000000815260040161324590614f9a565b60405180910390fd5b600a60009054906101000a900473ffffffffffffffffffffffffffffffffffffffff1673ffffffffffffffffffffffffffffffffffffffff1663a9059cbb6001600085815260200190815260200160002060009054906101000a900473ffffffffffffffffffffffffffffffffffffffff1660046000868152602001908152602001600020600001546040518363ffffffff1660e01b81526004016132f4929190614bb9565b602060405180830381600087803b15801561330e57600080fd5b505af1158015613322573d6000803e3d6000fd5b505050506040513d601f19601f8201168201806040525081019061334691906141fb565b613385576040517f08c379a000000000000000000000000000000000000000000000000000000000815260040161337c90614d1a565b60405180910390fd5b60636004600084815260200190815260200160002060050160006101000a81548160ff021916908360ff1602179055506000600260006004600086815260200190815260200160002060020160009054906101000a900473ffffffffffffffffffffffffffffffffffffffff1673ffffffffffffffffffffffffffffffffffffffff1673ffffffffffffffffffffffffffffffffffffffff1681526020019081526020016000208190555060006001600084815260200190815260200160002060006101000a81548173ffffffffffffffffffffffffffffffffffffffff021916908373ffffffffffffffffffffffffffffffffffffffff16021790555060019050919050565b6000601e8351106134d2576040517f08c379a00000000000000000000000000000000000000000000000000000000081526004016134c990614f7a565b60405180910390fd5b8251825114613516576040517f08c379a000000000000000000000000000000000000000000000000000000000815260040161350d90614c3a565b60405180910390fd5b60005b83518110156137c757600084828151811061355d577f4e487b7100000000000000000000000000000000000000000000000000000000600052603260045260246000fd5b602002602001015190506135b07fa6996df8000000000000000000000000000000000000000000000000000000008273ffffffffffffffffffffffffffffffffffffffff16613b6e90919063ffffffff16565b6135bf576000925050506137cd565b60148483815181106135fa577f4e487b7100000000000000000000000000000000000000000000000000000000600052603260045260246000fd5b60200260200101515110613643576040517f08c379a000000000000000000000000000000000000000000000000000000000815260040161363a90614e3a565b60405180910390fd5b60005b84838151811061367f577f4e487b7100000000000000000000000000000000000000000000000000000000600052603260045260246000fd5b6020026020010151518110156137b2578173ffffffffffffffffffffffffffffffffffffffff166365d604496040518163ffffffff1660e01b815260040160206040518083038186803b1580156136d557600080fd5b505afa1580156136e9573d6000803e3d6000fd5b505050506040513d601f19601f8201168201806040525081019061370d919061428e565b858481518110613746577f4e487b7100000000000000000000000000000000000000000000000000000000600052603260045260246000fd5b60200260200101518281518110613786577f4e487b7100000000000000000000000000000000000000000000000000000000600052603260045260246000fd5b60200260200101511061379f57600093505050506137cd565b80806137aa90615440565b915050613646565b505080806137bf90615440565b915050613519565b50600190505b92915050565b60008073ffffffffffffffffffffffffffffffffffffffff166001600084815260200190815260200160002060009054906101000a900473ffffffffffffffffffffffffffffffffffffffff1673ffffffffffffffffffffffffffffffffffffffff1614159050919050565b600033905090565b60008060009054906101000a900473ffffffffffffffffffffffffffffffffffffffff169050816000806101000a81548173ffffffffffffffffffffffffffffffffffffffff021916908373ffffffffffffffffffffffffffffffffffffffff1602179055508173ffffffffffffffffffffffffffffffffffffffff168173ffffffffffffffffffffffffffffffffffffffff167f8be0079c531659141344cd1fd0a4f28419497f9722a3daafe3b4186f6b6457e060405160405180910390a35050565b60606008805461391a906153dd565b80601f0160208091040260200160405190810160405280929190818152602001828054613946906153dd565b80156139935780601f1061396857610100808354040283529160200191613993565b820191906000526020600020905b81548152906001019060200180831161397657829003601f168201915b5050505050905090565b606060008214156139e5576040518060400160405280600181526020017f30000000000000000000000000000000000000000000000000000000000000008152509050613b45565b600082905060005b60008214613a17578080613a0090615440565b915050600a82613a10919061526a565b91506139ed565b60008167ffffffffffffffff811115613a59577f4e487b7100000000000000000000000000000000000000000000000000000000600052604160045260246000fd5b6040519080825280601f01601f191660200182016040528015613a8b5781602001600182028036833780820191505090505b5090505b60008514613b3e57600182613aa491906152f5565b9150600a85613ab39190615489565b6030613abf9190615214565b60f81b818381518110613afb577f4e487b7100000000000000000000000000000000000000000000000000000000600052603260045260246000fd5b60200101907effffffffffffffffffffffffffffffffffffffffffffffffffffffffffffff1916908160001a905350600a85613b37919061526a565b9450613a8f565b8093505050505b919050565b600081600001549050919050565b6001816000016000828254019250508190555050565b6000613b7983613b93565b8015613b8b5750613b8a8383613be0565b5b905092915050565b6000613bbf827f01ffc9a700000000000000000000000000000000000000000000000000000000613be0565b8015613bd95750613bd78263ffffffff60e01b613be0565b155b9050919050565b6000806301ffc9a760e01b83604051602401613bfc9190614bfd565b604051602081830303815290604052907bffffffffffffffffffffffffffffffffffffffffffffffffffffffff19166020820180517bffffffffffffffffffffffffffffffffffffffffffffffffffffffff838183161783525050505090506000808573ffffffffffffffffffffffffffffffffffffffff1661753084604051613c869190614aa2565b6000604051808303818686fa925050503d8060008114613cc2576040519150601f19603f3d011682016040523d82523d6000602084013e613cc7565b606091505b5091509150602081511015613ce25760009350505050613d05565b818015613cff575080806020019051810190613cfe91906141fb565b5b93505050505b92915050565b828054828255906000526020600020908101928215613d84579160200282015b82811115613d835782518260006101000a81548173ffffffffffffffffffffffffffffffffffffffff021916908373ffffffffffffffffffffffffffffffffffffffff16021790555091602001919060010190613d2b565b5b509050613d919190613df5565b5090565b828054828255906000526020600020908101928215613de4579160200282015b82811115613de3578251829080519060200190613dd3929190613e12565b5091602001919060010190613db5565b5b509050613df19190613e5f565b5090565b5b80821115613e0e576000816000905550600101613df6565b5090565b828054828255906000526020600020908101928215613e4e579160200282015b82811115613e4d578251825591602001919060010190613e32565b5b509050613e5b9190613df5565b5090565b5b80821115613e7f5760008181613e769190613e83565b50600101613e60565b5090565b5080546000825590600052602060002090810190613ea19190613df5565b50565b6000613eb7613eb284615077565b615052565b90508083825260208201905082856020860282011115613ed657600080fd5b60005b85811015613f065781613eec8882614040565b845260208401935060208301925050600181019050613ed9565b5050509392505050565b6000613f23613f1e846150a3565b615052565b90508083825260208201905082856020860282011115613f4257600080fd5b60005b85811015613f8c57813567ffffffffffffffff811115613f6457600080fd5b808601613f7189826140a9565b85526020850194506020840193505050600181019050613f45565b5050509392505050565b6000613fa9613fa4846150cf565b615052565b90508083825260208201905082856020860282011115613fc857600080fd5b60005b85811015613ff85781613fde8882614127565b845260208401935060208301925050600181019050613fcb565b5050509392505050565b6000614015614010846150fb565b615052565b90508281526020810184848401111561402d57600080fd5b6140388482856153aa565b509392505050565b60008135905061404f81615a52565b92915050565b600082601f83011261406657600080fd5b8135614076848260208601613ea4565b91505092915050565b600082601f83011261409057600080fd5b81356140a0848260208601613f10565b91505092915050565b600082601f8301126140ba57600080fd5b81356140ca848260208601613f96565b91505092915050565b6000813590506140e281615a69565b92915050565b6000815190506140f781615a69565b92915050565b600082601f83011261410e57600080fd5b815161411e848260208601614002565b91505092915050565b60008135905061413681615a80565b92915050565b60008151905061414b81615a80565b92915050565b60008135905061416081615a97565b92915050565b60006020828403121561417857600080fd5b600061418684828501614040565b91505092915050565b600080604083850312156141a257600080fd5b600083013567ffffffffffffffff8111156141bc57600080fd5b6141c885828601614055565b925050602083013567ffffffffffffffff8111156141e557600080fd5b6141f18582860161407f565b9150509250929050565b60006020828403121561420d57600080fd5b600061421b848285016140e8565b91505092915050565b60006020828403121561423657600080fd5b600082015167ffffffffffffffff81111561425057600080fd5b61425c848285016140fd565b91505092915050565b60006020828403121561427757600080fd5b600061428584828501614127565b91505092915050565b6000602082840312156142a057600080fd5b60006142ae8482850161413c565b91505092915050565b600080604083850312156142ca57600080fd5b60006142d885828601614127565b92505060206142e985828601614040565b9150509250929050565b600080600080600060a0868803121561430b57600080fd5b600061431988828901614127565b955050602061432a88828901614040565b945050604086013567ffffffffffffffff81111561434757600080fd5b61435388828901614055565b935050606086013567ffffffffffffffff81111561437057600080fd5b61437c8882890161407f565b925050608061438d88828901614151565b9150509295509295909350565b60008060008060008060c087890312156143b357600080fd5b60006143c189828a01614127565b96505060206143d289828a016140d3565b95505060406143e389828a016140d3565b94505060606143f489828a01614127565b935050608061440589828a01614127565b92505060a061441689828a01614127565b9150509295509295509295565b600061442f8383614467565b60208301905092915050565b60006144478383614567565b905092915050565b600061445b8383614a75565b60208301905092915050565b61447081615329565b82525050565b61447f81615329565b82525050565b61448e81615329565b82525050565b600061449f8261515c565b6144a981856151ba565b93506144b48361512c565b8060005b838110156144e55781516144cc8882614423565b97506144d783615193565b9250506001810190506144b8565b5085935050505092915050565b60006144fd82615167565b61450781856151cb565b9350836020820285016145198561513c565b8060005b858110156145555784840389528151614536858261443b565b9450614541836151a0565b925060208a0199505060018101905061451d565b50829750879550505050505092915050565b600061457282615172565b61457c81856151dc565b93506145878361514c565b8060005b838110156145b857815161459f888261444f565b97506145aa836151ad565b92505060018101905061458b565b5085935050505092915050565b6145ce8161533b565b82525050565b6145dd81615347565b82525050565b60006145ee8261517d565b6145f881856151ed565b93506146088185602086016153aa565b80840191505092915050565b600061461f82615188565b61462981856151f8565b93506146398185602086016153aa565b61464281615576565b840191505092915050565b600061465882615188565b6146628185615209565b93506146728185602086016153aa565b80840191505092915050565b600061468b6010836151f8565b915061469682615587565b602082019050919050565b60006146ae6011836151f8565b91506146b9826155b0565b602082019050919050565b60006146d16010836151f8565b91506146dc826155d9565b602082019050919050565b60006146f46010836151f8565b91506146ff82615602565b602082019050919050565b60006147176026836151f8565b91506147228261562b565b604082019050919050565b600061473a6010836151f8565b91506147458261567a565b602082019050919050565b600061475d6010836151f8565b9150614768826156a3565b602082019050919050565b60006147806011836151f8565b915061478b826156cc565b602082019050919050565b60006147a36010836151f8565b91506147ae826156f5565b602082019050919050565b60006147c66010836151f8565b91506147d18261571e565b602082019050919050565b60006147e96011836151f8565b91506147f482615747565b602082019050919050565b600061480c6010836151f8565b915061481782615770565b602082019050919050565b600061482f6020836151f8565b915061483a82615799565b602082019050919050565b60006148526010836151f8565b915061485d826157c2565b602082019050919050565b60006148756010836151f8565b9150614880826157eb565b602082019050919050565b60006148986010836151f8565b91506148a382615814565b602082019050919050565b60006148bb6010836151f8565b91506148c68261583d565b602082019050919050565b60006148de6010836151f8565b91506148e982615866565b602082019050919050565b60006149016010836151f8565b915061490c8261588f565b602082019050919050565b60006149246010836151f8565b915061492f826158b8565b602082019050919050565b60006149476011836151f8565b9150614952826158e1565b602082019050919050565b600061496a6010836151f8565b91506149758261590a565b602082019050919050565b600061498d6011836151f8565b915061499882615933565b602082019050919050565b60006149b06011836151f8565b91506149bb8261595c565b602082019050919050565b60006149d36014836151f8565b91506149de82615985565b602082019050919050565b60006149f66011836151f8565b9150614a01826159ae565b602082019050919050565b6000614a196010836151f8565b9150614a24826159d7565b602082019050919050565b6000614a3c600183615209565b9150614a4782615a00565b600182019050919050565b6000614a5f6010836151f8565b9150614a6a82615a29565b602082019050919050565b614a7e81615393565b82525050565b614a8d81615393565b82525050565b614a9c8161539d565b82525050565b6000614aae82846145e3565b915081905092915050565b6000614ac582856145e3565b9150614ad182846145e3565b91508190509392505050565b6000614ae9828561464d565b9150614af5828461464d565b91508190509392505050565b6000614b0c82614a2f565b9150614b18828461464d565b915081905092915050565b6000602082019050614b386000830184614485565b92915050565b6000602082019050614b536000830184614476565b92915050565b6000604082019050614b6e6000830185614476565b614b7b6020830184614476565b9392505050565b6000606082019050614b976000830186614476565b614ba46020830185614476565b614bb16040830184614a84565b949350505050565b6000604082019050614bce6000830185614476565b614bdb6020830184614a84565b9392505050565b6000602082019050614bf760008301846145c5565b92915050565b6000602082019050614c1260008301846145d4565b92915050565b60006020820190508181036000830152614c328184614614565b905092915050565b60006020820190508181036000830152614c538161467e565b9050919050565b60006020820190508181036000830152614c73816146a1565b9050919050565b60006020820190508181036000830152614c93816146c4565b9050919050565b60006020820190508181036000830152614cb3816146e7565b9050919050565b60006020820190508181036000830152614cd38161470a565b9050919050565b60006020820190508181036000830152614cf38161472d565b9050919050565b60006020820190508181036000830152614d1381614750565b9050919050565b60006020820190508181036000830152614d3381614773565b9050919050565b60006020820190508181036000830152614d5381614796565b9050919050565b60006020820190508181036000830152614d73816147b9565b9050919050565b60006020820190508181036000830152614d93816147dc565b9050919050565b60006020820190508181036000830152614db3816147ff565b9050919050565b60006020820190508181036000830152614dd381614822565b9050919050565b60006020820190508181036000830152614df381614845565b9050919050565b60006020820190508181036000830152614e1381614868565b9050919050565b60006020820190508181036000830152614e338161488b565b9050919050565b60006020820190508181036000830152614e53816148ae565b9050919050565b60006020820190508181036000830152614e73816148d1565b9050919050565b60006020820190508181036000830152614e93816148f4565b9050919050565b60006020820190508181036000830152614eb381614917565b9050919050565b60006020820190508181036000830152614ed38161493a565b9050919050565b60006020820190508181036000830152614ef38161495d565b9050919050565b60006020820190508181036000830152614f1381614980565b9050919050565b60006020820190508181036000830152614f33816149a3565b9050919050565b60006020820190508181036000830152614f53816149c6565b9050919050565b60006020820190508181036000830152614f73816149e9565b9050919050565b60006020820190508181036000830152614f9381614a0c565b9050919050565b60006020820190508181036000830152614fb381614a52565b9050919050565b6000602082019050614fcf6000830184614a84565b92915050565b600060e082019050614fea600083018a614a84565b614ff76020830189614476565b6150046040830188614476565b81810360608301526150168187614494565b9050818103608083015261502a81866144f2565b905061503960a0830185614a93565b61504660c0830184614a93565b98975050505050505050565b600061505c61506d565b9050615068828261540f565b919050565b6000604051905090565b600067ffffffffffffffff82111561509257615091615547565b5b602082029050602081019050919050565b600067ffffffffffffffff8211156150be576150bd615547565b5b602082029050602081019050919050565b600067ffffffffffffffff8211156150ea576150e9615547565b5b602082029050602081019050919050565b600067ffffffffffffffff82111561511657615115615547565b5b61511f82615576565b9050602081019050919050565b6000819050602082019050919050565b6000819050602082019050919050565b6000819050602082019050919050565b600081519050919050565b600081519050919050565b600081519050919050565b600081519050919050565b600081519050919050565b6000602082019050919050565b6000602082019050919050565b6000602082019050919050565b600082825260208201905092915050565b600082825260208201905092915050565b600082825260208201905092915050565b600081905092915050565b600082825260208201905092915050565b600081905092915050565b600061521f82615393565b915061522a83615393565b9250827fffffffffffffffffffffffffffffffffffffffffffffffffffffffffffffffff0382111561525f5761525e6154ba565b5b828201905092915050565b600061527582615393565b915061528083615393565b9250826152905761528f6154e9565b5b828204905092915050565b60006152a682615393565b91506152b183615393565b9250817fffffffffffffffffffffffffffffffffffffffffffffffffffffffffffffffff04831182151516156152ea576152e96154ba565b5b828202905092915050565b600061530082615393565b915061530b83615393565b92508282101561531e5761531d6154ba565b5b828203905092915050565b600061533482615373565b9050919050565b60008115159050919050565b60007fffffffff0000000000000000000000000000000000000000000000000000000082169050919050565b600073ffffffffffffffffffffffffffffffffffffffff82169050919050565b6000819050919050565b600060ff82169050919050565b60005b838110156153c85780820151818401526020810190506153ad565b838111156153d7576000848401525b50505050565b600060028204905060018216806153f557607f821691505b6020821081141561540957615408615518565b5b50919050565b61541882615576565b810181811067ffffffffffffffff8211171561543757615436615547565b5b80604052505050565b600061544b82615393565b91507fffffffffffffffffffffffffffffffffffffffffffffffffffffffffffffffff82141561547e5761547d6154ba565b5b600182019050919050565b600061549482615393565b915061549f83615393565b9250826154af576154ae6154e9565b5b828206905092915050565b7f4e487b7100000000000000000000000000000000000000000000000000000000600052601160045260246000fd5b7f4e487b7100000000000000000000000000000000000000000000000000000000600052601260045260246000fd5b7f4e487b7100000000000000000000000000000000000000000000000000000000600052602260045260246000fd5b7f4e487b7100000000000000000000000000000000000000000000000000000000600052604160045260246000fd5b6000601f19601f8301169050919050565b7f4944654775696c64506c75733a20533100000000000000000000000000000000600082015250565b7f4944654775696c64506c75733a204e5454000000000000000000000000000000600082015250565b7f4944654775696c64506c75733a204f5400000000000000000000000000000000600082015250565b7f4944654775696c64506c75733a20434300000000000000000000000000000000600082015250565b7f4f776e61626c653a206e6577206f776e657220697320746865207a65726f206160008201527f6464726573730000000000000000000000000000000000000000000000000000602082015250565b7f4944654775696c64506c75733a204e5100000000000000000000000000000000600082015250565b7f4944654775696c64506c75733a20424300000000000000000000000000000000600082015250565b7f4944654775696c64506c75733a204e5452000000000000000000000000000000600082015250565b7f4944654775696c64506c75733a204f4300000000000000000000000000000000600082015250565b7f4944654775696c64506c75733a20575400000000000000000000000000000000600082015250565b7f4944654775696c64506c75733a20534f53000000000000000000000000000000600082015250565b7f4944654775696c64506c75733a205a5400000000000000000000000000000000600082015250565b7f4f776e61626c653a2063616c6c6572206973206e6f7420746865206f776e6572600082015250565b7f4944654775696c64506c75733a204e4100000000000000000000000000000000600082015250565b7f4944654775696c64506c75733a204e4300000000000000000000000000000000600082015250565b7f4944654775696c64506c75733a204d4300000000000000000000000000000000600082015250565b7f4944654775696c64506c75733a20534b00000000000000000000000000000000600082015250565b7f4944654775696c64506c75733a204a3100000000000000000000000000000000600082015250565b7f4944654775696c64506c75733a204f4600000000000000000000000000000000600082015250565b7f4944654775696c64506c75733a20413000000000000000000000000000000000600082015250565b7f4944654775696c64506c75733a20313030000000000000000000000000000000600082015250565b7f4944654775696c64506c75733a204a3200000000000000000000000000000000600082015250565b7f4944654775696c64506c75733a204e5443000000000000000000000000000000600082015250565b7f4944654775696c64506c75733a204e5446000000000000000000000000000000600082015250565b7f4944654775696c64506c75733a20455243313635000000000000000000000000600082015250565b7f4944654775696c64506c75733a20545230000000000000000000000000000000600082015250565b7f4944654775696c64506c75733a20433100000000000000000000000000000000600082015250565b7f2f00000000000000000000000000000000000000000000000000000000000000600082015250565b7f4944654775696c64506c75733a204a3000000000000000000000000000000000600082015250565b615a5b81615329565b8114615a6657600080fd5b50565b615a728161533b565b8114615a7d57600080fd5b50565b615a8981615393565b8114615a9457600080fd5b50565b615aa08161539d565b8114615aab57600080fd5b5056fea2646970667358221220737036b2fbfbc613f48dd0db8b4048389fae5a85504e46e1999825f2a013814164736f6c63430008040033",
  "linkReferences": {
    "contracts/Utils/EIP-55.sol": {
      "ChecksumLib": [
        {
          "length": 20,
          "start": 6900
        }
      ]
    }
  },
  "deployedLinkReferences": {
    "contracts/Utils/EIP-55.sol": {
      "ChecksumLib": [
        {
          "length": 20,
          "start": 5406
        }
      ]
    }
  }
}