{
  "_format": "hh-sol-artifact-1",
  "contractName": "MagicScrollsPlus",
  "sourceName": "contracts/MagicShop/V2/MagicScrolls+.sol",
  "abi": [
    {
      "inputs": [
        {
          "internalType": "string",
          "name": "name_",
          "type": "string"
        },
        {
          "internalType": "string",
          "name": "symbol_",
          "type": "string"
        },
        {
          "internalType": "string",
          "name": "baseURI_",
          "type": "string"
        },
        {
          "internalType": "address",
          "name": "addressDGT_",
          "type": "address"
        }
      ],
      "stateMutability": "nonpayable",
      "type": "constructor"
    },
    {
      "anonymous": false,
      "inputs": [
        {
          "indexed": true,
          "internalType": "address",
          "name": "account",
          "type": "address"
        },
        {
          "indexed": false,
          "internalType": "bool",
          "name": "status",
          "type": "bool"
        }
      ],
      "name": "ApprovalForCM",
      "type": "event"
    },
    {
      "anonymous": false,
      "inputs": [
        {
          "indexed": true,
          "internalType": "address",
          "name": "previousOwner",
          "type": "address"
        },
        {
          "indexed": true,
          "internalType": "address",
          "name": "newOwner",
          "type": "address"
        }
      ],
      "name": "OwnershipTransferred",
      "type": "event"
    },
    {
      "anonymous": false,
      "inputs": [
        {
          "indexed": true,
          "internalType": "uint256",
          "name": "scrollType",
          "type": "uint256"
        }
      ],
      "name": "ScrollAdded",
      "type": "event"
    },
    {
      "anonymous": false,
      "inputs": [
        {
          "indexed": false,
          "internalType": "uint256",
          "name": "scrollId",
          "type": "uint256"
        },
        {
          "indexed": true,
          "internalType": "uint256",
          "name": "scrollType",
          "type": "uint256"
        },
        {
          "indexed": true,
          "internalType": "address",
          "name": "buyer",
          "type": "address"
        }
      ],
      "name": "ScrollBought",
      "type": "event"
    },
    {
      "anonymous": false,
      "inputs": [
        {
          "indexed": false,
          "internalType": "uint256",
          "name": "scrollId",
          "type": "uint256"
        },
        {
          "indexed": true,
          "internalType": "address",
          "name": "certificateManager",
          "type": "address"
        }
      ],
      "name": "ScrollBurned",
      "type": "event"
    },
    {
      "anonymous": false,
      "inputs": [
        {
          "indexed": false,
          "internalType": "uint256",
          "name": "scrollId",
          "type": "uint256"
        },
        {
          "indexed": true,
          "internalType": "bytes32",
          "name": "passcode",
          "type": "bytes32"
        }
      ],
      "name": "ScrollConsumed",
      "type": "event"
    },
    {
      "inputs": [
        {
          "internalType": "uint256",
          "name": "certificateId",
          "type": "uint256"
        },
        {
          "internalType": "address",
          "name": "prerequisite",
          "type": "address"
        },
        {
          "internalType": "bool",
          "name": "lessonIncluded",
          "type": "bool"
        },
        {
          "internalType": "bool",
          "name": "hasPrerequisite",
          "type": "bool"
        },
        {
          "internalType": "uint256",
          "name": "price",
          "type": "uint256"
        }
      ],
      "name": "addScroll",
      "outputs": [
        {
          "internalType": "bool",
          "name": "",
          "type": "bool"
        }
      ],
      "stateMutability": "nonpayable",
      "type": "function"
    },
    {
      "inputs": [
        {
          "internalType": "address",
          "name": "account",
          "type": "address"
        }
      ],
      "name": "balanceOfAll",
      "outputs": [
        {
          "internalType": "uint256[]",
          "name": "",
          "type": "uint256[]"
        }
      ],
      "stateMutability": "view",
      "type": "function"
    },
    {
      "inputs": [
        {
          "internalType": "address",
          "name": "account",
          "type": "address"
        },
        {
          "internalType": "uint256",
          "name": "id",
          "type": "uint256"
        }
      ],
      "name": "balanceOfOne",
      "outputs": [
        {
          "internalType": "uint256",
          "name": "",
          "type": "uint256"
        }
      ],
      "stateMutability": "view",
      "type": "function"
    },
    {
      "inputs": [
        {
          "internalType": "address",
          "name": "account",
          "type": "address"
        }
      ],
      "name": "balanceUserOwned",
      "outputs": [
        {
          "internalType": "uint256[]",
          "name": "",
          "type": "uint256[]"
        }
      ],
      "stateMutability": "view",
      "type": "function"
    },
    {
      "inputs": [
        {
          "internalType": "uint256",
          "name": "id",
          "type": "uint256"
        }
      ],
      "name": "burn",
      "outputs": [
        {
          "internalType": "bool",
          "name": "",
          "type": "bool"
        }
      ],
      "stateMutability": "nonpayable",
      "type": "function"
    },
    {
      "inputs": [
        {
          "internalType": "uint256",
          "name": "scrollType",
          "type": "uint256"
        }
      ],
      "name": "buyScroll",
      "outputs": [
        {
          "internalType": "bool",
          "name": "",
          "type": "bool"
        }
      ],
      "stateMutability": "nonpayable",
      "type": "function"
    },
    {
      "inputs": [
        {
          "internalType": "uint256",
          "name": "id",
          "type": "uint256"
        },
        {
          "internalType": "string",
          "name": "data",
          "type": "string"
        }
      ],
      "name": "consume",
      "outputs": [
        {
          "internalType": "bool",
          "name": "",
          "type": "bool"
        }
      ],
      "stateMutability": "nonpayable",
      "type": "function"
    },
    {
      "inputs": [],
      "name": "deguildCoin",
      "outputs": [
        {
          "internalType": "address",
          "name": "",
          "type": "address"
        }
      ],
      "stateMutability": "view",
      "type": "function"
    },
    {
      "inputs": [
        {
          "internalType": "uint256",
          "name": "id",
          "type": "uint256"
        }
      ],
      "name": "forceCancel",
      "outputs": [
        {
          "internalType": "bool",
          "name": "",
          "type": "bool"
        }
      ],
      "stateMutability": "nonpayable",
      "type": "function"
    },
    {
      "inputs": [
        {
          "internalType": "address",
          "name": "manager",
          "type": "address"
        }
      ],
      "name": "isCertificateManager",
      "outputs": [
        {
          "internalType": "bool",
          "name": "",
          "type": "bool"
        }
      ],
      "stateMutability": "view",
      "type": "function"
    },
    {
      "inputs": [
        {
          "internalType": "uint256",
          "name": "scrollType",
          "type": "uint256"
        },
        {
          "internalType": "address",
          "name": "buyer",
          "type": "address"
        }
      ],
      "name": "isPurchasableScroll",
      "outputs": [
        {
          "internalType": "bool",
          "name": "",
          "type": "bool"
        }
      ],
      "stateMutability": "view",
      "type": "function"
    },
    {
      "inputs": [],
      "name": "name",
      "outputs": [
        {
          "internalType": "string",
          "name": "",
          "type": "string"
        }
      ],
      "stateMutability": "view",
      "type": "function"
    },
    {
      "inputs": [],
      "name": "numberOfScrollTypes",
      "outputs": [
        {
          "internalType": "uint256",
          "name": "",
          "type": "uint256"
        }
      ],
      "stateMutability": "view",
      "type": "function"
    },
    {
      "inputs": [],
      "name": "owner",
      "outputs": [
        {
          "internalType": "address",
          "name": "",
          "type": "address"
        }
      ],
      "stateMutability": "view",
      "type": "function"
    },
    {
      "inputs": [
        {
          "internalType": "uint256",
          "name": "id",
          "type": "uint256"
        }
      ],
      "name": "ownerOf",
      "outputs": [
        {
          "internalType": "address",
          "name": "",
          "type": "address"
        }
      ],
      "stateMutability": "view",
      "type": "function"
    },
    {
      "inputs": [],
      "name": "renounceOwnership",
      "outputs": [],
      "stateMutability": "nonpayable",
      "type": "function"
    },
    {
      "inputs": [
        {
          "internalType": "uint256",
          "name": "tokenId",
          "type": "uint256"
        }
      ],
      "name": "scrollInfo",
      "outputs": [
        {
          "internalType": "uint256",
          "name": "",
          "type": "uint256"
        },
        {
          "internalType": "uint256",
          "name": "",
          "type": "uint256"
        },
        {
          "internalType": "uint256",
          "name": "",
          "type": "uint256"
        },
        {
          "internalType": "uint256",
          "name": "",
          "type": "uint256"
        },
        {
          "internalType": "address",
          "name": "",
          "type": "address"
        },
        {
          "internalType": "bool",
          "name": "",
          "type": "bool"
        },
        {
          "internalType": "bool",
          "name": "",
          "type": "bool"
        }
      ],
      "stateMutability": "view",
      "type": "function"
    },
    {
      "inputs": [
        {
          "internalType": "uint256",
          "name": "typeId",
          "type": "uint256"
        }
      ],
      "name": "scrollTypeInfo",
      "outputs": [
        {
          "internalType": "uint256",
          "name": "",
          "type": "uint256"
        },
        {
          "internalType": "uint256",
          "name": "",
          "type": "uint256"
        },
        {
          "internalType": "uint256",
          "name": "",
          "type": "uint256"
        },
        {
          "internalType": "address",
          "name": "",
          "type": "address"
        },
        {
          "internalType": "bool",
          "name": "",
          "type": "bool"
        },
        {
          "internalType": "bool",
          "name": "",
          "type": "bool"
        },
        {
          "internalType": "bool",
          "name": "",
          "type": "bool"
        }
      ],
      "stateMutability": "view",
      "type": "function"
    },
    {
      "inputs": [],
      "name": "scrollTypes",
      "outputs": [
        {
          "internalType": "uint256[]",
          "name": "",
          "type": "uint256[]"
        }
      ],
      "stateMutability": "view",
      "type": "function"
    },
    {
      "inputs": [
        {
          "internalType": "uint256",
          "name": "scrollType",
          "type": "uint256"
        }
      ],
      "name": "sealScroll",
      "outputs": [
        {
          "internalType": "bool",
          "name": "",
          "type": "bool"
        }
      ],
      "stateMutability": "nonpayable",
      "type": "function"
    },
    {
      "inputs": [
        {
          "internalType": "address",
          "name": "manager",
          "type": "address"
        },
        {
          "internalType": "bool",
          "name": "status",
          "type": "bool"
        }
      ],
      "name": "setCertificateManager",
      "outputs": [
        {
          "internalType": "bool",
          "name": "",
          "type": "bool"
        }
      ],
      "stateMutability": "nonpayable",
      "type": "function"
    },
    {
      "inputs": [],
      "name": "symbol",
      "outputs": [
        {
          "internalType": "string",
          "name": "",
          "type": "string"
        }
      ],
      "stateMutability": "view",
      "type": "function"
    },
    {
      "inputs": [
        {
          "internalType": "uint256",
          "name": "tokenTypeId",
          "type": "uint256"
        }
      ],
      "name": "tokenTypeURI",
      "outputs": [
        {
          "internalType": "string",
          "name": "",
          "type": "string"
        }
      ],
      "stateMutability": "view",
      "type": "function"
    },
    {
      "inputs": [
        {
          "internalType": "uint256",
          "name": "tokenId",
          "type": "uint256"
        }
      ],
      "name": "tokenURI",
      "outputs": [
        {
          "internalType": "string",
          "name": "",
          "type": "string"
        }
      ],
      "stateMutability": "view",
      "type": "function"
    },
    {
      "inputs": [
        {
          "internalType": "address",
          "name": "newOwner",
          "type": "address"
        }
      ],
      "name": "transferOwnership",
      "outputs": [],
      "stateMutability": "nonpayable",
      "type": "function"
    }
  ],
  "bytecode": "0x608060405260405180602001604052806000815250600a60008201518160000155505060405180602001604052806000815250600b6000820151816000015550503480156200004d57600080fd5b50604051620049de380380620049de83398181016040528101906200007391906200036f565b62000093620000876200016a60201b60201c565b6200017260201b60201c565b8360079080519060200190620000ab92919062000236565b508260089080519060200190620000c492919062000236565b5080600660006101000a81548173ffffffffffffffffffffffffffffffffffffffff021916908373ffffffffffffffffffffffffffffffffffffffff16021790555081600990805190602001906200011e92919062000236565b5080600c60006101000a81548173ffffffffffffffffffffffffffffffffffffffff021916908373ffffffffffffffffffffffffffffffffffffffff16021790555050505050620005e4565b600033905090565b60008060009054906101000a900473ffffffffffffffffffffffffffffffffffffffff169050816000806101000a81548173ffffffffffffffffffffffffffffffffffffffff021916908373ffffffffffffffffffffffffffffffffffffffff1602179055508173ffffffffffffffffffffffffffffffffffffffff168173ffffffffffffffffffffffffffffffffffffffff167f8be0079c531659141344cd1fd0a4f28419497f9722a3daafe3b4186f6b6457e060405160405180910390a35050565b8280546200024490620004ef565b90600052602060002090601f016020900481019282620002685760008555620002b4565b82601f106200028357805160ff1916838001178555620002b4565b82800160010185558215620002b4579182015b82811115620002b357825182559160200191906001019062000296565b5b509050620002c39190620002c7565b5090565b5b80821115620002e2576000816000905550600101620002c8565b5090565b6000620002fd620002f7846200044f565b62000426565b9050828152602081018484840111156200031657600080fd5b62000323848285620004b9565b509392505050565b6000815190506200033c81620005ca565b92915050565b600082601f8301126200035457600080fd5b815162000366848260208601620002e6565b91505092915050565b600080600080608085870312156200038657600080fd5b600085015167ffffffffffffffff811115620003a157600080fd5b620003af8782880162000342565b945050602085015167ffffffffffffffff811115620003cd57600080fd5b620003db8782880162000342565b935050604085015167ffffffffffffffff811115620003f957600080fd5b620004078782880162000342565b92505060606200041a878288016200032b565b91505092959194509250565b60006200043262000445565b905062000440828262000525565b919050565b6000604051905090565b600067ffffffffffffffff8211156200046d576200046c6200058a565b5b6200047882620005b9565b9050602081019050919050565b6000620004928262000499565b9050919050565b600073ffffffffffffffffffffffffffffffffffffffff82169050919050565b60005b83811015620004d9578082015181840152602081019050620004bc565b83811115620004e9576000848401525b50505050565b600060028204905060018216806200050857607f821691505b602082108114156200051f576200051e6200055b565b5b50919050565b6200053082620005b9565b810181811067ffffffffffffffff821117156200055257620005516200058a565b5b80604052505050565b7f4e487b7100000000000000000000000000000000000000000000000000000000600052602260045260246000fd5b7f4e487b7100000000000000000000000000000000000000000000000000000000600052604160045260246000fd5b6000601f19601f8301169050919050565b620005d58162000485565b8114620005e157600080fd5b50565b6143ea80620005f46000396000f3fe608060405234801561001057600080fd5b50600436106101735760003560e01c8063885a72a9116100de578063cb9d6aa511610097578063edad415c11610071578063edad415c146104e2578063f2fde38b14610512578063f438f0191461052e578063fe992c981461055e57610173565b8063cb9d6aa51461045e578063d555825614610494578063d988ca16146104c457610173565b8063885a72a9146103625780638da5cb5b1461039257806395d89b41146103b05780639c16f149146103ce578063c87b56dd146103fe578063c8bb779e1461042e57610173565b806339caa9bf1161013057806339caa9bf1461027457806342966c68146102a457806346b88e07146102d45780634fbefc6e1461030a5780636352211e14610328578063715018a61461035857610173565b806306fdde03146101785780630dc3e7f4146101965780630f763562146101c657806313506cc3146101f6578063213f1ce514610226578063251affd314610244575b600080fd5b61018061058e565b60405161018d9190613522565b60405180910390f35b6101b060048036038101906101ab9190612d17565b610620565b6040516101bd91906134ec565b60405180910390f35b6101e060048036038101906101db9190612e87565b610676565b6040516101ed91906134ec565b60405180910390f35b610210600480360381019061020b9190612e22565b61070e565b60405161021d91906134ec565b60405180910390f35b61022e610722565b60405161023b91906134ca565b60405180910390f35b61025e60048036038101906102599190612e22565b6108a3565b60405161026b91906134ec565b60405180910390f35b61028e60048036038101906102899190612d7c565b610934565b60405161029b91906137c4565b60405180910390f35b6102be60048036038101906102b99190612e22565b6109fe565b6040516102cb91906134ec565b60405180910390f35b6102ee60048036038101906102e99190612e22565b610a12565b60405161030197969594939291906137df565b60405180910390f35b610312610ba3565b60405161031f919061344f565b60405180910390f35b610342600480360381019061033d9190612e22565b610bcd565b60405161034f919061344f565b60405180910390f35b610360610c7f565b005b61037c60048036038101906103779190612e22565b610d07565b6040516103899190613522565b60405180910390f35b61039a610e91565b6040516103a7919061344f565b60405180910390f35b6103b8610eba565b6040516103c59190613522565b60405180910390f35b6103e860048036038101906103e39190612efe565b610f4c565b6040516103f591906134ec565b60405180910390f35b61041860048036038101906104139190612e22565b610f62565b6040516104259190613522565b60405180910390f35b61044860048036038101906104439190612e4b565b610fd8565b60405161045591906134ec565b60405180910390f35b61047860048036038101906104739190612e22565b611254565b60405161048b979695949392919061384e565b60405180910390f35b6104ae60048036038101906104a99190612d17565b6113e5565b6040516104bb91906134ca565b60405180910390f35b6104cc611665565b6040516104d991906137c4565b60405180910390f35b6104fc60048036038101906104f79190612d40565b611676565b60405161050991906134ec565b60405180910390f35b61052c60048036038101906105279190612d17565b6117a3565b005b61054860048036038101906105439190612e22565b61189b565b60405161055591906134ec565b60405180910390f35b61057860048036038101906105739190612d17565b6118af565b60405161058591906134ca565b60405180910390f35b60606007805461059d90613b24565b80601f01602080910402602001604051908101604052809291908181526020018280546105c990613b24565b80156106165780601f106105eb57610100808354040283529160200191610616565b820191906000526020600020905b8154815290600101906020018083116105f957829003601f168201915b5050505050905090565b6000600560008373ffffffffffffffffffffffffffffffffffffffff1673ffffffffffffffffffffffffffffffffffffffff16815260200190815260200160002060009054906101000a900460ff169050919050565b60006106806119ab565b73ffffffffffffffffffffffffffffffffffffffff1661069e610e91565b73ffffffffffffffffffffffffffffffffffffffff16146106f4576040517f08c379a00000000000000000000000000000000000000000000000000000000081526004016106eb90613684565b60405180910390fd5b61070186868686866119b3565b6001905095945050505050565b600061071982611b63565b60019050919050565b6060806000805b610733600b611f6e565b811015610785576003600082815260200190815260200160002060030160179054906101000a900460ff161561077257818061076e90613b87565b9250505b808061077d90613b87565b915050610729565b508067ffffffffffffffff8111156107c6577f4e487b7100000000000000000000000000000000000000000000000000000000600052604160045260246000fd5b6040519080825280602002602001820160405280156107f45781602001602082028036833780820191505090505b50915060005b610804600b611f6e565b81101561089a576003600082815260200190815260200160002060030160179054906101000a900460ff16156108875780838361084090613afa565b9350838151811061087a577f4e487b7100000000000000000000000000000000000000000000000000000000600052603260045260246000fd5b6020026020010181815250505b808061089290613b87565b9150506107fa565b50819250505090565b60006108ad6119ab565b73ffffffffffffffffffffffffffffffffffffffff166108cb610e91565b73ffffffffffffffffffffffffffffffffffffffff1614610921576040517f08c379a000000000000000000000000000000000000000000000000000000000815260040161091890613684565b60405180910390fd5b61092a82611f7c565b5060019050919050565b60008073ffffffffffffffffffffffffffffffffffffffff168373ffffffffffffffffffffffffffffffffffffffff1614156109a5576040517f08c379a000000000000000000000000000000000000000000000000000000000815260040161099c906137a4565b60405180910390fd5b6004600083815260200190815260200160002060008473ffffffffffffffffffffffffffffffffffffffff1673ffffffffffffffffffffffffffffffffffffffff16815260200190815260200160002054905092915050565b6000610a0982611ffe565b60019050919050565b6000806000806000806000610a268861231c565b610a65576040517f08c379a0000000000000000000000000000000000000000000000000000000008152600401610a5c90613744565b60405180910390fd5b6000600360008a8152602001908152602001600020604051806101000160405290816000820154815260200160018201548152602001600282015481526020016003820160009054906101000a900473ffffffffffffffffffffffffffffffffffffffff1673ffffffffffffffffffffffffffffffffffffffff1673ffffffffffffffffffffffffffffffffffffffff1681526020016003820160149054906101000a900460ff1660ff1660ff1681526020016003820160159054906101000a900460ff161515151581526020016003820160169054906101000a900460ff161515151581526020016003820160179054906101000a900460ff1615151515815250509050888160200151826040015183606001518460a001518560c001518660e00151975097509750975097509750975050919395979092949650565b6000600660009054906101000a900473ffffffffffffffffffffffffffffffffffffffff16905090565b6000806001600084815260200190815260200160002060009054906101000a900473ffffffffffffffffffffffffffffffffffffffff169050600073ffffffffffffffffffffffffffffffffffffffff168173ffffffffffffffffffffffffffffffffffffffff161415610c76576040517f08c379a0000000000000000000000000000000000000000000000000000000008152600401610c6d906135a4565b60405180910390fd5b80915050919050565b610c876119ab565b73ffffffffffffffffffffffffffffffffffffffff16610ca5610e91565b73ffffffffffffffffffffffffffffffffffffffff1614610cfb576040517f08c379a0000000000000000000000000000000000000000000000000000000008152600401610cf290613684565b60405180910390fd5b610d056000612394565b565b6060610d128261231c565b610d51576040517f08c379a0000000000000000000000000000000000000000000000000000000008152600401610d4890613664565b60405180910390fd5b6000610d5b612458565b90506000815111610d7b5760405180602001604052806000815250610e89565b803073ffffffffffffffffffffffffffffffffffffffff1673__$124e1a4c5367a62965a30c61a01a42cb5d$__637cd6f8ff90916040518263ffffffff1660e01b8152600401610dcb9190613434565b60006040518083038186803b158015610de357600080fd5b505af4158015610df7573d6000803e3d6000fd5b505050506040513d6000823e3d601f19601f82011682018060405250810190610e209190612de1565b604051602001610e319291906133ee565b604051602081830303815290604052610e49846124ea565b604051602001610e599190613412565b604051602081830303815290604052604051602001610e799291906133b3565b6040516020818303038152906040525b915050919050565b60008060009054906101000a900473ffffffffffffffffffffffffffffffffffffffff16905090565b606060088054610ec990613b24565b80601f0160208091040260200160405190810160405280929190818152602001828054610ef590613b24565b8015610f425780601f10610f1757610100808354040283529160200191610f42565b820191906000526020600020905b815481529060010190602001808311610f2557829003601f168201915b5050505050905090565b6000610f588383612697565b6001905092915050565b6060610f6d8261288a565b610fac576040517f08c379a0000000000000000000000000000000000000000000000000000000008152600401610fa390613724565b60405180910390fd5b600060026000848152602001908152602001600020600001549050610fd081610d07565b915050919050565b6000610fe38361231c565b611022576040517f08c379a000000000000000000000000000000000000000000000000000000000815260040161101990613644565b60405180910390fd5b6003600084815260200190815260200160002060030160179054906101000a900460ff16611085576040517f08c379a000000000000000000000000000000000000000000000000000000000815260040161107c90613584565b60405180910390fd5b6003600084815260200190815260200160002060030160169054906101000a900460ff166110b6576001905061124e565b6111357fa6996df8000000000000000000000000000000000000000000000000000000006003600086815260200190815260200160002060030160009054906101000a900473ffffffffffffffffffffffffffffffffffffffff1673ffffffffffffffffffffffffffffffffffffffff166128f690919063ffffffff16565b611174576040517f08c379a000000000000000000000000000000000000000000000000000000000815260040161116b906135e4565b60405180910390fd5b6003600084815260200190815260200160002060030160009054906101000a900473ffffffffffffffffffffffffffffffffffffffff1673ffffffffffffffffffffffffffffffffffffffff16636704fe9f8360036000878152602001908152602001600020600201546040518363ffffffff1660e01b81526004016111fb9291906134a1565b60206040518083038186803b15801561121357600080fd5b505afa158015611227573d6000803e3d6000fd5b505050506040513d601f19601f8201168201806040525081019061124b9190612db8565b90505b92915050565b60008060008060008060006112688861288a565b6112a7576040517f08c379a000000000000000000000000000000000000000000000000000000000815260040161129e90613784565b60405180910390fd5b6000600260008a8152602001908152602001600020604051806101000160405290816000820154815260200160018201548152602001600282015481526020016003820160009054906101000a900473ffffffffffffffffffffffffffffffffffffffff1673ffffffffffffffffffffffffffffffffffffffff1673ffffffffffffffffffffffffffffffffffffffff1681526020016003820160149054906101000a900460ff1660ff1660ff1681526020016003820160159054906101000a900460ff161515151581526020016003820160169054906101000a900460ff161515151581526020016003820160179054906101000a900460ff16151515158152505090508881600001518260200151836040015184606001518560a001518660c00151975097509750975097509750975050919395979092949650565b6060600073ffffffffffffffffffffffffffffffffffffffff168273ffffffffffffffffffffffffffffffffffffffff161415611457576040517f08c379a000000000000000000000000000000000000000000000000000000000815260040161144e906137a4565b60405180910390fd5b6000805b611465600a611f6e565b8110156114f5578373ffffffffffffffffffffffffffffffffffffffff166001600083815260200190815260200160002060009054906101000a900473ffffffffffffffffffffffffffffffffffffffff1673ffffffffffffffffffffffffffffffffffffffff1614156114e25781806114de90613b87565b9250505b80806114ed90613b87565b91505061145b565b5060008167ffffffffffffffff811115611538577f4e487b7100000000000000000000000000000000000000000000000000000000600052604160045260246000fd5b6040519080825280602002602001820160405280156115665781602001602082028036833780820191505090505b50905060006001611577600a611f6e565b6115819190613a10565b90505b600081111561165a578473ffffffffffffffffffffffffffffffffffffffff166001600083815260200190815260200160002060009054906101000a900473ffffffffffffffffffffffffffffffffffffffff1673ffffffffffffffffffffffffffffffffffffffff1614156116475780828461160090613afa565b9450848151811061163a577f4e487b7100000000000000000000000000000000000000000000000000000000600052603260045260246000fd5b6020026020010181815250505b808061165290613afa565b915050611584565b508092505050919050565b6000611671600b611f6e565b905090565b60006116806119ab565b73ffffffffffffffffffffffffffffffffffffffff1661169e610e91565b73ffffffffffffffffffffffffffffffffffffffff16146116f4576040517f08c379a00000000000000000000000000000000000000000000000000000000081526004016116eb90613684565b60405180910390fd5b81600560008573ffffffffffffffffffffffffffffffffffffffff1673ffffffffffffffffffffffffffffffffffffffff16815260200190815260200160002060006101000a81548160ff0219169083151502179055508273ffffffffffffffffffffffffffffffffffffffff167ffe99886f7838dde3fc1f7346eae6da7cc126441a08a16c8b1b45c7b10d455aff8360405161179191906134ec565b60405180910390a26001905092915050565b6117ab6119ab565b73ffffffffffffffffffffffffffffffffffffffff166117c9610e91565b73ffffffffffffffffffffffffffffffffffffffff161461181f576040517f08c379a000000000000000000000000000000000000000000000000000000000815260040161181690613684565b60405180910390fd5b600073ffffffffffffffffffffffffffffffffffffffff168173ffffffffffffffffffffffffffffffffffffffff16141561188f576040517f08c379a000000000000000000000000000000000000000000000000000000000815260040161188690613544565b60405180910390fd5b61189881612394565b50565b60006118a68261291b565b60019050919050565b606060006118bd600b611f6e565b67ffffffffffffffff8111156118fc577f4e487b7100000000000000000000000000000000000000000000000000000000600052604160045260246000fd5b60405190808252806020026020018201604052801561192a5781602001602082028036833780820191505090505b50905060005b61193a600b611f6e565b8110156119a15761194b8482610934565b828281518110611984577f4e487b7100000000000000000000000000000000000000000000000000000000600052603260045260246000fd5b6020026020010181815250508061199a90613b87565b9050611930565b5080915050919050565b600033905090565b6040518061010001604052806119c9600b611f6e565b81526020018281526020018681526020018573ffffffffffffffffffffffffffffffffffffffff168152602001600160ff168152602001841515815260200183151581526020016001151581525060036000611a25600b611f6e565b815260200190815260200160002060008201518160000155602082015181600101556040820151816002015560608201518160030160006101000a81548173ffffffffffffffffffffffffffffffffffffffff021916908373ffffffffffffffffffffffffffffffffffffffff16021790555060808201518160030160146101000a81548160ff021916908360ff16021790555060a08201518160030160156101000a81548160ff02191690831515021790555060c08201518160030160166101000a81548160ff02191690831515021790555060e08201518160030160176101000a81548160ff021916908315150217905550905050611b26600b611f6e565b7fbf0319f78aaf9f9c003505ca82c405688492a8be0d84ffe6f01e7bab23cefdf260405160405180910390a2611b5c600b612a65565b5050505050565b611b7481611b6f6119ab565b610fd8565b611bb3576040517f08c379a0000000000000000000000000000000000000000000000000000000008152600401611baa90613604565b60405180910390fd5b600c60009054906101000a900473ffffffffffffffffffffffffffffffffffffffff1673ffffffffffffffffffffffffffffffffffffffff166323b872dd611bf96119ab565b611c01610e91565b60036000868152602001908152602001600020600101546040518463ffffffff1660e01b8152600401611c369392919061346a565b602060405180830381600087803b158015611c5057600080fd5b505af1158015611c64573d6000803e3d6000fd5b505050506040513d601f19601f82011682018060405250810190611c889190612db8565b611cc7576040517f08c379a0000000000000000000000000000000000000000000000000000000008152600401611cbe906136e4565b60405180910390fd5b6003600082815260200190815260200160002060026000611ce8600a611f6e565b81526020019081526020016000206000820154816000015560018201548160010155600282015481600201556003820160009054906101000a900473ffffffffffffffffffffffffffffffffffffffff168160030160006101000a81548173ffffffffffffffffffffffffffffffffffffffff021916908373ffffffffffffffffffffffffffffffffffffffff1602179055506003820160149054906101000a900460ff168160030160146101000a81548160ff021916908360ff1602179055506003820160159054906101000a900460ff168160030160156101000a81548160ff0219169083151502179055506003820160169054906101000a900460ff168160030160166101000a81548160ff0219169083151502179055506003820160179054906101000a900460ff168160030160176101000a81548160ff021916908315150217905550905050611e3b6119ab565b60016000611e49600a611f6e565b815260200190815260200160002060006101000a81548173ffffffffffffffffffffffffffffffffffffffff021916908373ffffffffffffffffffffffffffffffffffffffff160217905550600460008281526020019081526020016000206000611eb26119ab565b73ffffffffffffffffffffffffffffffffffffffff1673ffffffffffffffffffffffffffffffffffffffff1681526020019081526020016000206000815480929190611efd90613b87565b9190505550611f0a6119ab565b73ffffffffffffffffffffffffffffffffffffffff16817f78d1d35cef10fdd663dbf46bbb276e9a504f11fc6594e11ff6fefd072b12b5c0611f4c600a611f6e565b604051611f5991906137c4565b60405180910390a3611f6b600a612a65565b50565b600081600001549050919050565b6000611f878261231c565b611fc6576040517f08c379a0000000000000000000000000000000000000000000000000000000008152600401611fbd90613744565b60405180910390fd5b60006003600084815260200190815260200160002060030160176101000a81548160ff02191690831515021790555060019050919050565b6120078161288a565b612046576040517f08c379a000000000000000000000000000000000000000000000000000000000815260040161203d906136a4565b60405180910390fd5b6120967fa6996df8000000000000000000000000000000000000000000000000000000006120726119ab565b73ffffffffffffffffffffffffffffffffffffffff166128f690919063ffffffff16565b6120d5576040517f08c379a00000000000000000000000000000000000000000000000000000000081526004016120cc90613564565b60405180910390fd5b6120e56120e06119ab565b610620565b612124576040517f08c379a000000000000000000000000000000000000000000000000000000000815260040161211b906135c4565b60405180910390fd5b60016002600083815260200190815260200160002060030160149054906101000a900460ff1660ff16148061217e5750600280600083815260200190815260200160002060030160149054906101000a900460ff1660ff16145b6121bd576040517f08c379a00000000000000000000000000000000000000000000000000000000081526004016121b490613704565b60405180910390fd5b600460006002600084815260200190815260200160002060000154815260200190815260200160002060006121f183610bcd565b73ffffffffffffffffffffffffffffffffffffffff1673ffffffffffffffffffffffffffffffffffffffff168152602001908152602001600020600081548092919061223c90613afa565b919050555060006002600083815260200190815260200160002060030160146101000a81548160ff021916908360ff16021790555060006001600083815260200190815260200160002060006101000a81548173ffffffffffffffffffffffffffffffffffffffff021916908373ffffffffffffffffffffffffffffffffffffffff1602179055506122cc6119ab565b73ffffffffffffffffffffffffffffffffffffffff167fbcb366f830b7161c969000192ba6e4332a8de75eb4a1c6a8cc0491f427542c6c8260405161231191906137c4565b60405180910390a250565b600081612329600b611f6e565b11612369576040517f08c379a0000000000000000000000000000000000000000000000000000000008152600401612360906136c4565b60405180910390fd5b6003600083815260200190815260200160002060030160179054906101000a900460ff169050919050565b60008060009054906101000a900473ffffffffffffffffffffffffffffffffffffffff169050816000806101000a81548173ffffffffffffffffffffffffffffffffffffffff021916908373ffffffffffffffffffffffffffffffffffffffff1602179055508173ffffffffffffffffffffffffffffffffffffffff168173ffffffffffffffffffffffffffffffffffffffff167f8be0079c531659141344cd1fd0a4f28419497f9722a3daafe3b4186f6b6457e060405160405180910390a35050565b60606009805461246790613b24565b80601f016020809104026020016040519081016040528092919081815260200182805461249390613b24565b80156124e05780601f106124b5576101008083540402835291602001916124e0565b820191906000526020600020905b8154815290600101906020018083116124c357829003601f168201915b5050505050905090565b60606000821415612532576040518060400160405280600181526020017f30000000000000000000000000000000000000000000000000000000000000008152509050612692565b600082905060005b6000821461256457808061254d90613b87565b915050600a8261255d91906139df565b915061253a565b60008167ffffffffffffffff8111156125a6577f4e487b7100000000000000000000000000000000000000000000000000000000600052604160045260246000fd5b6040519080825280601f01601f1916602001820160405280156125d85781602001600182028036833780820191505090505b5090505b6000851461268b576001826125f19190613a10565b9150600a856126009190613bd0565b603061260c9190613989565b60f81b818381518110612648577f4e487b7100000000000000000000000000000000000000000000000000000000600052603260045260246000fd5b60200101907effffffffffffffffffffffffffffffffffffffffffffffffffffffffffffff1916908160001a905350600a8561268491906139df565b94506125dc565b8093505050505b919050565b6126a08261288a565b6126df576040517f08c379a00000000000000000000000000000000000000000000000000000000081526004016126d6906135a4565b60405180910390fd5b6126e76119ab565b73ffffffffffffffffffffffffffffffffffffffff166001600061270b600a611f6e565b815260200190815260200160002060009054906101000a900473ffffffffffffffffffffffffffffffffffffffff1673ffffffffffffffffffffffffffffffffffffffff1614612790576040517f08c379a000000000000000000000000000000000000000000000000000000000815260040161278790613764565b60405180910390fd5b60016002600084815260200190815260200160002060030160149054906101000a900460ff1660ff16146127f9576040517f08c379a00000000000000000000000000000000000000000000000000000000081526004016127f090613624565b60405180910390fd5b600280600084815260200190815260200160002060030160146101000a81548160ff021916908360ff1602179055508060405160200161283991906133d7565b604051602081830303815290604052805190602001207fa3d3a3bf9e68e2dd88744994f6155302aae02846d3a369e1e341c363b51879e48360405161287e91906137c4565b60405180910390a25050565b60008073ffffffffffffffffffffffffffffffffffffffff166001600084815260200190815260200160002060009054906101000a900473ffffffffffffffffffffffffffffffffffffffff1673ffffffffffffffffffffffffffffffffffffffff1614159050919050565b600061290183612a7b565b801561291357506129128383612ac8565b5b905092915050565b6129236119ab565b73ffffffffffffffffffffffffffffffffffffffff16612941610e91565b73ffffffffffffffffffffffffffffffffffffffff1614612997576040517f08c379a000000000000000000000000000000000000000000000000000000000815260040161298e90613684565b60405180910390fd5b6129a08161288a565b6129df576040517f08c379a00000000000000000000000000000000000000000000000000000000081526004016129d6906135a4565b60405180910390fd5b60636002600083815260200190815260200160002060030160146101000a81548160ff021916908360ff16021790555060006001600083815260200190815260200160002060006101000a81548173ffffffffffffffffffffffffffffffffffffffff021916908373ffffffffffffffffffffffffffffffffffffffff16021790555050565b6001816000016000828254019250508190555050565b6000612aa7827f01ffc9a700000000000000000000000000000000000000000000000000000000612ac8565b8015612ac15750612abf8263ffffffff60e01b612ac8565b155b9050919050565b6000806301ffc9a760e01b83604051602401612ae49190613507565b604051602081830303815290604052907bffffffffffffffffffffffffffffffffffffffffffffffffffffffff19166020820180517bffffffffffffffffffffffffffffffffffffffffffffffffffffffff838183161783525050505090506000808573ffffffffffffffffffffffffffffffffffffffff1661753084604051612b6e919061339c565b6000604051808303818686fa925050503d8060008114612baa576040519150601f19603f3d011682016040523d82523d6000602084013e612baf565b606091505b5091509150602081511015612bca5760009350505050612bed565b818015612be7575080806020019051810190612be69190612db8565b5b93505050505b92915050565b6000612c06612c01846138e2565b6138bd565b905082815260208101848484011115612c1e57600080fd5b612c29848285613ab8565b509392505050565b6000612c44612c3f846138e2565b6138bd565b905082815260208101848484011115612c5c57600080fd5b612c67848285613ac7565b509392505050565b600081359050612c7e8161436f565b92915050565b600081359050612c9381614386565b92915050565b600081519050612ca881614386565b92915050565b600082601f830112612cbf57600080fd5b8135612ccf848260208601612bf3565b91505092915050565b600082601f830112612ce957600080fd5b8151612cf9848260208601612c31565b91505092915050565b600081359050612d118161439d565b92915050565b600060208284031215612d2957600080fd5b6000612d3784828501612c6f565b91505092915050565b60008060408385031215612d5357600080fd5b6000612d6185828601612c6f565b9250506020612d7285828601612c84565b9150509250929050565b60008060408385031215612d8f57600080fd5b6000612d9d85828601612c6f565b9250506020612dae85828601612d02565b9150509250929050565b600060208284031215612dca57600080fd5b6000612dd884828501612c99565b91505092915050565b600060208284031215612df357600080fd5b600082015167ffffffffffffffff811115612e0d57600080fd5b612e1984828501612cd8565b91505092915050565b600060208284031215612e3457600080fd5b6000612e4284828501612d02565b91505092915050565b60008060408385031215612e5e57600080fd5b6000612e6c85828601612d02565b9250506020612e7d85828601612c6f565b9150509250929050565b600080600080600060a08688031215612e9f57600080fd5b6000612ead88828901612d02565b9550506020612ebe88828901612c6f565b9450506040612ecf88828901612c84565b9350506060612ee088828901612c84565b9250506080612ef188828901612d02565b9150509295509295909350565b60008060408385031215612f1157600080fd5b6000612f1f85828601612d02565b925050602083013567ffffffffffffffff811115612f3c57600080fd5b612f4885828601612cae565b9150509250929050565b6000612f5e838361337e565b60208301905092915050565b612f7381613a44565b82525050565b612f8281613a44565b82525050565b6000612f9382613923565b612f9d8185613951565b9350612fa883613913565b8060005b83811015612fd9578151612fc08882612f52565b9750612fcb83613944565b925050600181019050612fac565b5085935050505092915050565b612fef81613a56565b82525050565b612ffe81613a62565b82525050565b600061300f8261392e565b6130198185613962565b9350613029818560208601613ac7565b80840191505092915050565b600061304082613939565b61304a818561396d565b935061305a818560208601613ac7565b61306381613cbd565b840191505092915050565b600061307982613939565b613083818561397e565b9350613093818560208601613ac7565b80840191505092915050565b60006130ac60268361396d565b91506130b782613cce565b604082019050919050565b60006130cf60438361396d565b91506130da82613d1d565b606082019050919050565b60006130f2603c8361396d565b91506130fd82613d92565b604082019050919050565b600061311560348361396d565b915061312082613de1565b604082019050919050565b600061313860428361396d565b915061314382613e30565b606082019050919050565b600061315b60498361396d565b915061316682613ea5565b606082019050919050565b600061317e60328361396d565b915061318982613f1a565b604082019050919050565b60006131a160378361396d565b91506131ac82613f69565b604082019050919050565b60006131c460298361396d565b91506131cf82613fb8565b604082019050919050565b60006131e760388361396d565b91506131f282614007565b604082019050919050565b600061320a60208361396d565b915061321582614056565b602082019050919050565b600061322d60338361396d565b91506132388261407f565b604082019050919050565b6000613250603a8361396d565b915061325b826140ce565b604082019050919050565b600061327360268361396d565b915061327e8261411d565b604082019050919050565b600061329660358361396d565b91506132a18261416c565b604082019050919050565b60006132b960338361396d565b91506132c4826141bb565b604082019050919050565b60006132dc60328361396d565b91506132e78261420a565b604082019050919050565b60006132ff60308361396d565b915061330a82614259565b604082019050919050565b6000613322602d8361396d565b915061332d826142a8565b604082019050919050565b600061334560358361396d565b9150613350826142f7565b604082019050919050565b600061336860018361397e565b915061337382614346565b600182019050919050565b61338781613aae565b82525050565b61339681613aae565b82525050565b60006133a88284613004565b915081905092915050565b60006133bf8285613004565b91506133cb8284613004565b91508190509392505050565b60006133e3828461306e565b915081905092915050565b60006133fa828561306e565b9150613406828461306e565b91508190509392505050565b600061341d8261335b565b9150613429828461306e565b915081905092915050565b60006020820190506134496000830184612f79565b92915050565b60006020820190506134646000830184612f6a565b92915050565b600060608201905061347f6000830186612f6a565b61348c6020830185612f6a565b613499604083018461338d565b949350505050565b60006040820190506134b66000830185612f6a565b6134c3602083018461338d565b9392505050565b600060208201905081810360008301526134e48184612f88565b905092915050565b60006020820190506135016000830184612fe6565b92915050565b600060208201905061351c6000830184612ff5565b92915050565b6000602082019050818103600083015261353c8184613035565b905092915050565b6000602082019050818103600083015261355d8161309f565b9050919050565b6000602082019050818103600083015261357d816130c2565b9050919050565b6000602082019050818103600083015261359d816130e5565b9050919050565b600060208201905081810360008301526135bd81613108565b9050919050565b600060208201905081810360008301526135dd8161312b565b9050919050565b600060208201905081810360008301526135fd8161314e565b9050919050565b6000602082019050818103600083015261361d81613171565b9050919050565b6000602082019050818103600083015261363d81613194565b9050919050565b6000602082019050818103600083015261365d816131b7565b9050919050565b6000602082019050818103600083015261367d816131da565b9050919050565b6000602082019050818103600083015261369d816131fd565b9050919050565b600060208201905081810360008301526136bd81613220565b9050919050565b600060208201905081810360008301526136dd81613243565b9050919050565b600060208201905081810360008301526136fd81613266565b9050919050565b6000602082019050818103600083015261371d81613289565b9050919050565b6000602082019050818103600083015261373d816132ac565b9050919050565b6000602082019050818103600083015261375d816132cf565b9050919050565b6000602082019050818103600083015261377d816132f2565b9050919050565b6000602082019050818103600083015261379d81613315565b9050919050565b600060208201905081810360008301526137bd81613338565b9050919050565b60006020820190506137d9600083018461338d565b92915050565b600060e0820190506137f4600083018a61338d565b613801602083018961338d565b61380e604083018861338d565b61381b6060830187612f6a565b6138286080830186612fe6565b61383560a0830185612fe6565b61384260c0830184612fe6565b98975050505050505050565b600060e082019050613863600083018a61338d565b613870602083018961338d565b61387d604083018861338d565b61388a606083018761338d565b6138976080830186612f6a565b6138a460a0830185612fe6565b6138b160c0830184612fe6565b98975050505050505050565b60006138c76138d8565b90506138d38282613b56565b919050565b6000604051905090565b600067ffffffffffffffff8211156138fd576138fc613c8e565b5b61390682613cbd565b9050602081019050919050565b6000819050602082019050919050565b600081519050919050565b600081519050919050565b600081519050919050565b6000602082019050919050565b600082825260208201905092915050565b600081905092915050565b600082825260208201905092915050565b600081905092915050565b600061399482613aae565b915061399f83613aae565b9250827fffffffffffffffffffffffffffffffffffffffffffffffffffffffffffffffff038211156139d4576139d3613c01565b5b828201905092915050565b60006139ea82613aae565b91506139f583613aae565b925082613a0557613a04613c30565b5b828204905092915050565b6000613a1b82613aae565b9150613a2683613aae565b925082821015613a3957613a38613c01565b5b828203905092915050565b6000613a4f82613a8e565b9050919050565b60008115159050919050565b60007fffffffff0000000000000000000000000000000000000000000000000000000082169050919050565b600073ffffffffffffffffffffffffffffffffffffffff82169050919050565b6000819050919050565b82818337600083830152505050565b60005b83811015613ae5578082015181840152602081019050613aca565b83811115613af4576000848401525b50505050565b6000613b0582613aae565b91506000821415613b1957613b18613c01565b5b600182039050919050565b60006002820490506001821680613b3c57607f821691505b60208210811415613b5057613b4f613c5f565b5b50919050565b613b5f82613cbd565b810181811067ffffffffffffffff82111715613b7e57613b7d613c8e565b5b80604052505050565b6000613b9282613aae565b91507fffffffffffffffffffffffffffffffffffffffffffffffffffffffffffffffff821415613bc557613bc4613c01565b5b600182019050919050565b6000613bdb82613aae565b9150613be683613aae565b925082613bf657613bf5613c30565b5b828206905092915050565b7f4e487b7100000000000000000000000000000000000000000000000000000000600052601160045260246000fd5b7f4e487b7100000000000000000000000000000000000000000000000000000000600052601260045260246000fd5b7f4e487b7100000000000000000000000000000000000000000000000000000000600052602260045260246000fd5b7f4e487b7100000000000000000000000000000000000000000000000000000000600052604160045260246000fd5b6000601f19601f8301169050919050565b7f4f776e61626c653a206e6577206f776e657220697320746865207a65726f206160008201527f6464726573730000000000000000000000000000000000000000000000000000602082015250565b7f494d616769635363726f6c6c73506c75733a2049536b696c6c4365727469666960008201527f63617465506c7573206973206e6f7420737570706f727465642062792063616c60208201527f6c65720000000000000000000000000000000000000000000000000000000000604082015250565b7f494d616769635363726f6c6c73506c75733a2074686973207363726f6c6c207460008201527f797065206973206e6f206c6f6e676572207075726368617361626c6500000000602082015250565b7f494d616769635363726f6c6c73506c75733a206f776e6572207175657279206660008201527f6f72206e6f6e6578697374656e7420746f6b656e000000000000000000000000602082015250565b7f494d616769635363726f6c6c73506c75733a2063616c6c6572206973206e6f7460008201527f2074686520617070726f766564206365727469666963617465206d616e61676560208201527f722e000000000000000000000000000000000000000000000000000000000000604082015250565b7f494d616769635363726f6c6c73506c75733a2049536b696c6c4365727469666960008201527f63617465506c7573206973206e6f7420737570706f727465642062792074686960208201527f7320616464726573730000000000000000000000000000000000000000000000604082015250565b7f494d616769635363726f6c6c73506c75733a2074686973207363726f6c6c206960008201527f73206e6f74207075726368617361626c652e0000000000000000000000000000602082015250565b7f494d616769635363726f6c6c73506c75733a2074686973207363726f6c6c206960008201527f73206e6f206c6f6e67657220636f6e73756d61626c652e000000000000000000602082015250565b7f494d616769635363726f6c6c73506c75733a207363726f6c6c20646f6573206e60008201527f6f742065786973742e0000000000000000000000000000000000000000000000602082015250565b7f494d616769635363726f6c6c73506c75733a2055524920717565727920666f7260008201527f206e6f6e6578697374656e74207363726f6c6c20747970650000000000000000602082015250565b7f4f776e61626c653a2063616c6c6572206973206e6f7420746865206f776e6572600082015250565b7f494d616769635363726f6c6c73506c75733a206f776e6572207175657279206660008201527f6f206e6f6e6578697374656e7420746f6b656e00000000000000000000000000602082015250565b7f494d616769635363726f6c6c73506c75733a20746865726520617265206e6f7460008201527f2074686174206d616e79207479706573206f66207363726f6c6c000000000000602082015250565b7f494d616769635363726f6c6c73506c75733a2063616e6e6f74207472616e736660008201527f6572204447540000000000000000000000000000000000000000000000000000602082015250565b7f494d616769635363726f6c6c73506c75733a2074686973207363726f6c6c206960008201527f73206e6f206c6f6e676572206275726e61626c652e0000000000000000000000602082015250565b7f494d616769635363726f6c6c73506c75733a2055524920717565727920666f7260008201527f206e6f6e6578697374656e74207363726f6c6c00000000000000000000000000602082015250565b7f494d616769635363726f6c6c73506c75733a2074686973207363726f6c6c207460008201527f79706520646f6573206e6f742065786973740000000000000000000000000000602082015250565b7f494d616769635363726f6c6c73506c75733a206d75737420626520636f6e737560008201527f6d656420627920746865206f776e657200000000000000000000000000000000602082015250565b7f494d616769635363726f6c6c73506c75733a2074686973207363726f6c6c206460008201527f6f6573206e6f7420657869737400000000000000000000000000000000000000602082015250565b7f494d616769635363726f6c6c73506c75733a2062616c616e636520717565727960008201527f20666f7220746865207a65726f20616464726573730000000000000000000000602082015250565b7f2f00000000000000000000000000000000000000000000000000000000000000600082015250565b61437881613a44565b811461438357600080fd5b50565b61438f81613a56565b811461439a57600080fd5b50565b6143a681613aae565b81146143b157600080fd5b5056fea26469706673582212209ec6fb7a77db93ecf0a600e36fc9d6f2c24f7d2dea2360b1627532a16b2c7c4264736f6c63430008040033",
  "linkReferences": {
    "contracts/Utils/EIP-55.sol": {
      "ChecksumLib": [
        {
          "length": 20,
          "start": 5001
        }
      ]
    }
  },
  "deployedLinkReferences": {
    "contracts/Utils/EIP-55.sol": {
      "ChecksumLib": [
        {
          "length": 20,
          "start": 3477
        }
      ]
    }
  }
}