{
  "_format": "hh-sol-artifact-1",
  "contractName": "MagicScrollsPlus",
  "sourceName": "contracts/MagicShop/V2/MagicScrolls+.sol",
  "abi": [
    {
      "inputs": [
        {
          "internalType": "string",
          "name": "name_",
          "type": "string"
        },
        {
          "internalType": "string",
          "name": "symbol_",
          "type": "string"
        },
        {
          "internalType": "string",
          "name": "baseURI_",
          "type": "string"
        },
        {
          "internalType": "address",
          "name": "addressDGT_",
          "type": "address"
        }
      ],
      "stateMutability": "nonpayable",
      "type": "constructor"
    },
    {
      "anonymous": false,
      "inputs": [
        {
          "indexed": true,
          "internalType": "address",
          "name": "account",
          "type": "address"
        },
        {
          "indexed": false,
          "internalType": "bool",
          "name": "status",
          "type": "bool"
        }
      ],
      "name": "ApprovalForCM",
      "type": "event"
    },
    {
      "anonymous": false,
      "inputs": [
        {
          "indexed": true,
          "internalType": "address",
          "name": "previousOwner",
          "type": "address"
        },
        {
          "indexed": true,
          "internalType": "address",
          "name": "newOwner",
          "type": "address"
        }
      ],
      "name": "OwnershipTransferred",
      "type": "event"
    },
    {
      "anonymous": false,
      "inputs": [
        {
          "indexed": true,
          "internalType": "uint256",
          "name": "scrollType",
          "type": "uint256"
        }
      ],
      "name": "ScrollAdded",
      "type": "event"
    },
    {
      "anonymous": false,
      "inputs": [
        {
          "indexed": false,
          "internalType": "uint256",
          "name": "scrollId",
          "type": "uint256"
        },
        {
          "indexed": true,
          "internalType": "uint256",
          "name": "scrollType",
          "type": "uint256"
        },
        {
          "indexed": true,
          "internalType": "address",
          "name": "buyer",
          "type": "address"
        }
      ],
      "name": "ScrollBought",
      "type": "event"
    },
    {
      "anonymous": false,
      "inputs": [
        {
          "indexed": false,
          "internalType": "uint256",
          "name": "scrollId",
          "type": "uint256"
        },
        {
          "indexed": true,
          "internalType": "address",
          "name": "certificateManager",
          "type": "address"
        }
      ],
      "name": "ScrollBurned",
      "type": "event"
    },
    {
      "anonymous": false,
      "inputs": [
        {
          "indexed": false,
          "internalType": "uint256",
          "name": "scrollId",
          "type": "uint256"
        },
        {
          "indexed": true,
          "internalType": "bytes32",
          "name": "passcode",
          "type": "bytes32"
        }
      ],
      "name": "ScrollConsumed",
      "type": "event"
    },
    {
      "inputs": [
        {
          "internalType": "uint256",
          "name": "certificateId",
          "type": "uint256"
        },
        {
          "internalType": "address",
          "name": "prerequisite",
          "type": "address"
        },
        {
          "internalType": "bool",
          "name": "lessonIncluded",
          "type": "bool"
        },
        {
          "internalType": "bool",
          "name": "hasPrerequisite",
          "type": "bool"
        },
        {
          "internalType": "uint256",
          "name": "price",
          "type": "uint256"
        }
      ],
      "name": "addScroll",
      "outputs": [
        {
          "internalType": "bool",
          "name": "",
          "type": "bool"
        }
      ],
      "stateMutability": "nonpayable",
      "type": "function"
    },
    {
      "inputs": [
        {
          "internalType": "address",
          "name": "account",
          "type": "address"
        }
      ],
      "name": "balanceOfAll",
      "outputs": [
        {
          "internalType": "uint256[]",
          "name": "",
          "type": "uint256[]"
        }
      ],
      "stateMutability": "view",
      "type": "function"
    },
    {
      "inputs": [
        {
          "internalType": "address",
          "name": "account",
          "type": "address"
        },
        {
          "internalType": "uint256",
          "name": "id",
          "type": "uint256"
        }
      ],
      "name": "balanceOfOne",
      "outputs": [
        {
          "internalType": "uint256",
          "name": "",
          "type": "uint256"
        }
      ],
      "stateMutability": "view",
      "type": "function"
    },
    {
      "inputs": [
        {
          "internalType": "address",
          "name": "account",
          "type": "address"
        }
      ],
      "name": "balanceUserOwned",
      "outputs": [
        {
          "internalType": "uint256[]",
          "name": "",
          "type": "uint256[]"
        }
      ],
      "stateMutability": "view",
      "type": "function"
    },
    {
      "inputs": [
        {
          "internalType": "uint256",
          "name": "id",
          "type": "uint256"
        }
      ],
      "name": "burn",
      "outputs": [
        {
          "internalType": "bool",
          "name": "",
          "type": "bool"
        }
      ],
      "stateMutability": "nonpayable",
      "type": "function"
    },
    {
      "inputs": [
        {
          "internalType": "uint256",
          "name": "scrollType",
          "type": "uint256"
        }
      ],
      "name": "buyScroll",
      "outputs": [
        {
          "internalType": "bool",
          "name": "",
          "type": "bool"
        }
      ],
      "stateMutability": "nonpayable",
      "type": "function"
    },
    {
      "inputs": [
        {
          "internalType": "uint256",
          "name": "id",
          "type": "uint256"
        },
        {
          "internalType": "string",
          "name": "data",
          "type": "string"
        }
      ],
      "name": "consume",
      "outputs": [
        {
          "internalType": "bool",
          "name": "",
          "type": "bool"
        }
      ],
      "stateMutability": "nonpayable",
      "type": "function"
    },
    {
      "inputs": [],
      "name": "deguildCoin",
      "outputs": [
        {
          "internalType": "address",
          "name": "",
          "type": "address"
        }
      ],
      "stateMutability": "view",
      "type": "function"
    },
    {
      "inputs": [
        {
          "internalType": "uint256",
          "name": "id",
          "type": "uint256"
        }
      ],
      "name": "forceCancel",
      "outputs": [
        {
          "internalType": "bool",
          "name": "",
          "type": "bool"
        }
      ],
      "stateMutability": "nonpayable",
      "type": "function"
    },
    {
      "inputs": [
        {
          "internalType": "address",
          "name": "manager",
          "type": "address"
        }
      ],
      "name": "isCertificateManager",
      "outputs": [
        {
          "internalType": "bool",
          "name": "",
          "type": "bool"
        }
      ],
      "stateMutability": "view",
      "type": "function"
    },
    {
      "inputs": [
        {
          "internalType": "uint256",
          "name": "scrollType",
          "type": "uint256"
        },
        {
          "internalType": "address",
          "name": "buyer",
          "type": "address"
        }
      ],
      "name": "isPurchasableScroll",
      "outputs": [
        {
          "internalType": "bool",
          "name": "",
          "type": "bool"
        }
      ],
      "stateMutability": "view",
      "type": "function"
    },
    {
      "inputs": [],
      "name": "name",
      "outputs": [
        {
          "internalType": "string",
          "name": "",
          "type": "string"
        }
      ],
      "stateMutability": "view",
      "type": "function"
    },
    {
      "inputs": [],
      "name": "numberOfScrollTypes",
      "outputs": [
        {
          "internalType": "uint256",
          "name": "",
          "type": "uint256"
        }
      ],
      "stateMutability": "view",
      "type": "function"
    },
    {
      "inputs": [],
      "name": "owner",
      "outputs": [
        {
          "internalType": "address",
          "name": "",
          "type": "address"
        }
      ],
      "stateMutability": "view",
      "type": "function"
    },
    {
      "inputs": [
        {
          "internalType": "uint256",
          "name": "id",
          "type": "uint256"
        }
      ],
      "name": "ownerOf",
      "outputs": [
        {
          "internalType": "address",
          "name": "",
          "type": "address"
        }
      ],
      "stateMutability": "view",
      "type": "function"
    },
    {
      "inputs": [],
      "name": "renounceOwnership",
      "outputs": [],
      "stateMutability": "nonpayable",
      "type": "function"
    },
    {
      "inputs": [
        {
          "internalType": "uint256",
          "name": "tokenId",
          "type": "uint256"
        }
      ],
      "name": "scrollInfo",
      "outputs": [
        {
          "internalType": "uint256",
          "name": "",
          "type": "uint256"
        },
        {
          "internalType": "uint256",
          "name": "",
          "type": "uint256"
        },
        {
          "internalType": "uint256",
          "name": "",
          "type": "uint256"
        },
        {
          "internalType": "uint256",
          "name": "",
          "type": "uint256"
        },
        {
          "internalType": "address",
          "name": "",
          "type": "address"
        },
        {
          "internalType": "bool",
          "name": "",
          "type": "bool"
        },
        {
          "internalType": "bool",
          "name": "",
          "type": "bool"
        }
      ],
      "stateMutability": "view",
      "type": "function"
    },
    {
      "inputs": [
        {
          "internalType": "uint256",
          "name": "typeId",
          "type": "uint256"
        }
      ],
      "name": "scrollTypeInfo",
      "outputs": [
        {
          "internalType": "uint256",
          "name": "",
          "type": "uint256"
        },
        {
          "internalType": "uint256",
          "name": "",
          "type": "uint256"
        },
        {
          "internalType": "uint256",
          "name": "",
          "type": "uint256"
        },
        {
          "internalType": "address",
          "name": "",
          "type": "address"
        },
        {
          "internalType": "bool",
          "name": "",
          "type": "bool"
        },
        {
          "internalType": "bool",
          "name": "",
          "type": "bool"
        },
        {
          "internalType": "bool",
          "name": "",
          "type": "bool"
        }
      ],
      "stateMutability": "view",
      "type": "function"
    },
    {
      "inputs": [],
      "name": "scrollTypes",
      "outputs": [
        {
          "internalType": "uint256[]",
          "name": "",
          "type": "uint256[]"
        }
      ],
      "stateMutability": "view",
      "type": "function"
    },
    {
      "inputs": [
        {
          "internalType": "uint256",
          "name": "scrollType",
          "type": "uint256"
        }
      ],
      "name": "sealScroll",
      "outputs": [
        {
          "internalType": "bool",
          "name": "",
          "type": "bool"
        }
      ],
      "stateMutability": "nonpayable",
      "type": "function"
    },
    {
      "inputs": [
        {
          "internalType": "address",
          "name": "manager",
          "type": "address"
        },
        {
          "internalType": "bool",
          "name": "status",
          "type": "bool"
        }
      ],
      "name": "setCertificateManager",
      "outputs": [
        {
          "internalType": "bool",
          "name": "",
          "type": "bool"
        }
      ],
      "stateMutability": "nonpayable",
      "type": "function"
    },
    {
      "inputs": [],
      "name": "symbol",
      "outputs": [
        {
          "internalType": "string",
          "name": "",
          "type": "string"
        }
      ],
      "stateMutability": "view",
      "type": "function"
    },
    {
      "inputs": [
        {
          "internalType": "uint256",
          "name": "tokenTypeId",
          "type": "uint256"
        }
      ],
      "name": "tokenTypeURI",
      "outputs": [
        {
          "internalType": "string",
          "name": "",
          "type": "string"
        }
      ],
      "stateMutability": "view",
      "type": "function"
    },
    {
      "inputs": [
        {
          "internalType": "uint256",
          "name": "tokenId",
          "type": "uint256"
        }
      ],
      "name": "tokenURI",
      "outputs": [
        {
          "internalType": "string",
          "name": "",
          "type": "string"
        }
      ],
      "stateMutability": "view",
      "type": "function"
    },
    {
      "inputs": [
        {
          "internalType": "address",
          "name": "newOwner",
          "type": "address"
        }
      ],
      "name": "transferOwnership",
      "outputs": [],
      "stateMutability": "nonpayable",
      "type": "function"
    }
  ],
  "bytecode": "0x608060405260405180602001604052806000815250600a60008201518160000155505060405180602001604052806000815250600b6000820151816000015550503480156200004d57600080fd5b50604051620049d5380380620049d583398181016040528101906200007391906200036f565b62000093620000876200016a60201b60201c565b6200017260201b60201c565b8360079080519060200190620000ab92919062000236565b508260089080519060200190620000c492919062000236565b5080600660006101000a81548173ffffffffffffffffffffffffffffffffffffffff021916908373ffffffffffffffffffffffffffffffffffffffff16021790555081600990805190602001906200011e92919062000236565b5080600c60006101000a81548173ffffffffffffffffffffffffffffffffffffffff021916908373ffffffffffffffffffffffffffffffffffffffff16021790555050505050620005e4565b600033905090565b60008060009054906101000a900473ffffffffffffffffffffffffffffffffffffffff169050816000806101000a81548173ffffffffffffffffffffffffffffffffffffffff021916908373ffffffffffffffffffffffffffffffffffffffff1602179055508173ffffffffffffffffffffffffffffffffffffffff168173ffffffffffffffffffffffffffffffffffffffff167f8be0079c531659141344cd1fd0a4f28419497f9722a3daafe3b4186f6b6457e060405160405180910390a35050565b8280546200024490620004ef565b90600052602060002090601f016020900481019282620002685760008555620002b4565b82601f106200028357805160ff1916838001178555620002b4565b82800160010185558215620002b4579182015b82811115620002b357825182559160200191906001019062000296565b5b509050620002c39190620002c7565b5090565b5b80821115620002e2576000816000905550600101620002c8565b5090565b6000620002fd620002f7846200044f565b62000426565b9050828152602081018484840111156200031657600080fd5b62000323848285620004b9565b509392505050565b6000815190506200033c81620005ca565b92915050565b600082601f8301126200035457600080fd5b815162000366848260208601620002e6565b91505092915050565b600080600080608085870312156200038657600080fd5b600085015167ffffffffffffffff811115620003a157600080fd5b620003af8782880162000342565b945050602085015167ffffffffffffffff811115620003cd57600080fd5b620003db8782880162000342565b935050604085015167ffffffffffffffff811115620003f957600080fd5b620004078782880162000342565b92505060606200041a878288016200032b565b91505092959194509250565b60006200043262000445565b905062000440828262000525565b919050565b6000604051905090565b600067ffffffffffffffff8211156200046d576200046c6200058a565b5b6200047882620005b9565b9050602081019050919050565b6000620004928262000499565b9050919050565b600073ffffffffffffffffffffffffffffffffffffffff82169050919050565b60005b83811015620004d9578082015181840152602081019050620004bc565b83811115620004e9576000848401525b50505050565b600060028204905060018216806200050857607f821691505b602082108114156200051f576200051e6200055b565b5b50919050565b6200053082620005b9565b810181811067ffffffffffffffff821117156200055257620005516200058a565b5b80604052505050565b7f4e487b7100000000000000000000000000000000000000000000000000000000600052602260045260246000fd5b7f4e487b7100000000000000000000000000000000000000000000000000000000600052604160045260246000fd5b6000601f19601f8301169050919050565b620005d58162000485565b8114620005e157600080fd5b50565b6143e180620005f46000396000f3fe608060405234801561001057600080fd5b50600436106101735760003560e01c8063885a72a9116100de578063cb9d6aa511610097578063edad415c11610071578063edad415c146104e2578063f2fde38b14610512578063f438f0191461052e578063fe992c981461055e57610173565b8063cb9d6aa51461045e578063d555825614610494578063d988ca16146104c457610173565b8063885a72a9146103625780638da5cb5b1461039257806395d89b41146103b05780639c16f149146103ce578063c87b56dd146103fe578063c8bb779e1461042e57610173565b806339caa9bf1161013057806339caa9bf1461027457806342966c68146102a457806346b88e07146102d45780634fbefc6e1461030a5780636352211e14610328578063715018a61461035857610173565b806306fdde03146101785780630dc3e7f4146101965780630f763562146101c657806313506cc3146101f6578063213f1ce514610226578063251affd314610244575b600080fd5b61018061058e565b60405161018d9190613519565b60405180910390f35b6101b060048036038101906101ab9190612d0e565b610620565b6040516101bd91906134e3565b60405180910390f35b6101e060048036038101906101db9190612e7e565b610676565b6040516101ed91906134e3565b60405180910390f35b610210600480360381019061020b9190612e19565b61070e565b60405161021d91906134e3565b60405180910390f35b61022e610722565b60405161023b91906134c1565b60405180910390f35b61025e60048036038101906102599190612e19565b6108a3565b60405161026b91906134e3565b60405180910390f35b61028e60048036038101906102899190612d73565b610934565b60405161029b91906137bb565b60405180910390f35b6102be60048036038101906102b99190612e19565b6109fe565b6040516102cb91906134e3565b60405180910390f35b6102ee60048036038101906102e99190612e19565b610a12565b60405161030197969594939291906137d6565b60405180910390f35b610312610ba3565b60405161031f9190613446565b60405180910390f35b610342600480360381019061033d9190612e19565b610bcd565b60405161034f9190613446565b60405180910390f35b610360610c7f565b005b61037c60048036038101906103779190612e19565b610d07565b6040516103899190613519565b60405180910390f35b61039a610e91565b6040516103a79190613446565b60405180910390f35b6103b8610eba565b6040516103c59190613519565b60405180910390f35b6103e860048036038101906103e39190612ef5565b610f4c565b6040516103f591906134e3565b60405180910390f35b61041860048036038101906104139190612e19565b610f62565b6040516104259190613519565b60405180910390f35b61044860048036038101906104439190612e42565b610fd8565b60405161045591906134e3565b60405180910390f35b61047860048036038101906104739190612e19565b611254565b60405161048b9796959493929190613845565b60405180910390f35b6104ae60048036038101906104a99190612d0e565b6113e5565b6040516104bb91906134c1565b60405180910390f35b6104cc611665565b6040516104d991906137bb565b60405180910390f35b6104fc60048036038101906104f79190612d37565b611676565b60405161050991906134e3565b60405180910390f35b61052c60048036038101906105279190612d0e565b6117a3565b005b61054860048036038101906105439190612e19565b61189b565b60405161055591906134e3565b60405180910390f35b61057860048036038101906105739190612d0e565b6118af565b60405161058591906134c1565b60405180910390f35b60606007805461059d90613b1b565b80601f01602080910402602001604051908101604052809291908181526020018280546105c990613b1b565b80156106165780601f106105eb57610100808354040283529160200191610616565b820191906000526020600020905b8154815290600101906020018083116105f957829003601f168201915b5050505050905090565b6000600560008373ffffffffffffffffffffffffffffffffffffffff1673ffffffffffffffffffffffffffffffffffffffff16815260200190815260200160002060009054906101000a900460ff169050919050565b60006106806119ab565b73ffffffffffffffffffffffffffffffffffffffff1661069e610e91565b73ffffffffffffffffffffffffffffffffffffffff16146106f4576040517f08c379a00000000000000000000000000000000000000000000000000000000081526004016106eb9061367b565b60405180910390fd5b61070186868686866119b3565b6001905095945050505050565b600061071982611b63565b60019050919050565b6060806000805b610733600b611f6e565b811015610785576003600082815260200190815260200160002060030160179054906101000a900460ff161561077257818061076e90613b7e565b9250505b808061077d90613b7e565b915050610729565b508067ffffffffffffffff8111156107c6577f4e487b7100000000000000000000000000000000000000000000000000000000600052604160045260246000fd5b6040519080825280602002602001820160405280156107f45781602001602082028036833780820191505090505b50915060005b610804600b611f6e565b81101561089a576003600082815260200190815260200160002060030160179054906101000a900460ff16156108875780838361084090613af1565b9350838151811061087a577f4e487b7100000000000000000000000000000000000000000000000000000000600052603260045260246000fd5b6020026020010181815250505b808061089290613b7e565b9150506107fa565b50819250505090565b60006108ad6119ab565b73ffffffffffffffffffffffffffffffffffffffff166108cb610e91565b73ffffffffffffffffffffffffffffffffffffffff1614610921576040517f08c379a00000000000000000000000000000000000000000000000000000000081526004016109189061367b565b60405180910390fd5b61092a82611f7c565b5060019050919050565b60008073ffffffffffffffffffffffffffffffffffffffff168373ffffffffffffffffffffffffffffffffffffffff1614156109a5576040517f08c379a000000000000000000000000000000000000000000000000000000000815260040161099c9061379b565b60405180910390fd5b6004600083815260200190815260200160002060008473ffffffffffffffffffffffffffffffffffffffff1673ffffffffffffffffffffffffffffffffffffffff16815260200190815260200160002054905092915050565b6000610a0982611ffe565b60019050919050565b6000806000806000806000610a268861231c565b610a65576040517f08c379a0000000000000000000000000000000000000000000000000000000008152600401610a5c9061373b565b60405180910390fd5b6000600360008a8152602001908152602001600020604051806101000160405290816000820154815260200160018201548152602001600282015481526020016003820160009054906101000a900473ffffffffffffffffffffffffffffffffffffffff1673ffffffffffffffffffffffffffffffffffffffff1673ffffffffffffffffffffffffffffffffffffffff1681526020016003820160149054906101000a900460ff1660ff1660ff1681526020016003820160159054906101000a900460ff161515151581526020016003820160169054906101000a900460ff161515151581526020016003820160179054906101000a900460ff1615151515815250509050888160200151826040015183606001518460a001518560c001518660e00151975097509750975097509750975050919395979092949650565b6000600660009054906101000a900473ffffffffffffffffffffffffffffffffffffffff16905090565b6000806001600084815260200190815260200160002060009054906101000a900473ffffffffffffffffffffffffffffffffffffffff169050600073ffffffffffffffffffffffffffffffffffffffff168173ffffffffffffffffffffffffffffffffffffffff161415610c76576040517f08c379a0000000000000000000000000000000000000000000000000000000008152600401610c6d9061359b565b60405180910390fd5b80915050919050565b610c876119ab565b73ffffffffffffffffffffffffffffffffffffffff16610ca5610e91565b73ffffffffffffffffffffffffffffffffffffffff1614610cfb576040517f08c379a0000000000000000000000000000000000000000000000000000000008152600401610cf29061367b565b60405180910390fd5b610d056000612394565b565b6060610d128261231c565b610d51576040517f08c379a0000000000000000000000000000000000000000000000000000000008152600401610d489061365b565b60405180910390fd5b6000610d5b612458565b90506000815111610d7b5760405180602001604052806000815250610e89565b803073ffffffffffffffffffffffffffffffffffffffff1673__$124e1a4c5367a62965a30c61a01a42cb5d$__637cd6f8ff90916040518263ffffffff1660e01b8152600401610dcb919061342b565b60006040518083038186803b158015610de357600080fd5b505af4158015610df7573d6000803e3d6000fd5b505050506040513d6000823e3d601f19601f82011682018060405250810190610e209190612dd8565b604051602001610e319291906133e5565b604051602081830303815290604052610e49846124ea565b604051602001610e599190613409565b604051602081830303815290604052604051602001610e799291906133aa565b6040516020818303038152906040525b915050919050565b60008060009054906101000a900473ffffffffffffffffffffffffffffffffffffffff16905090565b606060088054610ec990613b1b565b80601f0160208091040260200160405190810160405280929190818152602001828054610ef590613b1b565b8015610f425780601f10610f1757610100808354040283529160200191610f42565b820191906000526020600020905b815481529060010190602001808311610f2557829003601f168201915b5050505050905090565b6000610f588383612697565b6001905092915050565b6060610f6d82612881565b610fac576040517f08c379a0000000000000000000000000000000000000000000000000000000008152600401610fa39061371b565b60405180910390fd5b600060026000848152602001908152602001600020600001549050610fd081610d07565b915050919050565b6000610fe38361231c565b611022576040517f08c379a00000000000000000000000000000000000000000000000000000000081526004016110199061363b565b60405180910390fd5b6003600084815260200190815260200160002060030160179054906101000a900460ff16611085576040517f08c379a000000000000000000000000000000000000000000000000000000000815260040161107c9061357b565b60405180910390fd5b6003600084815260200190815260200160002060030160169054906101000a900460ff166110b6576001905061124e565b6111357fa6996df8000000000000000000000000000000000000000000000000000000006003600086815260200190815260200160002060030160009054906101000a900473ffffffffffffffffffffffffffffffffffffffff1673ffffffffffffffffffffffffffffffffffffffff166128ed90919063ffffffff16565b611174576040517f08c379a000000000000000000000000000000000000000000000000000000000815260040161116b906135db565b60405180910390fd5b6003600084815260200190815260200160002060030160009054906101000a900473ffffffffffffffffffffffffffffffffffffffff1673ffffffffffffffffffffffffffffffffffffffff16636704fe9f8360036000878152602001908152602001600020600201546040518363ffffffff1660e01b81526004016111fb929190613498565b60206040518083038186803b15801561121357600080fd5b505afa158015611227573d6000803e3d6000fd5b505050506040513d601f19601f8201168201806040525081019061124b9190612daf565b90505b92915050565b600080600080600080600061126888612881565b6112a7576040517f08c379a000000000000000000000000000000000000000000000000000000000815260040161129e9061377b565b60405180910390fd5b6000600260008a8152602001908152602001600020604051806101000160405290816000820154815260200160018201548152602001600282015481526020016003820160009054906101000a900473ffffffffffffffffffffffffffffffffffffffff1673ffffffffffffffffffffffffffffffffffffffff1673ffffffffffffffffffffffffffffffffffffffff1681526020016003820160149054906101000a900460ff1660ff1660ff1681526020016003820160159054906101000a900460ff161515151581526020016003820160169054906101000a900460ff161515151581526020016003820160179054906101000a900460ff16151515158152505090508881600001518260200151836040015184606001518560a001518660c00151975097509750975097509750975050919395979092949650565b6060600073ffffffffffffffffffffffffffffffffffffffff168273ffffffffffffffffffffffffffffffffffffffff161415611457576040517f08c379a000000000000000000000000000000000000000000000000000000000815260040161144e9061379b565b60405180910390fd5b6000805b611465600a611f6e565b8110156114f5578373ffffffffffffffffffffffffffffffffffffffff166001600083815260200190815260200160002060009054906101000a900473ffffffffffffffffffffffffffffffffffffffff1673ffffffffffffffffffffffffffffffffffffffff1614156114e25781806114de90613b7e565b9250505b80806114ed90613b7e565b91505061145b565b5060008167ffffffffffffffff811115611538577f4e487b7100000000000000000000000000000000000000000000000000000000600052604160045260246000fd5b6040519080825280602002602001820160405280156115665781602001602082028036833780820191505090505b50905060006001611577600a611f6e565b6115819190613a07565b90505b600081111561165a578473ffffffffffffffffffffffffffffffffffffffff166001600083815260200190815260200160002060009054906101000a900473ffffffffffffffffffffffffffffffffffffffff1673ffffffffffffffffffffffffffffffffffffffff1614156116475780828461160090613af1565b9450848151811061163a577f4e487b7100000000000000000000000000000000000000000000000000000000600052603260045260246000fd5b6020026020010181815250505b808061165290613af1565b915050611584565b508092505050919050565b6000611671600b611f6e565b905090565b60006116806119ab565b73ffffffffffffffffffffffffffffffffffffffff1661169e610e91565b73ffffffffffffffffffffffffffffffffffffffff16146116f4576040517f08c379a00000000000000000000000000000000000000000000000000000000081526004016116eb9061367b565b60405180910390fd5b81600560008573ffffffffffffffffffffffffffffffffffffffff1673ffffffffffffffffffffffffffffffffffffffff16815260200190815260200160002060006101000a81548160ff0219169083151502179055508273ffffffffffffffffffffffffffffffffffffffff167ffe99886f7838dde3fc1f7346eae6da7cc126441a08a16c8b1b45c7b10d455aff8360405161179191906134e3565b60405180910390a26001905092915050565b6117ab6119ab565b73ffffffffffffffffffffffffffffffffffffffff166117c9610e91565b73ffffffffffffffffffffffffffffffffffffffff161461181f576040517f08c379a00000000000000000000000000000000000000000000000000000000081526004016118169061367b565b60405180910390fd5b600073ffffffffffffffffffffffffffffffffffffffff168173ffffffffffffffffffffffffffffffffffffffff16141561188f576040517f08c379a00000000000000000000000000000000000000000000000000000000081526004016118869061353b565b60405180910390fd5b61189881612394565b50565b60006118a682612912565b60019050919050565b606060006118bd600b611f6e565b67ffffffffffffffff8111156118fc577f4e487b7100000000000000000000000000000000000000000000000000000000600052604160045260246000fd5b60405190808252806020026020018201604052801561192a5781602001602082028036833780820191505090505b50905060005b61193a600b611f6e565b8110156119a15761194b8482610934565b828281518110611984577f4e487b7100000000000000000000000000000000000000000000000000000000600052603260045260246000fd5b6020026020010181815250508061199a90613b7e565b9050611930565b5080915050919050565b600033905090565b6040518061010001604052806119c9600b611f6e565b81526020018281526020018681526020018573ffffffffffffffffffffffffffffffffffffffff168152602001600160ff168152602001841515815260200183151581526020016001151581525060036000611a25600b611f6e565b815260200190815260200160002060008201518160000155602082015181600101556040820151816002015560608201518160030160006101000a81548173ffffffffffffffffffffffffffffffffffffffff021916908373ffffffffffffffffffffffffffffffffffffffff16021790555060808201518160030160146101000a81548160ff021916908360ff16021790555060a08201518160030160156101000a81548160ff02191690831515021790555060c08201518160030160166101000a81548160ff02191690831515021790555060e08201518160030160176101000a81548160ff021916908315150217905550905050611b26600b611f6e565b7fbf0319f78aaf9f9c003505ca82c405688492a8be0d84ffe6f01e7bab23cefdf260405160405180910390a2611b5c600b612a5c565b5050505050565b611b7481611b6f6119ab565b610fd8565b611bb3576040517f08c379a0000000000000000000000000000000000000000000000000000000008152600401611baa906135fb565b60405180910390fd5b600c60009054906101000a900473ffffffffffffffffffffffffffffffffffffffff1673ffffffffffffffffffffffffffffffffffffffff166323b872dd611bf96119ab565b611c01610e91565b60036000868152602001908152602001600020600101546040518463ffffffff1660e01b8152600401611c3693929190613461565b602060405180830381600087803b158015611c5057600080fd5b505af1158015611c64573d6000803e3d6000fd5b505050506040513d601f19601f82011682018060405250810190611c889190612daf565b611cc7576040517f08c379a0000000000000000000000000000000000000000000000000000000008152600401611cbe906136db565b60405180910390fd5b6003600082815260200190815260200160002060026000611ce8600a611f6e565b81526020019081526020016000206000820154816000015560018201548160010155600282015481600201556003820160009054906101000a900473ffffffffffffffffffffffffffffffffffffffff168160030160006101000a81548173ffffffffffffffffffffffffffffffffffffffff021916908373ffffffffffffffffffffffffffffffffffffffff1602179055506003820160149054906101000a900460ff168160030160146101000a81548160ff021916908360ff1602179055506003820160159054906101000a900460ff168160030160156101000a81548160ff0219169083151502179055506003820160169054906101000a900460ff168160030160166101000a81548160ff0219169083151502179055506003820160179054906101000a900460ff168160030160176101000a81548160ff021916908315150217905550905050611e3b6119ab565b60016000611e49600a611f6e565b815260200190815260200160002060006101000a81548173ffffffffffffffffffffffffffffffffffffffff021916908373ffffffffffffffffffffffffffffffffffffffff160217905550600460008281526020019081526020016000206000611eb26119ab565b73ffffffffffffffffffffffffffffffffffffffff1673ffffffffffffffffffffffffffffffffffffffff1681526020019081526020016000206000815480929190611efd90613b7e565b9190505550611f0a6119ab565b73ffffffffffffffffffffffffffffffffffffffff16817f78d1d35cef10fdd663dbf46bbb276e9a504f11fc6594e11ff6fefd072b12b5c0611f4c600a611f6e565b604051611f5991906137bb565b60405180910390a3611f6b600a612a5c565b50565b600081600001549050919050565b6000611f878261231c565b611fc6576040517f08c379a0000000000000000000000000000000000000000000000000000000008152600401611fbd9061373b565b60405180910390fd5b60006003600084815260200190815260200160002060030160176101000a81548160ff02191690831515021790555060019050919050565b61200781612881565b612046576040517f08c379a000000000000000000000000000000000000000000000000000000000815260040161203d9061369b565b60405180910390fd5b6120967fa6996df8000000000000000000000000000000000000000000000000000000006120726119ab565b73ffffffffffffffffffffffffffffffffffffffff166128ed90919063ffffffff16565b6120d5576040517f08c379a00000000000000000000000000000000000000000000000000000000081526004016120cc9061355b565b60405180910390fd5b6120e56120e06119ab565b610620565b612124576040517f08c379a000000000000000000000000000000000000000000000000000000000815260040161211b906135bb565b60405180910390fd5b60016002600083815260200190815260200160002060030160149054906101000a900460ff1660ff16148061217e5750600280600083815260200190815260200160002060030160149054906101000a900460ff1660ff16145b6121bd576040517f08c379a00000000000000000000000000000000000000000000000000000000081526004016121b4906136fb565b60405180910390fd5b600460006002600084815260200190815260200160002060000154815260200190815260200160002060006121f183610bcd565b73ffffffffffffffffffffffffffffffffffffffff1673ffffffffffffffffffffffffffffffffffffffff168152602001908152602001600020600081548092919061223c90613af1565b919050555060006002600083815260200190815260200160002060030160146101000a81548160ff021916908360ff16021790555060006001600083815260200190815260200160002060006101000a81548173ffffffffffffffffffffffffffffffffffffffff021916908373ffffffffffffffffffffffffffffffffffffffff1602179055506122cc6119ab565b73ffffffffffffffffffffffffffffffffffffffff167fbcb366f830b7161c969000192ba6e4332a8de75eb4a1c6a8cc0491f427542c6c8260405161231191906137bb565b60405180910390a250565b600081612329600b611f6e565b11612369576040517f08c379a0000000000000000000000000000000000000000000000000000000008152600401612360906136bb565b60405180910390fd5b6003600083815260200190815260200160002060030160179054906101000a900460ff169050919050565b60008060009054906101000a900473ffffffffffffffffffffffffffffffffffffffff169050816000806101000a81548173ffffffffffffffffffffffffffffffffffffffff021916908373ffffffffffffffffffffffffffffffffffffffff1602179055508173ffffffffffffffffffffffffffffffffffffffff168173ffffffffffffffffffffffffffffffffffffffff167f8be0079c531659141344cd1fd0a4f28419497f9722a3daafe3b4186f6b6457e060405160405180910390a35050565b60606009805461246790613b1b565b80601f016020809104026020016040519081016040528092919081815260200182805461249390613b1b565b80156124e05780601f106124b5576101008083540402835291602001916124e0565b820191906000526020600020905b8154815290600101906020018083116124c357829003601f168201915b5050505050905090565b60606000821415612532576040518060400160405280600181526020017f30000000000000000000000000000000000000000000000000000000000000008152509050612692565b600082905060005b6000821461256457808061254d90613b7e565b915050600a8261255d91906139d6565b915061253a565b60008167ffffffffffffffff8111156125a6577f4e487b7100000000000000000000000000000000000000000000000000000000600052604160045260246000fd5b6040519080825280601f01601f1916602001820160405280156125d85781602001600182028036833780820191505090505b5090505b6000851461268b576001826125f19190613a07565b9150600a856126009190613bc7565b603061260c9190613980565b60f81b818381518110612648577f4e487b7100000000000000000000000000000000000000000000000000000000600052603260045260246000fd5b60200101907effffffffffffffffffffffffffffffffffffffffffffffffffffffffffffff1916908160001a905350600a8561268491906139d6565b94506125dc565b8093505050505b919050565b6126a082612881565b6126df576040517f08c379a00000000000000000000000000000000000000000000000000000000081526004016126d69061359b565b60405180910390fd5b6126e76119ab565b73ffffffffffffffffffffffffffffffffffffffff166001600084815260200190815260200160002060009054906101000a900473ffffffffffffffffffffffffffffffffffffffff1673ffffffffffffffffffffffffffffffffffffffff1614612787576040517f08c379a000000000000000000000000000000000000000000000000000000000815260040161277e9061375b565b60405180910390fd5b60016002600084815260200190815260200160002060030160149054906101000a900460ff1660ff16146127f0576040517f08c379a00000000000000000000000000000000000000000000000000000000081526004016127e79061361b565b60405180910390fd5b600280600084815260200190815260200160002060030160146101000a81548160ff021916908360ff1602179055508060405160200161283091906133ce565b604051602081830303815290604052805190602001207fa3d3a3bf9e68e2dd88744994f6155302aae02846d3a369e1e341c363b51879e48360405161287591906137bb565b60405180910390a25050565b60008073ffffffffffffffffffffffffffffffffffffffff166001600084815260200190815260200160002060009054906101000a900473ffffffffffffffffffffffffffffffffffffffff1673ffffffffffffffffffffffffffffffffffffffff1614159050919050565b60006128f883612a72565b801561290a57506129098383612abf565b5b905092915050565b61291a6119ab565b73ffffffffffffffffffffffffffffffffffffffff16612938610e91565b73ffffffffffffffffffffffffffffffffffffffff161461298e576040517f08c379a00000000000000000000000000000000000000000000000000000000081526004016129859061367b565b60405180910390fd5b61299781612881565b6129d6576040517f08c379a00000000000000000000000000000000000000000000000000000000081526004016129cd9061359b565b60405180910390fd5b60636002600083815260200190815260200160002060030160146101000a81548160ff021916908360ff16021790555060006001600083815260200190815260200160002060006101000a81548173ffffffffffffffffffffffffffffffffffffffff021916908373ffffffffffffffffffffffffffffffffffffffff16021790555050565b6001816000016000828254019250508190555050565b6000612a9e827f01ffc9a700000000000000000000000000000000000000000000000000000000612abf565b8015612ab85750612ab68263ffffffff60e01b612abf565b155b9050919050565b6000806301ffc9a760e01b83604051602401612adb91906134fe565b604051602081830303815290604052907bffffffffffffffffffffffffffffffffffffffffffffffffffffffff19166020820180517bffffffffffffffffffffffffffffffffffffffffffffffffffffffff838183161783525050505090506000808573ffffffffffffffffffffffffffffffffffffffff1661753084604051612b659190613393565b6000604051808303818686fa925050503d8060008114612ba1576040519150601f19603f3d011682016040523d82523d6000602084013e612ba6565b606091505b5091509150602081511015612bc15760009350505050612be4565b818015612bde575080806020019051810190612bdd9190612daf565b5b93505050505b92915050565b6000612bfd612bf8846138d9565b6138b4565b905082815260208101848484011115612c1557600080fd5b612c20848285613aaf565b509392505050565b6000612c3b612c36846138d9565b6138b4565b905082815260208101848484011115612c5357600080fd5b612c5e848285613abe565b509392505050565b600081359050612c7581614366565b92915050565b600081359050612c8a8161437d565b92915050565b600081519050612c9f8161437d565b92915050565b600082601f830112612cb657600080fd5b8135612cc6848260208601612bea565b91505092915050565b600082601f830112612ce057600080fd5b8151612cf0848260208601612c28565b91505092915050565b600081359050612d0881614394565b92915050565b600060208284031215612d2057600080fd5b6000612d2e84828501612c66565b91505092915050565b60008060408385031215612d4a57600080fd5b6000612d5885828601612c66565b9250506020612d6985828601612c7b565b9150509250929050565b60008060408385031215612d8657600080fd5b6000612d9485828601612c66565b9250506020612da585828601612cf9565b9150509250929050565b600060208284031215612dc157600080fd5b6000612dcf84828501612c90565b91505092915050565b600060208284031215612dea57600080fd5b600082015167ffffffffffffffff811115612e0457600080fd5b612e1084828501612ccf565b91505092915050565b600060208284031215612e2b57600080fd5b6000612e3984828501612cf9565b91505092915050565b60008060408385031215612e5557600080fd5b6000612e6385828601612cf9565b9250506020612e7485828601612c66565b9150509250929050565b600080600080600060a08688031215612e9657600080fd5b6000612ea488828901612cf9565b9550506020612eb588828901612c66565b9450506040612ec688828901612c7b565b9350506060612ed788828901612c7b565b9250506080612ee888828901612cf9565b9150509295509295909350565b60008060408385031215612f0857600080fd5b6000612f1685828601612cf9565b925050602083013567ffffffffffffffff811115612f3357600080fd5b612f3f85828601612ca5565b9150509250929050565b6000612f558383613375565b60208301905092915050565b612f6a81613a3b565b82525050565b612f7981613a3b565b82525050565b6000612f8a8261391a565b612f948185613948565b9350612f9f8361390a565b8060005b83811015612fd0578151612fb78882612f49565b9750612fc28361393b565b925050600181019050612fa3565b5085935050505092915050565b612fe681613a4d565b82525050565b612ff581613a59565b82525050565b600061300682613925565b6130108185613959565b9350613020818560208601613abe565b80840191505092915050565b600061303782613930565b6130418185613964565b9350613051818560208601613abe565b61305a81613cb4565b840191505092915050565b600061307082613930565b61307a8185613975565b935061308a818560208601613abe565b80840191505092915050565b60006130a3602683613964565b91506130ae82613cc5565b604082019050919050565b60006130c6604383613964565b91506130d182613d14565b606082019050919050565b60006130e9603c83613964565b91506130f482613d89565b604082019050919050565b600061310c603483613964565b915061311782613dd8565b604082019050919050565b600061312f604283613964565b915061313a82613e27565b606082019050919050565b6000613152604983613964565b915061315d82613e9c565b606082019050919050565b6000613175603283613964565b915061318082613f11565b604082019050919050565b6000613198603783613964565b91506131a382613f60565b604082019050919050565b60006131bb602983613964565b91506131c682613faf565b604082019050919050565b60006131de603883613964565b91506131e982613ffe565b604082019050919050565b6000613201602083613964565b915061320c8261404d565b602082019050919050565b6000613224603383613964565b915061322f82614076565b604082019050919050565b6000613247603a83613964565b9150613252826140c5565b604082019050919050565b600061326a602683613964565b915061327582614114565b604082019050919050565b600061328d603583613964565b915061329882614163565b604082019050919050565b60006132b0603383613964565b91506132bb826141b2565b604082019050919050565b60006132d3603283613964565b91506132de82614201565b604082019050919050565b60006132f6603083613964565b915061330182614250565b604082019050919050565b6000613319602d83613964565b91506133248261429f565b604082019050919050565b600061333c603583613964565b9150613347826142ee565b604082019050919050565b600061335f600183613975565b915061336a8261433d565b600182019050919050565b61337e81613aa5565b82525050565b61338d81613aa5565b82525050565b600061339f8284612ffb565b915081905092915050565b60006133b68285612ffb565b91506133c28284612ffb565b91508190509392505050565b60006133da8284613065565b915081905092915050565b60006133f18285613065565b91506133fd8284613065565b91508190509392505050565b600061341482613352565b91506134208284613065565b915081905092915050565b60006020820190506134406000830184612f70565b92915050565b600060208201905061345b6000830184612f61565b92915050565b60006060820190506134766000830186612f61565b6134836020830185612f61565b6134906040830184613384565b949350505050565b60006040820190506134ad6000830185612f61565b6134ba6020830184613384565b9392505050565b600060208201905081810360008301526134db8184612f7f565b905092915050565b60006020820190506134f86000830184612fdd565b92915050565b60006020820190506135136000830184612fec565b92915050565b60006020820190508181036000830152613533818461302c565b905092915050565b6000602082019050818103600083015261355481613096565b9050919050565b60006020820190508181036000830152613574816130b9565b9050919050565b60006020820190508181036000830152613594816130dc565b9050919050565b600060208201905081810360008301526135b4816130ff565b9050919050565b600060208201905081810360008301526135d481613122565b9050919050565b600060208201905081810360008301526135f481613145565b9050919050565b6000602082019050818103600083015261361481613168565b9050919050565b600060208201905081810360008301526136348161318b565b9050919050565b60006020820190508181036000830152613654816131ae565b9050919050565b60006020820190508181036000830152613674816131d1565b9050919050565b60006020820190508181036000830152613694816131f4565b9050919050565b600060208201905081810360008301526136b481613217565b9050919050565b600060208201905081810360008301526136d48161323a565b9050919050565b600060208201905081810360008301526136f48161325d565b9050919050565b6000602082019050818103600083015261371481613280565b9050919050565b60006020820190508181036000830152613734816132a3565b9050919050565b60006020820190508181036000830152613754816132c6565b9050919050565b60006020820190508181036000830152613774816132e9565b9050919050565b600060208201905081810360008301526137948161330c565b9050919050565b600060208201905081810360008301526137b48161332f565b9050919050565b60006020820190506137d06000830184613384565b92915050565b600060e0820190506137eb600083018a613384565b6137f86020830189613384565b6138056040830188613384565b6138126060830187612f61565b61381f6080830186612fdd565b61382c60a0830185612fdd565b61383960c0830184612fdd565b98975050505050505050565b600060e08201905061385a600083018a613384565b6138676020830189613384565b6138746040830188613384565b6138816060830187613384565b61388e6080830186612f61565b61389b60a0830185612fdd565b6138a860c0830184612fdd565b98975050505050505050565b60006138be6138cf565b90506138ca8282613b4d565b919050565b6000604051905090565b600067ffffffffffffffff8211156138f4576138f3613c85565b5b6138fd82613cb4565b9050602081019050919050565b6000819050602082019050919050565b600081519050919050565b600081519050919050565b600081519050919050565b6000602082019050919050565b600082825260208201905092915050565b600081905092915050565b600082825260208201905092915050565b600081905092915050565b600061398b82613aa5565b915061399683613aa5565b9250827fffffffffffffffffffffffffffffffffffffffffffffffffffffffffffffffff038211156139cb576139ca613bf8565b5b828201905092915050565b60006139e182613aa5565b91506139ec83613aa5565b9250826139fc576139fb613c27565b5b828204905092915050565b6000613a1282613aa5565b9150613a1d83613aa5565b925082821015613a3057613a2f613bf8565b5b828203905092915050565b6000613a4682613a85565b9050919050565b60008115159050919050565b60007fffffffff0000000000000000000000000000000000000000000000000000000082169050919050565b600073ffffffffffffffffffffffffffffffffffffffff82169050919050565b6000819050919050565b82818337600083830152505050565b60005b83811015613adc578082015181840152602081019050613ac1565b83811115613aeb576000848401525b50505050565b6000613afc82613aa5565b91506000821415613b1057613b0f613bf8565b5b600182039050919050565b60006002820490506001821680613b3357607f821691505b60208210811415613b4757613b46613c56565b5b50919050565b613b5682613cb4565b810181811067ffffffffffffffff82111715613b7557613b74613c85565b5b80604052505050565b6000613b8982613aa5565b91507fffffffffffffffffffffffffffffffffffffffffffffffffffffffffffffffff821415613bbc57613bbb613bf8565b5b600182019050919050565b6000613bd282613aa5565b9150613bdd83613aa5565b925082613bed57613bec613c27565b5b828206905092915050565b7f4e487b7100000000000000000000000000000000000000000000000000000000600052601160045260246000fd5b7f4e487b7100000000000000000000000000000000000000000000000000000000600052601260045260246000fd5b7f4e487b7100000000000000000000000000000000000000000000000000000000600052602260045260246000fd5b7f4e487b7100000000000000000000000000000000000000000000000000000000600052604160045260246000fd5b6000601f19601f8301169050919050565b7f4f776e61626c653a206e6577206f776e657220697320746865207a65726f206160008201527f6464726573730000000000000000000000000000000000000000000000000000602082015250565b7f494d616769635363726f6c6c73506c75733a2049536b696c6c4365727469666960008201527f63617465506c7573206973206e6f7420737570706f727465642062792063616c60208201527f6c65720000000000000000000000000000000000000000000000000000000000604082015250565b7f494d616769635363726f6c6c73506c75733a2074686973207363726f6c6c207460008201527f797065206973206e6f206c6f6e676572207075726368617361626c6500000000602082015250565b7f494d616769635363726f6c6c73506c75733a206f776e6572207175657279206660008201527f6f72206e6f6e6578697374656e7420746f6b656e000000000000000000000000602082015250565b7f494d616769635363726f6c6c73506c75733a2063616c6c6572206973206e6f7460008201527f2074686520617070726f766564206365727469666963617465206d616e61676560208201527f722e000000000000000000000000000000000000000000000000000000000000604082015250565b7f494d616769635363726f6c6c73506c75733a2049536b696c6c4365727469666960008201527f63617465506c7573206973206e6f7420737570706f727465642062792074686960208201527f7320616464726573730000000000000000000000000000000000000000000000604082015250565b7f494d616769635363726f6c6c73506c75733a2074686973207363726f6c6c206960008201527f73206e6f74207075726368617361626c652e0000000000000000000000000000602082015250565b7f494d616769635363726f6c6c73506c75733a2074686973207363726f6c6c206960008201527f73206e6f206c6f6e67657220636f6e73756d61626c652e000000000000000000602082015250565b7f494d616769635363726f6c6c73506c75733a207363726f6c6c20646f6573206e60008201527f6f742065786973742e0000000000000000000000000000000000000000000000602082015250565b7f494d616769635363726f6c6c73506c75733a2055524920717565727920666f7260008201527f206e6f6e6578697374656e74207363726f6c6c20747970650000000000000000602082015250565b7f4f776e61626c653a2063616c6c6572206973206e6f7420746865206f776e6572600082015250565b7f494d616769635363726f6c6c73506c75733a206f776e6572207175657279206660008201527f6f206e6f6e6578697374656e7420746f6b656e00000000000000000000000000602082015250565b7f494d616769635363726f6c6c73506c75733a20746865726520617265206e6f7460008201527f2074686174206d616e79207479706573206f66207363726f6c6c000000000000602082015250565b7f494d616769635363726f6c6c73506c75733a2063616e6e6f74207472616e736660008201527f6572204447540000000000000000000000000000000000000000000000000000602082015250565b7f494d616769635363726f6c6c73506c75733a2074686973207363726f6c6c206960008201527f73206e6f206c6f6e676572206275726e61626c652e0000000000000000000000602082015250565b7f494d616769635363726f6c6c73506c75733a2055524920717565727920666f7260008201527f206e6f6e6578697374656e74207363726f6c6c00000000000000000000000000602082015250565b7f494d616769635363726f6c6c73506c75733a2074686973207363726f6c6c207460008201527f79706520646f6573206e6f742065786973740000000000000000000000000000602082015250565b7f494d616769635363726f6c6c73506c75733a206d75737420626520636f6e737560008201527f6d656420627920746865206f776e657200000000000000000000000000000000602082015250565b7f494d616769635363726f6c6c73506c75733a2074686973207363726f6c6c206460008201527f6f6573206e6f7420657869737400000000000000000000000000000000000000602082015250565b7f494d616769635363726f6c6c73506c75733a2062616c616e636520717565727960008201527f20666f7220746865207a65726f20616464726573730000000000000000000000602082015250565b7f2f00000000000000000000000000000000000000000000000000000000000000600082015250565b61436f81613a3b565b811461437a57600080fd5b50565b61438681613a4d565b811461439157600080fd5b50565b61439d81613aa5565b81146143a857600080fd5b5056fea2646970667358221220b9cd22cbb8445467fabd0d58409dd5e29dc1f85c7d0ce5e41e423979f543765f64736f6c63430008040033",
  "linkReferences": {
    "contracts/Utils/EIP-55.sol": {
      "ChecksumLib": [
        {
          "length": 20,
          "start": 5001
        }
      ]
    }
  },
  "deployedLinkReferences": {
    "contracts/Utils/EIP-55.sol": {
      "ChecksumLib": [
        {
          "length": 20,
          "start": 3477
        }
      ]
    }
  }
}