{
  "_format": "hh-sol-artifact-1",
  "contractName": "ChecksumLib",
  "sourceName": "contracts/Utils/EIP-55.sol",
  "abi": [
    {
      "inputs": [
        {
          "internalType": "address",
          "name": "account",
          "type": "address"
        }
      ],
      "name": "getChecksum",
      "outputs": [
        {
          "internalType": "string",
          "name": "accountChecksum",
          "type": "string"
        }
      ],
      "stateMutability": "pure",
      "type": "function"
    },
    {
      "inputs": [
        {
          "internalType": "address",
          "name": "account",
          "type": "address"
        }
      ],
      "name": "getChecksumCapitalizedCharacters",
      "outputs": [
        {
          "internalType": "bool[40]",
          "name": "characterCapitalized",
          "type": "bool[40]"
        }
      ],
      "stateMutability": "pure",
      "type": "function"
    }
  ],
  "bytecode": "0x6110ba610053600b82828239805160001a607314610046577f4e487b7100000000000000000000000000000000000000000000000000000000600052600060045260246000fd5b30600052607381538281f3fe73000000000000000000000000000000000000000030146080604052600436106100405760003560e01c806334335472146100455780637cd6f8ff14610075575b600080fd5b61005f600480360381019061005a919061096a565b6100a5565b60405161006c9190610ad7565b60405180910390f35b61008f600480360381019061008a919061096a565b6100bd565b60405161009c9190610af3565b60405180910390f35b6100ad610932565b6100b6826100ee565b9050919050565b60606100c882610393565b6040516020016100d89190610ab5565b6040516020818303038152906040529050919050565b6100f6610932565b60008260601b90506000610109826106a1565b6040516020016101199190610a9e565b60405160208183030381529060405280519060200120905060008060008060005b601460ff16811015610387576010878260148110610181577f4e487b7100000000000000000000000000000000000000000000000000000000600052603260045260246000fd5b1a60f81b60f81c6101929190610f97565b93506010848883601481106101d0577f4e487b7100000000000000000000000000000000000000000000000000000000600052603260045260246000fd5b1a60f81b60f81c6101e19190610e92565b6101eb9190610c27565b94506010868260208110610228577f4e487b7100000000000000000000000000000000000000000000000000000000600052603260045260246000fd5b1a60f81b60f81c6102399190610f97565b9150601082878360208110610277577f4e487b7100000000000000000000000000000000000000000000000000000000600052603260045260246000fd5b1a60f81b60f81c6102889190610e92565b6102929190610c27565b925060098560ff161180156102aa575060078360ff16115b888260026102b89190610dc9565b602881106102ef577f4e487b7100000000000000000000000000000000000000000000000000000000600052603260045260246000fd5b60200201901515908115158152505060098460ff16118015610314575060078260ff16115b8860018360026103249190610dc9565b61032e9190610b69565b60288110610365577f4e487b7100000000000000000000000000000000000000000000000000000000600052603260045260246000fd5b602002019015159081151581525050808061037f90610f4e565b91505061013a565b50505050505050919050565b606060008260601b90506000602867ffffffffffffffff8111156103e0577f4e487b7100000000000000000000000000000000000000000000000000000000600052604160045260246000fd5b6040519080825280601f01601f1916602001820160405280156104125781602001600182028036833780820191505090505b50905060008060008060008060006104298b6100ee565b905060005b601460ff1681101561068f578060136104479190610e5e565b60086104539190610dc9565b600261045f9190610cab565b8a60601c73ffffffffffffffffffffffffffffffffffffffff166104839190610bf6565b97506010886104929190610c27565b96508660106104a19190610e23565b886104ac9190610e92565b9550818160026104bc9190610dc9565b602881106104f3577f4e487b7100000000000000000000000000000000000000000000000000000000600052603260045260246000fd5b6020020151945081600182600261050a9190610dc9565b6105149190610b69565b6028811061054b577f4e487b7100000000000000000000000000000000000000000000000000000000600052603260045260246000fd5b6020020151935061055c8786610900565b9250828761056a9190610bbf565b60f81b8982600261057b9190610dc9565b815181106105b2577f4e487b7100000000000000000000000000000000000000000000000000000000600052603260045260246000fd5b60200101907effffffffffffffffffffffffffffffffffffffffffffffffffffffffffffff1916908160001a9053506105eb8685610900565b925082866105f99190610bbf565b60f81b89600183600261060c9190610dc9565b6106169190610b69565b8151811061064d577f4e487b7100000000000000000000000000000000000000000000000000000000600052603260045260246000fd5b60200101907effffffffffffffffffffffffffffffffffffffffffffffffffffffffffffff1916908160001a905350808061068790610f4e565b91505061042e565b50879950505050505050505050919050565b60606000602867ffffffffffffffff8111156106e6577f4e487b7100000000000000000000000000000000000000000000000000000000600052604160045260246000fd5b6040519080825280601f01601f1916602001820160405280156107185781602001600182028036833780820191505090505b509050600080600080600090505b601460ff168110156108f35780601361073f9190610e5e565b600861074b9190610dc9565b60026107579190610cab565b8760601c73ffffffffffffffffffffffffffffffffffffffff1661077b9190610bf6565b935060108461078a9190610c27565b92508260106107999190610e23565b846107a49190610e92565b9150600a8360ff16106107b85760576107bb565b60305b836107c69190610bbf565b60f81b858260026107d79190610dc9565b8151811061080e577f4e487b7100000000000000000000000000000000000000000000000000000000600052603260045260246000fd5b60200101907effffffffffffffffffffffffffffffffffffffffffffffffffffffffffffff1916908160001a905350600a8260ff161061084f576057610852565b60305b8261085d9190610bbf565b60f81b8560018360026108709190610dc9565b61087a9190610b69565b815181106108b1577f4e487b7100000000000000000000000000000000000000000000000000000000600052603260045260246000fd5b60200101907effffffffffffffffffffffffffffffffffffffffffffffffffffffffffffff1916908160001a90535080806108eb90610f4e565b915050610726565b5083945050505050919050565b6000600a8360ff161015610917576030905061092c565b8115610926576037905061092b565b605790505b5b92915050565b604051806105000160405280602890602082028036833780820191505090505090565b6000813590506109648161106d565b92915050565b60006020828403121561097c57600080fd5b600061098a84828501610955565b91505092915050565b600061099f8383610a02565b60208301905092915050565b6109b481610b1f565b6109be8184610b42565b92506109c982610b15565b8060005b838110156109fa5781516109e18782610993565b96506109ec83610b35565b9250506001810190506109cd565b505050505050565b610a0b81610ed8565b82525050565b6000610a1c82610b2a565b610a268185610b4d565b9350610a36818560208601610f1b565b610a3f81611026565b840191505092915050565b6000610a5582610b2a565b610a5f8185610b5e565b9350610a6f818560208601610f1b565b80840191505092915050565b6000610a88600283610b5e565b9150610a9382611044565b600282019050919050565b6000610aaa8284610a4a565b915081905092915050565b6000610ac082610a7b565b9150610acc8284610a4a565b915081905092915050565b600061050082019050610aed60008301846109ab565b92915050565b60006020820190508181036000830152610b0d8184610a11565b905092915050565b6000819050919050565b600060289050919050565b600081519050919050565b6000602082019050919050565b600081905092915050565b600082825260208201905092915050565b600081905092915050565b6000610b7482610f04565b9150610b7f83610f04565b9250827fffffffffffffffffffffffffffffffffffffffffffffffffffffffffffffffff03821115610bb457610bb3610fc8565b5b828201905092915050565b6000610bca82610f0e565b9150610bd583610f0e565b92508260ff03821115610beb57610bea610fc8565b5b828201905092915050565b6000610c0182610f04565b9150610c0c83610f04565b925082610c1c57610c1b610ff7565b5b828204905092915050565b6000610c3282610f0e565b9150610c3d83610f0e565b925082610c4d57610c4c610ff7565b5b828204905092915050565b6000808291508390505b6001851115610ca257808604811115610c7e57610c7d610fc8565b5b6001851615610c8d5780820291505b8081029050610c9b85611037565b9450610c62565b94509492505050565b6000610cb682610f04565b9150610cc183610f04565b9250610cee7fffffffffffffffffffffffffffffffffffffffffffffffffffffffffffffffff8484610cf6565b905092915050565b600082610d065760019050610dc2565b81610d145760009050610dc2565b8160018114610d2a5760028114610d3457610d63565b6001915050610dc2565b60ff841115610d4657610d45610fc8565b5b8360020a915084821115610d5d57610d5c610fc8565b5b50610dc2565b5060208310610133831016604e8410600b8410161715610d985782820a905083811115610d9357610d92610fc8565b5b610dc2565b610da58484846001610c58565b92509050818404811115610dbc57610dbb610fc8565b5b81810290505b9392505050565b6000610dd482610f04565b9150610ddf83610f04565b9250817fffffffffffffffffffffffffffffffffffffffffffffffffffffffffffffffff0483118215151615610e1857610e17610fc8565b5b828202905092915050565b6000610e2e82610f0e565b9150610e3983610f0e565b92508160ff0483118215151615610e5357610e52610fc8565b5b828202905092915050565b6000610e6982610f04565b9150610e7483610f04565b925082821015610e8757610e86610fc8565b5b828203905092915050565b6000610e9d82610f0e565b9150610ea883610f0e565b925082821015610ebb57610eba610fc8565b5b828203905092915050565b6000610ed182610ee4565b9050919050565b60008115159050919050565b600073ffffffffffffffffffffffffffffffffffffffff82169050919050565b6000819050919050565b600060ff82169050919050565b60005b83811015610f39578082015181840152602081019050610f1e565b83811115610f48576000848401525b50505050565b6000610f5982610f04565b91507fffffffffffffffffffffffffffffffffffffffffffffffffffffffffffffffff821415610f8c57610f8b610fc8565b5b600182019050919050565b6000610fa282610f0e565b9150610fad83610f0e565b925082610fbd57610fbc610ff7565b5b828206905092915050565b7f4e487b7100000000000000000000000000000000000000000000000000000000600052601160045260246000fd5b7f4e487b7100000000000000000000000000000000000000000000000000000000600052601260045260246000fd5b6000601f19601f8301169050919050565b60008160011c9050919050565b7f3078000000000000000000000000000000000000000000000000000000000000600082015250565b61107681610ec6565b811461108157600080fd5b5056fea2646970667358221220bbc3ced29d27bfb24ca8b4bc6afa4693026ee90608e3810cc274ad6acc61fc6664736f6c63430008040033",
  "linkReferences": {},
  "deployedLinkReferences": {}
}