{
  "_format": "hh-sol-artifact-1",
  "contractName": "SkillCertificatePlus",
  "sourceName": "contracts/SkillCertificates/V2/SkillCertificate+.sol",
  "abi": [
    {
      "inputs": [
        {
          "internalType": "string",
          "name": "name_",
          "type": "string"
        },
        {
          "internalType": "string",
          "name": "symbol_",
          "type": "string"
        },
        {
          "internalType": "string",
          "name": "baseURI_",
          "type": "string"
        },
        {
          "internalType": "address",
          "name": "addressShop_",
          "type": "address"
        }
      ],
      "stateMutability": "nonpayable",
      "type": "constructor"
    },
    {
      "anonymous": false,
      "inputs": [
        {
          "indexed": true,
          "internalType": "address",
          "name": "student",
          "type": "address"
        },
        {
          "indexed": false,
          "internalType": "uint256",
          "name": "scrollId",
          "type": "uint256"
        },
        {
          "indexed": false,
          "internalType": "uint256",
          "name": "typeId",
          "type": "uint256"
        }
      ],
      "name": "CertificateBurned",
      "type": "event"
    },
    {
      "anonymous": false,
      "inputs": [
        {
          "indexed": true,
          "internalType": "address",
          "name": "student",
          "type": "address"
        },
        {
          "indexed": false,
          "internalType": "uint256",
          "name": "scrollId",
          "type": "uint256"
        },
        {
          "indexed": false,
          "internalType": "uint256",
          "name": "typeId",
          "type": "uint256"
        }
      ],
      "name": "CertificateMinted",
      "type": "event"
    },
    {
      "anonymous": false,
      "inputs": [
        {
          "indexed": true,
          "internalType": "address",
          "name": "previousOwner",
          "type": "address"
        },
        {
          "indexed": true,
          "internalType": "address",
          "name": "newOwner",
          "type": "address"
        }
      ],
      "name": "OwnershipTransferred",
      "type": "event"
    },
    {
      "inputs": [
        {
          "internalType": "uint256",
          "name": "scrollTypeId",
          "type": "uint256"
        }
      ],
      "name": "addCertificate",
      "outputs": [
        {
          "internalType": "bool",
          "name": "",
          "type": "bool"
        }
      ],
      "stateMutability": "nonpayable",
      "type": "function"
    },
    {
      "inputs": [
        {
          "internalType": "address[]",
          "name": "to",
          "type": "address[]"
        },
        {
          "internalType": "uint256[]",
          "name": "scrollOwnedID",
          "type": "uint256[]"
        },
        {
          "internalType": "uint256",
          "name": "typeId",
          "type": "uint256"
        }
      ],
      "name": "batchMint",
      "outputs": [
        {
          "internalType": "bool",
          "name": "",
          "type": "bool"
        }
      ],
      "stateMutability": "nonpayable",
      "type": "function"
    },
    {
      "inputs": [
        {
          "internalType": "uint256",
          "name": "id",
          "type": "uint256"
        },
        {
          "internalType": "uint256",
          "name": "typeId",
          "type": "uint256"
        }
      ],
      "name": "forceBurn",
      "outputs": [
        {
          "internalType": "bool",
          "name": "",
          "type": "bool"
        }
      ],
      "stateMutability": "nonpayable",
      "type": "function"
    },
    {
      "inputs": [
        {
          "internalType": "address",
          "name": "to",
          "type": "address"
        },
        {
          "internalType": "uint256",
          "name": "scrollOwnedID",
          "type": "uint256"
        },
        {
          "internalType": "uint256",
          "name": "typeId",
          "type": "uint256"
        }
      ],
      "name": "mint",
      "outputs": [
        {
          "internalType": "bool",
          "name": "",
          "type": "bool"
        }
      ],
      "stateMutability": "nonpayable",
      "type": "function"
    },
    {
      "inputs": [],
      "name": "name",
      "outputs": [
        {
          "internalType": "string",
          "name": "",
          "type": "string"
        }
      ],
      "stateMutability": "view",
      "type": "function"
    },
    {
      "inputs": [],
      "name": "owner",
      "outputs": [
        {
          "internalType": "address",
          "name": "",
          "type": "address"
        }
      ],
      "stateMutability": "view",
      "type": "function"
    },
    {
      "inputs": [
        {
          "internalType": "uint256",
          "name": "tokenId",
          "type": "uint256"
        },
        {
          "internalType": "uint256",
          "name": "tokenType",
          "type": "uint256"
        }
      ],
      "name": "ownerOfType",
      "outputs": [
        {
          "internalType": "address",
          "name": "",
          "type": "address"
        }
      ],
      "stateMutability": "view",
      "type": "function"
    },
    {
      "inputs": [],
      "name": "renounceOwnership",
      "outputs": [],
      "stateMutability": "nonpayable",
      "type": "function"
    },
    {
      "inputs": [],
      "name": "shop",
      "outputs": [
        {
          "internalType": "address",
          "name": "",
          "type": "address"
        }
      ],
      "stateMutability": "view",
      "type": "function"
    },
    {
      "inputs": [],
      "name": "symbol",
      "outputs": [
        {
          "internalType": "string",
          "name": "",
          "type": "string"
        }
      ],
      "stateMutability": "view",
      "type": "function"
    },
    {
      "inputs": [
        {
          "internalType": "uint256",
          "name": "typeId",
          "type": "uint256"
        }
      ],
      "name": "tokenURI",
      "outputs": [
        {
          "internalType": "string",
          "name": "",
          "type": "string"
        }
      ],
      "stateMutability": "view",
      "type": "function"
    },
    {
      "inputs": [
        {
          "internalType": "address",
          "name": "newOwner",
          "type": "address"
        }
      ],
      "name": "transferOwnership",
      "outputs": [],
      "stateMutability": "nonpayable",
      "type": "function"
    },
    {
      "inputs": [
        {
          "internalType": "uint256",
          "name": "typeId",
          "type": "uint256"
        }
      ],
      "name": "typeAccepted",
      "outputs": [
        {
          "internalType": "uint256",
          "name": "",
          "type": "uint256"
        }
      ],
      "stateMutability": "view",
      "type": "function"
    },
    {
      "inputs": [],
      "name": "typesExisted",
      "outputs": [
        {
          "internalType": "uint256",
          "name": "",
          "type": "uint256"
        }
      ],
      "stateMutability": "view",
      "type": "function"
    },
    {
      "inputs": [
        {
          "internalType": "address",
          "name": "student",
          "type": "address"
        },
        {
          "internalType": "uint256",
          "name": "typeId",
          "type": "uint256"
        }
      ],
      "name": "verify",
      "outputs": [
        {
          "internalType": "bool",
          "name": "",
          "type": "bool"
        }
      ],
      "stateMutability": "view",
      "type": "function"
    }
  ],
  "bytecode": "0x60806040526040518060200160405280600081525060096000820151816000015550503480156200002f57600080fd5b50604051620032e2380380620032e2833981810160405281019062000055919062000310565b62000075620000696200010b60201b60201c565b6200011360201b60201c565b83600490805190602001906200008d929190620001d7565b508260059080519060200190620000a6929190620001d7565b508160069080519060200190620000bf929190620001d7565b5080600360006101000a81548173ffffffffffffffffffffffffffffffffffffffff021916908373ffffffffffffffffffffffffffffffffffffffff1602179055505050505062000585565b600033905090565b60008060009054906101000a900473ffffffffffffffffffffffffffffffffffffffff169050816000806101000a81548173ffffffffffffffffffffffffffffffffffffffff021916908373ffffffffffffffffffffffffffffffffffffffff1602179055508173ffffffffffffffffffffffffffffffffffffffff168173ffffffffffffffffffffffffffffffffffffffff167f8be0079c531659141344cd1fd0a4f28419497f9722a3daafe3b4186f6b6457e060405160405180910390a35050565b828054620001e59062000490565b90600052602060002090601f01602090048101928262000209576000855562000255565b82601f106200022457805160ff191683800117855562000255565b8280016001018555821562000255579182015b828111156200025457825182559160200191906001019062000237565b5b50905062000264919062000268565b5090565b5b808211156200028357600081600090555060010162000269565b5090565b60006200029e6200029884620003f0565b620003c7565b905082815260208101848484011115620002b757600080fd5b620002c48482856200045a565b509392505050565b600081519050620002dd816200056b565b92915050565b600082601f830112620002f557600080fd5b81516200030784826020860162000287565b91505092915050565b600080600080608085870312156200032757600080fd5b600085015167ffffffffffffffff8111156200034257600080fd5b6200035087828801620002e3565b945050602085015167ffffffffffffffff8111156200036e57600080fd5b6200037c87828801620002e3565b935050604085015167ffffffffffffffff8111156200039a57600080fd5b620003a887828801620002e3565b9250506060620003bb87828801620002cc565b91505092959194509250565b6000620003d3620003e6565b9050620003e18282620004c6565b919050565b6000604051905090565b600067ffffffffffffffff8211156200040e576200040d6200052b565b5b62000419826200055a565b9050602081019050919050565b600062000433826200043a565b9050919050565b600073ffffffffffffffffffffffffffffffffffffffff82169050919050565b60005b838110156200047a5780820151818401526020810190506200045d565b838111156200048a576000848401525b50505050565b60006002820490506001821680620004a957607f821691505b60208210811415620004c057620004bf620004fc565b5b50919050565b620004d1826200055a565b810181811067ffffffffffffffff82111715620004f357620004f26200052b565b5b80604052505050565b7f4e487b7100000000000000000000000000000000000000000000000000000000600052602260045260246000fd5b7f4e487b7100000000000000000000000000000000000000000000000000000000600052604160045260246000fd5b6000601f19601f8301169050919050565b620005768162000426565b81146200058257600080fd5b50565b612d4d80620005956000396000f3fe608060405234801561001057600080fd5b50600436106100f55760003560e01c80637e28308111610097578063c87b56dd11610066578063c87b56dd1461028a578063d5f9d6c2146102ba578063dcd631c1146102ea578063f2fde38b1461031a576100f5565b80637e283081146101ee5780638da5cb5b1461021e57806395d89b411461023c578063a12684611461025a576100f5565b806334db04a9116100d357806334db04a91461016657806365d60449146101965780636704fe9f146101b4578063715018a6146101e4576100f5565b806306fdde03146100fa5780630881fa0d14610118578063156e29f614610136575b600080fd5b610102610336565b60405161010f919061233b565b60405180910390f35b6101206103c8565b60405161012d91906122ea565b60405180910390f35b610150600480360381019061014b9190611d84565b6103f2565b60405161015d9190612305565b60405180910390f35b610180600480360381019061017b9190611ebc565b610486565b60405161018d91906124bd565b60405180910390f35b61019e6104a3565b6040516101ab91906124bd565b60405180910390f35b6101ce60048036038101906101c99190611d48565b6104b4565b6040516101db9190612305565b60405180910390f35b6101ec61051c565b005b61020860048036038101906102039190611dd3565b6105a4565b6040516102159190612305565b60405180910390f35b610226610761565b60405161023391906122ea565b60405180910390f35b61024461078a565b604051610251919061233b565b60405180910390f35b610274600480360381019061026f9190611ebc565b61081c565b6040516102819190612305565b60405180910390f35b6102a4600480360381019061029f9190611ebc565b6108ac565b6040516102b1919061233b565b60405180910390f35b6102d460048036038101906102cf9190611f0e565b610a36565b6040516102e191906122ea565b60405180910390f35b61030460048036038101906102ff9190611f0e565b610ace565b6040516103119190612305565b60405180910390f35b610334600480360381019061032f9190611cf6565b610b60565b005b6060600480546103459061274e565b80601f01602080910402602001604051908101604052809291908181526020018280546103719061274e565b80156103be5780601f10610393576101008083540402835291602001916103be565b820191906000526020600020905b8154815290600101906020018083116103a157829003601f168201915b5050505050905090565b6000600360009054906101000a900473ffffffffffffffffffffffffffffffffffffffff16905090565b60006103fc610c58565b73ffffffffffffffffffffffffffffffffffffffff1661041a610761565b73ffffffffffffffffffffffffffffffffffffffff1614610470576040517f08c379a00000000000000000000000000000000000000000000000000000000081526004016104679061243d565b60405180910390fd5b61047b848484610c60565b600190509392505050565b600060076000838152602001908152602001600020549050919050565b60006104af60096111be565b905090565b60006002600083815260200190815260200160002060008473ffffffffffffffffffffffffffffffffffffffff1673ffffffffffffffffffffffffffffffffffffffff16815260200190815260200160002060009054906101000a900460ff16905092915050565b610524610c58565b73ffffffffffffffffffffffffffffffffffffffff16610542610761565b73ffffffffffffffffffffffffffffffffffffffff1614610598576040517f08c379a000000000000000000000000000000000000000000000000000000000815260040161058f9061243d565b60405180910390fd5b6105a260006111cc565b565b60006105ae610c58565b73ffffffffffffffffffffffffffffffffffffffff166105cc610761565b73ffffffffffffffffffffffffffffffffffffffff1614610622576040517f08c379a00000000000000000000000000000000000000000000000000000000081526004016106199061243d565b60405180910390fd5b6103e8845110610667576040517f08c379a000000000000000000000000000000000000000000000000000000000815260040161065e906123bd565b60405180910390fd5b82518451146106ab576040517f08c379a00000000000000000000000000000000000000000000000000000000081526004016106a2906123fd565b60405180910390fd5b60005b8451811015610755576107428582815181106106f3577f4e487b7100000000000000000000000000000000000000000000000000000000600052603260045260246000fd5b6020026020010151858381518110610734577f4e487b7100000000000000000000000000000000000000000000000000000000600052603260045260246000fd5b602002602001015185610c60565b808061074d906127b1565b9150506106ae565b50600190509392505050565b60008060009054906101000a900473ffffffffffffffffffffffffffffffffffffffff16905090565b6060600580546107999061274e565b80601f01602080910402602001604051908101604052809291908181526020018280546107c59061274e565b80156108125780601f106107e757610100808354040283529160200191610812565b820191906000526020600020905b8154815290600101906020018083116107f557829003601f168201915b5050505050905090565b6000610826610c58565b73ffffffffffffffffffffffffffffffffffffffff16610844610761565b73ffffffffffffffffffffffffffffffffffffffff161461089a576040517f08c379a00000000000000000000000000000000000000000000000000000000081526004016108919061243d565b60405180910390fd5b6108a382611290565b60019050919050565b60606108b782611482565b6108f6576040517f08c379a00000000000000000000000000000000000000000000000000000000081526004016108ed906123dd565b60405180910390fd5b6000610900611497565b905060008151116109205760405180602001604052806000815250610a2e565b803073ffffffffffffffffffffffffffffffffffffffff1673__$124e1a4c5367a62965a30c61a01a42cb5d$__637cd6f8ff90916040518263ffffffff1660e01b815260040161097091906122cf565b60006040518083038186803b15801561098857600080fd5b505af415801561099c573d6000803e3d6000fd5b505050506040513d6000823e3d601f19601f820116820180604052508101906109c59190611e7b565b6109ce85611529565b6040516020016109de91906122ad565b6040516020818303038152906040526040516020016109fe929190612289565b604051602081830303815290604052604051602001610a1e929190612289565b6040516020818303038152906040525b915050919050565b6000610a4283836116d6565b610a81576040517f08c379a0000000000000000000000000000000000000000000000000000000008152600401610a78906123dd565b60405180910390fd5b60016000838152602001908152602001600020600084815260200190815260200160002060009054906101000a900473ffffffffffffffffffffffffffffffffffffffff16905092915050565b6000610ad8610c58565b73ffffffffffffffffffffffffffffffffffffffff16610af6610761565b73ffffffffffffffffffffffffffffffffffffffff1614610b4c576040517f08c379a0000000000000000000000000000000000000000000000000000000008152600401610b439061243d565b60405180910390fd5b610b568383611754565b6001905092915050565b610b68610c58565b73ffffffffffffffffffffffffffffffffffffffff16610b86610761565b73ffffffffffffffffffffffffffffffffffffffff1614610bdc576040517f08c379a0000000000000000000000000000000000000000000000000000000008152600401610bd39061243d565b60405180910390fd5b600073ffffffffffffffffffffffffffffffffffffffff168173ffffffffffffffffffffffffffffffffffffffff161415610c4c576040517f08c379a0000000000000000000000000000000000000000000000000000000008152600401610c439061239d565b60405180910390fd5b610c55816111cc565b50565b600033905090565b610c6981611482565b610ca8576040517f08c379a0000000000000000000000000000000000000000000000000000000008152600401610c9f9061249d565b60405180910390fd5b610d137fa32d931a00000000000000000000000000000000000000000000000000000000600360009054906101000a900473ffffffffffffffffffffffffffffffffffffffff1673ffffffffffffffffffffffffffffffffffffffff1661194690919063ffffffff16565b610d52576040517f08c379a0000000000000000000000000000000000000000000000000000000008152600401610d499061235d565b60405180910390fd5b8273ffffffffffffffffffffffffffffffffffffffff16600360009054906101000a900473ffffffffffffffffffffffffffffffffffffffff1673ffffffffffffffffffffffffffffffffffffffff16636352211e846040518263ffffffff1660e01b8152600401610dc491906124bd565b60206040518083038186803b158015610ddc57600080fd5b505afa158015610df0573d6000803e3d6000fd5b505050506040513d601f19601f82011682018060405250810190610e149190611d1f565b73ffffffffffffffffffffffffffffffffffffffff1614610e6a576040517f08c379a0000000000000000000000000000000000000000000000000000000008152600401610e619061237d565b60405180910390fd5b6000600360009054906101000a900473ffffffffffffffffffffffffffffffffffffffff1673ffffffffffffffffffffffffffffffffffffffff1663cb9d6aa5846040518263ffffffff1660e01b8152600401610ec791906124bd565b60e06040518083038186803b158015610edf57600080fd5b505afa158015610ef3573d6000803e3d6000fd5b505050506040513d601f19601f82011682018060405250810190610f179190611f4a565b5050505050915050818114610f61576040517f08c379a0000000000000000000000000000000000000000000000000000000008152600401610f589061247d565b60405180910390fd5b600360009054906101000a900473ffffffffffffffffffffffffffffffffffffffff1673ffffffffffffffffffffffffffffffffffffffff166342966c68846040518263ffffffff1660e01b8152600401610fbc91906124bd565b602060405180830381600087803b158015610fd657600080fd5b505af1158015610fea573d6000803e3d6000fd5b505050506040513d601f19601f8201168201806040525081019061100e9190611e52565b61104d576040517f08c379a00000000000000000000000000000000000000000000000000000000081526004016110449061245d565b60405180910390fd5b60016002600084815260200190815260200160002060008673ffffffffffffffffffffffffffffffffffffffff1673ffffffffffffffffffffffffffffffffffffffff16815260200190815260200160002060006101000a81548160ff021916908315150217905550836001600084815260200190815260200160002060006110e7600860008781526020019081526020016000206111be565b815260200190815260200160002060006101000a81548173ffffffffffffffffffffffffffffffffffffffff021916908373ffffffffffffffffffffffffffffffffffffffff1602179055508373ffffffffffffffffffffffffffffffffffffffff167ffb2a8276c788bcdeaec6f4ec55f21fc636460802e63cb7e05337309232a1b905611186600860008681526020019081526020016000206111be565b846040516111959291906124d8565b60405180910390a26111b86008600084815260200190815260200160002061196b565b50505050565b600081600001549050919050565b60008060009054906101000a900473ffffffffffffffffffffffffffffffffffffffff169050816000806101000a81548173ffffffffffffffffffffffffffffffffffffffff021916908373ffffffffffffffffffffffffffffffffffffffff1602179055508173ffffffffffffffffffffffffffffffffffffffff168173ffffffffffffffffffffffffffffffffffffffff167f8be0079c531659141344cd1fd0a4f28419497f9722a3daafe3b4186f6b6457e060405160405180910390a35050565b6112fb7fa32d931a00000000000000000000000000000000000000000000000000000000600360009054906101000a900473ffffffffffffffffffffffffffffffffffffffff1673ffffffffffffffffffffffffffffffffffffffff1661194690919063ffffffff16565b61133a576040517f08c379a00000000000000000000000000000000000000000000000000000000081526004016113319061235d565b60405180910390fd5b80600360009054906101000a900473ffffffffffffffffffffffffffffffffffffffff1673ffffffffffffffffffffffffffffffffffffffff1663d988ca166040518163ffffffff1660e01b815260040160206040518083038186803b1580156113a357600080fd5b505afa1580156113b7573d6000803e3d6000fd5b505050506040513d601f19601f820116820180604052508101906113db9190611ee5565b1161141b576040517f08c379a00000000000000000000000000000000000000000000000000000000081526004016114129061241d565b60405180910390fd5b806007600061142a60096111be565b815260200190815260200160002081905550604051806020016040528060008152506008600061145a60096111be565b81526020019081526020016000206000820151816000015590505061147f600961196b565b50565b60008161148f60096111be565b119050919050565b6060600680546114a69061274e565b80601f01602080910402602001604051908101604052809291908181526020018280546114d29061274e565b801561151f5780601f106114f45761010080835404028352916020019161151f565b820191906000526020600020905b81548152906001019060200180831161150257829003601f168201915b5050505050905090565b60606000821415611571576040518060400160405280600181526020017f300000000000000000000000000000000000000000000000000000000000000081525090506116d1565b600082905060005b600082146115a357808061158c906127b1565b915050600a8261159c9190612642565b9150611579565b60008167ffffffffffffffff8111156115e5577f4e487b7100000000000000000000000000000000000000000000000000000000600052604160045260246000fd5b6040519080825280601f01601f1916602001820160405280156116175781602001600182028036833780820191505090505b5090505b600085146116ca576001826116309190612673565b9150600a8561163f91906127fa565b603061164b91906125ec565b60f81b818381518110611687577f4e487b7100000000000000000000000000000000000000000000000000000000600052603260045260246000fd5b60200101907effffffffffffffffffffffffffffffffffffffffffffffffffffffffffffff1916908160001a905350600a856116c39190612642565b945061161b565b8093505050505b919050565b60008073ffffffffffffffffffffffffffffffffffffffff1660016000848152602001908152602001600020600085815260200190815260200160002060009054906101000a900473ffffffffffffffffffffffffffffffffffffffff1673ffffffffffffffffffffffffffffffffffffffff161415905092915050565b61175e82826116d6565b61179d576040517f08c379a0000000000000000000000000000000000000000000000000000000008152600401611794906123dd565b60405180910390fd5b60016000828152602001908152602001600020600083815260200190815260200160002060009054906101000a900473ffffffffffffffffffffffffffffffffffffffff1673ffffffffffffffffffffffffffffffffffffffff167fc8aa53d9c07ab628ef90e81a77d7c6560fbd975d5b7fa7886e86b58ecd4c764183836040516118299291906124d8565b60405180910390a2600060026000838152602001908152602001600020600060016000858152602001908152602001600020600086815260200190815260200160002060009054906101000a900473ffffffffffffffffffffffffffffffffffffffff1673ffffffffffffffffffffffffffffffffffffffff1673ffffffffffffffffffffffffffffffffffffffff16815260200190815260200160002060006101000a81548160ff021916908315150217905550600060016000838152602001908152602001600020600084815260200190815260200160002060006101000a81548173ffffffffffffffffffffffffffffffffffffffff021916908373ffffffffffffffffffffffffffffffffffffffff1602179055505050565b600061195183611981565b8015611963575061196283836119ce565b5b905092915050565b6001816000016000828254019250508190555050565b60006119ad827f01ffc9a7000000000000000000000000000000000000000000000000000000006119ce565b80156119c757506119c58263ffffffff60e01b6119ce565b155b9050919050565b6000806301ffc9a760e01b836040516024016119ea9190612320565b604051602081830303815290604052907bffffffffffffffffffffffffffffffffffffffffffffffffffffffff19166020820180517bffffffffffffffffffffffffffffffffffffffffffffffffffffffff838183161783525050505090506000808573ffffffffffffffffffffffffffffffffffffffff1661753084604051611a749190612272565b6000604051808303818686fa925050503d8060008114611ab0576040519150601f19603f3d011682016040523d82523d6000602084013e611ab5565b606091505b5091509150602081511015611ad05760009350505050611af3565b818015611aed575080806020019051810190611aec9190611e52565b5b93505050505b92915050565b6000611b0c611b0784612526565b612501565b90508083825260208201905082856020860282011115611b2b57600080fd5b60005b85811015611b5b5781611b418882611c0f565b845260208401935060208301925050600181019050611b2e565b5050509392505050565b6000611b78611b7384612552565b612501565b90508083825260208201905082856020860282011115611b9757600080fd5b60005b85811015611bc75781611bad8882611ccc565b845260208401935060208301925050600181019050611b9a565b5050509392505050565b6000611be4611bdf8461257e565b612501565b905082815260208101848484011115611bfc57600080fd5b611c0784828561271b565b509392505050565b600081359050611c1e81612cd2565b92915050565b600081519050611c3381612cd2565b92915050565b600082601f830112611c4a57600080fd5b8135611c5a848260208601611af9565b91505092915050565b600082601f830112611c7457600080fd5b8135611c84848260208601611b65565b91505092915050565b600081519050611c9c81612ce9565b92915050565b600082601f830112611cb357600080fd5b8151611cc3848260208601611bd1565b91505092915050565b600081359050611cdb81612d00565b92915050565b600081519050611cf081612d00565b92915050565b600060208284031215611d0857600080fd5b6000611d1684828501611c0f565b91505092915050565b600060208284031215611d3157600080fd5b6000611d3f84828501611c24565b91505092915050565b60008060408385031215611d5b57600080fd5b6000611d6985828601611c0f565b9250506020611d7a85828601611ccc565b9150509250929050565b600080600060608486031215611d9957600080fd5b6000611da786828701611c0f565b9350506020611db886828701611ccc565b9250506040611dc986828701611ccc565b9150509250925092565b600080600060608486031215611de857600080fd5b600084013567ffffffffffffffff811115611e0257600080fd5b611e0e86828701611c39565b935050602084013567ffffffffffffffff811115611e2b57600080fd5b611e3786828701611c63565b9250506040611e4886828701611ccc565b9150509250925092565b600060208284031215611e6457600080fd5b6000611e7284828501611c8d565b91505092915050565b600060208284031215611e8d57600080fd5b600082015167ffffffffffffffff811115611ea757600080fd5b611eb384828501611ca2565b91505092915050565b600060208284031215611ece57600080fd5b6000611edc84828501611ccc565b91505092915050565b600060208284031215611ef757600080fd5b6000611f0584828501611ce1565b91505092915050565b60008060408385031215611f2157600080fd5b6000611f2f85828601611ccc565b9250506020611f4085828601611ccc565b9150509250929050565b600080600080600080600060e0888a031215611f6557600080fd5b6000611f738a828b01611ce1565b9750506020611f848a828b01611ce1565b9650506040611f958a828b01611ce1565b9550506060611fa68a828b01611ce1565b9450506080611fb78a828b01611c24565b93505060a0611fc88a828b01611c8d565b92505060c0611fd98a828b01611c8d565b91505092959891949750929550565b611ff1816126a7565b82525050565b612000816126a7565b82525050565b61200f816126b9565b82525050565b61201e816126c5565b82525050565b600061202f826125af565b61203981856125c5565b935061204981856020860161271b565b80840191505092915050565b6000612060826125ba565b61206a81856125d0565b935061207a81856020860161271b565b612083816128e7565b840191505092915050565b6000612099826125ba565b6120a381856125e1565b93506120b381856020860161271b565b80840191505092915050565b60006120cc6045836125d0565b91506120d7826128f8565b606082019050919050565b60006120ef603a836125d0565b91506120fa8261296d565b604082019050919050565b60006121126026836125d0565b915061211d826129bc565b604082019050919050565b60006121356037836125d0565b915061214082612a0b565b604082019050919050565b60006121586034836125d0565b915061216382612a5a565b604082019050919050565b600061217b6028836125d0565b915061218682612aa9565b604082019050919050565b600061219e6040836125d0565b91506121a982612af8565b604082019050919050565b60006121c16020836125d0565b91506121cc82612b47565b602082019050919050565b60006121e46029836125d0565b91506121ef82612b70565b604082019050919050565b6000612207604f836125d0565b915061221282612bbf565b606082019050919050565b600061222a6043836125d0565b915061223582612c34565b606082019050919050565b600061224d6001836125e1565b915061225882612ca9565b600182019050919050565b61226c81612711565b82525050565b600061227e8284612024565b915081905092915050565b6000612295828561208e565b91506122a18284612024565b91508190509392505050565b60006122b882612240565b91506122c4828461208e565b915081905092915050565b60006020820190506122e46000830184611ff7565b92915050565b60006020820190506122ff6000830184611fe8565b92915050565b600060208201905061231a6000830184612006565b92915050565b60006020820190506123356000830184612015565b92915050565b600060208201905081810360008301526123558184612055565b905092915050565b60006020820190508181036000830152612376816120bf565b9050919050565b60006020820190508181036000830152612396816120e2565b9050919050565b600060208201905081810360008301526123b681612105565b9050919050565b600060208201905081810360008301526123d681612128565b9050919050565b600060208201905081810360008301526123f68161214b565b9050919050565b600060208201905081810360008301526124168161216e565b9050919050565b6000602082019050818103600083015261243681612191565b9050919050565b60006020820190508181036000830152612456816121b4565b9050919050565b60006020820190508181036000830152612476816121d7565b9050919050565b60006020820190508181036000830152612496816121fa565b9050919050565b600060208201905081810360008301526124b68161221d565b9050919050565b60006020820190506124d26000830184612263565b92915050565b60006040820190506124ed6000830185612263565b6124fa6020830184612263565b9392505050565b600061250b61251c565b90506125178282612780565b919050565b6000604051905090565b600067ffffffffffffffff821115612541576125406128b8565b5b602082029050602081019050919050565b600067ffffffffffffffff82111561256d5761256c6128b8565b5b602082029050602081019050919050565b600067ffffffffffffffff821115612599576125986128b8565b5b6125a2826128e7565b9050602081019050919050565b600081519050919050565b600081519050919050565b600081905092915050565b600082825260208201905092915050565b600081905092915050565b60006125f782612711565b915061260283612711565b9250827fffffffffffffffffffffffffffffffffffffffffffffffffffffffffffffffff038211156126375761263661282b565b5b828201905092915050565b600061264d82612711565b915061265883612711565b9250826126685761266761285a565b5b828204905092915050565b600061267e82612711565b915061268983612711565b92508282101561269c5761269b61282b565b5b828203905092915050565b60006126b2826126f1565b9050919050565b60008115159050919050565b60007fffffffff0000000000000000000000000000000000000000000000000000000082169050919050565b600073ffffffffffffffffffffffffffffffffffffffff82169050919050565b6000819050919050565b60005b8381101561273957808201518184015260208101905061271e565b83811115612748576000848401525b50505050565b6000600282049050600182168061276657607f821691505b6020821081141561277a57612779612889565b5b50919050565b612789826128e7565b810181811067ffffffffffffffff821117156127a8576127a76128b8565b5b80604052505050565b60006127bc82612711565b91507fffffffffffffffffffffffffffffffffffffffffffffffffffffffffffffffff8214156127ef576127ee61282b565b5b600182019050919050565b600061280582612711565b915061281083612711565b9250826128205761281f61285a565b5b828206905092915050565b7f4e487b7100000000000000000000000000000000000000000000000000000000600052601160045260246000fd5b7f4e487b7100000000000000000000000000000000000000000000000000000000600052601260045260246000fd5b7f4e487b7100000000000000000000000000000000000000000000000000000000600052602260045260246000fd5b7f4e487b7100000000000000000000000000000000000000000000000000000000600052604160045260246000fd5b6000601f19601f8301169050919050565b7f49536b696c6c43657274696669636174653a20494d616769635363726f6c6c7360008201527f506c7573206973206e6f7420737570706f72746564206279207468697320616460208201527f6472657373000000000000000000000000000000000000000000000000000000604082015250565b7f49536b696c6c43657274696669636174653a2063616e6e6f74206275726e207460008201527f686973207363726f6c6c20776974682074686973206f776e6572000000000000602082015250565b7f4f776e61626c653a206e6577206f776e657220697320746865207a65726f206160008201527f6464726573730000000000000000000000000000000000000000000000000000602082015250565b7f49536b696c6c43657274696669636174653a2063616e6e6f74206d696e74206d60008201527f6f7265207468616e203130303020616464726573736573000000000000000000602082015250565b7f49536b696c6c43657274696669636174653a206f776e6572207175657279206660008201527f6f72206e6f6e6578697374656e7420746f6b656e000000000000000000000000602082015250565b7f49536b696c6c43657274696669636174653a2061727261792073697a6573206e60008201527f6f7420657175616c000000000000000000000000000000000000000000000000602082015250565b7f49536b696c6c43657274696669636174653a207468652073686f7020646f657360008201527f206e6f7420686176652074686174206d616e79207363726f6c6c207479706573602082015250565b7f4f776e61626c653a2063616c6c6572206973206e6f7420746865206f776e6572600082015250565b7f49536b696c6c43657274696669636174653a2063616e6e6f74206275726e207460008201527f6865207363726f6c6c0000000000000000000000000000000000000000000000602082015250565b7f49536b696c6c43657274696669636174653a2063616e6e6f74206275726e207460008201527f6869732074797065206f66207363726f6c6c20666f722074686973207479706560208201527f206f662063657274696669636174650000000000000000000000000000000000604082015250565b7f49536b696c6c43657274696669636174653a206f776e6572207175657279206660008201527f6f72206e6f6e2d6578697374696e672074797065206f6620636572746966696360208201527f6174650000000000000000000000000000000000000000000000000000000000604082015250565b7f2f00000000000000000000000000000000000000000000000000000000000000600082015250565b612cdb816126a7565b8114612ce657600080fd5b50565b612cf2816126b9565b8114612cfd57600080fd5b50565b612d0981612711565b8114612d1457600080fd5b5056fea2646970667358221220118f262825363c01a0ad269e4372df10f38f194648d3e2dec99c8dcf87c0a25b64736f6c63430008040033",
  "linkReferences": {
    "contracts/Utils/EIP-55.sol": {
      "ChecksumLib": [
        {
          "length": 20,
          "start": 3791
        }
      ]
    }
  },
  "deployedLinkReferences": {
    "contracts/Utils/EIP-55.sol": {
      "ChecksumLib": [
        {
          "length": 20,
          "start": 2362
        }
      ]
    }
  }
}