{
  "_format": "hh-sol-artifact-1",
  "contractName": "DeGuildCenterPlus",
  "sourceName": "contracts/DeGuild/V2/DeGuildCenter+.sol",
  "abi": [
    {
      "inputs": [],
      "stateMutability": "nonpayable",
      "type": "constructor"
    },
    {
      "anonymous": false,
      "inputs": [
        {
          "indexed": false,
          "internalType": "uint256",
          "name": "jobId",
          "type": "uint256"
        },
        {
          "indexed": true,
          "internalType": "address",
          "name": "client",
          "type": "address"
        }
      ],
      "name": "JobAdded",
      "type": "event"
    },
    {
      "anonymous": false,
      "inputs": [
        {
          "indexed": false,
          "internalType": "uint256",
          "name": "jobId",
          "type": "uint256"
        },
        {
          "indexed": true,
          "internalType": "address",
          "name": "criminal",
          "type": "address"
        }
      ],
      "name": "JobCaseClosed",
      "type": "event"
    },
    {
      "anonymous": false,
      "inputs": [
        {
          "indexed": true,
          "internalType": "uint256",
          "name": "jobId",
          "type": "uint256"
        }
      ],
      "name": "JobCaseOpened",
      "type": "event"
    },
    {
      "anonymous": false,
      "inputs": [
        {
          "indexed": false,
          "internalType": "uint256",
          "name": "jobId",
          "type": "uint256"
        },
        {
          "indexed": true,
          "internalType": "address",
          "name": "taker",
          "type": "address"
        }
      ],
      "name": "JobCompleted",
      "type": "event"
    },
    {
      "anonymous": false,
      "inputs": [
        {
          "indexed": false,
          "internalType": "uint256",
          "name": "jobId",
          "type": "uint256"
        },
        {
          "indexed": true,
          "internalType": "address",
          "name": "taker",
          "type": "address"
        }
      ],
      "name": "JobTaken",
      "type": "event"
    },
    {
      "anonymous": false,
      "inputs": [
        {
          "indexed": true,
          "internalType": "address",
          "name": "previousOwner",
          "type": "address"
        },
        {
          "indexed": true,
          "internalType": "address",
          "name": "newOwner",
          "type": "address"
        }
      ],
      "name": "OwnershipTransferred",
      "type": "event"
    },
    {
      "inputs": [
        {
          "internalType": "uint256",
          "name": "bonus",
          "type": "uint256"
        },
        {
          "internalType": "address",
          "name": "taker",
          "type": "address"
        },
        {
          "internalType": "address[]",
          "name": "certificates",
          "type": "address[]"
        },
        {
          "internalType": "uint256[][]",
          "name": "skills",
          "type": "uint256[][]"
        },
        {
          "internalType": "uint8",
          "name": "difficulty",
          "type": "uint8"
        }
      ],
      "name": "addJob",
      "outputs": [
        {
          "internalType": "bool",
          "name": "",
          "type": "bool"
        }
      ],
      "stateMutability": "nonpayable",
      "type": "function"
    },
    {
      "inputs": [
        {
          "internalType": "uint256",
          "name": "id",
          "type": "uint256"
        }
      ],
      "name": "cancel",
      "outputs": [
        {
          "internalType": "bool",
          "name": "",
          "type": "bool"
        }
      ],
      "stateMutability": "nonpayable",
      "type": "function"
    },
    {
      "inputs": [
        {
          "internalType": "uint256",
          "name": "id",
          "type": "uint256"
        }
      ],
      "name": "complete",
      "outputs": [
        {
          "internalType": "bool",
          "name": "",
          "type": "bool"
        }
      ],
      "stateMutability": "nonpayable",
      "type": "function"
    },
    {
      "inputs": [],
      "name": "deguildCoin",
      "outputs": [
        {
          "internalType": "address",
          "name": "",
          "type": "address"
        }
      ],
      "stateMutability": "view",
      "type": "function"
    },
    {
      "inputs": [
        {
          "internalType": "uint256",
          "name": "id",
          "type": "uint256"
        }
      ],
      "name": "forceCancel",
      "outputs": [
        {
          "internalType": "bool",
          "name": "",
          "type": "bool"
        }
      ],
      "stateMutability": "nonpayable",
      "type": "function"
    },
    {
      "inputs": [
        {
          "internalType": "uint256",
          "name": "jobId",
          "type": "uint256"
        },
        {
          "internalType": "address",
          "name": "taker",
          "type": "address"
        }
      ],
      "name": "isQualified",
      "outputs": [
        {
          "internalType": "bool",
          "name": "",
          "type": "bool"
        }
      ],
      "stateMutability": "view",
      "type": "function"
    },
    {
      "inputs": [
        {
          "internalType": "uint256",
          "name": "jobId",
          "type": "uint256"
        }
      ],
      "name": "jobInfo",
      "outputs": [
        {
          "internalType": "uint256",
          "name": "",
          "type": "uint256"
        },
        {
          "internalType": "address",
          "name": "",
          "type": "address"
        },
        {
          "internalType": "address",
          "name": "",
          "type": "address"
        },
        {
          "internalType": "address[]",
          "name": "",
          "type": "address[]"
        },
        {
          "internalType": "uint256[][]",
          "name": "",
          "type": "uint256[][]"
        },
        {
          "internalType": "uint8",
          "name": "",
          "type": "uint8"
        },
        {
          "internalType": "uint8",
          "name": "",
          "type": "uint8"
        }
      ],
      "stateMutability": "view",
      "type": "function"
    },
    {
      "inputs": [
        {
          "internalType": "address",
          "name": "account",
          "type": "address"
        }
      ],
      "name": "jobOf",
      "outputs": [
        {
          "internalType": "uint256",
          "name": "",
          "type": "uint256"
        }
      ],
      "stateMutability": "view",
      "type": "function"
    },
    {
      "inputs": [
        {
          "internalType": "uint256",
          "name": "jobId",
          "type": "uint256"
        }
      ],
      "name": "jobURI",
      "outputs": [
        {
          "internalType": "string",
          "name": "",
          "type": "string"
        }
      ],
      "stateMutability": "view",
      "type": "function"
    },
    {
      "inputs": [],
      "name": "jobsCount",
      "outputs": [
        {
          "internalType": "uint256",
          "name": "",
          "type": "uint256"
        }
      ],
      "stateMutability": "view",
      "type": "function"
    },
    {
      "inputs": [
        {
          "internalType": "uint256",
          "name": "id",
          "type": "uint256"
        },
        {
          "internalType": "bool",
          "name": "decision",
          "type": "bool"
        },
        {
          "internalType": "bool",
          "name": "isCompleted",
          "type": "bool"
        },
        {
          "internalType": "uint256",
          "name": "feeRate",
          "type": "uint256"
        },
        {
          "internalType": "uint256",
          "name": "clientRate",
          "type": "uint256"
        },
        {
          "internalType": "uint256",
          "name": "takerRate",
          "type": "uint256"
        }
      ],
      "name": "judge",
      "outputs": [
        {
          "internalType": "bool",
          "name": "",
          "type": "bool"
        }
      ],
      "stateMutability": "nonpayable",
      "type": "function"
    },
    {
      "inputs": [],
      "name": "name",
      "outputs": [
        {
          "internalType": "string",
          "name": "",
          "type": "string"
        }
      ],
      "stateMutability": "view",
      "type": "function"
    },
    {
      "inputs": [],
      "name": "owner",
      "outputs": [
        {
          "internalType": "address",
          "name": "",
          "type": "address"
        }
      ],
      "stateMutability": "view",
      "type": "function"
    },
    {
      "inputs": [
        {
          "internalType": "uint256",
          "name": "jobId",
          "type": "uint256"
        }
      ],
      "name": "ownersOf",
      "outputs": [
        {
          "internalType": "address",
          "name": "",
          "type": "address"
        },
        {
          "internalType": "address",
          "name": "",
          "type": "address"
        }
      ],
      "stateMutability": "view",
      "type": "function"
    },
    {
      "inputs": [],
      "name": "renounceOwnership",
      "outputs": [],
      "stateMutability": "nonpayable",
      "type": "function"
    },
    {
      "inputs": [
        {
          "internalType": "uint256",
          "name": "id",
          "type": "uint256"
        }
      ],
      "name": "report",
      "outputs": [
        {
          "internalType": "bool",
          "name": "",
          "type": "bool"
        }
      ],
      "stateMutability": "nonpayable",
      "type": "function"
    },
    {
      "inputs": [
        {
          "internalType": "bytes4",
          "name": "interfaceId",
          "type": "bytes4"
        }
      ],
      "name": "supportsInterface",
      "outputs": [
        {
          "internalType": "bool",
          "name": "",
          "type": "bool"
        }
      ],
      "stateMutability": "view",
      "type": "function"
    },
    {
      "inputs": [],
      "name": "symbol",
      "outputs": [
        {
          "internalType": "string",
          "name": "",
          "type": "string"
        }
      ],
      "stateMutability": "view",
      "type": "function"
    },
    {
      "inputs": [
        {
          "internalType": "uint256",
          "name": "id",
          "type": "uint256"
        }
      ],
      "name": "take",
      "outputs": [
        {
          "internalType": "bool",
          "name": "",
          "type": "bool"
        }
      ],
      "stateMutability": "nonpayable",
      "type": "function"
    },
    {
      "inputs": [
        {
          "internalType": "address",
          "name": "newOwner",
          "type": "address"
        }
      ],
      "name": "transferOwnership",
      "outputs": [],
      "stateMutability": "nonpayable",
      "type": "function"
    },
    {
      "inputs": [
        {
          "internalType": "address[]",
          "name": "certificates",
          "type": "address[]"
        },
        {
          "internalType": "uint256[][]",
          "name": "skills",
          "type": "uint256[][]"
        }
      ],
      "name": "verifySkills",
      "outputs": [
        {
          "internalType": "bool",
          "name": "",
          "type": "bool"
        }
      ],
      "stateMutability": "view",
      "type": "function"
    }
  ],
  "bytecode": "0x60806040526040518060200160405280600181525060096000820151816000015550503480156200002f57600080fd5b506040518060400160405280600981526020017f473031204775696c6400000000000000000000000000000000000000000000008152506040518060400160405280600381526020017f47303100000000000000000000000000000000000000000000000000000000008152506040518060600160405280604081526020016200619660409139734312d992940d0b110525f553160c9984b77d1ef4620000eb620000df620001f360201b60201c565b620001fb60201b60201c565b83600690805190602001906200010392919062000398565b5082600790805190602001906200011c92919062000398565b5080600560006101000a81548173ffffffffffffffffffffffffffffffffffffffff021916908373ffffffffffffffffffffffffffffffffffffffff16021790555081600890805190602001906200017692919062000398565b5080600a60006101000a81548173ffffffffffffffffffffffffffffffffffffffff021916908373ffffffffffffffffffffffffffffffffffffffff16021790555050505050620001ed7f5b76335a00000000000000000000000000000000000000000000000000000000620002bf60201b60201c565b62000530565b600033905090565b60008060009054906101000a900473ffffffffffffffffffffffffffffffffffffffff169050816000806101000a81548173ffffffffffffffffffffffffffffffffffffffff021916908373ffffffffffffffffffffffffffffffffffffffff1602179055508173ffffffffffffffffffffffffffffffffffffffff168173ffffffffffffffffffffffffffffffffffffffff167f8be0079c531659141344cd1fd0a4f28419497f9722a3daafe3b4186f6b6457e060405160405180910390a35050565b63ffffffff60e01b817bffffffffffffffffffffffffffffffffffffffffffffffffffffffff191614156200032b576040517f08c379a000000000000000000000000000000000000000000000000000000000815260040162000322906200046f565b60405180910390fd5b6001600b6000837bffffffffffffffffffffffffffffffffffffffffffffffffffffffff19167bffffffffffffffffffffffffffffffffffffffffffffffffffffffff1916815260200190815260200160002060006101000a81548160ff02191690831515021790555050565b828054620003a690620004a2565b90600052602060002090601f016020900481019282620003ca576000855562000416565b82601f10620003e557805160ff191683800117855562000416565b8280016001018555821562000416579182015b8281111562000415578251825591602001919060010190620003f8565b5b50905062000425919062000429565b5090565b5b80821115620004445760008160009055506001016200042a565b5090565b600062000457601c8362000491565b9150620004648262000507565b602082019050919050565b600060208201905081810360008301526200048a8162000448565b9050919050565b600082825260208201905092915050565b60006002820490506001821680620004bb57607f821691505b60208210811415620004d257620004d1620004d8565b5b50919050565b7f4e487b7100000000000000000000000000000000000000000000000000000000600052602260045260246000fd5b7f4552433136353a20696e76616c696420696e7465726661636520696400000000600082015250565b615c5680620005406000396000f3fe608060405234801561001057600080fd5b50600436106101375760003560e01c80637ae681a5116100b8578063a584ab291161007c578063a584ab29146103a4578063c6ba161f146103d5578063d5fbcf4214610405578063f2fde38b14610423578063f438f0191461043f578063f9fa7e8f1461046f57610137565b80637ae681a5146102d85780638da5cb5b1461030857806395d89b4114610326578063969b1cdb14610344578063971d852f1461037457610137565b80634fbefc6e116100ff5780634fbefc6e1461021a5780634fd9efc4146102385780635ce5ee6914610268578063715018a61461029e5780637a2687a4146102a857610137565b806301ffc9a71461013c57806306fdde031461016c5780632dab557b1461018a57806340e58ee5146101ba57806343de3352146101ea575b600080fd5b61015660048036038101906101519190614356565b61049f565b6040516101639190614d3d565b60405180910390f35b610174610517565b6040516101819190614d73565b60405180910390f35b6101a4600480360381019061019f9190614298565b6105a9565b6040516101b19190615115565b60405180910390f35b6101d460048036038101906101cf91906143c0565b6105f2565b6040516101e19190614d3d565b60405180910390f35b61020460048036038101906101ff9190614412565b610913565b6040516102119190614d3d565b60405180910390f35b610222610c9c565b60405161022f9190614c99565b60405180910390f35b610252600480360381019061024d91906143c0565b610cc6565b60405161025f9190614d3d565b60405180910390f35b610282600480360381019061027d91906143c0565b6111d0565b6040516102959796959493929190615130565b60405180910390f35b6102a66114bb565b005b6102c260048036038101906102bd91906143c0565b611543565b6040516102cf9190614d73565b60405180910390f35b6102f260048036038101906102ed919061444e565b6116cd565b6040516102ff9190614d3d565b60405180910390f35b610310611c3e565b60405161031d9190614c99565b60405180910390f35b61032e611c67565b60405161033b9190614d73565b60405180910390f35b61035e600480360381019061035991906143c0565b611cf9565b60405161036b9190614d3d565b60405180910390f35b61038e600480360381019061038991906143c0565b611f30565b60405161039b9190614d3d565b60405180910390f35b6103be60048036038101906103b991906143c0565b61245d565b6040516103cc929190614cb4565b60405180910390f35b6103ef60048036038101906103ea91906144f5565b61251f565b6040516103fc9190614d3d565b60405180910390f35b61040d6130bd565b60405161041a9190615115565b60405180910390f35b61043d60048036038101906104389190614298565b6130da565b005b610459600480360381019061045491906143c0565b6131d2565b6040516104669190614d3d565b60405180910390f35b610489600480360381019061048491906142c1565b61353f565b6040516104969190614d3d565b60405180910390f35b60006104aa82613886565b806105105750600b6000837bffffffffffffffffffffffffffffffffffffffffffffffffffffffff19167bffffffffffffffffffffffffffffffffffffffffffffffffffffffff1916815260200190815260200160002060009054906101000a900460ff165b9050919050565b60606006805461052690615538565b80601f016020809104026020016040519081016040528092919081815260200182805461055290615538565b801561059f5780601f106105745761010080835404028352916020019161059f565b820191906000526020600020905b81548152906001019060200180831161058257829003601f168201915b5050505050905090565b6000600260008373ffffffffffffffffffffffffffffffffffffffff1673ffffffffffffffffffffffffffffffffffffffff168152602001908152602001600020549050919050565b60006105fd826138f0565b61063c576040517f08c379a000000000000000000000000000000000000000000000000000000000815260040161063390614ff5565b60405180910390fd5b61064461395c565b73ffffffffffffffffffffffffffffffffffffffff166004600084815260200190815260200160002060010160009054906101000a900473ffffffffffffffffffffffffffffffffffffffff1673ffffffffffffffffffffffffffffffffffffffff16146106e7576040517f08c379a00000000000000000000000000000000000000000000000000000000081526004016106de90614f55565b60405180910390fd5b60016004600084815260200190815260200160002060050160009054906101000a900460ff1660ff1614610750576040517f08c379a000000000000000000000000000000000000000000000000000000000815260040161074790614fb5565b60405180910390fd5b600a60009054906101000a900473ffffffffffffffffffffffffffffffffffffffff1673ffffffffffffffffffffffffffffffffffffffff1663a9059cbb6001600085815260200190815260200160002060009054906101000a900473ffffffffffffffffffffffffffffffffffffffff1660046000868152602001908152602001600020600001546040518363ffffffff1660e01b81526004016107f6929190614d14565b602060405180830381600087803b15801561081057600080fd5b505af1158015610824573d6000803e3d6000fd5b505050506040513d601f19601f82011682018060405250810190610848919061432d565b610887576040517f08c379a000000000000000000000000000000000000000000000000000000000815260040161087e90614e75565b60405180910390fd5b60636004600084815260200190815260200160002060050160006101000a81548160ff021916908360ff16021790555060006001600084815260200190815260200160002060006101000a81548173ffffffffffffffffffffffffffffffffffffffff021916908373ffffffffffffffffffffffffffffffffffffffff16021790555060019050919050565b600061091e836138f0565b61095d576040517f08c379a000000000000000000000000000000000000000000000000000000000815260040161095490614ff5565b60405180910390fd5b6000600460008581526020019081526020016000206003018054806020026020016040519081016040528092919081815260200182805480156109f557602002820191906000526020600020905b8160009054906101000a900473ffffffffffffffffffffffffffffffffffffffff1673ffffffffffffffffffffffffffffffffffffffff16815260200190600101908083116109ab575b50505050509050600060046000868152602001908152602001600020600401805480602002602001604051908101604052809291908181526020016000905b82821015610aa657838290600052602060002001805480602002602001604051908101604052809291908181526020018280548015610a9257602002820191906000526020600020905b815481526020019060010190808311610a7e575b505050505081526020019060010190610a34565b50505050905060005b8251811015610c8e576000838281518110610af3577f4e487b7100000000000000000000000000000000000000000000000000000000600052603260045260246000fd5b6020026020010151905060005b838381518110610b39577f4e487b7100000000000000000000000000000000000000000000000000000000600052603260045260246000fd5b602002602001015151811015610c79578173ffffffffffffffffffffffffffffffffffffffff16636704fe9f88868681518110610b9f577f4e487b7100000000000000000000000000000000000000000000000000000000600052603260045260246000fd5b60200260200101518481518110610bdf577f4e487b7100000000000000000000000000000000000000000000000000000000600052603260045260246000fd5b60200260200101516040518363ffffffff1660e01b8152600401610c04929190614d14565b60206040518083038186803b158015610c1c57600080fd5b505afa158015610c30573d6000803e3d6000fd5b505050506040513d601f19601f82011682018060405250810190610c54919061432d565b610c6657600095505050505050610c96565b8080610c719061559b565b915050610b00565b50508080610c869061559b565b915050610aaf565b506001925050505b92915050565b6000600560009054906101000a900473ffffffffffffffffffffffffffffffffffffffff16905090565b600060036000610cd461395c565b73ffffffffffffffffffffffffffffffffffffffff1673ffffffffffffffffffffffffffffffffffffffff16815260200190815260200160002060009054906101000a900460ff1615610d5c576040517f08c379a0000000000000000000000000000000000000000000000000000000008152600401610d5390614e55565b60405180910390fd5b610d65826138f0565b610da4576040517f08c379a0000000000000000000000000000000000000000000000000000000008152600401610d9b90614ff5565b60405180910390fd5b6004600083815260200190815260200160002060010160009054906101000a900473ffffffffffffffffffffffffffffffffffffffff1673ffffffffffffffffffffffffffffffffffffffff16610df961395c565b73ffffffffffffffffffffffffffffffffffffffff161415610e50576040517f08c379a0000000000000000000000000000000000000000000000000000000008152600401610e4790614df5565b60405180910390fd5b610e6182610e5c61395c565b610913565b610ea0576040517f08c379a0000000000000000000000000000000000000000000000000000000008152600401610e9790614e35565b60405180910390fd5b600060026000610eae61395c565b73ffffffffffffffffffffffffffffffffffffffff1673ffffffffffffffffffffffffffffffffffffffff1681526020019081526020016000205414610f29576040517f08c379a0000000000000000000000000000000000000000000000000000000008152600401610f2090614f35565b60405180910390fd5b60016004600084815260200190815260200160002060050160009054906101000a900460ff1660ff1614610f92576040517f08c379a0000000000000000000000000000000000000000000000000000000008152600401610f8990614fb5565b60405180910390fd5b6004600083815260200190815260200160002060050160029054906101000a900460ff161561106b57610fc361395c565b73ffffffffffffffffffffffffffffffffffffffff166004600084815260200190815260200160002060020160009054906101000a900473ffffffffffffffffffffffffffffffffffffffff1673ffffffffffffffffffffffffffffffffffffffff1614611066576040517f08c379a000000000000000000000000000000000000000000000000000000000815260040161105d90614eb5565b60405180910390fd5b6110c8565b61107361395c565b6004600084815260200190815260200160002060020160006101000a81548173ffffffffffffffffffffffffffffffffffffffff021916908373ffffffffffffffffffffffffffffffffffffffff1602179055505b81600260006110d561395c565b73ffffffffffffffffffffffffffffffffffffffff1673ffffffffffffffffffffffffffffffffffffffff1681526020019081526020016000208190555060026004600084815260200190815260200160002060050160006101000a81548160ff021916908360ff1602179055506004600083815260200190815260200160002060020160009054906101000a900473ffffffffffffffffffffffffffffffffffffffff1673ffffffffffffffffffffffffffffffffffffffff167f63d05f037a34bfd9732c85be51fc52a421f621694ced20c350480d44d6a3b3fa836040516111bf9190615115565b60405180910390a260019050919050565b60008060006060806000806111e4886138f0565b611223576040517f08c379a000000000000000000000000000000000000000000000000000000000815260040161121a90614ff5565b60405180910390fd5b6000600460008a815260200190815260200160002060405180610100016040529081600082015481526020016001820160009054906101000a900473ffffffffffffffffffffffffffffffffffffffff1673ffffffffffffffffffffffffffffffffffffffff1673ffffffffffffffffffffffffffffffffffffffff1681526020016002820160009054906101000a900473ffffffffffffffffffffffffffffffffffffffff1673ffffffffffffffffffffffffffffffffffffffff1673ffffffffffffffffffffffffffffffffffffffff1681526020016003820180548060200260200160405190810160405280929190818152602001828054801561137f57602002820191906000526020600020905b8160009054906101000a900473ffffffffffffffffffffffffffffffffffffffff1673ffffffffffffffffffffffffffffffffffffffff1681526020019060010190808311611335575b5050505050815260200160048201805480602002602001604051908101604052809291908181526020016000905b8282101561141f5783829060005260206000200180548060200260200160405190810160405280929190818152602001828054801561140b57602002820191906000526020600020905b8154815260200190600101908083116113f7575b5050505050815260200190600101906113ad565b5050505081526020016005820160009054906101000a900460ff1660ff1660ff1681526020016005820160019054906101000a900460ff1660ff1660ff1681526020016005820160029054906101000a900460ff1615151515815250509050806000015181602001518260400151836060015184608001518560a001518660c00151975097509750975097509750975050919395979092949650565b6114c361395c565b73ffffffffffffffffffffffffffffffffffffffff166114e1611c3e565b73ffffffffffffffffffffffffffffffffffffffff1614611537576040517f08c379a000000000000000000000000000000000000000000000000000000000815260040161152e90614f15565b60405180910390fd5b6115416000613964565b565b606061154e826138f0565b61158d576040517f08c379a000000000000000000000000000000000000000000000000000000000815260040161158490614ff5565b60405180910390fd5b6000611597613a28565b905060008151116115b757604051806020016040528060008152506116c5565b803073ffffffffffffffffffffffffffffffffffffffff1673__$124e1a4c5367a62965a30c61a01a42cb5d$__637cd6f8ff90916040518263ffffffff1660e01b81526004016116079190614c7e565b60006040518083038186803b15801561161f57600080fd5b505af4158015611633573d6000803e3d6000fd5b505050506040513d6000823e3d601f19601f8201168201806040525081019061165c919061437f565b60405160200161166d929190614c38565b60405160208183030381529060405261168584613aba565b6040516020016116959190614c5c565b6040516020818303038152906040526040516020016116b5929190614c14565b6040516020818303038152906040525b915050919050565b6000600360006116db61395c565b73ffffffffffffffffffffffffffffffffffffffff1673ffffffffffffffffffffffffffffffffffffffff16815260200190815260200160002060009054906101000a900460ff1615611763576040517f08c379a000000000000000000000000000000000000000000000000000000000815260040161175a90614e55565b60405180910390fd5b8473ffffffffffffffffffffffffffffffffffffffff1661178261395c565b73ffffffffffffffffffffffffffffffffffffffff1614156117d9576040517f08c379a00000000000000000000000000000000000000000000000000000000081526004016117d090614ef5565b60405180910390fd5b6117e3848461353f565b611822576040517f08c379a000000000000000000000000000000000000000000000000000000000815260040161181990615095565b60405180910390fd5b6000670de0b6b3a76400008760648560ff168660ff16020201029050600a60009054906101000a900473ffffffffffffffffffffffffffffffffffffffff1673ffffffffffffffffffffffffffffffffffffffff166323b872dd61188461395c565b30846040518463ffffffff1660e01b81526004016118a493929190614cdd565b602060405180830381600087803b1580156118be57600080fd5b505af11580156118d2573d6000803e3d6000fd5b505050506040513d601f19601f820116820180604052508101906118f6919061432d565b611935576040517f08c379a000000000000000000000000000000000000000000000000000000000815260040161192c906150b5565b60405180910390fd5b60405180610100016040528082815260200161194f61395c565b73ffffffffffffffffffffffffffffffffffffffff1681526020018773ffffffffffffffffffffffffffffffffffffffff168152602001868152602001858152602001600160ff1681526020018460ff168152602001600073ffffffffffffffffffffffffffffffffffffffff168873ffffffffffffffffffffffffffffffffffffffff1614151515815250600460006119e96009613c67565b81526020019081526020016000206000820151816000015560208201518160010160006101000a81548173ffffffffffffffffffffffffffffffffffffffff021916908373ffffffffffffffffffffffffffffffffffffffff16021790555060408201518160020160006101000a81548173ffffffffffffffffffffffffffffffffffffffff021916908373ffffffffffffffffffffffffffffffffffffffff1602179055506060820151816003019080519060200190611aab929190613e28565b506080820151816004019080519060200190611ac8929190613eb2565b5060a08201518160050160006101000a81548160ff021916908360ff16021790555060c08201518160050160016101000a81548160ff021916908360ff16021790555060e08201518160050160026101000a81548160ff021916908315150217905550905050611b3661395c565b60016000611b446009613c67565b815260200190815260200160002060006101000a81548173ffffffffffffffffffffffffffffffffffffffff021916908373ffffffffffffffffffffffffffffffffffffffff16021790555060046000611b9e6009613c67565b815260200190815260200160002060010160009054906101000a900473ffffffffffffffffffffffffffffffffffffffff1673ffffffffffffffffffffffffffffffffffffffff167f327cf9892362c183c2af9b498e32bc51574d160377970d6d50080a3e8482e413611c116009613c67565b604051611c1e9190615115565b60405180910390a2611c306009613c75565b600191505095945050505050565b60008060009054906101000a900473ffffffffffffffffffffffffffffffffffffffff16905090565b606060078054611c7690615538565b80601f0160208091040260200160405190810160405280929190818152602001828054611ca290615538565b8015611cef5780601f10611cc457610100808354040283529160200191611cef565b820191906000526020600020905b815481529060010190602001808311611cd257829003601f168201915b5050505050905090565b6000611d04826138f0565b611d43576040517f08c379a0000000000000000000000000000000000000000000000000000000008152600401611d3a90614ff5565b60405180910390fd5b60026004600084815260200190815260200160002060050160009054906101000a900460ff1660ff1614611dac576040517f08c379a0000000000000000000000000000000000000000000000000000000008152600401611da390615035565b60405180910390fd5b611db461395c565b73ffffffffffffffffffffffffffffffffffffffff166004600084815260200190815260200160002060010160009054906101000a900473ffffffffffffffffffffffffffffffffffffffff1673ffffffffffffffffffffffffffffffffffffffff161480611e8b5750611e2661395c565b73ffffffffffffffffffffffffffffffffffffffff166004600084815260200190815260200160002060020160009054906101000a900473ffffffffffffffffffffffffffffffffffffffff1673ffffffffffffffffffffffffffffffffffffffff16145b611eca576040517f08c379a0000000000000000000000000000000000000000000000000000000008152600401611ec190614ed5565b60405180910390fd5b60006004600084815260200190815260200160002060050160006101000a81548160ff021916908360ff160217905550817ffb1aa198fcd90bf08aa0f027f902f0d28476e1d21d434cd858d37c1c8041b99060405160405180910390a260019050919050565b6000611f3b826138f0565b611f7a576040517f08c379a0000000000000000000000000000000000000000000000000000000008152600401611f7190614ff5565b60405180910390fd5b60026004600084815260200190815260200160002060050160009054906101000a900460ff1660ff1614611fe3576040517f08c379a0000000000000000000000000000000000000000000000000000000008152600401611fda90615035565b60405180910390fd5b611feb61395c565b73ffffffffffffffffffffffffffffffffffffffff166004600084815260200190815260200160002060010160009054906101000a900473ffffffffffffffffffffffffffffffffffffffff1673ffffffffffffffffffffffffffffffffffffffff161461208e576040517f08c379a000000000000000000000000000000000000000000000000000000000815260040161208590614f75565b60405180910390fd5b6000612710607d60046000868152602001908152602001600020600001546120b691906153f6565b6120c091906153c5565b9050600a60009054906101000a900473ffffffffffffffffffffffffffffffffffffffff1673ffffffffffffffffffffffffffffffffffffffff1663a9059cbb612108611c3e565b836040518363ffffffff1660e01b8152600401612126929190614d14565b602060405180830381600087803b15801561214057600080fd5b505af1158015612154573d6000803e3d6000fd5b505050506040513d601f19601f82011682018060405250810190612178919061432d565b6121b7576040517f08c379a00000000000000000000000000000000000000000000000000000000081526004016121ae90615075565b60405180910390fd5b806004600085815260200190815260200160002060000154036004600085815260200190815260200160002060000181905550600a60009054906101000a900473ffffffffffffffffffffffffffffffffffffffff1673ffffffffffffffffffffffffffffffffffffffff1663a9059cbb6004600086815260200190815260200160002060020160009054906101000a900473ffffffffffffffffffffffffffffffffffffffff1660046000878152602001908152602001600020600001546040518363ffffffff1660e01b8152600401612293929190614d14565b602060405180830381600087803b1580156122ad57600080fd5b505af11580156122c1573d6000803e3d6000fd5b505050506040513d601f19601f820116820180604052508101906122e5919061432d565b612324576040517f08c379a000000000000000000000000000000000000000000000000000000000815260040161231b90614e75565b60405180910390fd5b60036004600085815260200190815260200160002060050160006101000a81548160ff021916908360ff1602179055506000600260006004600087815260200190815260200160002060020160009054906101000a900473ffffffffffffffffffffffffffffffffffffffff1673ffffffffffffffffffffffffffffffffffffffff1673ffffffffffffffffffffffffffffffffffffffff168152602001908152602001600020819055506004600084815260200190815260200160002060020160009054906101000a900473ffffffffffffffffffffffffffffffffffffffff1673ffffffffffffffffffffffffffffffffffffffff167f16a7286196330eaff0c7db2ec34ead9c6d2d023b356b62ee7ea644c842a84b678460405161244b9190615115565b60405180910390a26001915050919050565b600080612469836138f0565b6124a8576040517f08c379a000000000000000000000000000000000000000000000000000000000815260040161249f90614ff5565b60405180910390fd5b6004600084815260200190815260200160002060010160009054906101000a900473ffffffffffffffffffffffffffffffffffffffff166004600085815260200190815260200160002060020160009054906101000a900473ffffffffffffffffffffffffffffffffffffffff1691509150915091565b600061252961395c565b73ffffffffffffffffffffffffffffffffffffffff16612547611c3e565b73ffffffffffffffffffffffffffffffffffffffff161461259d576040517f08c379a000000000000000000000000000000000000000000000000000000000815260040161259490614f15565b60405180910390fd5b6125a6876138f0565b6125e5576040517f08c379a00000000000000000000000000000000000000000000000000000000081526004016125dc90614ff5565b60405180910390fd5b6127108410612629576040517f08c379a000000000000000000000000000000000000000000000000000000000815260040161262090614fd5565b60405180910390fd5b612710831061266d576040517f08c379a000000000000000000000000000000000000000000000000000000000815260040161266490614e95565b60405180910390fd5b61271082106126b1576040517f08c379a00000000000000000000000000000000000000000000000000000000081526004016126a890614dd5565b60405180910390fd5b6127108284866126c1919061536f565b6126cb919061536f565b1461270b576040517f08c379a000000000000000000000000000000000000000000000000000000000815260040161270290615015565b60405180910390fd5b60006004600089815260200190815260200160002060050160009054906101000a900460ff1660ff1614612774576040517f08c379a000000000000000000000000000000000000000000000000000000000815260040161276b906150f5565b60405180910390fd5b600080600061271087600460008d81526020019081526020016000206000015402816127c9577f4e487b7100000000000000000000000000000000000000000000000000000000600052601260045260246000fd5b04925061271086600460008d815260200190815260200160002060000154028161281c577f4e487b7100000000000000000000000000000000000000000000000000000000600052601260045260246000fd5b04915061271085600460008d815260200190815260200160002060000154028161286f577f4e487b7100000000000000000000000000000000000000000000000000000000600052601260045260246000fd5b049050600a60009054906101000a900473ffffffffffffffffffffffffffffffffffffffff1673ffffffffffffffffffffffffffffffffffffffff1663a9059cbb6128b8611c3e565b856040518363ffffffff1660e01b81526004016128d6929190614d14565b602060405180830381600087803b1580156128f057600080fd5b505af1158015612904573d6000803e3d6000fd5b505050506040513d601f19601f82011682018060405250810190612928919061432d565b612967576040517f08c379a000000000000000000000000000000000000000000000000000000000815260040161295e90615075565b60405180910390fd5b600a60009054906101000a900473ffffffffffffffffffffffffffffffffffffffff1673ffffffffffffffffffffffffffffffffffffffff1663a9059cbb600460008d815260200190815260200160002060010160009054906101000a900473ffffffffffffffffffffffffffffffffffffffff16846040518363ffffffff1660e01b81526004016129fa929190614d14565b602060405180830381600087803b158015612a1457600080fd5b505af1158015612a28573d6000803e3d6000fd5b505050506040513d601f19601f82011682018060405250810190612a4c919061432d565b612a8b576040517f08c379a0000000000000000000000000000000000000000000000000000000008152600401612a8290615055565b60405180910390fd5b600a60009054906101000a900473ffffffffffffffffffffffffffffffffffffffff1673ffffffffffffffffffffffffffffffffffffffff1663a9059cbb600460008d815260200190815260200160002060020160009054906101000a900473ffffffffffffffffffffffffffffffffffffffff16836040518363ffffffff1660e01b8152600401612b1e929190614d14565b602060405180830381600087803b158015612b3857600080fd5b505af1158015612b4c573d6000803e3d6000fd5b505050506040513d601f19601f82011682018060405250810190612b70919061432d565b612baf576040517f08c379a0000000000000000000000000000000000000000000000000000000008152600401612ba690614db5565b60405180910390fd5b82600460008c81526020019081526020016000206000015403600460008c815260200190815260200160002060000181905550600060026000600460008e815260200190815260200160002060020160009054906101000a900473ffffffffffffffffffffffffffffffffffffffff1673ffffffffffffffffffffffffffffffffffffffff1673ffffffffffffffffffffffffffffffffffffffff168152602001908152602001600020819055508715612e89576003600460008c815260200190815260200160002060050160006101000a81548160ff021916908360ff160217905550600460008b815260200190815260200160002060020160009054906101000a900473ffffffffffffffffffffffffffffffffffffffff1673ffffffffffffffffffffffffffffffffffffffff167f16a7286196330eaff0c7db2ec34ead9c6d2d023b356b62ee7ea644c842a84b678b604051612d0f9190615115565b60405180910390a28815612e3457600160036000600460008e815260200190815260200160002060010160009054906101000a900473ffffffffffffffffffffffffffffffffffffffff1673ffffffffffffffffffffffffffffffffffffffff1673ffffffffffffffffffffffffffffffffffffffff16815260200190815260200160002060006101000a81548160ff021916908315150217905550600460008b815260200190815260200160002060010160009054906101000a900473ffffffffffffffffffffffffffffffffffffffff1673ffffffffffffffffffffffffffffffffffffffff167f3153f56b4c6b1e149a1bd8d73fdb7d149a7a8f073dd0a5581f623122b45250ff8b604051612e279190615115565b60405180910390a2612e84565b600073ffffffffffffffffffffffffffffffffffffffff167f3153f56b4c6b1e149a1bd8d73fdb7d149a7a8f073dd0a5581f623122b45250ff8b604051612e7b9190615115565b60405180910390a25b6130ac565b6001600460008c815260200190815260200160002060050160006101000a81548160ff021916908360ff1602179055506000600460008c815260200190815260200160002060020160006101000a81548173ffffffffffffffffffffffffffffffffffffffff021916908373ffffffffffffffffffffffffffffffffffffffff1602179055506000600460008c815260200190815260200160002060050160026101000a81548160ff021916908315150217905550881561305b57600160036000600460008e815260200190815260200160002060020160009054906101000a900473ffffffffffffffffffffffffffffffffffffffff1673ffffffffffffffffffffffffffffffffffffffff1673ffffffffffffffffffffffffffffffffffffffff16815260200190815260200160002060006101000a81548160ff021916908315150217905550600460008b815260200190815260200160002060020160009054906101000a900473ffffffffffffffffffffffffffffffffffffffff1673ffffffffffffffffffffffffffffffffffffffff167f3153f56b4c6b1e149a1bd8d73fdb7d149a7a8f073dd0a5581f623122b45250ff8b60405161304e9190615115565b60405180910390a26130ab565b600073ffffffffffffffffffffffffffffffffffffffff167f3153f56b4c6b1e149a1bd8d73fdb7d149a7a8f073dd0a5581f623122b45250ff8b6040516130a29190615115565b60405180910390a25b5b600193505050509695505050505050565b600060016130cb6009613c67565b6130d59190615450565b905090565b6130e261395c565b73ffffffffffffffffffffffffffffffffffffffff16613100611c3e565b73ffffffffffffffffffffffffffffffffffffffff1614613156576040517f08c379a000000000000000000000000000000000000000000000000000000000815260040161314d90614f15565b60405180910390fd5b600073ffffffffffffffffffffffffffffffffffffffff168173ffffffffffffffffffffffffffffffffffffffff1614156131c6576040517f08c379a00000000000000000000000000000000000000000000000000000000081526004016131bd90614e15565b60405180910390fd5b6131cf81613964565b50565b60006131dc61395c565b73ffffffffffffffffffffffffffffffffffffffff166131fa611c3e565b73ffffffffffffffffffffffffffffffffffffffff1614613250576040517f08c379a000000000000000000000000000000000000000000000000000000000815260040161324790614f15565b60405180910390fd5b613259826138f0565b613298576040517f08c379a000000000000000000000000000000000000000000000000000000000815260040161328f90614ff5565b60405180910390fd5b60006004600084815260200190815260200160002060050160009054906101000a900460ff1660ff1614613301576040517f08c379a00000000000000000000000000000000000000000000000000000000081526004016132f8906150f5565b60405180910390fd5b600a60009054906101000a900473ffffffffffffffffffffffffffffffffffffffff1673ffffffffffffffffffffffffffffffffffffffff1663a9059cbb6001600085815260200190815260200160002060009054906101000a900473ffffffffffffffffffffffffffffffffffffffff1660046000868152602001908152602001600020600001546040518363ffffffff1660e01b81526004016133a7929190614d14565b602060405180830381600087803b1580156133c157600080fd5b505af11580156133d5573d6000803e3d6000fd5b505050506040513d601f19601f820116820180604052508101906133f9919061432d565b613438576040517f08c379a000000000000000000000000000000000000000000000000000000000815260040161342f90614e75565b60405180910390fd5b60636004600084815260200190815260200160002060050160006101000a81548160ff021916908360ff1602179055506000600260006004600086815260200190815260200160002060020160009054906101000a900473ffffffffffffffffffffffffffffffffffffffff1673ffffffffffffffffffffffffffffffffffffffff1673ffffffffffffffffffffffffffffffffffffffff1681526020019081526020016000208190555060006001600084815260200190815260200160002060006101000a81548173ffffffffffffffffffffffffffffffffffffffff021916908373ffffffffffffffffffffffffffffffffffffffff16021790555060019050919050565b6000601e835110613585576040517f08c379a000000000000000000000000000000000000000000000000000000000815260040161357c906150d5565b60405180910390fd5b82518251146135c9576040517f08c379a00000000000000000000000000000000000000000000000000000000081526004016135c090614d95565b60405180910390fd5b60005b835181101561387a576000848281518110613610577f4e487b7100000000000000000000000000000000000000000000000000000000600052603260045260246000fd5b602002602001015190506136637fa6996df8000000000000000000000000000000000000000000000000000000008273ffffffffffffffffffffffffffffffffffffffff16613c8b90919063ffffffff16565b61367257600092505050613880565b60148483815181106136ad577f4e487b7100000000000000000000000000000000000000000000000000000000600052603260045260246000fd5b602002602001015151106136f6576040517f08c379a00000000000000000000000000000000000000000000000000000000081526004016136ed90614f95565b60405180910390fd5b60005b848381518110613732577f4e487b7100000000000000000000000000000000000000000000000000000000600052603260045260246000fd5b602002602001015151811015613865578173ffffffffffffffffffffffffffffffffffffffff166365d604496040518163ffffffff1660e01b815260040160206040518083038186803b15801561378857600080fd5b505afa15801561379c573d6000803e3d6000fd5b505050506040513d601f19601f820116820180604052508101906137c091906143e9565b8584815181106137f9577f4e487b7100000000000000000000000000000000000000000000000000000000600052603260045260246000fd5b60200260200101518281518110613839577f4e487b7100000000000000000000000000000000000000000000000000000000600052603260045260246000fd5b6020026020010151106138525760009350505050613880565b808061385d9061559b565b9150506136f9565b505080806138729061559b565b9150506135cc565b50600190505b92915050565b60007f01ffc9a7000000000000000000000000000000000000000000000000000000007bffffffffffffffffffffffffffffffffffffffffffffffffffffffff1916827bffffffffffffffffffffffffffffffffffffffffffffffffffffffff1916149050919050565b60008073ffffffffffffffffffffffffffffffffffffffff166001600084815260200190815260200160002060009054906101000a900473ffffffffffffffffffffffffffffffffffffffff1673ffffffffffffffffffffffffffffffffffffffff1614159050919050565b600033905090565b60008060009054906101000a900473ffffffffffffffffffffffffffffffffffffffff169050816000806101000a81548173ffffffffffffffffffffffffffffffffffffffff021916908373ffffffffffffffffffffffffffffffffffffffff1602179055508173ffffffffffffffffffffffffffffffffffffffff168173ffffffffffffffffffffffffffffffffffffffff167f8be0079c531659141344cd1fd0a4f28419497f9722a3daafe3b4186f6b6457e060405160405180910390a35050565b606060088054613a3790615538565b80601f0160208091040260200160405190810160405280929190818152602001828054613a6390615538565b8015613ab05780601f10613a8557610100808354040283529160200191613ab0565b820191906000526020600020905b815481529060010190602001808311613a9357829003601f168201915b5050505050905090565b60606000821415613b02576040518060400160405280600181526020017f30000000000000000000000000000000000000000000000000000000000000008152509050613c62565b600082905060005b60008214613b34578080613b1d9061559b565b915050600a82613b2d91906153c5565b9150613b0a565b60008167ffffffffffffffff811115613b76577f4e487b7100000000000000000000000000000000000000000000000000000000600052604160045260246000fd5b6040519080825280601f01601f191660200182016040528015613ba85781602001600182028036833780820191505090505b5090505b60008514613c5b57600182613bc19190615450565b9150600a85613bd091906155e4565b6030613bdc919061536f565b60f81b818381518110613c18577f4e487b7100000000000000000000000000000000000000000000000000000000600052603260045260246000fd5b60200101907effffffffffffffffffffffffffffffffffffffffffffffffffffffffffffff1916908160001a905350600a85613c5491906153c5565b9450613bac565b8093505050505b919050565b600081600001549050919050565b6001816000016000828254019250508190555050565b6000613c9683613cb0565b8015613ca85750613ca78383613cfd565b5b905092915050565b6000613cdc827f01ffc9a700000000000000000000000000000000000000000000000000000000613cfd565b8015613cf65750613cf48263ffffffff60e01b613cfd565b155b9050919050565b6000806301ffc9a760e01b83604051602401613d199190614d58565b604051602081830303815290604052907bffffffffffffffffffffffffffffffffffffffffffffffffffffffff19166020820180517bffffffffffffffffffffffffffffffffffffffffffffffffffffffff838183161783525050505090506000808573ffffffffffffffffffffffffffffffffffffffff1661753084604051613da39190614bfd565b6000604051808303818686fa925050503d8060008114613ddf576040519150601f19603f3d011682016040523d82523d6000602084013e613de4565b606091505b5091509150602081511015613dff5760009350505050613e22565b818015613e1c575080806020019051810190613e1b919061432d565b5b93505050505b92915050565b828054828255906000526020600020908101928215613ea1579160200282015b82811115613ea05782518260006101000a81548173ffffffffffffffffffffffffffffffffffffffff021916908373ffffffffffffffffffffffffffffffffffffffff16021790555091602001919060010190613e48565b5b509050613eae9190613f12565b5090565b828054828255906000526020600020908101928215613f01579160200282015b82811115613f00578251829080519060200190613ef0929190613f2f565b5091602001919060010190613ed2565b5b509050613f0e9190613f7c565b5090565b5b80821115613f2b576000816000905550600101613f13565b5090565b828054828255906000526020600020908101928215613f6b579160200282015b82811115613f6a578251825591602001919060010190613f4f565b5b509050613f789190613f12565b5090565b5b80821115613f9c5760008181613f939190613fa0565b50600101613f7d565b5090565b5080546000825590600052602060002090810190613fbe9190613f12565b50565b6000613fd4613fcf846151d2565b6151ad565b90508083825260208201905082856020860282011115613ff357600080fd5b60005b858110156140235781614009888261415d565b845260208401935060208301925050600181019050613ff6565b5050509392505050565b600061404061403b846151fe565b6151ad565b9050808382526020820190508285602086028201111561405f57600080fd5b60005b858110156140a957813567ffffffffffffffff81111561408157600080fd5b80860161408e89826141c6565b85526020850194506020840193505050600181019050614062565b5050509392505050565b60006140c66140c18461522a565b6151ad565b905080838252602082019050828560208602820111156140e557600080fd5b60005b8581101561411557816140fb8882614259565b8452602084019350602083019250506001810190506140e8565b5050509392505050565b600061413261412d84615256565b6151ad565b90508281526020810184848401111561414a57600080fd5b614155848285615505565b509392505050565b60008135905061416c81615bad565b92915050565b600082601f83011261418357600080fd5b8135614193848260208601613fc1565b91505092915050565b600082601f8301126141ad57600080fd5b81356141bd84826020860161402d565b91505092915050565b600082601f8301126141d757600080fd5b81356141e78482602086016140b3565b91505092915050565b6000813590506141ff81615bc4565b92915050565b60008151905061421481615bc4565b92915050565b60008135905061422981615bdb565b92915050565b600082601f83011261424057600080fd5b815161425084826020860161411f565b91505092915050565b60008135905061426881615bf2565b92915050565b60008151905061427d81615bf2565b92915050565b60008135905061429281615c09565b92915050565b6000602082840312156142aa57600080fd5b60006142b88482850161415d565b91505092915050565b600080604083850312156142d457600080fd5b600083013567ffffffffffffffff8111156142ee57600080fd5b6142fa85828601614172565b925050602083013567ffffffffffffffff81111561431757600080fd5b6143238582860161419c565b9150509250929050565b60006020828403121561433f57600080fd5b600061434d84828501614205565b91505092915050565b60006020828403121561436857600080fd5b60006143768482850161421a565b91505092915050565b60006020828403121561439157600080fd5b600082015167ffffffffffffffff8111156143ab57600080fd5b6143b78482850161422f565b91505092915050565b6000602082840312156143d257600080fd5b60006143e084828501614259565b91505092915050565b6000602082840312156143fb57600080fd5b60006144098482850161426e565b91505092915050565b6000806040838503121561442557600080fd5b600061443385828601614259565b92505060206144448582860161415d565b9150509250929050565b600080600080600060a0868803121561446657600080fd5b600061447488828901614259565b95505060206144858882890161415d565b945050604086013567ffffffffffffffff8111156144a257600080fd5b6144ae88828901614172565b935050606086013567ffffffffffffffff8111156144cb57600080fd5b6144d78882890161419c565b92505060806144e888828901614283565b9150509295509295909350565b60008060008060008060c0878903121561450e57600080fd5b600061451c89828a01614259565b965050602061452d89828a016141f0565b955050604061453e89828a016141f0565b945050606061454f89828a01614259565b935050608061456089828a01614259565b92505060a061457189828a01614259565b9150509295509295509295565b600061458a83836145c2565b60208301905092915050565b60006145a283836146c2565b905092915050565b60006145b68383614bd0565b60208301905092915050565b6145cb81615484565b82525050565b6145da81615484565b82525050565b6145e981615484565b82525050565b60006145fa826152b7565b6146048185615315565b935061460f83615287565b8060005b83811015614640578151614627888261457e565b9750614632836152ee565b925050600181019050614613565b5085935050505092915050565b6000614658826152c2565b6146628185615326565b93508360208202850161467485615297565b8060005b858110156146b057848403895281516146918582614596565b945061469c836152fb565b925060208a01995050600181019050614678565b50829750879550505050505092915050565b60006146cd826152cd565b6146d78185615337565b93506146e2836152a7565b8060005b838110156147135781516146fa88826145aa565b975061470583615308565b9250506001810190506146e6565b5085935050505092915050565b61472981615496565b82525050565b614738816154a2565b82525050565b6000614749826152d8565b6147538185615348565b9350614763818560208601615505565b80840191505092915050565b600061477a826152e3565b6147848185615353565b9350614794818560208601615505565b61479d816156d1565b840191505092915050565b60006147b3826152e3565b6147bd8185615364565b93506147cd818560208601615505565b80840191505092915050565b60006147e6601083615353565b91506147f1826156e2565b602082019050919050565b6000614809601183615353565b91506148148261570b565b602082019050919050565b600061482c601083615353565b915061483782615734565b602082019050919050565b600061484f601083615353565b915061485a8261575d565b602082019050919050565b6000614872602683615353565b915061487d82615786565b604082019050919050565b6000614895601083615353565b91506148a0826157d5565b602082019050919050565b60006148b8601083615353565b91506148c3826157fe565b602082019050919050565b60006148db601183615353565b91506148e682615827565b602082019050919050565b60006148fe601083615353565b915061490982615850565b602082019050919050565b6000614921601083615353565b915061492c82615879565b602082019050919050565b6000614944601183615353565b915061494f826158a2565b602082019050919050565b6000614967601083615353565b9150614972826158cb565b602082019050919050565b600061498a602083615353565b9150614995826158f4565b602082019050919050565b60006149ad601083615353565b91506149b88261591d565b602082019050919050565b60006149d0601083615353565b91506149db82615946565b602082019050919050565b60006149f3601083615353565b91506149fe8261596f565b602082019050919050565b6000614a16601083615353565b9150614a2182615998565b602082019050919050565b6000614a39601083615353565b9150614a44826159c1565b602082019050919050565b6000614a5c601083615353565b9150614a67826159ea565b602082019050919050565b6000614a7f601083615353565b9150614a8a82615a13565b602082019050919050565b6000614aa2601183615353565b9150614aad82615a3c565b602082019050919050565b6000614ac5601083615353565b9150614ad082615a65565b602082019050919050565b6000614ae8601183615353565b9150614af382615a8e565b602082019050919050565b6000614b0b601183615353565b9150614b1682615ab7565b602082019050919050565b6000614b2e601483615353565b9150614b3982615ae0565b602082019050919050565b6000614b51601183615353565b9150614b5c82615b09565b602082019050919050565b6000614b74601083615353565b9150614b7f82615b32565b602082019050919050565b6000614b97600183615364565b9150614ba282615b5b565b600182019050919050565b6000614bba601083615353565b9150614bc582615b84565b602082019050919050565b614bd9816154ee565b82525050565b614be8816154ee565b82525050565b614bf7816154f8565b82525050565b6000614c09828461473e565b915081905092915050565b6000614c20828561473e565b9150614c2c828461473e565b91508190509392505050565b6000614c4482856147a8565b9150614c5082846147a8565b91508190509392505050565b6000614c6782614b8a565b9150614c7382846147a8565b915081905092915050565b6000602082019050614c9360008301846145e0565b92915050565b6000602082019050614cae60008301846145d1565b92915050565b6000604082019050614cc960008301856145d1565b614cd660208301846145d1565b9392505050565b6000606082019050614cf260008301866145d1565b614cff60208301856145d1565b614d0c6040830184614bdf565b949350505050565b6000604082019050614d2960008301856145d1565b614d366020830184614bdf565b9392505050565b6000602082019050614d526000830184614720565b92915050565b6000602082019050614d6d600083018461472f565b92915050565b60006020820190508181036000830152614d8d818461476f565b905092915050565b60006020820190508181036000830152614dae816147d9565b9050919050565b60006020820190508181036000830152614dce816147fc565b9050919050565b60006020820190508181036000830152614dee8161481f565b9050919050565b60006020820190508181036000830152614e0e81614842565b9050919050565b60006020820190508181036000830152614e2e81614865565b9050919050565b60006020820190508181036000830152614e4e81614888565b9050919050565b60006020820190508181036000830152614e6e816148ab565b9050919050565b60006020820190508181036000830152614e8e816148ce565b9050919050565b60006020820190508181036000830152614eae816148f1565b9050919050565b60006020820190508181036000830152614ece81614914565b9050919050565b60006020820190508181036000830152614eee81614937565b9050919050565b60006020820190508181036000830152614f0e8161495a565b9050919050565b60006020820190508181036000830152614f2e8161497d565b9050919050565b60006020820190508181036000830152614f4e816149a0565b9050919050565b60006020820190508181036000830152614f6e816149c3565b9050919050565b60006020820190508181036000830152614f8e816149e6565b9050919050565b60006020820190508181036000830152614fae81614a09565b9050919050565b60006020820190508181036000830152614fce81614a2c565b9050919050565b60006020820190508181036000830152614fee81614a4f565b9050919050565b6000602082019050818103600083015261500e81614a72565b9050919050565b6000602082019050818103600083015261502e81614a95565b9050919050565b6000602082019050818103600083015261504e81614ab8565b9050919050565b6000602082019050818103600083015261506e81614adb565b9050919050565b6000602082019050818103600083015261508e81614afe565b9050919050565b600060208201905081810360008301526150ae81614b21565b9050919050565b600060208201905081810360008301526150ce81614b44565b9050919050565b600060208201905081810360008301526150ee81614b67565b9050919050565b6000602082019050818103600083015261510e81614bad565b9050919050565b600060208201905061512a6000830184614bdf565b92915050565b600060e082019050615145600083018a614bdf565b61515260208301896145d1565b61515f60408301886145d1565b818103606083015261517181876145ef565b90508181036080830152615185818661464d565b905061519460a0830185614bee565b6151a160c0830184614bee565b98975050505050505050565b60006151b76151c8565b90506151c3828261556a565b919050565b6000604051905090565b600067ffffffffffffffff8211156151ed576151ec6156a2565b5b602082029050602081019050919050565b600067ffffffffffffffff821115615219576152186156a2565b5b602082029050602081019050919050565b600067ffffffffffffffff821115615245576152446156a2565b5b602082029050602081019050919050565b600067ffffffffffffffff821115615271576152706156a2565b5b61527a826156d1565b9050602081019050919050565b6000819050602082019050919050565b6000819050602082019050919050565b6000819050602082019050919050565b600081519050919050565b600081519050919050565b600081519050919050565b600081519050919050565b600081519050919050565b6000602082019050919050565b6000602082019050919050565b6000602082019050919050565b600082825260208201905092915050565b600082825260208201905092915050565b600082825260208201905092915050565b600081905092915050565b600082825260208201905092915050565b600081905092915050565b600061537a826154ee565b9150615385836154ee565b9250827fffffffffffffffffffffffffffffffffffffffffffffffffffffffffffffffff038211156153ba576153b9615615565b5b828201905092915050565b60006153d0826154ee565b91506153db836154ee565b9250826153eb576153ea615644565b5b828204905092915050565b6000615401826154ee565b915061540c836154ee565b9250817fffffffffffffffffffffffffffffffffffffffffffffffffffffffffffffffff048311821515161561544557615444615615565b5b828202905092915050565b600061545b826154ee565b9150615466836154ee565b92508282101561547957615478615615565b5b828203905092915050565b600061548f826154ce565b9050919050565b60008115159050919050565b60007fffffffff0000000000000000000000000000000000000000000000000000000082169050919050565b600073ffffffffffffffffffffffffffffffffffffffff82169050919050565b6000819050919050565b600060ff82169050919050565b60005b83811015615523578082015181840152602081019050615508565b83811115615532576000848401525b50505050565b6000600282049050600182168061555057607f821691505b6020821081141561556457615563615673565b5b50919050565b615573826156d1565b810181811067ffffffffffffffff82111715615592576155916156a2565b5b80604052505050565b60006155a6826154ee565b91507fffffffffffffffffffffffffffffffffffffffffffffffffffffffffffffffff8214156155d9576155d8615615565b5b600182019050919050565b60006155ef826154ee565b91506155fa836154ee565b92508261560a57615609615644565b5b828206905092915050565b7f4e487b7100000000000000000000000000000000000000000000000000000000600052601160045260246000fd5b7f4e487b7100000000000000000000000000000000000000000000000000000000600052601260045260246000fd5b7f4e487b7100000000000000000000000000000000000000000000000000000000600052602260045260246000fd5b7f4e487b7100000000000000000000000000000000000000000000000000000000600052604160045260246000fd5b6000601f19601f8301169050919050565b7f4944654775696c64506c75733a20533100000000000000000000000000000000600082015250565b7f4944654775696c64506c75733a204e5454000000000000000000000000000000600082015250565b7f4944654775696c64506c75733a204f5400000000000000000000000000000000600082015250565b7f4944654775696c64506c75733a20434300000000000000000000000000000000600082015250565b7f4f776e61626c653a206e6577206f776e657220697320746865207a65726f206160008201527f6464726573730000000000000000000000000000000000000000000000000000602082015250565b7f4944654775696c64506c75733a204e5100000000000000000000000000000000600082015250565b7f4944654775696c64506c75733a20424300000000000000000000000000000000600082015250565b7f4944654775696c64506c75733a204e5452000000000000000000000000000000600082015250565b7f4944654775696c64506c75733a204f4300000000000000000000000000000000600082015250565b7f4944654775696c64506c75733a20575400000000000000000000000000000000600082015250565b7f4944654775696c64506c75733a20534f53000000000000000000000000000000600082015250565b7f4944654775696c64506c75733a205a5400000000000000000000000000000000600082015250565b7f4f776e61626c653a2063616c6c6572206973206e6f7420746865206f776e6572600082015250565b7f4944654775696c64506c75733a204e4100000000000000000000000000000000600082015250565b7f4944654775696c64506c75733a204e4300000000000000000000000000000000600082015250565b7f4944654775696c64506c75733a204d4300000000000000000000000000000000600082015250565b7f4944654775696c64506c75733a20534b00000000000000000000000000000000600082015250565b7f4944654775696c64506c75733a204a3100000000000000000000000000000000600082015250565b7f4944654775696c64506c75733a204f4600000000000000000000000000000000600082015250565b7f4944654775696c64506c75733a20413000000000000000000000000000000000600082015250565b7f4944654775696c64506c75733a20313030000000000000000000000000000000600082015250565b7f4944654775696c64506c75733a204a3200000000000000000000000000000000600082015250565b7f4944654775696c64506c75733a204e5443000000000000000000000000000000600082015250565b7f4944654775696c64506c75733a204e5446000000000000000000000000000000600082015250565b7f4944654775696c64506c75733a20455243313635000000000000000000000000600082015250565b7f4944654775696c64506c75733a20545230000000000000000000000000000000600082015250565b7f4944654775696c64506c75733a20433100000000000000000000000000000000600082015250565b7f2f00000000000000000000000000000000000000000000000000000000000000600082015250565b7f4944654775696c64506c75733a204a3000000000000000000000000000000000600082015250565b615bb681615484565b8114615bc157600080fd5b50565b615bcd81615496565b8114615bd857600080fd5b50565b615be4816154a2565b8114615bef57600080fd5b50565b615bfb816154ee565b8114615c0657600080fd5b50565b615c12816154f8565b8114615c1d57600080fd5b5056fea26469706673582212203c9bf14447d687b459197b3a9dc450c2b3b7c766e2963e488c0f4bdde16a78a264736f6c6343000804003368747470733a2f2f75732d63656e7472616c312d64656775696c642d323032312e636c6f756466756e6374696f6e732e6e65742f6170702f726561644a6f622f",
  "linkReferences": {
    "contracts/Utils/EIP-55.sol": {
      "ChecksumLib": [
        {
          "length": 20,
          "start": 6929
        }
      ]
    }
  },
  "deployedLinkReferences": {
    "contracts/Utils/EIP-55.sol": {
      "ChecksumLib": [
        {
          "length": 20,
          "start": 5585
        }
      ]
    }
  }
}