{
  "_format": "hh-sol-artifact-1",
  "contractName": "DeGuildCenterPlus",
  "sourceName": "contracts/DeGuild/V2/DeGuildCenter+.sol",
  "abi": [
    {
      "inputs": [],
      "stateMutability": "nonpayable",
      "type": "constructor"
    },
    {
      "anonymous": false,
      "inputs": [
        {
          "indexed": false,
          "internalType": "uint256",
          "name": "jobId",
          "type": "uint256"
        },
        {
          "indexed": true,
          "internalType": "address",
          "name": "client",
          "type": "address"
        }
      ],
      "name": "JobAdded",
      "type": "event"
    },
    {
      "anonymous": false,
      "inputs": [
        {
          "indexed": false,
          "internalType": "uint256",
          "name": "jobId",
          "type": "uint256"
        },
        {
          "indexed": true,
          "internalType": "address",
          "name": "criminal",
          "type": "address"
        }
      ],
      "name": "JobCaseClosed",
      "type": "event"
    },
    {
      "anonymous": false,
      "inputs": [
        {
          "indexed": true,
          "internalType": "uint256",
          "name": "jobId",
          "type": "uint256"
        }
      ],
      "name": "JobCaseOpened",
      "type": "event"
    },
    {
      "anonymous": false,
      "inputs": [
        {
          "indexed": false,
          "internalType": "uint256",
          "name": "jobId",
          "type": "uint256"
        },
        {
          "indexed": true,
          "internalType": "address",
          "name": "taker",
          "type": "address"
        }
      ],
      "name": "JobCompleted",
      "type": "event"
    },
    {
      "anonymous": false,
      "inputs": [
        {
          "indexed": false,
          "internalType": "uint256",
          "name": "jobId",
          "type": "uint256"
        },
        {
          "indexed": true,
          "internalType": "address",
          "name": "taker",
          "type": "address"
        }
      ],
      "name": "JobTaken",
      "type": "event"
    },
    {
      "anonymous": false,
      "inputs": [
        {
          "indexed": true,
          "internalType": "address",
          "name": "previousOwner",
          "type": "address"
        },
        {
          "indexed": true,
          "internalType": "address",
          "name": "newOwner",
          "type": "address"
        }
      ],
      "name": "OwnershipTransferred",
      "type": "event"
    },
    {
      "inputs": [
        {
          "internalType": "uint256",
          "name": "bonus",
          "type": "uint256"
        },
        {
          "internalType": "address",
          "name": "taker",
          "type": "address"
        },
        {
          "internalType": "address[]",
          "name": "certificates",
          "type": "address[]"
        },
        {
          "internalType": "uint256[][]",
          "name": "skills",
          "type": "uint256[][]"
        },
        {
          "internalType": "uint8",
          "name": "difficulty",
          "type": "uint8"
        }
      ],
      "name": "addJob",
      "outputs": [
        {
          "internalType": "bool",
          "name": "",
          "type": "bool"
        }
      ],
      "stateMutability": "nonpayable",
      "type": "function"
    },
    {
      "inputs": [
        {
          "internalType": "uint256",
          "name": "id",
          "type": "uint256"
        }
      ],
      "name": "cancel",
      "outputs": [
        {
          "internalType": "bool",
          "name": "",
          "type": "bool"
        }
      ],
      "stateMutability": "nonpayable",
      "type": "function"
    },
    {
      "inputs": [
        {
          "internalType": "uint256",
          "name": "id",
          "type": "uint256"
        }
      ],
      "name": "complete",
      "outputs": [
        {
          "internalType": "bool",
          "name": "",
          "type": "bool"
        }
      ],
      "stateMutability": "nonpayable",
      "type": "function"
    },
    {
      "inputs": [],
      "name": "deguildCoin",
      "outputs": [
        {
          "internalType": "address",
          "name": "",
          "type": "address"
        }
      ],
      "stateMutability": "view",
      "type": "function"
    },
    {
      "inputs": [
        {
          "internalType": "uint256",
          "name": "id",
          "type": "uint256"
        }
      ],
      "name": "forceCancel",
      "outputs": [
        {
          "internalType": "bool",
          "name": "",
          "type": "bool"
        }
      ],
      "stateMutability": "nonpayable",
      "type": "function"
    },
    {
      "inputs": [
        {
          "internalType": "uint256",
          "name": "jobId",
          "type": "uint256"
        },
        {
          "internalType": "address",
          "name": "taker",
          "type": "address"
        }
      ],
      "name": "isQualified",
      "outputs": [
        {
          "internalType": "bool",
          "name": "",
          "type": "bool"
        }
      ],
      "stateMutability": "view",
      "type": "function"
    },
    {
      "inputs": [
        {
          "internalType": "uint256",
          "name": "jobId",
          "type": "uint256"
        }
      ],
      "name": "jobInfo",
      "outputs": [
        {
          "internalType": "uint256",
          "name": "",
          "type": "uint256"
        },
        {
          "internalType": "address",
          "name": "",
          "type": "address"
        },
        {
          "internalType": "address",
          "name": "",
          "type": "address"
        },
        {
          "internalType": "address[]",
          "name": "",
          "type": "address[]"
        },
        {
          "internalType": "uint256[][]",
          "name": "",
          "type": "uint256[][]"
        },
        {
          "internalType": "uint8",
          "name": "",
          "type": "uint8"
        },
        {
          "internalType": "uint8",
          "name": "",
          "type": "uint8"
        }
      ],
      "stateMutability": "view",
      "type": "function"
    },
    {
      "inputs": [
        {
          "internalType": "address",
          "name": "account",
          "type": "address"
        }
      ],
      "name": "jobOf",
      "outputs": [
        {
          "internalType": "uint256",
          "name": "",
          "type": "uint256"
        }
      ],
      "stateMutability": "view",
      "type": "function"
    },
    {
      "inputs": [
        {
          "internalType": "uint256",
          "name": "jobId",
          "type": "uint256"
        }
      ],
      "name": "jobURI",
      "outputs": [
        {
          "internalType": "string",
          "name": "",
          "type": "string"
        }
      ],
      "stateMutability": "view",
      "type": "function"
    },
    {
      "inputs": [],
      "name": "jobsCount",
      "outputs": [
        {
          "internalType": "uint256",
          "name": "",
          "type": "uint256"
        }
      ],
      "stateMutability": "view",
      "type": "function"
    },
    {
      "inputs": [
        {
          "internalType": "uint256",
          "name": "id",
          "type": "uint256"
        },
        {
          "internalType": "bool",
          "name": "decision",
          "type": "bool"
        }
      ],
      "name": "judge",
      "outputs": [
        {
          "internalType": "bool",
          "name": "",
          "type": "bool"
        }
      ],
      "stateMutability": "nonpayable",
      "type": "function"
    },
    {
      "inputs": [],
      "name": "name",
      "outputs": [
        {
          "internalType": "string",
          "name": "",
          "type": "string"
        }
      ],
      "stateMutability": "view",
      "type": "function"
    },
    {
      "inputs": [],
      "name": "owner",
      "outputs": [
        {
          "internalType": "address",
          "name": "",
          "type": "address"
        }
      ],
      "stateMutability": "view",
      "type": "function"
    },
    {
      "inputs": [
        {
          "internalType": "uint256",
          "name": "jobId",
          "type": "uint256"
        }
      ],
      "name": "ownersOf",
      "outputs": [
        {
          "internalType": "address",
          "name": "",
          "type": "address"
        },
        {
          "internalType": "address",
          "name": "",
          "type": "address"
        }
      ],
      "stateMutability": "view",
      "type": "function"
    },
    {
      "inputs": [],
      "name": "renounceOwnership",
      "outputs": [],
      "stateMutability": "nonpayable",
      "type": "function"
    },
    {
      "inputs": [
        {
          "internalType": "uint256",
          "name": "id",
          "type": "uint256"
        }
      ],
      "name": "report",
      "outputs": [
        {
          "internalType": "bool",
          "name": "",
          "type": "bool"
        }
      ],
      "stateMutability": "nonpayable",
      "type": "function"
    },
    {
      "inputs": [
        {
          "internalType": "bytes4",
          "name": "interfaceId",
          "type": "bytes4"
        }
      ],
      "name": "supportsInterface",
      "outputs": [
        {
          "internalType": "bool",
          "name": "",
          "type": "bool"
        }
      ],
      "stateMutability": "view",
      "type": "function"
    },
    {
      "inputs": [],
      "name": "symbol",
      "outputs": [
        {
          "internalType": "string",
          "name": "",
          "type": "string"
        }
      ],
      "stateMutability": "view",
      "type": "function"
    },
    {
      "inputs": [
        {
          "internalType": "uint256",
          "name": "id",
          "type": "uint256"
        }
      ],
      "name": "take",
      "outputs": [
        {
          "internalType": "bool",
          "name": "",
          "type": "bool"
        }
      ],
      "stateMutability": "nonpayable",
      "type": "function"
    },
    {
      "inputs": [
        {
          "internalType": "address",
          "name": "newOwner",
          "type": "address"
        }
      ],
      "name": "transferOwnership",
      "outputs": [],
      "stateMutability": "nonpayable",
      "type": "function"
    },
    {
      "inputs": [
        {
          "internalType": "address[]",
          "name": "certificates",
          "type": "address[]"
        },
        {
          "internalType": "uint256[][]",
          "name": "skills",
          "type": "uint256[][]"
        }
      ],
      "name": "verifySkills",
      "outputs": [
        {
          "internalType": "bool",
          "name": "",
          "type": "bool"
        }
      ],
      "stateMutability": "view",
      "type": "function"
    }
  ],
  "bytecode": "0x60806040526040518060200160405280600181525060096000820151816000015550503480156200002f57600080fd5b506040518060400160405280600981526020017f473031204775696c6400000000000000000000000000000000000000000000008152506040518060400160405280600381526020017f47303100000000000000000000000000000000000000000000000000000000008152506040518060600160405280604081526020016200605160409139734312d992940d0b110525f553160c9984b77d1ef4620000eb620000df620001f360201b60201c565b620001fb60201b60201c565b83600690805190602001906200010392919062000398565b5082600790805190602001906200011c92919062000398565b5080600560006101000a81548173ffffffffffffffffffffffffffffffffffffffff021916908373ffffffffffffffffffffffffffffffffffffffff16021790555081600890805190602001906200017692919062000398565b5080600a60006101000a81548173ffffffffffffffffffffffffffffffffffffffff021916908373ffffffffffffffffffffffffffffffffffffffff16021790555050505050620001ed7fdc6cafea00000000000000000000000000000000000000000000000000000000620002bf60201b60201c565b62000530565b600033905090565b60008060009054906101000a900473ffffffffffffffffffffffffffffffffffffffff169050816000806101000a81548173ffffffffffffffffffffffffffffffffffffffff021916908373ffffffffffffffffffffffffffffffffffffffff1602179055508173ffffffffffffffffffffffffffffffffffffffff168173ffffffffffffffffffffffffffffffffffffffff167f8be0079c531659141344cd1fd0a4f28419497f9722a3daafe3b4186f6b6457e060405160405180910390a35050565b63ffffffff60e01b817bffffffffffffffffffffffffffffffffffffffffffffffffffffffff191614156200032b576040517f08c379a000000000000000000000000000000000000000000000000000000000815260040162000322906200046f565b60405180910390fd5b6001600b6000837bffffffffffffffffffffffffffffffffffffffffffffffffffffffff19167bffffffffffffffffffffffffffffffffffffffffffffffffffffffff1916815260200190815260200160002060006101000a81548160ff02191690831515021790555050565b828054620003a690620004a2565b90600052602060002090601f016020900481019282620003ca576000855562000416565b82601f10620003e557805160ff191683800117855562000416565b8280016001018555821562000416579182015b8281111562000415578251825591602001919060010190620003f8565b5b50905062000425919062000429565b5090565b5b80821115620004445760008160009055506001016200042a565b5090565b600062000457601c8362000491565b9150620004648262000507565b602082019050919050565b600060208201905081810360008301526200048a8162000448565b9050919050565b600082825260208201905092915050565b60006002820490506001821680620004bb57607f821691505b60208210811415620004d257620004d1620004d8565b5b50919050565b7f4e487b7100000000000000000000000000000000000000000000000000000000600052602260045260246000fd5b7f4552433136353a20696e76616c696420696e7465726661636520696400000000600082015250565b615b1180620005406000396000f3fe608060405234801561001057600080fd5b50600436106101375760003560e01c80637a2687a4116100b8578063971d852f1161007c578063971d852f146103a4578063a584ab29146103d4578063d5fbcf4214610405578063f2fde38b14610423578063f438f0191461043f578063f9fa7e8f1461046f57610137565b80637a2687a4146102d85780637ae681a5146103085780638da5cb5b1461033857806395d89b4114610356578063969b1cdb1461037457610137565b806343de3352116100ff57806343de33521461021a5780634fbefc6e1461024a5780634fd9efc4146102685780635ce5ee6914610298578063715018a6146102ce57610137565b806301ffc9a71461013c57806306fdde031461016c5780632dab557b1461018a57806340e58ee5146101ba57806341a08aaf146101ea575b600080fd5b61015660048036038101906101519190613db2565b61049f565b604051610163919061476f565b60405180910390f35b610174610517565b60405161018191906147a5565b60405180910390f35b6101a4600480360381019061019f9190613cf4565b6105a9565b6040516101b19190614b67565b60405180910390f35b6101d460048036038101906101cf9190613e1c565b6105f2565b6040516101e1919061476f565b60405180910390f35b61020460048036038101906101ff9190613f51565b610913565b604051610211919061476f565b60405180910390f35b610234600480360381019061022f9190613e6e565b610ee6565b604051610241919061476f565b60405180910390f35b61025261126f565b60405161025f91906146cb565b60405180910390f35b610282600480360381019061027d9190613e1c565b611299565b60405161028f919061476f565b60405180910390f35b6102b260048036038101906102ad9190613e1c565b6117a3565b6040516102c59796959493929190614b82565b60405180910390f35b6102d6611a8e565b005b6102f260048036038101906102ed9190613e1c565b611b16565b6040516102ff91906147a5565b60405180910390f35b610322600480360381019061031d9190613eaa565b611ca0565b60405161032f919061476f565b60405180910390f35b610340612211565b60405161034d91906146cb565b60405180910390f35b61035e61223a565b60405161036b91906147a5565b60405180910390f35b61038e60048036038101906103899190613e1c565b6122cc565b60405161039b919061476f565b60405180910390f35b6103be60048036038101906103b99190613e1c565b612503565b6040516103cb919061476f565b60405180910390f35b6103ee60048036038101906103e99190613e1c565b612a23565b6040516103fc9291906146e6565b60405180910390f35b61040d612ae5565b60405161041a9190614b67565b60405180910390f35b61043d60048036038101906104389190613cf4565b612b02565b005b61045960048036038101906104549190613e1c565b612bfa565b604051610466919061476f565b60405180910390f35b61048960048036038101906104849190613d1d565b612f9b565b604051610496919061476f565b60405180910390f35b60006104aa826132e2565b806105105750600b6000837bffffffffffffffffffffffffffffffffffffffffffffffffffffffff19167bffffffffffffffffffffffffffffffffffffffffffffffffffffffff1916815260200190815260200160002060009054906101000a900460ff165b9050919050565b60606006805461052690614f30565b80601f016020809104026020016040519081016040528092919081815260200182805461055290614f30565b801561059f5780601f106105745761010080835404028352916020019161059f565b820191906000526020600020905b81548152906001019060200180831161058257829003601f168201915b5050505050905090565b6000600260008373ffffffffffffffffffffffffffffffffffffffff1673ffffffffffffffffffffffffffffffffffffffff168152602001908152602001600020549050919050565b60006105fd8261334c565b61063c576040517f08c379a000000000000000000000000000000000000000000000000000000000815260040161063390614a27565b60405180910390fd5b6106446133b8565b73ffffffffffffffffffffffffffffffffffffffff166004600084815260200190815260200160002060010160009054906101000a900473ffffffffffffffffffffffffffffffffffffffff1673ffffffffffffffffffffffffffffffffffffffff16146106e7576040517f08c379a00000000000000000000000000000000000000000000000000000000081526004016106de90614a07565b60405180910390fd5b60016004600084815260200190815260200160002060050160009054906101000a900460ff1660ff1614610750576040517f08c379a000000000000000000000000000000000000000000000000000000000815260040161074790614a67565b60405180910390fd5b600a60009054906101000a900473ffffffffffffffffffffffffffffffffffffffff1673ffffffffffffffffffffffffffffffffffffffff1663a9059cbb6001600085815260200190815260200160002060009054906101000a900473ffffffffffffffffffffffffffffffffffffffff1660046000868152602001908152602001600020600001546040518363ffffffff1660e01b81526004016107f6929190614746565b602060405180830381600087803b15801561081057600080fd5b505af1158015610824573d6000803e3d6000fd5b505050506040513d601f19601f820116820180604052508101906108489190613d89565b610887576040517f08c379a000000000000000000000000000000000000000000000000000000000815260040161087e906148c7565b60405180910390fd5b60636004600084815260200190815260200160002060050160006101000a81548160ff021916908360ff16021790555060006001600084815260200190815260200160002060006101000a81548173ffffffffffffffffffffffffffffffffffffffff021916908373ffffffffffffffffffffffffffffffffffffffff16021790555060019050919050565b600061091d6133b8565b73ffffffffffffffffffffffffffffffffffffffff1661093b612211565b73ffffffffffffffffffffffffffffffffffffffff1614610991576040517f08c379a0000000000000000000000000000000000000000000000000000000008152600401610988906149c7565b60405180910390fd5b61099a8361334c565b6109d9576040517f08c379a00000000000000000000000000000000000000000000000000000000081526004016109d090614a27565b60405180910390fd5b60006004600085815260200190815260200160002060050160009054906101000a900460ff1660ff1614610a42576040517f08c379a0000000000000000000000000000000000000000000000000000000008152600401610a39906149a7565b60405180910390fd5b6000808315610ac2576004600086815260200190815260200160002060010160009054906101000a900473ffffffffffffffffffffffffffffffffffffffff1691506004600086815260200190815260200160002060020160009054906101000a900473ffffffffffffffffffffffffffffffffffffffff169050610b35565b6004600086815260200190815260200160002060020160009054906101000a900473ffffffffffffffffffffffffffffffffffffffff1691506004600086815260200190815260200160002060010160009054906101000a900473ffffffffffffffffffffffffffffffffffffffff1690505b6000600a6004600088815260200190815260200160002060000154610b5a9190614e17565b9050600a60009054906101000a900473ffffffffffffffffffffffffffffffffffffffff1673ffffffffffffffffffffffffffffffffffffffff1663a9059cbb610ba2612211565b836040518363ffffffff1660e01b8152600401610bc0929190614746565b602060405180830381600087803b158015610bda57600080fd5b505af1158015610bee573d6000803e3d6000fd5b505050506040513d601f19601f82011682018060405250810190610c129190613d89565b610c51576040517f08c379a0000000000000000000000000000000000000000000000000000000008152600401610c48906148e7565b60405180910390fd5b806004600088815260200190815260200160002060000154036004600088815260200190815260200160002060000181905550600a60009054906101000a900473ffffffffffffffffffffffffffffffffffffffff1673ffffffffffffffffffffffffffffffffffffffff1663a9059cbb84600460008a8152602001908152602001600020600001546040518363ffffffff1660e01b8152600401610cf7929190614746565b602060405180830381600087803b158015610d1157600080fd5b505af1158015610d25573d6000803e3d6000fd5b505050506040513d601f19601f82011682018060405250810190610d499190613d89565b610d88576040517f08c379a0000000000000000000000000000000000000000000000000000000008152600401610d7f90614827565b60405180910390fd5b6001600360008473ffffffffffffffffffffffffffffffffffffffff1673ffffffffffffffffffffffffffffffffffffffff16815260200190815260200160002060006101000a81548160ff02191690831515021790555060036004600088815260200190815260200160002060050160006101000a81548160ff021916908360ff160217905550600060026000600460008a815260200190815260200160002060020160009054906101000a900473ffffffffffffffffffffffffffffffffffffffff1673ffffffffffffffffffffffffffffffffffffffff1673ffffffffffffffffffffffffffffffffffffffff168152602001908152602001600020819055508173ffffffffffffffffffffffffffffffffffffffff167f3153f56b4c6b1e149a1bd8d73fdb7d149a7a8f073dd0a5581f623122b45250ff87604051610ed19190614b67565b60405180910390a26001935050505092915050565b6000610ef18361334c565b610f30576040517f08c379a0000000000000000000000000000000000000000000000000000000008152600401610f2790614b27565b60405180910390fd5b600060046000858152602001908152602001600020600301805480602002602001604051908101604052809291908181526020018280548015610fc857602002820191906000526020600020905b8160009054906101000a900473ffffffffffffffffffffffffffffffffffffffff1673ffffffffffffffffffffffffffffffffffffffff1681526020019060010190808311610f7e575b50505050509050600060046000868152602001908152602001600020600401805480602002602001604051908101604052809291908181526020016000905b828210156110795783829060005260206000200180548060200260200160405190810160405280929190818152602001828054801561106557602002820191906000526020600020905b815481526020019060010190808311611051575b505050505081526020019060010190611007565b50505050905060005b82518110156112615760008382815181106110c6577f4e487b7100000000000000000000000000000000000000000000000000000000600052603260045260246000fd5b6020026020010151905060005b83838151811061110c577f4e487b7100000000000000000000000000000000000000000000000000000000600052603260045260246000fd5b60200260200101515181101561124c578173ffffffffffffffffffffffffffffffffffffffff16636704fe9f88868681518110611172577f4e487b7100000000000000000000000000000000000000000000000000000000600052603260045260246000fd5b602002602001015184815181106111b2577f4e487b7100000000000000000000000000000000000000000000000000000000600052603260045260246000fd5b60200260200101516040518363ffffffff1660e01b81526004016111d7929190614746565b60206040518083038186803b1580156111ef57600080fd5b505afa158015611203573d6000803e3d6000fd5b505050506040513d601f19601f820116820180604052508101906112279190613d89565b61123957600095505050505050611269565b808061124490614f93565b9150506110d3565b5050808061125990614f93565b915050611082565b506001925050505b92915050565b6000600560009054906101000a900473ffffffffffffffffffffffffffffffffffffffff16905090565b6000600360006112a76133b8565b73ffffffffffffffffffffffffffffffffffffffff1673ffffffffffffffffffffffffffffffffffffffff16815260200190815260200160002060009054906101000a900460ff161561132f576040517f08c379a000000000000000000000000000000000000000000000000000000000815260040161132690614ae7565b60405180910390fd5b6113388261334c565b611377576040517f08c379a000000000000000000000000000000000000000000000000000000000815260040161136e90614a27565b60405180910390fd5b6004600083815260200190815260200160002060010160009054906101000a900473ffffffffffffffffffffffffffffffffffffffff1673ffffffffffffffffffffffffffffffffffffffff166113cc6133b8565b73ffffffffffffffffffffffffffffffffffffffff161415611423576040517f08c379a000000000000000000000000000000000000000000000000000000000815260040161141a906149e7565b60405180910390fd5b6114348261142f6133b8565b610ee6565b611473576040517f08c379a000000000000000000000000000000000000000000000000000000000815260040161146a90614947565b60405180910390fd5b6000600260006114816133b8565b73ffffffffffffffffffffffffffffffffffffffff1673ffffffffffffffffffffffffffffffffffffffff16815260200190815260200160002054146114fc576040517f08c379a00000000000000000000000000000000000000000000000000000000081526004016114f390614b07565b60405180910390fd5b60016004600084815260200190815260200160002060050160009054906101000a900460ff1660ff1614611565576040517f08c379a000000000000000000000000000000000000000000000000000000000815260040161155c906147c7565b60405180910390fd5b6004600083815260200190815260200160002060050160029054906101000a900460ff161561163e576115966133b8565b73ffffffffffffffffffffffffffffffffffffffff166004600084815260200190815260200160002060020160009054906101000a900473ffffffffffffffffffffffffffffffffffffffff1673ffffffffffffffffffffffffffffffffffffffff1614611639576040517f08c379a000000000000000000000000000000000000000000000000000000000815260040161163090614887565b60405180910390fd5b61169b565b6116466133b8565b6004600084815260200190815260200160002060020160006101000a81548173ffffffffffffffffffffffffffffffffffffffff021916908373ffffffffffffffffffffffffffffffffffffffff1602179055505b81600260006116a86133b8565b73ffffffffffffffffffffffffffffffffffffffff1673ffffffffffffffffffffffffffffffffffffffff1681526020019081526020016000208190555060026004600084815260200190815260200160002060050160006101000a81548160ff021916908360ff1602179055506004600083815260200190815260200160002060020160009054906101000a900473ffffffffffffffffffffffffffffffffffffffff1673ffffffffffffffffffffffffffffffffffffffff167f63d05f037a34bfd9732c85be51fc52a421f621694ced20c350480d44d6a3b3fa836040516117929190614b67565b60405180910390a260019050919050565b60008060006060806000806117b78861334c565b6117f6576040517f08c379a00000000000000000000000000000000000000000000000000000000081526004016117ed90614b27565b60405180910390fd5b6000600460008a815260200190815260200160002060405180610100016040529081600082015481526020016001820160009054906101000a900473ffffffffffffffffffffffffffffffffffffffff1673ffffffffffffffffffffffffffffffffffffffff1673ffffffffffffffffffffffffffffffffffffffff1681526020016002820160009054906101000a900473ffffffffffffffffffffffffffffffffffffffff1673ffffffffffffffffffffffffffffffffffffffff1673ffffffffffffffffffffffffffffffffffffffff1681526020016003820180548060200260200160405190810160405280929190818152602001828054801561195257602002820191906000526020600020905b8160009054906101000a900473ffffffffffffffffffffffffffffffffffffffff1673ffffffffffffffffffffffffffffffffffffffff1681526020019060010190808311611908575b5050505050815260200160048201805480602002602001604051908101604052809291908181526020016000905b828210156119f2578382906000526020600020018054806020026020016040519081016040528092919081815260200182805480156119de57602002820191906000526020600020905b8154815260200190600101908083116119ca575b505050505081526020019060010190611980565b5050505081526020016005820160009054906101000a900460ff1660ff1660ff1681526020016005820160019054906101000a900460ff1660ff1660ff1681526020016005820160029054906101000a900460ff1615151515815250509050806000015181602001518260400151836060015184608001518560a001518660c00151975097509750975097509750975050919395979092949650565b611a966133b8565b73ffffffffffffffffffffffffffffffffffffffff16611ab4612211565b73ffffffffffffffffffffffffffffffffffffffff1614611b0a576040517f08c379a0000000000000000000000000000000000000000000000000000000008152600401611b01906149c7565b60405180910390fd5b611b1460006133c0565b565b6060611b218261334c565b611b60576040517f08c379a0000000000000000000000000000000000000000000000000000000008152600401611b5790614987565b60405180910390fd5b6000611b6a613484565b90506000815111611b8a5760405180602001604052806000815250611c98565b803073ffffffffffffffffffffffffffffffffffffffff1673__$124e1a4c5367a62965a30c61a01a42cb5d$__637cd6f8ff90916040518263ffffffff1660e01b8152600401611bda91906146b0565b60006040518083038186803b158015611bf257600080fd5b505af4158015611c06573d6000803e3d6000fd5b505050506040513d6000823e3d601f19601f82011682018060405250810190611c2f9190613ddb565b604051602001611c4092919061466a565b604051602081830303815290604052611c5884613516565b604051602001611c68919061468e565b604051602081830303815290604052604051602001611c88929190614646565b6040516020818303038152906040525b915050919050565b600060036000611cae6133b8565b73ffffffffffffffffffffffffffffffffffffffff1673ffffffffffffffffffffffffffffffffffffffff16815260200190815260200160002060009054906101000a900460ff1615611d36576040517f08c379a0000000000000000000000000000000000000000000000000000000008152600401611d2d90614ae7565b60405180910390fd5b8473ffffffffffffffffffffffffffffffffffffffff16611d556133b8565b73ffffffffffffffffffffffffffffffffffffffff161415611dac576040517f08c379a0000000000000000000000000000000000000000000000000000000008152600401611da3906148a7565b60405180910390fd5b611db68484612f9b565b611df5576040517f08c379a0000000000000000000000000000000000000000000000000000000008152600401611dec90614b47565b60405180910390fd5b6000670de0b6b3a76400008760648560ff168660ff16020201029050600a60009054906101000a900473ffffffffffffffffffffffffffffffffffffffff1673ffffffffffffffffffffffffffffffffffffffff166323b872dd611e576133b8565b30846040518463ffffffff1660e01b8152600401611e779392919061470f565b602060405180830381600087803b158015611e9157600080fd5b505af1158015611ea5573d6000803e3d6000fd5b505050506040513d601f19601f82011682018060405250810190611ec99190613d89565b611f08576040517f08c379a0000000000000000000000000000000000000000000000000000000008152600401611eff90614827565b60405180910390fd5b604051806101000160405280828152602001611f226133b8565b73ffffffffffffffffffffffffffffffffffffffff1681526020018773ffffffffffffffffffffffffffffffffffffffff168152602001868152602001858152602001600160ff1681526020018460ff168152602001600073ffffffffffffffffffffffffffffffffffffffff168873ffffffffffffffffffffffffffffffffffffffff161415151581525060046000611fbc60096136c3565b81526020019081526020016000206000820151816000015560208201518160010160006101000a81548173ffffffffffffffffffffffffffffffffffffffff021916908373ffffffffffffffffffffffffffffffffffffffff16021790555060408201518160020160006101000a81548173ffffffffffffffffffffffffffffffffffffffff021916908373ffffffffffffffffffffffffffffffffffffffff160217905550606082015181600301908051906020019061207e929190613884565b50608082015181600401908051906020019061209b92919061390e565b5060a08201518160050160006101000a81548160ff021916908360ff16021790555060c08201518160050160016101000a81548160ff021916908360ff16021790555060e08201518160050160026101000a81548160ff0219169083151502179055509050506121096133b8565b6001600061211760096136c3565b815260200190815260200160002060006101000a81548173ffffffffffffffffffffffffffffffffffffffff021916908373ffffffffffffffffffffffffffffffffffffffff1602179055506004600061217160096136c3565b815260200190815260200160002060010160009054906101000a900473ffffffffffffffffffffffffffffffffffffffff1673ffffffffffffffffffffffffffffffffffffffff167f327cf9892362c183c2af9b498e32bc51574d160377970d6d50080a3e8482e4136121e460096136c3565b6040516121f19190614b67565b60405180910390a261220360096136d1565b600191505095945050505050565b60008060009054906101000a900473ffffffffffffffffffffffffffffffffffffffff16905090565b60606007805461224990614f30565b80601f016020809104026020016040519081016040528092919081815260200182805461227590614f30565b80156122c25780601f10612297576101008083540402835291602001916122c2565b820191906000526020600020905b8154815290600101906020018083116122a557829003601f168201915b5050505050905090565b60006122d78261334c565b612316576040517f08c379a000000000000000000000000000000000000000000000000000000000815260040161230d90614a27565b60405180910390fd5b60026004600084815260200190815260200160002060050160009054906101000a900460ff1660ff161461237f576040517f08c379a0000000000000000000000000000000000000000000000000000000008152600401612376906147e7565b60405180910390fd5b6123876133b8565b73ffffffffffffffffffffffffffffffffffffffff166004600084815260200190815260200160002060010160009054906101000a900473ffffffffffffffffffffffffffffffffffffffff1673ffffffffffffffffffffffffffffffffffffffff16148061245e57506123f96133b8565b73ffffffffffffffffffffffffffffffffffffffff166004600084815260200190815260200160002060020160009054906101000a900473ffffffffffffffffffffffffffffffffffffffff1673ffffffffffffffffffffffffffffffffffffffff16145b61249d576040517f08c379a000000000000000000000000000000000000000000000000000000000815260040161249490614967565b60405180910390fd5b60006004600084815260200190815260200160002060050160006101000a81548160ff021916908360ff160217905550817ffb1aa198fcd90bf08aa0f027f902f0d28476e1d21d434cd858d37c1c8041b99060405160405180910390a260019050919050565b600061250e8261334c565b61254d576040517f08c379a000000000000000000000000000000000000000000000000000000000815260040161254490614a27565b60405180910390fd5b60026004600084815260200190815260200160002060050160009054906101000a900460ff1660ff16146125b6576040517f08c379a00000000000000000000000000000000000000000000000000000000081526004016125ad90614927565b60405180910390fd5b6125be6133b8565b73ffffffffffffffffffffffffffffffffffffffff166004600084815260200190815260200160002060010160009054906101000a900473ffffffffffffffffffffffffffffffffffffffff1673ffffffffffffffffffffffffffffffffffffffff1614612661576040517f08c379a000000000000000000000000000000000000000000000000000000000815260040161265890614a87565b60405180910390fd5b6000603260046000858152602001908152602001600020600001546126869190614e17565b9050600a60009054906101000a900473ffffffffffffffffffffffffffffffffffffffff1673ffffffffffffffffffffffffffffffffffffffff1663a9059cbb6126ce612211565b836040518363ffffffff1660e01b81526004016126ec929190614746565b602060405180830381600087803b15801561270657600080fd5b505af115801561271a573d6000803e3d6000fd5b505050506040513d601f19601f8201168201806040525081019061273e9190613d89565b61277d576040517f08c379a000000000000000000000000000000000000000000000000000000000815260040161277490614827565b60405180910390fd5b806004600085815260200190815260200160002060000154036004600085815260200190815260200160002060000181905550600a60009054906101000a900473ffffffffffffffffffffffffffffffffffffffff1673ffffffffffffffffffffffffffffffffffffffff1663a9059cbb6004600086815260200190815260200160002060020160009054906101000a900473ffffffffffffffffffffffffffffffffffffffff1660046000878152602001908152602001600020600001546040518363ffffffff1660e01b8152600401612859929190614746565b602060405180830381600087803b15801561287357600080fd5b505af1158015612887573d6000803e3d6000fd5b505050506040513d601f19601f820116820180604052508101906128ab9190613d89565b6128ea576040517f08c379a00000000000000000000000000000000000000000000000000000000081526004016128e190614aa7565b60405180910390fd5b60036004600085815260200190815260200160002060050160006101000a81548160ff021916908360ff1602179055506000600260006004600087815260200190815260200160002060020160009054906101000a900473ffffffffffffffffffffffffffffffffffffffff1673ffffffffffffffffffffffffffffffffffffffff1673ffffffffffffffffffffffffffffffffffffffff168152602001908152602001600020819055506004600084815260200190815260200160002060020160009054906101000a900473ffffffffffffffffffffffffffffffffffffffff1673ffffffffffffffffffffffffffffffffffffffff167f16a7286196330eaff0c7db2ec34ead9c6d2d023b356b62ee7ea644c842a84b6784604051612a119190614b67565b60405180910390a26001915050919050565b600080612a2f8361334c565b612a6e576040517f08c379a0000000000000000000000000000000000000000000000000000000008152600401612a6590614b27565b60405180910390fd5b6004600084815260200190815260200160002060010160009054906101000a900473ffffffffffffffffffffffffffffffffffffffff166004600085815260200190815260200160002060020160009054906101000a900473ffffffffffffffffffffffffffffffffffffffff1691509150915091565b60006001612af360096136c3565b612afd9190614e48565b905090565b612b0a6133b8565b73ffffffffffffffffffffffffffffffffffffffff16612b28612211565b73ffffffffffffffffffffffffffffffffffffffff1614612b7e576040517f08c379a0000000000000000000000000000000000000000000000000000000008152600401612b75906149c7565b60405180910390fd5b600073ffffffffffffffffffffffffffffffffffffffff168173ffffffffffffffffffffffffffffffffffffffff161415612bee576040517f08c379a0000000000000000000000000000000000000000000000000000000008152600401612be590614847565b60405180910390fd5b612bf7816133c0565b50565b6000612c046133b8565b73ffffffffffffffffffffffffffffffffffffffff16612c22612211565b73ffffffffffffffffffffffffffffffffffffffff1614612c78576040517f08c379a0000000000000000000000000000000000000000000000000000000008152600401612c6f906149c7565b60405180910390fd5b612c818261334c565b612cc0576040517f08c379a0000000000000000000000000000000000000000000000000000000008152600401612cb790614a27565b60405180910390fd5b60636004600084815260200190815260200160002060050160009054906101000a900460ff1660ff1614158015612d1e575060036004600084815260200190815260200160002060050160009054906101000a900460ff1660ff1614155b612d5d576040517f08c379a0000000000000000000000000000000000000000000000000000000008152600401612d5490614a47565b60405180910390fd5b600a60009054906101000a900473ffffffffffffffffffffffffffffffffffffffff1673ffffffffffffffffffffffffffffffffffffffff1663a9059cbb6001600085815260200190815260200160002060009054906101000a900473ffffffffffffffffffffffffffffffffffffffff1660046000868152602001908152602001600020600001546040518363ffffffff1660e01b8152600401612e03929190614746565b602060405180830381600087803b158015612e1d57600080fd5b505af1158015612e31573d6000803e3d6000fd5b505050506040513d601f19601f82011682018060405250810190612e559190613d89565b612e94576040517f08c379a0000000000000000000000000000000000000000000000000000000008152600401612e8b90614867565b60405180910390fd5b60636004600084815260200190815260200160002060050160006101000a81548160ff021916908360ff1602179055506000600260006004600086815260200190815260200160002060020160009054906101000a900473ffffffffffffffffffffffffffffffffffffffff1673ffffffffffffffffffffffffffffffffffffffff1673ffffffffffffffffffffffffffffffffffffffff1681526020019081526020016000208190555060006001600084815260200190815260200160002060006101000a81548173ffffffffffffffffffffffffffffffffffffffff021916908373ffffffffffffffffffffffffffffffffffffffff16021790555060019050919050565b6000601e835110612fe1576040517f08c379a0000000000000000000000000000000000000000000000000000000008152600401612fd890614907565b60405180910390fd5b8251825114613025576040517f08c379a000000000000000000000000000000000000000000000000000000000815260040161301c90614807565b60405180910390fd5b60005b83518110156132d657600084828151811061306c577f4e487b7100000000000000000000000000000000000000000000000000000000600052603260045260246000fd5b602002602001015190506130bf7fa6996df8000000000000000000000000000000000000000000000000000000008273ffffffffffffffffffffffffffffffffffffffff166136e790919063ffffffff16565b6130ce576000925050506132dc565b6014848381518110613109577f4e487b7100000000000000000000000000000000000000000000000000000000600052603260045260246000fd5b60200260200101515110613152576040517f08c379a000000000000000000000000000000000000000000000000000000000815260040161314990614ac7565b60405180910390fd5b60005b84838151811061318e577f4e487b7100000000000000000000000000000000000000000000000000000000600052603260045260246000fd5b6020026020010151518110156132c1578173ffffffffffffffffffffffffffffffffffffffff166365d604496040518163ffffffff1660e01b815260040160206040518083038186803b1580156131e457600080fd5b505afa1580156131f8573d6000803e3d6000fd5b505050506040513d601f19601f8201168201806040525081019061321c9190613e45565b858481518110613255577f4e487b7100000000000000000000000000000000000000000000000000000000600052603260045260246000fd5b60200260200101518281518110613295577f4e487b7100000000000000000000000000000000000000000000000000000000600052603260045260246000fd5b6020026020010151106132ae57600093505050506132dc565b80806132b990614f93565b915050613155565b505080806132ce90614f93565b915050613028565b50600190505b92915050565b60007f01ffc9a7000000000000000000000000000000000000000000000000000000007bffffffffffffffffffffffffffffffffffffffffffffffffffffffff1916827bffffffffffffffffffffffffffffffffffffffffffffffffffffffff1916149050919050565b60008073ffffffffffffffffffffffffffffffffffffffff166001600084815260200190815260200160002060009054906101000a900473ffffffffffffffffffffffffffffffffffffffff1673ffffffffffffffffffffffffffffffffffffffff1614159050919050565b600033905090565b60008060009054906101000a900473ffffffffffffffffffffffffffffffffffffffff169050816000806101000a81548173ffffffffffffffffffffffffffffffffffffffff021916908373ffffffffffffffffffffffffffffffffffffffff1602179055508173ffffffffffffffffffffffffffffffffffffffff168173ffffffffffffffffffffffffffffffffffffffff167f8be0079c531659141344cd1fd0a4f28419497f9722a3daafe3b4186f6b6457e060405160405180910390a35050565b60606008805461349390614f30565b80601f01602080910402602001604051908101604052809291908181526020018280546134bf90614f30565b801561350c5780601f106134e15761010080835404028352916020019161350c565b820191906000526020600020905b8154815290600101906020018083116134ef57829003601f168201915b5050505050905090565b6060600082141561355e576040518060400160405280600181526020017f300000000000000000000000000000000000000000000000000000000000000081525090506136be565b600082905060005b6000821461359057808061357990614f93565b915050600a826135899190614e17565b9150613566565b60008167ffffffffffffffff8111156135d2577f4e487b7100000000000000000000000000000000000000000000000000000000600052604160045260246000fd5b6040519080825280601f01601f1916602001820160405280156136045781602001600182028036833780820191505090505b5090505b600085146136b75760018261361d9190614e48565b9150600a8561362c9190614fdc565b60306136389190614dc1565b60f81b818381518110613674577f4e487b7100000000000000000000000000000000000000000000000000000000600052603260045260246000fd5b60200101907effffffffffffffffffffffffffffffffffffffffffffffffffffffffffffff1916908160001a905350600a856136b09190614e17565b9450613608565b8093505050505b919050565b600081600001549050919050565b6001816000016000828254019250508190555050565b60006136f28361370c565b801561370457506137038383613759565b5b905092915050565b6000613738827f01ffc9a700000000000000000000000000000000000000000000000000000000613759565b801561375257506137508263ffffffff60e01b613759565b155b9050919050565b6000806301ffc9a760e01b83604051602401613775919061478a565b604051602081830303815290604052907bffffffffffffffffffffffffffffffffffffffffffffffffffffffff19166020820180517bffffffffffffffffffffffffffffffffffffffffffffffffffffffff838183161783525050505090506000808573ffffffffffffffffffffffffffffffffffffffff16617530846040516137ff919061462f565b6000604051808303818686fa925050503d806000811461383b576040519150601f19603f3d011682016040523d82523d6000602084013e613840565b606091505b509150915060208151101561385b576000935050505061387e565b8180156138785750808060200190518101906138779190613d89565b5b93505050505b92915050565b8280548282559060005260206000209081019282156138fd579160200282015b828111156138fc5782518260006101000a81548173ffffffffffffffffffffffffffffffffffffffff021916908373ffffffffffffffffffffffffffffffffffffffff160217905550916020019190600101906138a4565b5b50905061390a919061396e565b5090565b82805482825590600052602060002090810192821561395d579160200282015b8281111561395c57825182908051906020019061394c92919061398b565b509160200191906001019061392e565b5b50905061396a91906139d8565b5090565b5b8082111561398757600081600090555060010161396f565b5090565b8280548282559060005260206000209081019282156139c7579160200282015b828111156139c65782518255916020019190600101906139ab565b5b5090506139d4919061396e565b5090565b5b808211156139f857600081816139ef91906139fc565b506001016139d9565b5090565b5080546000825590600052602060002090810190613a1a919061396e565b50565b6000613a30613a2b84614c24565b614bff565b90508083825260208201905082856020860282011115613a4f57600080fd5b60005b85811015613a7f5781613a658882613bb9565b845260208401935060208301925050600181019050613a52565b5050509392505050565b6000613a9c613a9784614c50565b614bff565b90508083825260208201905082856020860282011115613abb57600080fd5b60005b85811015613b0557813567ffffffffffffffff811115613add57600080fd5b808601613aea8982613c22565b85526020850194506020840193505050600181019050613abe565b5050509392505050565b6000613b22613b1d84614c7c565b614bff565b90508083825260208201905082856020860282011115613b4157600080fd5b60005b85811015613b715781613b578882613cb5565b845260208401935060208301925050600181019050613b44565b5050509392505050565b6000613b8e613b8984614ca8565b614bff565b905082815260208101848484011115613ba657600080fd5b613bb1848285614efd565b509392505050565b600081359050613bc881615a68565b92915050565b600082601f830112613bdf57600080fd5b8135613bef848260208601613a1d565b91505092915050565b600082601f830112613c0957600080fd5b8135613c19848260208601613a89565b91505092915050565b600082601f830112613c3357600080fd5b8135613c43848260208601613b0f565b91505092915050565b600081359050613c5b81615a7f565b92915050565b600081519050613c7081615a7f565b92915050565b600081359050613c8581615a96565b92915050565b600082601f830112613c9c57600080fd5b8151613cac848260208601613b7b565b91505092915050565b600081359050613cc481615aad565b92915050565b600081519050613cd981615aad565b92915050565b600081359050613cee81615ac4565b92915050565b600060208284031215613d0657600080fd5b6000613d1484828501613bb9565b91505092915050565b60008060408385031215613d3057600080fd5b600083013567ffffffffffffffff811115613d4a57600080fd5b613d5685828601613bce565b925050602083013567ffffffffffffffff811115613d7357600080fd5b613d7f85828601613bf8565b9150509250929050565b600060208284031215613d9b57600080fd5b6000613da984828501613c61565b91505092915050565b600060208284031215613dc457600080fd5b6000613dd284828501613c76565b91505092915050565b600060208284031215613ded57600080fd5b600082015167ffffffffffffffff811115613e0757600080fd5b613e1384828501613c8b565b91505092915050565b600060208284031215613e2e57600080fd5b6000613e3c84828501613cb5565b91505092915050565b600060208284031215613e5757600080fd5b6000613e6584828501613cca565b91505092915050565b60008060408385031215613e8157600080fd5b6000613e8f85828601613cb5565b9250506020613ea085828601613bb9565b9150509250929050565b600080600080600060a08688031215613ec257600080fd5b6000613ed088828901613cb5565b9550506020613ee188828901613bb9565b945050604086013567ffffffffffffffff811115613efe57600080fd5b613f0a88828901613bce565b935050606086013567ffffffffffffffff811115613f2757600080fd5b613f3388828901613bf8565b9250506080613f4488828901613cdf565b9150509295509295909350565b60008060408385031215613f6457600080fd5b6000613f7285828601613cb5565b9250506020613f8385828601613c4c565b9150509250929050565b6000613f998383613fd1565b60208301905092915050565b6000613fb183836140d1565b905092915050565b6000613fc58383614602565b60208301905092915050565b613fda81614e7c565b82525050565b613fe981614e7c565b82525050565b613ff881614e7c565b82525050565b600061400982614d09565b6140138185614d67565b935061401e83614cd9565b8060005b8381101561404f5781516140368882613f8d565b975061404183614d40565b925050600181019050614022565b5085935050505092915050565b600061406782614d14565b6140718185614d78565b93508360208202850161408385614ce9565b8060005b858110156140bf57848403895281516140a08582613fa5565b94506140ab83614d4d565b925060208a01995050600181019050614087565b50829750879550505050505092915050565b60006140dc82614d1f565b6140e68185614d89565b93506140f183614cf9565b8060005b838110156141225781516141098882613fb9565b975061411483614d5a565b9250506001810190506140f5565b5085935050505092915050565b61413881614e8e565b82525050565b61414781614e9a565b82525050565b600061415882614d2a565b6141628185614d9a565b9350614172818560208601614efd565b80840191505092915050565b600061418982614d35565b6141938185614da5565b93506141a3818560208601614efd565b6141ac816150c9565b840191505092915050565b60006141c282614d35565b6141cc8185614db6565b93506141dc818560208601614efd565b80840191505092915050565b60006141f5603283614da5565b9150614200826150da565b604082019050919050565b6000614218603583614da5565b915061422382615129565b604082019050919050565b600061423b604683614da5565b915061424682615178565b606082019050919050565b600061425e603083614da5565b9150614269826151ed565b604082019050919050565b6000614281602683614da5565b915061428c8261523c565b604082019050919050565b60006142a4602e83614da5565b91506142af8261528b565b604082019050919050565b60006142c7603083614da5565b91506142d2826152da565b604082019050919050565b60006142ea604183614da5565b91506142f582615329565b606082019050919050565b600061430d601d83614da5565b91506143188261539e565b602082019050919050565b6000614330602d83614da5565b915061433b826153c7565b604082019050919050565b6000614353604683614da5565b915061435e82615416565b606082019050919050565b6000614376603683614da5565b91506143818261548b565b604082019050919050565b6000614399602583614da5565b91506143a4826154da565b604082019050919050565b60006143bc603383614da5565b91506143c782615529565b604082019050919050565b60006143df602b83614da5565b91506143ea82615578565b604082019050919050565b6000614402603383614da5565b915061440d826155c7565b604082019050919050565b6000614425602083614da5565b915061443082615616565b602082019050919050565b6000614448602583614da5565b91506144538261563f565b604082019050919050565b600061446b602d83614da5565b91506144768261568e565b604082019050919050565b600061448e602f83614da5565b9150614499826156dd565b604082019050919050565b60006144b1603383614da5565b91506144bc8261572c565b604082019050919050565b60006144d4602783614da5565b91506144df8261577b565b604082019050919050565b60006144f7602f83614da5565b9150614502826157ca565b604082019050919050565b600061451a602e83614da5565b915061452582615819565b604082019050919050565b600061453d604683614da5565b915061454882615868565b606082019050919050565b6000614560602483614da5565b915061456b826158dd565b604082019050919050565b6000614583602883614da5565b915061458e8261592c565b604082019050919050565b60006145a6602d83614da5565b91506145b18261597b565b604082019050919050565b60006145c9600183614db6565b91506145d4826159ca565b600182019050919050565b60006145ec604583614da5565b91506145f7826159f3565b606082019050919050565b61460b81614ee6565b82525050565b61461a81614ee6565b82525050565b61462981614ef0565b82525050565b600061463b828461414d565b915081905092915050565b6000614652828561414d565b915061465e828461414d565b91508190509392505050565b600061467682856141b7565b915061468282846141b7565b91508190509392505050565b6000614699826145bc565b91506146a582846141b7565b915081905092915050565b60006020820190506146c56000830184613fef565b92915050565b60006020820190506146e06000830184613fe0565b92915050565b60006040820190506146fb6000830185613fe0565b6147086020830184613fe0565b9392505050565b60006060820190506147246000830186613fe0565b6147316020830185613fe0565b61473e6040830184614611565b949350505050565b600060408201905061475b6000830185613fe0565b6147686020830184614611565b9392505050565b6000602082019050614784600083018461412f565b92915050565b600060208201905061479f600083018461413e565b92915050565b600060208201905081810360008301526147bf818461417e565b905092915050565b600060208201905081810360008301526147e0816141e8565b9050919050565b600060208201905081810360008301526148008161420b565b9050919050565b600060208201905081810360008301526148208161422e565b9050919050565b6000602082019050818103600083015261484081614251565b9050919050565b6000602082019050818103600083015261486081614274565b9050919050565b6000602082019050818103600083015261488081614297565b9050919050565b600060208201905081810360008301526148a0816142ba565b9050919050565b600060208201905081810360008301526148c0816142dd565b9050919050565b600060208201905081810360008301526148e081614300565b9050919050565b6000602082019050818103600083015261490081614323565b9050919050565b6000602082019050818103600083015261492081614346565b9050919050565b6000602082019050818103600083015261494081614369565b9050919050565b600060208201905081810360008301526149608161438c565b9050919050565b60006020820190508181036000830152614980816143af565b9050919050565b600060208201905081810360008301526149a0816143d2565b9050919050565b600060208201905081810360008301526149c0816143f5565b9050919050565b600060208201905081810360008301526149e081614418565b9050919050565b60006020820190508181036000830152614a008161443b565b9050919050565b60006020820190508181036000830152614a208161445e565b9050919050565b60006020820190508181036000830152614a4081614481565b9050919050565b60006020820190508181036000830152614a60816144a4565b9050919050565b60006020820190508181036000830152614a80816144c7565b9050919050565b60006020820190508181036000830152614aa0816144ea565b9050919050565b60006020820190508181036000830152614ac08161450d565b9050919050565b60006020820190508181036000830152614ae081614530565b9050919050565b60006020820190508181036000830152614b0081614553565b9050919050565b60006020820190508181036000830152614b2081614576565b9050919050565b60006020820190508181036000830152614b4081614599565b9050919050565b60006020820190508181036000830152614b60816145df565b9050919050565b6000602082019050614b7c6000830184614611565b92915050565b600060e082019050614b97600083018a614611565b614ba46020830189613fe0565b614bb16040830188613fe0565b8181036060830152614bc38187613ffe565b90508181036080830152614bd7818661405c565b9050614be660a0830185614620565b614bf360c0830184614620565b98975050505050505050565b6000614c09614c1a565b9050614c158282614f62565b919050565b6000604051905090565b600067ffffffffffffffff821115614c3f57614c3e61509a565b5b602082029050602081019050919050565b600067ffffffffffffffff821115614c6b57614c6a61509a565b5b602082029050602081019050919050565b600067ffffffffffffffff821115614c9757614c9661509a565b5b602082029050602081019050919050565b600067ffffffffffffffff821115614cc357614cc261509a565b5b614ccc826150c9565b9050602081019050919050565b6000819050602082019050919050565b6000819050602082019050919050565b6000819050602082019050919050565b600081519050919050565b600081519050919050565b600081519050919050565b600081519050919050565b600081519050919050565b6000602082019050919050565b6000602082019050919050565b6000602082019050919050565b600082825260208201905092915050565b600082825260208201905092915050565b600082825260208201905092915050565b600081905092915050565b600082825260208201905092915050565b600081905092915050565b6000614dcc82614ee6565b9150614dd783614ee6565b9250827fffffffffffffffffffffffffffffffffffffffffffffffffffffffffffffffff03821115614e0c57614e0b61500d565b5b828201905092915050565b6000614e2282614ee6565b9150614e2d83614ee6565b925082614e3d57614e3c61503c565b5b828204905092915050565b6000614e5382614ee6565b9150614e5e83614ee6565b925082821015614e7157614e7061500d565b5b828203905092915050565b6000614e8782614ec6565b9050919050565b60008115159050919050565b60007fffffffff0000000000000000000000000000000000000000000000000000000082169050919050565b600073ffffffffffffffffffffffffffffffffffffffff82169050919050565b6000819050919050565b600060ff82169050919050565b60005b83811015614f1b578082015181840152602081019050614f00565b83811115614f2a576000848401525b50505050565b60006002820490506001821680614f4857607f821691505b60208210811415614f5c57614f5b61506b565b5b50919050565b614f6b826150c9565b810181811067ffffffffffffffff82111715614f8a57614f8961509a565b5b80604052505050565b6000614f9e82614ee6565b91507fffffffffffffffffffffffffffffffffffffffffffffffffffffffffffffffff821415614fd157614fd061500d565b5b600182019050919050565b6000614fe782614ee6565b9150614ff283614ee6565b9250826150025761500161503c565b5b828206905092915050565b7f4e487b7100000000000000000000000000000000000000000000000000000000600052601160045260246000fd5b7f4e487b7100000000000000000000000000000000000000000000000000000000600052601260045260246000fd5b7f4e487b7100000000000000000000000000000000000000000000000000000000600052602260045260246000fd5b7f4e487b7100000000000000000000000000000000000000000000000000000000600052604160045260246000fd5b6000601f19601f8301169050919050565b7f4944654775696c64506c75733a2074686973206a6f62206973206e6f7420617660008201527f61696c626c6520746f2062652074616b656e0000000000000000000000000000602082015250565b7f4944654775696c64506c75733a2074686973206a6f62206973206e6f7420617660008201527f61696c626c6520746f206265207265706f727465640000000000000000000000602082015250565b7f4944654775696c64506c75733a2073697a6573206f6620736b696c6c2061727260008201527f617920616e6420636572746966696361746520617272617920617265206e6f7460208201527f20657175616c0000000000000000000000000000000000000000000000000000604082015250565b7f4944654775696c64506c75733a206e6f7420656e6f7567682066756e6420746f60008201527f207472616e736665722072657761726400000000000000000000000000000000602082015250565b7f4f776e61626c653a206e6577206f776e657220697320746865207a65726f206160008201527f6464726573730000000000000000000000000000000000000000000000000000602082015250565b7f4944654775696c64506c75733a206e6f7420656e6f7567682066756e6420746f60008201527f2072657475726e20726577617264000000000000000000000000000000000000602082015250565b7f4944654775696c64506c75733a2061737369676e65642061646472657373206960008201527f73206e6f74207468652063616c6c657200000000000000000000000000000000602082015250565b7f4944654775696c64506c75733a2063616c6c65722063616e6e6f74206173736960008201527f676e20746869732074616b6572206164647265737320746f2074686973206a6f60208201527f6200000000000000000000000000000000000000000000000000000000000000604082015250565b7f4944654775696c64506c75733a206e6f7420656e6f7567682066756e64000000600082015250565b7f4944654775696c64506c75733a206e6f7420656e6f7567682066756e6420746f60008201527f207472616e736665722066656500000000000000000000000000000000000000602082015250565b7f4944654775696c64506c75733a20726571756972656d656e742063657274696660008201527f696361746520616464726573736573206c6172676572207468616e203330206160208201527f6464726573730000000000000000000000000000000000000000000000000000604082015250565b7f4944654775696c64506c75733a2074686973206a6f62206973206e6f7420617660008201527f61696c626c6520746f20626520636f6d706c6574656400000000000000000000602082015250565b7f4944654775696c64506c75733a2063616c6c6572206973206e6f74207175616c60008201527f6966696564000000000000000000000000000000000000000000000000000000602082015250565b7f4944654775696c64506c75733a206f6e6c79207374616b65686f6c646572732060008201527f63616e207265706f72742074686973206a6f6200000000000000000000000000602082015250565b7f4944654775696c64506c75733a2055524920717565727920666f72206e6f6e6560008201527f78697374656e74206a6f62000000000000000000000000000000000000000000602082015250565b7f4944654775696c64506c75733a2074686973206a6f62206973206e6f7420617660008201527f61696c626c6520746f206265206a756467656400000000000000000000000000602082015250565b7f4f776e61626c653a2063616c6c6572206973206e6f7420746865206f776e6572600082015250565b7f4944654775696c64506c75733a2063616c6c65722063616e6e6f74206265206360008201527f6c69656e74000000000000000000000000000000000000000000000000000000602082015250565b7f4944654775696c64506c75733a206f6e6c7920636c69656e742063616e20636160008201527f6e63656c2074686973206a6f6200000000000000000000000000000000000000602082015250565b7f4944654775696c64506c75733a206f776e657220717565727920666f72206e6f60008201527f6e6578697374656e7420746f6b656e0000000000000000000000000000000000602082015250565b7f4944654775696c64506c75733a206a6f6220697320616c72656164792063616e60008201527f63656c6c6564206f7220636f6d706c6574656400000000000000000000000000602082015250565b7f4944654775696c64506c75733a2074686973206a6f6220697320616c7265616460008201527f792074616b656e00000000000000000000000000000000000000000000000000602082015250565b7f4944654775696c64506c75733a206f6e6c7920636c69656e742063616e20636f60008201527f6d706c6574652074686973206a6f620000000000000000000000000000000000602082015250565b7f4944654775696c64506c75733a206e6f7420656e6f7567682066756e6420746f60008201527f207472616e736665722066656573000000000000000000000000000000000000602082015250565b7f4944654775696c64506c75733a206d6f7265207468616e20323020736b696c6c60008201527f7320726571756972656420666f72206f6e65206365727469666963617465206160208201527f6464726573730000000000000000000000000000000000000000000000000000604082015250565b7f4944654775696c64506c75733a2063616c6c657220686173206265656e20626160008201527f6e6e656400000000000000000000000000000000000000000000000000000000602082015250565b7f4944654775696c64506c75733a2063616c6c657220697320616c72656164792060008201527f6f63637570696564000000000000000000000000000000000000000000000000602082015250565b7f4944654775696c64506c75733a206f776e657220717565727920666f72206e6f60008201527f6e6578697374656e74206a6f6200000000000000000000000000000000000000602082015250565b7f2f00000000000000000000000000000000000000000000000000000000000000600082015250565b7f4944654775696c64506c75733a20616c6c20736b696c6c73206d75737420737560008201527f70706f72742049536b696c6c4365727469666963617465506c757320696e746560208201527f7266616365000000000000000000000000000000000000000000000000000000604082015250565b615a7181614e7c565b8114615a7c57600080fd5b50565b615a8881614e8e565b8114615a9357600080fd5b50565b615a9f81614e9a565b8114615aaa57600080fd5b50565b615ab681614ee6565b8114615ac157600080fd5b50565b615acd81614ef0565b8114615ad857600080fd5b5056fea26469706673582212206c37703545e04c22f3042d5b64d4fa9c0e749981d03ced27807eec46639f2b0064736f6c6343000804003368747470733a2f2f75732d63656e7472616c312d64656775696c642d323032312e636c6f756466756e6374696f6e732e6e65742f6170702f726561644a6f622f",
  "linkReferences": {
    "contracts/Utils/EIP-55.sol": {
      "ChecksumLib": [
        {
          "length": 20,
          "start": 8420
        }
      ]
    }
  },
  "deployedLinkReferences": {
    "contracts/Utils/EIP-55.sol": {
      "ChecksumLib": [
        {
          "length": 20,
          "start": 7076
        }
      ]
    }
  }
}