{
  "_format": "hh-sol-artifact-1",
  "contractName": "CertificateManagerPlus",
  "sourceName": "contracts/SkillCertificates/V2/CertificateManager+.sol",
  "abi": [
    {
      "inputs": [],
      "stateMutability": "nonpayable",
      "type": "constructor"
    },
    {
      "anonymous": false,
      "inputs": [
        {
          "indexed": true,
          "internalType": "address",
          "name": "student",
          "type": "address"
        },
        {
          "indexed": false,
          "internalType": "uint256",
          "name": "scrollId",
          "type": "uint256"
        },
        {
          "indexed": false,
          "internalType": "uint256",
          "name": "typeId",
          "type": "uint256"
        }
      ],
      "name": "CertificateBurned",
      "type": "event"
    },
    {
      "anonymous": false,
      "inputs": [
        {
          "indexed": true,
          "internalType": "address",
          "name": "student",
          "type": "address"
        },
        {
          "indexed": false,
          "internalType": "uint256",
          "name": "scrollId",
          "type": "uint256"
        },
        {
          "indexed": false,
          "internalType": "uint256",
          "name": "typeId",
          "type": "uint256"
        }
      ],
      "name": "CertificateMinted",
      "type": "event"
    },
    {
      "anonymous": false,
      "inputs": [
        {
          "indexed": true,
          "internalType": "address",
          "name": "previousOwner",
          "type": "address"
        },
        {
          "indexed": true,
          "internalType": "address",
          "name": "newOwner",
          "type": "address"
        }
      ],
      "name": "OwnershipTransferred",
      "type": "event"
    },
    {
      "inputs": [
        {
          "internalType": "uint256",
          "name": "scrollTypeId",
          "type": "uint256"
        }
      ],
      "name": "addCertificate",
      "outputs": [
        {
          "internalType": "bool",
          "name": "",
          "type": "bool"
        }
      ],
      "stateMutability": "nonpayable",
      "type": "function"
    },
    {
      "inputs": [
        {
          "internalType": "address[]",
          "name": "to",
          "type": "address[]"
        },
        {
          "internalType": "uint256[]",
          "name": "scrollOwnedID",
          "type": "uint256[]"
        },
        {
          "internalType": "uint256",
          "name": "typeId",
          "type": "uint256"
        }
      ],
      "name": "batchMint",
      "outputs": [
        {
          "internalType": "bool",
          "name": "",
          "type": "bool"
        }
      ],
      "stateMutability": "nonpayable",
      "type": "function"
    },
    {
      "inputs": [
        {
          "internalType": "uint256",
          "name": "id",
          "type": "uint256"
        },
        {
          "internalType": "uint256",
          "name": "typeId",
          "type": "uint256"
        }
      ],
      "name": "forceBurn",
      "outputs": [
        {
          "internalType": "bool",
          "name": "",
          "type": "bool"
        }
      ],
      "stateMutability": "nonpayable",
      "type": "function"
    },
    {
      "inputs": [
        {
          "internalType": "address",
          "name": "to",
          "type": "address"
        },
        {
          "internalType": "uint256",
          "name": "scrollOwnedID",
          "type": "uint256"
        },
        {
          "internalType": "uint256",
          "name": "typeId",
          "type": "uint256"
        }
      ],
      "name": "mint",
      "outputs": [
        {
          "internalType": "bool",
          "name": "",
          "type": "bool"
        }
      ],
      "stateMutability": "nonpayable",
      "type": "function"
    },
    {
      "inputs": [],
      "name": "name",
      "outputs": [
        {
          "internalType": "string",
          "name": "",
          "type": "string"
        }
      ],
      "stateMutability": "view",
      "type": "function"
    },
    {
      "inputs": [],
      "name": "owner",
      "outputs": [
        {
          "internalType": "address",
          "name": "",
          "type": "address"
        }
      ],
      "stateMutability": "view",
      "type": "function"
    },
    {
      "inputs": [
        {
          "internalType": "uint256",
          "name": "tokenId",
          "type": "uint256"
        },
        {
          "internalType": "uint256",
          "name": "tokenType",
          "type": "uint256"
        }
      ],
      "name": "ownerOfType",
      "outputs": [
        {
          "internalType": "address",
          "name": "",
          "type": "address"
        }
      ],
      "stateMutability": "view",
      "type": "function"
    },
    {
      "inputs": [],
      "name": "renounceOwnership",
      "outputs": [],
      "stateMutability": "nonpayable",
      "type": "function"
    },
    {
      "inputs": [],
      "name": "shop",
      "outputs": [
        {
          "internalType": "address",
          "name": "",
          "type": "address"
        }
      ],
      "stateMutability": "view",
      "type": "function"
    },
    {
      "inputs": [
        {
          "internalType": "bytes4",
          "name": "interfaceId",
          "type": "bytes4"
        }
      ],
      "name": "supportsInterface",
      "outputs": [
        {
          "internalType": "bool",
          "name": "",
          "type": "bool"
        }
      ],
      "stateMutability": "view",
      "type": "function"
    },
    {
      "inputs": [],
      "name": "symbol",
      "outputs": [
        {
          "internalType": "string",
          "name": "",
          "type": "string"
        }
      ],
      "stateMutability": "view",
      "type": "function"
    },
    {
      "inputs": [
        {
          "internalType": "uint256",
          "name": "typeId",
          "type": "uint256"
        }
      ],
      "name": "tokenURI",
      "outputs": [
        {
          "internalType": "string",
          "name": "",
          "type": "string"
        }
      ],
      "stateMutability": "view",
      "type": "function"
    },
    {
      "inputs": [
        {
          "internalType": "address",
          "name": "newOwner",
          "type": "address"
        }
      ],
      "name": "transferOwnership",
      "outputs": [],
      "stateMutability": "nonpayable",
      "type": "function"
    },
    {
      "inputs": [
        {
          "internalType": "uint256",
          "name": "typeId",
          "type": "uint256"
        }
      ],
      "name": "typeAccepted",
      "outputs": [
        {
          "internalType": "uint256",
          "name": "",
          "type": "uint256"
        }
      ],
      "stateMutability": "view",
      "type": "function"
    },
    {
      "inputs": [],
      "name": "typesExisted",
      "outputs": [
        {
          "internalType": "uint256",
          "name": "",
          "type": "uint256"
        }
      ],
      "stateMutability": "view",
      "type": "function"
    },
    {
      "inputs": [
        {
          "internalType": "address",
          "name": "student",
          "type": "address"
        },
        {
          "internalType": "uint256",
          "name": "typeId",
          "type": "uint256"
        }
      ],
      "name": "verify",
      "outputs": [
        {
          "internalType": "bool",
          "name": "",
          "type": "bool"
        }
      ],
      "stateMutability": "view",
      "type": "function"
    }
  ],
  "bytecode": "0x60806040526040518060200160405280600081525060096000820151816000015550503480156200002f57600080fd5b506040518060400160405280600e81526020017f47656e697573204d616e616765720000000000000000000000000000000000008152506040518060400160405280600281526020017f474d000000000000000000000000000000000000000000000000000000000000815250604051806080016040528060488152602001620033be60489139733dd02a0c752c8e44babb7efe4abeb322f4b459bd620000eb620000df620001b260201b60201c565b620001ba60201b60201c565b83600490805190602001906200010392919062000357565b5082600590805190602001906200011c92919062000357565b5081600690805190602001906200013592919062000357565b5080600360006101000a81548173ffffffffffffffffffffffffffffffffffffffff021916908373ffffffffffffffffffffffffffffffffffffffff16021790555050505050620001ac7fa6996df8000000000000000000000000000000000000000000000000000000006200027e60201b60201c565b620004ef565b600033905090565b60008060009054906101000a900473ffffffffffffffffffffffffffffffffffffffff169050816000806101000a81548173ffffffffffffffffffffffffffffffffffffffff021916908373ffffffffffffffffffffffffffffffffffffffff1602179055508173ffffffffffffffffffffffffffffffffffffffff168173ffffffffffffffffffffffffffffffffffffffff167f8be0079c531659141344cd1fd0a4f28419497f9722a3daafe3b4186f6b6457e060405160405180910390a35050565b63ffffffff60e01b817bffffffffffffffffffffffffffffffffffffffffffffffffffffffff19161415620002ea576040517f08c379a0000000000000000000000000000000000000000000000000000000008152600401620002e1906200042e565b60405180910390fd5b6001600a6000837bffffffffffffffffffffffffffffffffffffffffffffffffffffffff19167bffffffffffffffffffffffffffffffffffffffffffffffffffffffff1916815260200190815260200160002060006101000a81548160ff02191690831515021790555050565b828054620003659062000461565b90600052602060002090601f016020900481019282620003895760008555620003d5565b82601f10620003a457805160ff1916838001178555620003d5565b82800160010185558215620003d5579182015b82811115620003d4578251825591602001919060010190620003b7565b5b509050620003e49190620003e8565b5090565b5b8082111562000403576000816000905550600101620003e9565b5090565b600062000416601c8362000450565b91506200042382620004c6565b602082019050919050565b60006020820190508181036000830152620004498162000407565b9050919050565b600082825260208201905092915050565b600060028204905060018216806200047a57607f821691505b6020821081141562000491576200049062000497565b5b50919050565b7f4e487b7100000000000000000000000000000000000000000000000000000000600052602260045260246000fd5b7f4552433136353a20696e76616c696420696e7465726661636520696400000000600082015250565b612ebf80620004ff6000396000f3fe608060405234801561001057600080fd5b50600436106101005760003560e01c80637e28308111610097578063c87b56dd11610066578063c87b56dd146102c5578063d5f9d6c2146102f5578063dcd631c114610325578063f2fde38b1461035557610100565b80637e283081146102295780638da5cb5b1461025957806395d89b4114610277578063a12684611461029557610100565b806334db04a9116100d357806334db04a9146101a157806365d60449146101d15780636704fe9f146101ef578063715018a61461021f57610100565b806301ffc9a71461010557806306fdde03146101355780630881fa0d14610153578063156e29f614610171575b600080fd5b61011f600480360381019061011a9190611fad565b610371565b60405161012c9190612460565b60405180910390f35b61013d6103e9565b60405161014a9190612496565b60405180910390f35b61015b61047b565b6040516101689190612445565b60405180910390f35b61018b60048036038101906101869190611eb6565b6104a5565b6040516101989190612460565b60405180910390f35b6101bb60048036038101906101b69190612017565b610539565b6040516101c89190612618565b60405180910390f35b6101d9610556565b6040516101e69190612618565b60405180910390f35b61020960048036038101906102049190611e7a565b610567565b6040516102169190612460565b60405180910390f35b6102276105cf565b005b610243600480360381019061023e9190611f05565b610657565b6040516102509190612460565b60405180910390f35b610261610814565b60405161026e9190612445565b60405180910390f35b61027f61083d565b60405161028c9190612496565b60405180910390f35b6102af60048036038101906102aa9190612017565b6108cf565b6040516102bc9190612460565b60405180910390f35b6102df60048036038101906102da9190612017565b61095f565b6040516102ec9190612496565b60405180910390f35b61030f600480360381019061030a9190612069565b610ae9565b60405161031c9190612445565b60405180910390f35b61033f600480360381019061033a9190612069565b610b81565b60405161034c9190612460565b60405180910390f35b61036f600480360381019061036a9190611e28565b610c13565b005b600061037c82610d0b565b806103e25750600a6000837bffffffffffffffffffffffffffffffffffffffffffffffffffffffff19167bffffffffffffffffffffffffffffffffffffffffffffffffffffffff1916815260200190815260200160002060009054906101000a900460ff165b9050919050565b6060600480546103f8906128a9565b80601f0160208091040260200160405190810160405280929190818152602001828054610424906128a9565b80156104715780601f1061044657610100808354040283529160200191610471565b820191906000526020600020905b81548152906001019060200180831161045457829003601f168201915b5050505050905090565b6000600360009054906101000a900473ffffffffffffffffffffffffffffffffffffffff16905090565b60006104af610d75565b73ffffffffffffffffffffffffffffffffffffffff166104cd610814565b73ffffffffffffffffffffffffffffffffffffffff1614610523576040517f08c379a000000000000000000000000000000000000000000000000000000000815260040161051a90612598565b60405180910390fd5b61052e848484610d7d565b600190509392505050565b600060076000838152602001908152602001600020549050919050565b600061056260096112db565b905090565b60006002600083815260200190815260200160002060008473ffffffffffffffffffffffffffffffffffffffff1673ffffffffffffffffffffffffffffffffffffffff16815260200190815260200160002060009054906101000a900460ff16905092915050565b6105d7610d75565b73ffffffffffffffffffffffffffffffffffffffff166105f5610814565b73ffffffffffffffffffffffffffffffffffffffff161461064b576040517f08c379a000000000000000000000000000000000000000000000000000000000815260040161064290612598565b60405180910390fd5b61065560006112e9565b565b6000610661610d75565b73ffffffffffffffffffffffffffffffffffffffff1661067f610814565b73ffffffffffffffffffffffffffffffffffffffff16146106d5576040517f08c379a00000000000000000000000000000000000000000000000000000000081526004016106cc90612598565b60405180910390fd5b6103e884511061071a576040517f08c379a000000000000000000000000000000000000000000000000000000000815260040161071190612518565b60405180910390fd5b825184511461075e576040517f08c379a000000000000000000000000000000000000000000000000000000000815260040161075590612558565b60405180910390fd5b60005b8451811015610808576107f58582815181106107a6577f4e487b7100000000000000000000000000000000000000000000000000000000600052603260045260246000fd5b60200260200101518583815181106107e7577f4e487b7100000000000000000000000000000000000000000000000000000000600052603260045260246000fd5b602002602001015185610d7d565b80806108009061290c565b915050610761565b50600190509392505050565b60008060009054906101000a900473ffffffffffffffffffffffffffffffffffffffff16905090565b60606005805461084c906128a9565b80601f0160208091040260200160405190810160405280929190818152602001828054610878906128a9565b80156108c55780601f1061089a576101008083540402835291602001916108c5565b820191906000526020600020905b8154815290600101906020018083116108a857829003601f168201915b5050505050905090565b60006108d9610d75565b73ffffffffffffffffffffffffffffffffffffffff166108f7610814565b73ffffffffffffffffffffffffffffffffffffffff161461094d576040517f08c379a000000000000000000000000000000000000000000000000000000000815260040161094490612598565b60405180910390fd5b610956826113ad565b60019050919050565b606061096a8261159f565b6109a9576040517f08c379a00000000000000000000000000000000000000000000000000000000081526004016109a090612538565b60405180910390fd5b60006109b36115b4565b905060008151116109d35760405180602001604052806000815250610ae1565b803073ffffffffffffffffffffffffffffffffffffffff1673__$124e1a4c5367a62965a30c61a01a42cb5d$__637cd6f8ff90916040518263ffffffff1660e01b8152600401610a23919061242a565b60006040518083038186803b158015610a3b57600080fd5b505af4158015610a4f573d6000803e3d6000fd5b505050506040513d6000823e3d601f19601f82011682018060405250810190610a789190611fd6565b610a8185611646565b604051602001610a919190612408565b604051602081830303815290604052604051602001610ab19291906123e4565b604051602081830303815290604052604051602001610ad19291906123e4565b6040516020818303038152906040525b915050919050565b6000610af583836117f3565b610b34576040517f08c379a0000000000000000000000000000000000000000000000000000000008152600401610b2b90612538565b60405180910390fd5b60016000838152602001908152602001600020600084815260200190815260200160002060009054906101000a900473ffffffffffffffffffffffffffffffffffffffff16905092915050565b6000610b8b610d75565b73ffffffffffffffffffffffffffffffffffffffff16610ba9610814565b73ffffffffffffffffffffffffffffffffffffffff1614610bff576040517f08c379a0000000000000000000000000000000000000000000000000000000008152600401610bf690612598565b60405180910390fd5b610c098383611871565b6001905092915050565b610c1b610d75565b73ffffffffffffffffffffffffffffffffffffffff16610c39610814565b73ffffffffffffffffffffffffffffffffffffffff1614610c8f576040517f08c379a0000000000000000000000000000000000000000000000000000000008152600401610c8690612598565b60405180910390fd5b600073ffffffffffffffffffffffffffffffffffffffff168173ffffffffffffffffffffffffffffffffffffffff161415610cff576040517f08c379a0000000000000000000000000000000000000000000000000000000008152600401610cf6906124f8565b60405180910390fd5b610d08816112e9565b50565b60007f01ffc9a7000000000000000000000000000000000000000000000000000000007bffffffffffffffffffffffffffffffffffffffffffffffffffffffff1916827bffffffffffffffffffffffffffffffffffffffffffffffffffffffff1916149050919050565b600033905090565b610d868161159f565b610dc5576040517f08c379a0000000000000000000000000000000000000000000000000000000008152600401610dbc906125f8565b60405180910390fd5b610e307fa32d931a00000000000000000000000000000000000000000000000000000000600360009054906101000a900473ffffffffffffffffffffffffffffffffffffffff1673ffffffffffffffffffffffffffffffffffffffff16611a6390919063ffffffff16565b610e6f576040517f08c379a0000000000000000000000000000000000000000000000000000000008152600401610e66906124b8565b60405180910390fd5b8273ffffffffffffffffffffffffffffffffffffffff16600360009054906101000a900473ffffffffffffffffffffffffffffffffffffffff1673ffffffffffffffffffffffffffffffffffffffff16636352211e846040518263ffffffff1660e01b8152600401610ee19190612618565b60206040518083038186803b158015610ef957600080fd5b505afa158015610f0d573d6000803e3d6000fd5b505050506040513d601f19601f82011682018060405250810190610f319190611e51565b73ffffffffffffffffffffffffffffffffffffffff1614610f87576040517f08c379a0000000000000000000000000000000000000000000000000000000008152600401610f7e906124d8565b60405180910390fd5b6000600360009054906101000a900473ffffffffffffffffffffffffffffffffffffffff1673ffffffffffffffffffffffffffffffffffffffff1663cb9d6aa5846040518263ffffffff1660e01b8152600401610fe49190612618565b60e06040518083038186803b158015610ffc57600080fd5b505afa158015611010573d6000803e3d6000fd5b505050506040513d601f19601f8201168201806040525081019061103491906120a5565b505050505091505081811461107e576040517f08c379a0000000000000000000000000000000000000000000000000000000008152600401611075906125d8565b60405180910390fd5b600360009054906101000a900473ffffffffffffffffffffffffffffffffffffffff1673ffffffffffffffffffffffffffffffffffffffff166342966c68846040518263ffffffff1660e01b81526004016110d99190612618565b602060405180830381600087803b1580156110f357600080fd5b505af1158015611107573d6000803e3d6000fd5b505050506040513d601f19601f8201168201806040525081019061112b9190611f84565b61116a576040517f08c379a0000000000000000000000000000000000000000000000000000000008152600401611161906125b8565b60405180910390fd5b60016002600084815260200190815260200160002060008673ffffffffffffffffffffffffffffffffffffffff1673ffffffffffffffffffffffffffffffffffffffff16815260200190815260200160002060006101000a81548160ff02191690831515021790555083600160008481526020019081526020016000206000611204600860008781526020019081526020016000206112db565b815260200190815260200160002060006101000a81548173ffffffffffffffffffffffffffffffffffffffff021916908373ffffffffffffffffffffffffffffffffffffffff1602179055508373ffffffffffffffffffffffffffffffffffffffff167ffb2a8276c788bcdeaec6f4ec55f21fc636460802e63cb7e05337309232a1b9056112a3600860008681526020019081526020016000206112db565b846040516112b2929190612633565b60405180910390a26112d560086000848152602001908152602001600020611a88565b50505050565b600081600001549050919050565b60008060009054906101000a900473ffffffffffffffffffffffffffffffffffffffff169050816000806101000a81548173ffffffffffffffffffffffffffffffffffffffff021916908373ffffffffffffffffffffffffffffffffffffffff1602179055508173ffffffffffffffffffffffffffffffffffffffff168173ffffffffffffffffffffffffffffffffffffffff167f8be0079c531659141344cd1fd0a4f28419497f9722a3daafe3b4186f6b6457e060405160405180910390a35050565b6114187fa32d931a00000000000000000000000000000000000000000000000000000000600360009054906101000a900473ffffffffffffffffffffffffffffffffffffffff1673ffffffffffffffffffffffffffffffffffffffff16611a6390919063ffffffff16565b611457576040517f08c379a000000000000000000000000000000000000000000000000000000000815260040161144e906124b8565b60405180910390fd5b80600360009054906101000a900473ffffffffffffffffffffffffffffffffffffffff1673ffffffffffffffffffffffffffffffffffffffff1663d988ca166040518163ffffffff1660e01b815260040160206040518083038186803b1580156114c057600080fd5b505afa1580156114d4573d6000803e3d6000fd5b505050506040513d601f19601f820116820180604052508101906114f89190612040565b11611538576040517f08c379a000000000000000000000000000000000000000000000000000000000815260040161152f90612578565b60405180910390fd5b806007600061154760096112db565b815260200190815260200160002081905550604051806020016040528060008152506008600061157760096112db565b81526020019081526020016000206000820151816000015590505061159c6009611a88565b50565b6000816115ac60096112db565b119050919050565b6060600680546115c3906128a9565b80601f01602080910402602001604051908101604052809291908181526020018280546115ef906128a9565b801561163c5780601f106116115761010080835404028352916020019161163c565b820191906000526020600020905b81548152906001019060200180831161161f57829003601f168201915b5050505050905090565b6060600082141561168e576040518060400160405280600181526020017f300000000000000000000000000000000000000000000000000000000000000081525090506117ee565b600082905060005b600082146116c05780806116a99061290c565b915050600a826116b9919061279d565b9150611696565b60008167ffffffffffffffff811115611702577f4e487b7100000000000000000000000000000000000000000000000000000000600052604160045260246000fd5b6040519080825280601f01601f1916602001820160405280156117345781602001600182028036833780820191505090505b5090505b600085146117e75760018261174d91906127ce565b9150600a8561175c9190612955565b60306117689190612747565b60f81b8183815181106117a4577f4e487b7100000000000000000000000000000000000000000000000000000000600052603260045260246000fd5b60200101907effffffffffffffffffffffffffffffffffffffffffffffffffffffffffffff1916908160001a905350600a856117e0919061279d565b9450611738565b8093505050505b919050565b60008073ffffffffffffffffffffffffffffffffffffffff1660016000848152602001908152602001600020600085815260200190815260200160002060009054906101000a900473ffffffffffffffffffffffffffffffffffffffff1673ffffffffffffffffffffffffffffffffffffffff161415905092915050565b61187b82826117f3565b6118ba576040517f08c379a00000000000000000000000000000000000000000000000000000000081526004016118b190612538565b60405180910390fd5b60016000828152602001908152602001600020600083815260200190815260200160002060009054906101000a900473ffffffffffffffffffffffffffffffffffffffff1673ffffffffffffffffffffffffffffffffffffffff167fc8aa53d9c07ab628ef90e81a77d7c6560fbd975d5b7fa7886e86b58ecd4c76418383604051611946929190612633565b60405180910390a2600060026000838152602001908152602001600020600060016000858152602001908152602001600020600086815260200190815260200160002060009054906101000a900473ffffffffffffffffffffffffffffffffffffffff1673ffffffffffffffffffffffffffffffffffffffff1673ffffffffffffffffffffffffffffffffffffffff16815260200190815260200160002060006101000a81548160ff021916908315150217905550600060016000838152602001908152602001600020600084815260200190815260200160002060006101000a81548173ffffffffffffffffffffffffffffffffffffffff021916908373ffffffffffffffffffffffffffffffffffffffff1602179055505050565b6000611a6e83611a9e565b8015611a805750611a7f8383611aeb565b5b905092915050565b6001816000016000828254019250508190555050565b6000611aca827f01ffc9a700000000000000000000000000000000000000000000000000000000611aeb565b8015611ae45750611ae28263ffffffff60e01b611aeb565b155b9050919050565b6000806301ffc9a760e01b83604051602401611b07919061247b565b604051602081830303815290604052907bffffffffffffffffffffffffffffffffffffffffffffffffffffffff19166020820180517bffffffffffffffffffffffffffffffffffffffffffffffffffffffff838183161783525050505090506000808573ffffffffffffffffffffffffffffffffffffffff1661753084604051611b9191906123cd565b6000604051808303818686fa925050503d8060008114611bcd576040519150601f19603f3d011682016040523d82523d6000602084013e611bd2565b606091505b5091509150602081511015611bed5760009350505050611c10565b818015611c0a575080806020019051810190611c099190611f84565b5b93505050505b92915050565b6000611c29611c2484612681565b61265c565b90508083825260208201905082856020860282011115611c4857600080fd5b60005b85811015611c785781611c5e8882611d2c565b845260208401935060208301925050600181019050611c4b565b5050509392505050565b6000611c95611c90846126ad565b61265c565b90508083825260208201905082856020860282011115611cb457600080fd5b60005b85811015611ce45781611cca8882611dfe565b845260208401935060208301925050600181019050611cb7565b5050509392505050565b6000611d01611cfc846126d9565b61265c565b905082815260208101848484011115611d1957600080fd5b611d24848285612876565b509392505050565b600081359050611d3b81612e2d565b92915050565b600081519050611d5081612e2d565b92915050565b600082601f830112611d6757600080fd5b8135611d77848260208601611c16565b91505092915050565b600082601f830112611d9157600080fd5b8135611da1848260208601611c82565b91505092915050565b600081519050611db981612e44565b92915050565b600081359050611dce81612e5b565b92915050565b600082601f830112611de557600080fd5b8151611df5848260208601611cee565b91505092915050565b600081359050611e0d81612e72565b92915050565b600081519050611e2281612e72565b92915050565b600060208284031215611e3a57600080fd5b6000611e4884828501611d2c565b91505092915050565b600060208284031215611e6357600080fd5b6000611e7184828501611d41565b91505092915050565b60008060408385031215611e8d57600080fd5b6000611e9b85828601611d2c565b9250506020611eac85828601611dfe565b9150509250929050565b600080600060608486031215611ecb57600080fd5b6000611ed986828701611d2c565b9350506020611eea86828701611dfe565b9250506040611efb86828701611dfe565b9150509250925092565b600080600060608486031215611f1a57600080fd5b600084013567ffffffffffffffff811115611f3457600080fd5b611f4086828701611d56565b935050602084013567ffffffffffffffff811115611f5d57600080fd5b611f6986828701611d80565b9250506040611f7a86828701611dfe565b9150509250925092565b600060208284031215611f9657600080fd5b6000611fa484828501611daa565b91505092915050565b600060208284031215611fbf57600080fd5b6000611fcd84828501611dbf565b91505092915050565b600060208284031215611fe857600080fd5b600082015167ffffffffffffffff81111561200257600080fd5b61200e84828501611dd4565b91505092915050565b60006020828403121561202957600080fd5b600061203784828501611dfe565b91505092915050565b60006020828403121561205257600080fd5b600061206084828501611e13565b91505092915050565b6000806040838503121561207c57600080fd5b600061208a85828601611dfe565b925050602061209b85828601611dfe565b9150509250929050565b600080600080600080600060e0888a0312156120c057600080fd5b60006120ce8a828b01611e13565b97505060206120df8a828b01611e13565b96505060406120f08a828b01611e13565b95505060606121018a828b01611e13565b94505060806121128a828b01611d41565b93505060a06121238a828b01611daa565b92505060c06121348a828b01611daa565b91505092959891949750929550565b61214c81612802565b82525050565b61215b81612802565b82525050565b61216a81612814565b82525050565b61217981612820565b82525050565b600061218a8261270a565b6121948185612720565b93506121a4818560208601612876565b80840191505092915050565b60006121bb82612715565b6121c5818561272b565b93506121d5818560208601612876565b6121de81612a42565b840191505092915050565b60006121f482612715565b6121fe818561273c565b935061220e818560208601612876565b80840191505092915050565b600061222760458361272b565b915061223282612a53565b606082019050919050565b600061224a603a8361272b565b915061225582612ac8565b604082019050919050565b600061226d60268361272b565b915061227882612b17565b604082019050919050565b600061229060378361272b565b915061229b82612b66565b604082019050919050565b60006122b360348361272b565b91506122be82612bb5565b604082019050919050565b60006122d660288361272b565b91506122e182612c04565b604082019050919050565b60006122f960408361272b565b915061230482612c53565b604082019050919050565b600061231c60208361272b565b915061232782612ca2565b602082019050919050565b600061233f60298361272b565b915061234a82612ccb565b604082019050919050565b6000612362604f8361272b565b915061236d82612d1a565b606082019050919050565b600061238560438361272b565b915061239082612d8f565b606082019050919050565b60006123a860018361273c565b91506123b382612e04565b600182019050919050565b6123c78161286c565b82525050565b60006123d9828461217f565b915081905092915050565b60006123f082856121e9565b91506123fc828461217f565b91508190509392505050565b60006124138261239b565b915061241f82846121e9565b915081905092915050565b600060208201905061243f6000830184612152565b92915050565b600060208201905061245a6000830184612143565b92915050565b60006020820190506124756000830184612161565b92915050565b60006020820190506124906000830184612170565b92915050565b600060208201905081810360008301526124b081846121b0565b905092915050565b600060208201905081810360008301526124d18161221a565b9050919050565b600060208201905081810360008301526124f18161223d565b9050919050565b6000602082019050818103600083015261251181612260565b9050919050565b6000602082019050818103600083015261253181612283565b9050919050565b60006020820190508181036000830152612551816122a6565b9050919050565b60006020820190508181036000830152612571816122c9565b9050919050565b60006020820190508181036000830152612591816122ec565b9050919050565b600060208201905081810360008301526125b18161230f565b9050919050565b600060208201905081810360008301526125d181612332565b9050919050565b600060208201905081810360008301526125f181612355565b9050919050565b6000602082019050818103600083015261261181612378565b9050919050565b600060208201905061262d60008301846123be565b92915050565b600060408201905061264860008301856123be565b61265560208301846123be565b9392505050565b6000612666612677565b905061267282826128db565b919050565b6000604051905090565b600067ffffffffffffffff82111561269c5761269b612a13565b5b602082029050602081019050919050565b600067ffffffffffffffff8211156126c8576126c7612a13565b5b602082029050602081019050919050565b600067ffffffffffffffff8211156126f4576126f3612a13565b5b6126fd82612a42565b9050602081019050919050565b600081519050919050565b600081519050919050565b600081905092915050565b600082825260208201905092915050565b600081905092915050565b60006127528261286c565b915061275d8361286c565b9250827fffffffffffffffffffffffffffffffffffffffffffffffffffffffffffffffff0382111561279257612791612986565b5b828201905092915050565b60006127a88261286c565b91506127b38361286c565b9250826127c3576127c26129b5565b5b828204905092915050565b60006127d98261286c565b91506127e48361286c565b9250828210156127f7576127f6612986565b5b828203905092915050565b600061280d8261284c565b9050919050565b60008115159050919050565b60007fffffffff0000000000000000000000000000000000000000000000000000000082169050919050565b600073ffffffffffffffffffffffffffffffffffffffff82169050919050565b6000819050919050565b60005b83811015612894578082015181840152602081019050612879565b838111156128a3576000848401525b50505050565b600060028204905060018216806128c157607f821691505b602082108114156128d5576128d46129e4565b5b50919050565b6128e482612a42565b810181811067ffffffffffffffff8211171561290357612902612a13565b5b80604052505050565b60006129178261286c565b91507fffffffffffffffffffffffffffffffffffffffffffffffffffffffffffffffff82141561294a57612949612986565b5b600182019050919050565b60006129608261286c565b915061296b8361286c565b92508261297b5761297a6129b5565b5b828206905092915050565b7f4e487b7100000000000000000000000000000000000000000000000000000000600052601160045260246000fd5b7f4e487b7100000000000000000000000000000000000000000000000000000000600052601260045260246000fd5b7f4e487b7100000000000000000000000000000000000000000000000000000000600052602260045260246000fd5b7f4e487b7100000000000000000000000000000000000000000000000000000000600052604160045260246000fd5b6000601f19601f8301169050919050565b7f49536b696c6c43657274696669636174653a20494d616769635363726f6c6c7360008201527f506c7573206973206e6f7420737570706f72746564206279207468697320616460208201527f6472657373000000000000000000000000000000000000000000000000000000604082015250565b7f49536b696c6c43657274696669636174653a2063616e6e6f74206275726e207460008201527f686973207363726f6c6c20776974682074686973206f776e6572000000000000602082015250565b7f4f776e61626c653a206e6577206f776e657220697320746865207a65726f206160008201527f6464726573730000000000000000000000000000000000000000000000000000602082015250565b7f49536b696c6c43657274696669636174653a2063616e6e6f74206d696e74206d60008201527f6f7265207468616e203130303020616464726573736573000000000000000000602082015250565b7f49536b696c6c43657274696669636174653a206f776e6572207175657279206660008201527f6f72206e6f6e6578697374656e7420746f6b656e000000000000000000000000602082015250565b7f49536b696c6c43657274696669636174653a2061727261792073697a6573206e60008201527f6f7420657175616c000000000000000000000000000000000000000000000000602082015250565b7f49536b696c6c43657274696669636174653a207468652073686f7020646f657360008201527f206e6f7420686176652074686174206d616e79207363726f6c6c207479706573602082015250565b7f4f776e61626c653a2063616c6c6572206973206e6f7420746865206f776e6572600082015250565b7f49536b696c6c43657274696669636174653a2063616e6e6f74206275726e207460008201527f6865207363726f6c6c0000000000000000000000000000000000000000000000602082015250565b7f49536b696c6c43657274696669636174653a2063616e6e6f74206275726e207460008201527f6869732074797065206f66207363726f6c6c20666f722074686973207479706560208201527f206f662063657274696669636174650000000000000000000000000000000000604082015250565b7f49536b696c6c43657274696669636174653a206f776e6572207175657279206660008201527f6f72206e6f6e2d6578697374696e672074797065206f6620636572746966696360208201527f6174650000000000000000000000000000000000000000000000000000000000604082015250565b7f2f00000000000000000000000000000000000000000000000000000000000000600082015250565b612e3681612802565b8114612e4157600080fd5b50565b612e4d81612814565b8114612e5857600080fd5b50565b612e6481612820565b8114612e6f57600080fd5b50565b612e7b8161286c565b8114612e8657600080fd5b5056fea2646970667358221220d6a973cff15bab27a96a4564218e0fa83a6ceac223084b69f18b8dd8afd2a87664736f6c6343000804003368747470733a2f2f75732d63656e7472616c312d64656775696c642d323032312e636c6f756466756e6374696f6e732e6e65742f6170702f7265616443657274696669636174652f",
  "linkReferences": {
    "contracts/Utils/EIP-55.sol": {
      "ChecksumLib": [
        {
          "length": 20,
          "start": 3820
        }
      ]
    }
  },
  "deployedLinkReferences": {
    "contracts/Utils/EIP-55.sol": {
      "ChecksumLib": [
        {
          "length": 20,
          "start": 2541
        }
      ]
    }
  }
}