{
  "_format": "hh-sol-artifact-1",
  "contractName": "MagicShopPlus",
  "sourceName": "contracts/MagicShop/V2/MagicShop+.sol",
  "abi": [
    {
      "inputs": [],
      "stateMutability": "nonpayable",
      "type": "constructor"
    },
    {
      "anonymous": false,
      "inputs": [
        {
          "indexed": true,
          "internalType": "address",
          "name": "account",
          "type": "address"
        },
        {
          "indexed": false,
          "internalType": "bool",
          "name": "status",
          "type": "bool"
        }
      ],
      "name": "ApprovalForCM",
      "type": "event"
    },
    {
      "anonymous": false,
      "inputs": [
        {
          "indexed": true,
          "internalType": "address",
          "name": "previousOwner",
          "type": "address"
        },
        {
          "indexed": true,
          "internalType": "address",
          "name": "newOwner",
          "type": "address"
        }
      ],
      "name": "OwnershipTransferred",
      "type": "event"
    },
    {
      "anonymous": false,
      "inputs": [
        {
          "indexed": true,
          "internalType": "uint256",
          "name": "scrollType",
          "type": "uint256"
        }
      ],
      "name": "ScrollAdded",
      "type": "event"
    },
    {
      "anonymous": false,
      "inputs": [
        {
          "indexed": false,
          "internalType": "uint256",
          "name": "scrollId",
          "type": "uint256"
        },
        {
          "indexed": true,
          "internalType": "uint256",
          "name": "scrollType",
          "type": "uint256"
        },
        {
          "indexed": true,
          "internalType": "address",
          "name": "buyer",
          "type": "address"
        }
      ],
      "name": "ScrollBought",
      "type": "event"
    },
    {
      "anonymous": false,
      "inputs": [
        {
          "indexed": false,
          "internalType": "uint256",
          "name": "scrollId",
          "type": "uint256"
        },
        {
          "indexed": true,
          "internalType": "address",
          "name": "certificateManager",
          "type": "address"
        }
      ],
      "name": "ScrollBurned",
      "type": "event"
    },
    {
      "anonymous": false,
      "inputs": [
        {
          "indexed": false,
          "internalType": "uint256",
          "name": "scrollId",
          "type": "uint256"
        },
        {
          "indexed": true,
          "internalType": "bytes32",
          "name": "passcode",
          "type": "bytes32"
        }
      ],
      "name": "ScrollConsumed",
      "type": "event"
    },
    {
      "inputs": [
        {
          "internalType": "uint256",
          "name": "certificateId",
          "type": "uint256"
        },
        {
          "internalType": "address",
          "name": "prerequisite",
          "type": "address"
        },
        {
          "internalType": "bool",
          "name": "lessonIncluded",
          "type": "bool"
        },
        {
          "internalType": "bool",
          "name": "hasPrerequisite",
          "type": "bool"
        },
        {
          "internalType": "uint256",
          "name": "price",
          "type": "uint256"
        }
      ],
      "name": "addScroll",
      "outputs": [
        {
          "internalType": "bool",
          "name": "",
          "type": "bool"
        }
      ],
      "stateMutability": "nonpayable",
      "type": "function"
    },
    {
      "inputs": [
        {
          "internalType": "address",
          "name": "account",
          "type": "address"
        }
      ],
      "name": "balanceOfAll",
      "outputs": [
        {
          "internalType": "uint256[]",
          "name": "",
          "type": "uint256[]"
        }
      ],
      "stateMutability": "view",
      "type": "function"
    },
    {
      "inputs": [
        {
          "internalType": "address",
          "name": "account",
          "type": "address"
        },
        {
          "internalType": "uint256",
          "name": "id",
          "type": "uint256"
        }
      ],
      "name": "balanceOfOne",
      "outputs": [
        {
          "internalType": "uint256",
          "name": "",
          "type": "uint256"
        }
      ],
      "stateMutability": "view",
      "type": "function"
    },
    {
      "inputs": [
        {
          "internalType": "address",
          "name": "account",
          "type": "address"
        }
      ],
      "name": "balanceUserOwned",
      "outputs": [
        {
          "internalType": "uint256[]",
          "name": "",
          "type": "uint256[]"
        }
      ],
      "stateMutability": "view",
      "type": "function"
    },
    {
      "inputs": [
        {
          "internalType": "uint256",
          "name": "id",
          "type": "uint256"
        }
      ],
      "name": "burn",
      "outputs": [
        {
          "internalType": "bool",
          "name": "",
          "type": "bool"
        }
      ],
      "stateMutability": "nonpayable",
      "type": "function"
    },
    {
      "inputs": [
        {
          "internalType": "uint256",
          "name": "scrollType",
          "type": "uint256"
        }
      ],
      "name": "buyScroll",
      "outputs": [
        {
          "internalType": "bool",
          "name": "",
          "type": "bool"
        }
      ],
      "stateMutability": "nonpayable",
      "type": "function"
    },
    {
      "inputs": [
        {
          "internalType": "uint256",
          "name": "id",
          "type": "uint256"
        },
        {
          "internalType": "string",
          "name": "data",
          "type": "string"
        }
      ],
      "name": "consume",
      "outputs": [
        {
          "internalType": "bool",
          "name": "",
          "type": "bool"
        }
      ],
      "stateMutability": "nonpayable",
      "type": "function"
    },
    {
      "inputs": [],
      "name": "deguildCoin",
      "outputs": [
        {
          "internalType": "address",
          "name": "",
          "type": "address"
        }
      ],
      "stateMutability": "view",
      "type": "function"
    },
    {
      "inputs": [
        {
          "internalType": "uint256",
          "name": "id",
          "type": "uint256"
        }
      ],
      "name": "forceCancel",
      "outputs": [
        {
          "internalType": "bool",
          "name": "",
          "type": "bool"
        }
      ],
      "stateMutability": "nonpayable",
      "type": "function"
    },
    {
      "inputs": [
        {
          "internalType": "address",
          "name": "manager",
          "type": "address"
        }
      ],
      "name": "isCertificateManager",
      "outputs": [
        {
          "internalType": "bool",
          "name": "",
          "type": "bool"
        }
      ],
      "stateMutability": "view",
      "type": "function"
    },
    {
      "inputs": [
        {
          "internalType": "uint256",
          "name": "scrollType",
          "type": "uint256"
        },
        {
          "internalType": "address",
          "name": "buyer",
          "type": "address"
        }
      ],
      "name": "isPurchasableScroll",
      "outputs": [
        {
          "internalType": "bool",
          "name": "",
          "type": "bool"
        }
      ],
      "stateMutability": "view",
      "type": "function"
    },
    {
      "inputs": [],
      "name": "name",
      "outputs": [
        {
          "internalType": "string",
          "name": "",
          "type": "string"
        }
      ],
      "stateMutability": "view",
      "type": "function"
    },
    {
      "inputs": [],
      "name": "numberOfScrollTypes",
      "outputs": [
        {
          "internalType": "uint256",
          "name": "",
          "type": "uint256"
        }
      ],
      "stateMutability": "view",
      "type": "function"
    },
    {
      "inputs": [],
      "name": "owner",
      "outputs": [
        {
          "internalType": "address",
          "name": "",
          "type": "address"
        }
      ],
      "stateMutability": "view",
      "type": "function"
    },
    {
      "inputs": [
        {
          "internalType": "uint256",
          "name": "id",
          "type": "uint256"
        }
      ],
      "name": "ownerOf",
      "outputs": [
        {
          "internalType": "address",
          "name": "",
          "type": "address"
        }
      ],
      "stateMutability": "view",
      "type": "function"
    },
    {
      "inputs": [],
      "name": "renounceOwnership",
      "outputs": [],
      "stateMutability": "nonpayable",
      "type": "function"
    },
    {
      "inputs": [
        {
          "internalType": "uint256",
          "name": "tokenId",
          "type": "uint256"
        }
      ],
      "name": "scrollInfo",
      "outputs": [
        {
          "internalType": "uint256",
          "name": "",
          "type": "uint256"
        },
        {
          "internalType": "uint256",
          "name": "",
          "type": "uint256"
        },
        {
          "internalType": "uint256",
          "name": "",
          "type": "uint256"
        },
        {
          "internalType": "uint256",
          "name": "",
          "type": "uint256"
        },
        {
          "internalType": "address",
          "name": "",
          "type": "address"
        },
        {
          "internalType": "bool",
          "name": "",
          "type": "bool"
        },
        {
          "internalType": "bool",
          "name": "",
          "type": "bool"
        }
      ],
      "stateMutability": "view",
      "type": "function"
    },
    {
      "inputs": [
        {
          "internalType": "uint256",
          "name": "typeId",
          "type": "uint256"
        }
      ],
      "name": "scrollTypeInfo",
      "outputs": [
        {
          "internalType": "uint256",
          "name": "",
          "type": "uint256"
        },
        {
          "internalType": "uint256",
          "name": "",
          "type": "uint256"
        },
        {
          "internalType": "uint256",
          "name": "",
          "type": "uint256"
        },
        {
          "internalType": "address",
          "name": "",
          "type": "address"
        },
        {
          "internalType": "bool",
          "name": "",
          "type": "bool"
        },
        {
          "internalType": "bool",
          "name": "",
          "type": "bool"
        },
        {
          "internalType": "bool",
          "name": "",
          "type": "bool"
        }
      ],
      "stateMutability": "view",
      "type": "function"
    },
    {
      "inputs": [],
      "name": "scrollTypes",
      "outputs": [
        {
          "internalType": "uint256[]",
          "name": "",
          "type": "uint256[]"
        }
      ],
      "stateMutability": "view",
      "type": "function"
    },
    {
      "inputs": [
        {
          "internalType": "uint256",
          "name": "scrollType",
          "type": "uint256"
        }
      ],
      "name": "sealScroll",
      "outputs": [
        {
          "internalType": "bool",
          "name": "",
          "type": "bool"
        }
      ],
      "stateMutability": "nonpayable",
      "type": "function"
    },
    {
      "inputs": [
        {
          "internalType": "address",
          "name": "manager",
          "type": "address"
        },
        {
          "internalType": "bool",
          "name": "status",
          "type": "bool"
        }
      ],
      "name": "setCertificateManager",
      "outputs": [
        {
          "internalType": "bool",
          "name": "",
          "type": "bool"
        }
      ],
      "stateMutability": "nonpayable",
      "type": "function"
    },
    {
      "inputs": [
        {
          "internalType": "bytes4",
          "name": "interfaceId",
          "type": "bytes4"
        }
      ],
      "name": "supportsInterface",
      "outputs": [
        {
          "internalType": "bool",
          "name": "",
          "type": "bool"
        }
      ],
      "stateMutability": "view",
      "type": "function"
    },
    {
      "inputs": [],
      "name": "symbol",
      "outputs": [
        {
          "internalType": "string",
          "name": "",
          "type": "string"
        }
      ],
      "stateMutability": "view",
      "type": "function"
    },
    {
      "inputs": [
        {
          "internalType": "uint256",
          "name": "tokenTypeId",
          "type": "uint256"
        }
      ],
      "name": "tokenTypeURI",
      "outputs": [
        {
          "internalType": "string",
          "name": "",
          "type": "string"
        }
      ],
      "stateMutability": "view",
      "type": "function"
    },
    {
      "inputs": [
        {
          "internalType": "uint256",
          "name": "tokenId",
          "type": "uint256"
        }
      ],
      "name": "tokenURI",
      "outputs": [
        {
          "internalType": "string",
          "name": "",
          "type": "string"
        }
      ],
      "stateMutability": "view",
      "type": "function"
    },
    {
      "inputs": [
        {
          "internalType": "address",
          "name": "newOwner",
          "type": "address"
        }
      ],
      "name": "transferOwnership",
      "outputs": [],
      "stateMutability": "nonpayable",
      "type": "function"
    }
  ],
  "bytecode": "0x608060405260405180602001604052806000815250600a60008201518160000155505060405180602001604052806000815250600b6000820151816000015550503480156200004d57600080fd5b506040518060400160405280601181526020017f4d6f6e612773204d616769632053686f700000000000000000000000000000008152506040518060400160405280600381526020017f4d4d53000000000000000000000000000000000000000000000000000000000081525060405180608001604052806048815260200162004aca60489139734312d992940d0b110525f553160c9984b77d1ef462000109620000fd6200021160201b60201c565b6200021960201b60201c565b836007908051906020019062000121929190620003b6565b5082600890805190602001906200013a929190620003b6565b5080600660006101000a81548173ffffffffffffffffffffffffffffffffffffffff021916908373ffffffffffffffffffffffffffffffffffffffff160217905550816009908051906020019062000194929190620003b6565b5080600c60006101000a81548173ffffffffffffffffffffffffffffffffffffffff021916908373ffffffffffffffffffffffffffffffffffffffff160217905550505050506200020b7fa32d931a00000000000000000000000000000000000000000000000000000000620002dd60201b60201c565b6200054e565b600033905090565b60008060009054906101000a900473ffffffffffffffffffffffffffffffffffffffff169050816000806101000a81548173ffffffffffffffffffffffffffffffffffffffff021916908373ffffffffffffffffffffffffffffffffffffffff1602179055508173ffffffffffffffffffffffffffffffffffffffff168173ffffffffffffffffffffffffffffffffffffffff167f8be0079c531659141344cd1fd0a4f28419497f9722a3daafe3b4186f6b6457e060405160405180910390a35050565b63ffffffff60e01b817bffffffffffffffffffffffffffffffffffffffffffffffffffffffff1916141562000349576040517f08c379a000000000000000000000000000000000000000000000000000000000815260040162000340906200048d565b60405180910390fd5b6001600d6000837bffffffffffffffffffffffffffffffffffffffffffffffffffffffff19167bffffffffffffffffffffffffffffffffffffffffffffffffffffffff1916815260200190815260200160002060006101000a81548160ff02191690831515021790555050565b828054620003c490620004c0565b90600052602060002090601f016020900481019282620003e8576000855562000434565b82601f106200040357805160ff191683800117855562000434565b8280016001018555821562000434579182015b828111156200043357825182559160200191906001019062000416565b5b50905062000443919062000447565b5090565b5b808211156200046257600081600090555060010162000448565b5090565b600062000475601c83620004af565b9150620004828262000525565b602082019050919050565b60006020820190508181036000830152620004a88162000466565b9050919050565b600082825260208201905092915050565b60006002820490506001821680620004d957607f821691505b60208210811415620004f057620004ef620004f6565b5b50919050565b7f4e487b7100000000000000000000000000000000000000000000000000000000600052602260045260246000fd5b7f4552433136353a20696e76616c696420696e7465726661636520696400000000600082015250565b61456c806200055e6000396000f3fe608060405234801561001057600080fd5b506004361061018e5760003560e01c8063885a72a9116100de578063cb9d6aa511610097578063edad415c11610071578063edad415c1461052d578063f2fde38b1461055d578063f438f01914610579578063fe992c98146105a95761018e565b8063cb9d6aa5146104a9578063d5558256146104df578063d988ca161461050f5761018e565b8063885a72a9146103ad5780638da5cb5b146103dd57806395d89b41146103fb5780639c16f14914610419578063c87b56dd14610449578063c8bb779e146104795761018e565b8063251affd31161014b57806346b88e071161012557806346b88e071461031f5780634fbefc6e146103555780636352211e14610373578063715018a6146103a35761018e565b8063251affd31461028f57806339caa9bf146102bf57806342966c68146102ef5761018e565b806301ffc9a71461019357806306fdde03146101c35780630dc3e7f4146101e15780630f7635621461021157806313506cc314610241578063213f1ce514610271575b600080fd5b6101ad60048036038101906101a89190612f23565b6105d9565b6040516101ba9190613657565b60405180910390f35b6101cb610651565b6040516101d8919061368d565b60405180910390f35b6101fb60048036038101906101f69190612e59565b6106e3565b6040516102089190613657565b60405180910390f35b61022b60048036038101906102269190612ff2565b610739565b6040516102389190613657565b60405180910390f35b61025b60048036038101906102569190612f8d565b6107d1565b6040516102689190613657565b60405180910390f35b6102796107e5565b6040516102869190613635565b60405180910390f35b6102a960048036038101906102a49190612f8d565b610966565b6040516102b69190613657565b60405180910390f35b6102d960048036038101906102d49190612ebe565b6109f7565b6040516102e6919061392f565b60405180910390f35b61030960048036038101906103049190612f8d565b610ac1565b6040516103169190613657565b60405180910390f35b61033960048036038101906103349190612f8d565b610ad5565b60405161034c979695949392919061394a565b60405180910390f35b61035d610c66565b60405161036a91906135ba565b60405180910390f35b61038d60048036038101906103889190612f8d565b610c90565b60405161039a91906135ba565b60405180910390f35b6103ab610d42565b005b6103c760048036038101906103c29190612f8d565b610dca565b6040516103d4919061368d565b60405180910390f35b6103e5610f54565b6040516103f291906135ba565b60405180910390f35b610403610f7d565b604051610410919061368d565b60405180910390f35b610433600480360381019061042e9190613069565b61100f565b6040516104409190613657565b60405180910390f35b610463600480360381019061045e9190612f8d565b611025565b604051610470919061368d565b60405180910390f35b610493600480360381019061048e9190612fb6565b61109b565b6040516104a09190613657565b60405180910390f35b6104c360048036038101906104be9190612f8d565b611317565b6040516104d697969594939291906139b9565b60405180910390f35b6104f960048036038101906104f49190612e59565b6114a8565b6040516105069190613635565b60405180910390f35b610517611728565b604051610524919061392f565b60405180910390f35b61054760048036038101906105429190612e82565b611739565b6040516105549190613657565b60405180910390f35b61057760048036038101906105729190612e59565b611866565b005b610593600480360381019061058e9190612f8d565b61195e565b6040516105a09190613657565b60405180910390f35b6105c360048036038101906105be9190612e59565b611972565b6040516105d09190613635565b60405180910390f35b60006105e482611a6e565b8061064a5750600d6000837bffffffffffffffffffffffffffffffffffffffffffffffffffffffff19167bffffffffffffffffffffffffffffffffffffffffffffffffffffffff1916815260200190815260200160002060009054906101000a900460ff165b9050919050565b60606007805461066090613c8f565b80601f016020809104026020016040519081016040528092919081815260200182805461068c90613c8f565b80156106d95780601f106106ae576101008083540402835291602001916106d9565b820191906000526020600020905b8154815290600101906020018083116106bc57829003601f168201915b5050505050905090565b6000600560008373ffffffffffffffffffffffffffffffffffffffff1673ffffffffffffffffffffffffffffffffffffffff16815260200190815260200160002060009054906101000a900460ff169050919050565b6000610743611ad8565b73ffffffffffffffffffffffffffffffffffffffff16610761610f54565b73ffffffffffffffffffffffffffffffffffffffff16146107b7576040517f08c379a00000000000000000000000000000000000000000000000000000000081526004016107ae906137ef565b60405180910390fd5b6107c48686868686611ae0565b6001905095945050505050565b60006107dc82611c90565b60019050919050565b6060806000805b6107f6600b61209b565b811015610848576003600082815260200190815260200160002060030160179054906101000a900460ff161561083557818061083190613cf2565b9250505b808061084090613cf2565b9150506107ec565b508067ffffffffffffffff811115610889577f4e487b7100000000000000000000000000000000000000000000000000000000600052604160045260246000fd5b6040519080825280602002602001820160405280156108b75781602001602082028036833780820191505090505b50915060005b6108c7600b61209b565b81101561095d576003600082815260200190815260200160002060030160179054906101000a900460ff161561094a5780838361090390613c65565b9350838151811061093d577f4e487b7100000000000000000000000000000000000000000000000000000000600052603260045260246000fd5b6020026020010181815250505b808061095590613cf2565b9150506108bd565b50819250505090565b6000610970611ad8565b73ffffffffffffffffffffffffffffffffffffffff1661098e610f54565b73ffffffffffffffffffffffffffffffffffffffff16146109e4576040517f08c379a00000000000000000000000000000000000000000000000000000000081526004016109db906137ef565b60405180910390fd5b6109ed826120a9565b5060019050919050565b60008073ffffffffffffffffffffffffffffffffffffffff168373ffffffffffffffffffffffffffffffffffffffff161415610a68576040517f08c379a0000000000000000000000000000000000000000000000000000000008152600401610a5f9061390f565b60405180910390fd5b6004600083815260200190815260200160002060008473ffffffffffffffffffffffffffffffffffffffff1673ffffffffffffffffffffffffffffffffffffffff16815260200190815260200160002054905092915050565b6000610acc8261212b565b60019050919050565b6000806000806000806000610ae988612449565b610b28576040517f08c379a0000000000000000000000000000000000000000000000000000000008152600401610b1f906138af565b60405180910390fd5b6000600360008a8152602001908152602001600020604051806101000160405290816000820154815260200160018201548152602001600282015481526020016003820160009054906101000a900473ffffffffffffffffffffffffffffffffffffffff1673ffffffffffffffffffffffffffffffffffffffff1673ffffffffffffffffffffffffffffffffffffffff1681526020016003820160149054906101000a900460ff1660ff1660ff1681526020016003820160159054906101000a900460ff161515151581526020016003820160169054906101000a900460ff161515151581526020016003820160179054906101000a900460ff1615151515815250509050888160200151826040015183606001518460a001518560c001518660e00151975097509750975097509750975050919395979092949650565b6000600660009054906101000a900473ffffffffffffffffffffffffffffffffffffffff16905090565b6000806001600084815260200190815260200160002060009054906101000a900473ffffffffffffffffffffffffffffffffffffffff169050600073ffffffffffffffffffffffffffffffffffffffff168173ffffffffffffffffffffffffffffffffffffffff161415610d39576040517f08c379a0000000000000000000000000000000000000000000000000000000008152600401610d309061370f565b60405180910390fd5b80915050919050565b610d4a611ad8565b73ffffffffffffffffffffffffffffffffffffffff16610d68610f54565b73ffffffffffffffffffffffffffffffffffffffff1614610dbe576040517f08c379a0000000000000000000000000000000000000000000000000000000008152600401610db5906137ef565b60405180910390fd5b610dc860006124c1565b565b6060610dd582612449565b610e14576040517f08c379a0000000000000000000000000000000000000000000000000000000008152600401610e0b906137cf565b60405180910390fd5b6000610e1e612585565b90506000815111610e3e5760405180602001604052806000815250610f4c565b803073ffffffffffffffffffffffffffffffffffffffff1673__$124e1a4c5367a62965a30c61a01a42cb5d$__637cd6f8ff90916040518263ffffffff1660e01b8152600401610e8e919061359f565b60006040518083038186803b158015610ea657600080fd5b505af4158015610eba573d6000803e3d6000fd5b505050506040513d6000823e3d601f19601f82011682018060405250810190610ee39190612f4c565b604051602001610ef4929190613559565b604051602081830303815290604052610f0c84612617565b604051602001610f1c919061357d565b604051602081830303815290604052604051602001610f3c92919061351e565b6040516020818303038152906040525b915050919050565b60008060009054906101000a900473ffffffffffffffffffffffffffffffffffffffff16905090565b606060088054610f8c90613c8f565b80601f0160208091040260200160405190810160405280929190818152602001828054610fb890613c8f565b80156110055780601f10610fda57610100808354040283529160200191611005565b820191906000526020600020905b815481529060010190602001808311610fe857829003601f168201915b5050505050905090565b600061101b83836127c4565b6001905092915050565b6060611030826129b7565b61106f576040517f08c379a00000000000000000000000000000000000000000000000000000000081526004016110669061388f565b60405180910390fd5b60006002600084815260200190815260200160002060000154905061109381610dca565b915050919050565b60006110a683612449565b6110e5576040517f08c379a00000000000000000000000000000000000000000000000000000000081526004016110dc906137af565b60405180910390fd5b6003600084815260200190815260200160002060030160179054906101000a900460ff16611148576040517f08c379a000000000000000000000000000000000000000000000000000000000815260040161113f906136ef565b60405180910390fd5b6003600084815260200190815260200160002060030160169054906101000a900460ff166111795760019050611311565b6111f87fa6996df8000000000000000000000000000000000000000000000000000000006003600086815260200190815260200160002060030160009054906101000a900473ffffffffffffffffffffffffffffffffffffffff1673ffffffffffffffffffffffffffffffffffffffff16612a2390919063ffffffff16565b611237576040517f08c379a000000000000000000000000000000000000000000000000000000000815260040161122e9061374f565b60405180910390fd5b6003600084815260200190815260200160002060030160009054906101000a900473ffffffffffffffffffffffffffffffffffffffff1673ffffffffffffffffffffffffffffffffffffffff16636704fe9f8360036000878152602001908152602001600020600201546040518363ffffffff1660e01b81526004016112be92919061360c565b60206040518083038186803b1580156112d657600080fd5b505afa1580156112ea573d6000803e3d6000fd5b505050506040513d601f19601f8201168201806040525081019061130e9190612efa565b90505b92915050565b600080600080600080600061132b886129b7565b61136a576040517f08c379a0000000000000000000000000000000000000000000000000000000008152600401611361906138ef565b60405180910390fd5b6000600260008a8152602001908152602001600020604051806101000160405290816000820154815260200160018201548152602001600282015481526020016003820160009054906101000a900473ffffffffffffffffffffffffffffffffffffffff1673ffffffffffffffffffffffffffffffffffffffff1673ffffffffffffffffffffffffffffffffffffffff1681526020016003820160149054906101000a900460ff1660ff1660ff1681526020016003820160159054906101000a900460ff161515151581526020016003820160169054906101000a900460ff161515151581526020016003820160179054906101000a900460ff16151515158152505090508881600001518260200151836040015184606001518560a001518660c00151975097509750975097509750975050919395979092949650565b6060600073ffffffffffffffffffffffffffffffffffffffff168273ffffffffffffffffffffffffffffffffffffffff16141561151a576040517f08c379a00000000000000000000000000000000000000000000000000000000081526004016115119061390f565b60405180910390fd5b6000805b611528600a61209b565b8110156115b8578373ffffffffffffffffffffffffffffffffffffffff166001600083815260200190815260200160002060009054906101000a900473ffffffffffffffffffffffffffffffffffffffff1673ffffffffffffffffffffffffffffffffffffffff1614156115a55781806115a190613cf2565b9250505b80806115b090613cf2565b91505061151e565b5060008167ffffffffffffffff8111156115fb577f4e487b7100000000000000000000000000000000000000000000000000000000600052604160045260246000fd5b6040519080825280602002602001820160405280156116295781602001602082028036833780820191505090505b5090506000600161163a600a61209b565b6116449190613b7b565b90505b600081111561171d578473ffffffffffffffffffffffffffffffffffffffff166001600083815260200190815260200160002060009054906101000a900473ffffffffffffffffffffffffffffffffffffffff1673ffffffffffffffffffffffffffffffffffffffff16141561170a578082846116c390613c65565b945084815181106116fd577f4e487b7100000000000000000000000000000000000000000000000000000000600052603260045260246000fd5b6020026020010181815250505b808061171590613c65565b915050611647565b508092505050919050565b6000611734600b61209b565b905090565b6000611743611ad8565b73ffffffffffffffffffffffffffffffffffffffff16611761610f54565b73ffffffffffffffffffffffffffffffffffffffff16146117b7576040517f08c379a00000000000000000000000000000000000000000000000000000000081526004016117ae906137ef565b60405180910390fd5b81600560008573ffffffffffffffffffffffffffffffffffffffff1673ffffffffffffffffffffffffffffffffffffffff16815260200190815260200160002060006101000a81548160ff0219169083151502179055508273ffffffffffffffffffffffffffffffffffffffff167ffe99886f7838dde3fc1f7346eae6da7cc126441a08a16c8b1b45c7b10d455aff836040516118549190613657565b60405180910390a26001905092915050565b61186e611ad8565b73ffffffffffffffffffffffffffffffffffffffff1661188c610f54565b73ffffffffffffffffffffffffffffffffffffffff16146118e2576040517f08c379a00000000000000000000000000000000000000000000000000000000081526004016118d9906137ef565b60405180910390fd5b600073ffffffffffffffffffffffffffffffffffffffff168173ffffffffffffffffffffffffffffffffffffffff161415611952576040517f08c379a0000000000000000000000000000000000000000000000000000000008152600401611949906136af565b60405180910390fd5b61195b816124c1565b50565b600061196982612a48565b60019050919050565b60606000611980600b61209b565b67ffffffffffffffff8111156119bf577f4e487b7100000000000000000000000000000000000000000000000000000000600052604160045260246000fd5b6040519080825280602002602001820160405280156119ed5781602001602082028036833780820191505090505b50905060005b6119fd600b61209b565b811015611a6457611a0e84826109f7565b828281518110611a47577f4e487b7100000000000000000000000000000000000000000000000000000000600052603260045260246000fd5b60200260200101818152505080611a5d90613cf2565b90506119f3565b5080915050919050565b60007f01ffc9a7000000000000000000000000000000000000000000000000000000007bffffffffffffffffffffffffffffffffffffffffffffffffffffffff1916827bffffffffffffffffffffffffffffffffffffffffffffffffffffffff1916149050919050565b600033905090565b604051806101000160405280611af6600b61209b565b81526020018281526020018681526020018573ffffffffffffffffffffffffffffffffffffffff168152602001600160ff168152602001841515815260200183151581526020016001151581525060036000611b52600b61209b565b815260200190815260200160002060008201518160000155602082015181600101556040820151816002015560608201518160030160006101000a81548173ffffffffffffffffffffffffffffffffffffffff021916908373ffffffffffffffffffffffffffffffffffffffff16021790555060808201518160030160146101000a81548160ff021916908360ff16021790555060a08201518160030160156101000a81548160ff02191690831515021790555060c08201518160030160166101000a81548160ff02191690831515021790555060e08201518160030160176101000a81548160ff021916908315150217905550905050611c53600b61209b565b7fbf0319f78aaf9f9c003505ca82c405688492a8be0d84ffe6f01e7bab23cefdf260405160405180910390a2611c89600b612b92565b5050505050565b611ca181611c9c611ad8565b61109b565b611ce0576040517f08c379a0000000000000000000000000000000000000000000000000000000008152600401611cd79061376f565b60405180910390fd5b600c60009054906101000a900473ffffffffffffffffffffffffffffffffffffffff1673ffffffffffffffffffffffffffffffffffffffff166323b872dd611d26611ad8565b611d2e610f54565b60036000868152602001908152602001600020600101546040518463ffffffff1660e01b8152600401611d63939291906135d5565b602060405180830381600087803b158015611d7d57600080fd5b505af1158015611d91573d6000803e3d6000fd5b505050506040513d601f19601f82011682018060405250810190611db59190612efa565b611df4576040517f08c379a0000000000000000000000000000000000000000000000000000000008152600401611deb9061384f565b60405180910390fd5b6003600082815260200190815260200160002060026000611e15600a61209b565b81526020019081526020016000206000820154816000015560018201548160010155600282015481600201556003820160009054906101000a900473ffffffffffffffffffffffffffffffffffffffff168160030160006101000a81548173ffffffffffffffffffffffffffffffffffffffff021916908373ffffffffffffffffffffffffffffffffffffffff1602179055506003820160149054906101000a900460ff168160030160146101000a81548160ff021916908360ff1602179055506003820160159054906101000a900460ff168160030160156101000a81548160ff0219169083151502179055506003820160169054906101000a900460ff168160030160166101000a81548160ff0219169083151502179055506003820160179054906101000a900460ff168160030160176101000a81548160ff021916908315150217905550905050611f68611ad8565b60016000611f76600a61209b565b815260200190815260200160002060006101000a81548173ffffffffffffffffffffffffffffffffffffffff021916908373ffffffffffffffffffffffffffffffffffffffff160217905550600460008281526020019081526020016000206000611fdf611ad8565b73ffffffffffffffffffffffffffffffffffffffff1673ffffffffffffffffffffffffffffffffffffffff168152602001908152602001600020600081548092919061202a90613cf2565b9190505550612037611ad8565b73ffffffffffffffffffffffffffffffffffffffff16817f78d1d35cef10fdd663dbf46bbb276e9a504f11fc6594e11ff6fefd072b12b5c0612079600a61209b565b604051612086919061392f565b60405180910390a3612098600a612b92565b50565b600081600001549050919050565b60006120b482612449565b6120f3576040517f08c379a00000000000000000000000000000000000000000000000000000000081526004016120ea906138af565b60405180910390fd5b60006003600084815260200190815260200160002060030160176101000a81548160ff02191690831515021790555060019050919050565b612134816129b7565b612173576040517f08c379a000000000000000000000000000000000000000000000000000000000815260040161216a9061380f565b60405180910390fd5b6121c37fa6996df80000000000000000000000000000000000000000000000000000000061219f611ad8565b73ffffffffffffffffffffffffffffffffffffffff16612a2390919063ffffffff16565b612202576040517f08c379a00000000000000000000000000000000000000000000000000000000081526004016121f9906136cf565b60405180910390fd5b61221261220d611ad8565b6106e3565b612251576040517f08c379a00000000000000000000000000000000000000000000000000000000081526004016122489061372f565b60405180910390fd5b60016002600083815260200190815260200160002060030160149054906101000a900460ff1660ff1614806122ab5750600280600083815260200190815260200160002060030160149054906101000a900460ff1660ff16145b6122ea576040517f08c379a00000000000000000000000000000000000000000000000000000000081526004016122e19061386f565b60405180910390fd5b6004600060026000848152602001908152602001600020600001548152602001908152602001600020600061231e83610c90565b73ffffffffffffffffffffffffffffffffffffffff1673ffffffffffffffffffffffffffffffffffffffff168152602001908152602001600020600081548092919061236990613c65565b919050555060006002600083815260200190815260200160002060030160146101000a81548160ff021916908360ff16021790555060006001600083815260200190815260200160002060006101000a81548173ffffffffffffffffffffffffffffffffffffffff021916908373ffffffffffffffffffffffffffffffffffffffff1602179055506123f9611ad8565b73ffffffffffffffffffffffffffffffffffffffff167fbcb366f830b7161c969000192ba6e4332a8de75eb4a1c6a8cc0491f427542c6c8260405161243e919061392f565b60405180910390a250565b600081612456600b61209b565b11612496576040517f08c379a000000000000000000000000000000000000000000000000000000000815260040161248d9061382f565b60405180910390fd5b6003600083815260200190815260200160002060030160179054906101000a900460ff169050919050565b60008060009054906101000a900473ffffffffffffffffffffffffffffffffffffffff169050816000806101000a81548173ffffffffffffffffffffffffffffffffffffffff021916908373ffffffffffffffffffffffffffffffffffffffff1602179055508173ffffffffffffffffffffffffffffffffffffffff168173ffffffffffffffffffffffffffffffffffffffff167f8be0079c531659141344cd1fd0a4f28419497f9722a3daafe3b4186f6b6457e060405160405180910390a35050565b60606009805461259490613c8f565b80601f01602080910402602001604051908101604052809291908181526020018280546125c090613c8f565b801561260d5780601f106125e25761010080835404028352916020019161260d565b820191906000526020600020905b8154815290600101906020018083116125f057829003601f168201915b5050505050905090565b6060600082141561265f576040518060400160405280600181526020017f300000000000000000000000000000000000000000000000000000000000000081525090506127bf565b600082905060005b6000821461269157808061267a90613cf2565b915050600a8261268a9190613b4a565b9150612667565b60008167ffffffffffffffff8111156126d3577f4e487b7100000000000000000000000000000000000000000000000000000000600052604160045260246000fd5b6040519080825280601f01601f1916602001820160405280156127055781602001600182028036833780820191505090505b5090505b600085146127b85760018261271e9190613b7b565b9150600a8561272d9190613d3b565b60306127399190613af4565b60f81b818381518110612775577f4e487b7100000000000000000000000000000000000000000000000000000000600052603260045260246000fd5b60200101907effffffffffffffffffffffffffffffffffffffffffffffffffffffffffffff1916908160001a905350600a856127b19190613b4a565b9450612709565b8093505050505b919050565b6127cd826129b7565b61280c576040517f08c379a00000000000000000000000000000000000000000000000000000000081526004016128039061370f565b60405180910390fd5b612814611ad8565b73ffffffffffffffffffffffffffffffffffffffff1660016000612838600a61209b565b815260200190815260200160002060009054906101000a900473ffffffffffffffffffffffffffffffffffffffff1673ffffffffffffffffffffffffffffffffffffffff16146128bd576040517f08c379a00000000000000000000000000000000000000000000000000000000081526004016128b4906138cf565b60405180910390fd5b60016002600084815260200190815260200160002060030160149054906101000a900460ff1660ff1614612926576040517f08c379a000000000000000000000000000000000000000000000000000000000815260040161291d9061378f565b60405180910390fd5b600280600084815260200190815260200160002060030160146101000a81548160ff021916908360ff160217905550806040516020016129669190613542565b604051602081830303815290604052805190602001207fa3d3a3bf9e68e2dd88744994f6155302aae02846d3a369e1e341c363b51879e4836040516129ab919061392f565b60405180910390a25050565b60008073ffffffffffffffffffffffffffffffffffffffff166001600084815260200190815260200160002060009054906101000a900473ffffffffffffffffffffffffffffffffffffffff1673ffffffffffffffffffffffffffffffffffffffff1614159050919050565b6000612a2e83612ba8565b8015612a405750612a3f8383612bf5565b5b905092915050565b612a50611ad8565b73ffffffffffffffffffffffffffffffffffffffff16612a6e610f54565b73ffffffffffffffffffffffffffffffffffffffff1614612ac4576040517f08c379a0000000000000000000000000000000000000000000000000000000008152600401612abb906137ef565b60405180910390fd5b612acd816129b7565b612b0c576040517f08c379a0000000000000000000000000000000000000000000000000000000008152600401612b039061370f565b60405180910390fd5b60636002600083815260200190815260200160002060030160146101000a81548160ff021916908360ff16021790555060006001600083815260200190815260200160002060006101000a81548173ffffffffffffffffffffffffffffffffffffffff021916908373ffffffffffffffffffffffffffffffffffffffff16021790555050565b6001816000016000828254019250508190555050565b6000612bd4827f01ffc9a700000000000000000000000000000000000000000000000000000000612bf5565b8015612bee5750612bec8263ffffffff60e01b612bf5565b155b9050919050565b6000806301ffc9a760e01b83604051602401612c119190613672565b604051602081830303815290604052907bffffffffffffffffffffffffffffffffffffffffffffffffffffffff19166020820180517bffffffffffffffffffffffffffffffffffffffffffffffffffffffff838183161783525050505090506000808573ffffffffffffffffffffffffffffffffffffffff1661753084604051612c9b9190613507565b6000604051808303818686fa925050503d8060008114612cd7576040519150601f19603f3d011682016040523d82523d6000602084013e612cdc565b606091505b5091509150602081511015612cf75760009350505050612d1a565b818015612d14575080806020019051810190612d139190612efa565b5b93505050505b92915050565b6000612d33612d2e84613a4d565b613a28565b905082815260208101848484011115612d4b57600080fd5b612d56848285613c23565b509392505050565b6000612d71612d6c84613a4d565b613a28565b905082815260208101848484011115612d8957600080fd5b612d94848285613c32565b509392505050565b600081359050612dab816144da565b92915050565b600081359050612dc0816144f1565b92915050565b600081519050612dd5816144f1565b92915050565b600081359050612dea81614508565b92915050565b600082601f830112612e0157600080fd5b8135612e11848260208601612d20565b91505092915050565b600082601f830112612e2b57600080fd5b8151612e3b848260208601612d5e565b91505092915050565b600081359050612e538161451f565b92915050565b600060208284031215612e6b57600080fd5b6000612e7984828501612d9c565b91505092915050565b60008060408385031215612e9557600080fd5b6000612ea385828601612d9c565b9250506020612eb485828601612db1565b9150509250929050565b60008060408385031215612ed157600080fd5b6000612edf85828601612d9c565b9250506020612ef085828601612e44565b9150509250929050565b600060208284031215612f0c57600080fd5b6000612f1a84828501612dc6565b91505092915050565b600060208284031215612f3557600080fd5b6000612f4384828501612ddb565b91505092915050565b600060208284031215612f5e57600080fd5b600082015167ffffffffffffffff811115612f7857600080fd5b612f8484828501612e1a565b91505092915050565b600060208284031215612f9f57600080fd5b6000612fad84828501612e44565b91505092915050565b60008060408385031215612fc957600080fd5b6000612fd785828601612e44565b9250506020612fe885828601612d9c565b9150509250929050565b600080600080600060a0868803121561300a57600080fd5b600061301888828901612e44565b955050602061302988828901612d9c565b945050604061303a88828901612db1565b935050606061304b88828901612db1565b925050608061305c88828901612e44565b9150509295509295909350565b6000806040838503121561307c57600080fd5b600061308a85828601612e44565b925050602083013567ffffffffffffffff8111156130a757600080fd5b6130b385828601612df0565b9150509250929050565b60006130c983836134e9565b60208301905092915050565b6130de81613baf565b82525050565b6130ed81613baf565b82525050565b60006130fe82613a8e565b6131088185613abc565b935061311383613a7e565b8060005b8381101561314457815161312b88826130bd565b975061313683613aaf565b925050600181019050613117565b5085935050505092915050565b61315a81613bc1565b82525050565b61316981613bcd565b82525050565b600061317a82613a99565b6131848185613acd565b9350613194818560208601613c32565b80840191505092915050565b60006131ab82613aa4565b6131b58185613ad8565b93506131c5818560208601613c32565b6131ce81613e28565b840191505092915050565b60006131e482613aa4565b6131ee8185613ae9565b93506131fe818560208601613c32565b80840191505092915050565b6000613217602683613ad8565b915061322282613e39565b604082019050919050565b600061323a604383613ad8565b915061324582613e88565b606082019050919050565b600061325d603c83613ad8565b915061326882613efd565b604082019050919050565b6000613280603483613ad8565b915061328b82613f4c565b604082019050919050565b60006132a3604283613ad8565b91506132ae82613f9b565b606082019050919050565b60006132c6604983613ad8565b91506132d182614010565b606082019050919050565b60006132e9603283613ad8565b91506132f482614085565b604082019050919050565b600061330c603783613ad8565b9150613317826140d4565b604082019050919050565b600061332f602983613ad8565b915061333a82614123565b604082019050919050565b6000613352603883613ad8565b915061335d82614172565b604082019050919050565b6000613375602083613ad8565b9150613380826141c1565b602082019050919050565b6000613398603383613ad8565b91506133a3826141ea565b604082019050919050565b60006133bb603a83613ad8565b91506133c682614239565b604082019050919050565b60006133de602683613ad8565b91506133e982614288565b604082019050919050565b6000613401603583613ad8565b915061340c826142d7565b604082019050919050565b6000613424603383613ad8565b915061342f82614326565b604082019050919050565b6000613447603283613ad8565b915061345282614375565b604082019050919050565b600061346a603083613ad8565b9150613475826143c4565b604082019050919050565b600061348d602d83613ad8565b915061349882614413565b604082019050919050565b60006134b0603583613ad8565b91506134bb82614462565b604082019050919050565b60006134d3600183613ae9565b91506134de826144b1565b600182019050919050565b6134f281613c19565b82525050565b61350181613c19565b82525050565b6000613513828461316f565b915081905092915050565b600061352a828561316f565b9150613536828461316f565b91508190509392505050565b600061354e82846131d9565b915081905092915050565b600061356582856131d9565b915061357182846131d9565b91508190509392505050565b6000613588826134c6565b915061359482846131d9565b915081905092915050565b60006020820190506135b460008301846130e4565b92915050565b60006020820190506135cf60008301846130d5565b92915050565b60006060820190506135ea60008301866130d5565b6135f760208301856130d5565b61360460408301846134f8565b949350505050565b600060408201905061362160008301856130d5565b61362e60208301846134f8565b9392505050565b6000602082019050818103600083015261364f81846130f3565b905092915050565b600060208201905061366c6000830184613151565b92915050565b60006020820190506136876000830184613160565b92915050565b600060208201905081810360008301526136a781846131a0565b905092915050565b600060208201905081810360008301526136c88161320a565b9050919050565b600060208201905081810360008301526136e88161322d565b9050919050565b6000602082019050818103600083015261370881613250565b9050919050565b6000602082019050818103600083015261372881613273565b9050919050565b6000602082019050818103600083015261374881613296565b9050919050565b60006020820190508181036000830152613768816132b9565b9050919050565b60006020820190508181036000830152613788816132dc565b9050919050565b600060208201905081810360008301526137a8816132ff565b9050919050565b600060208201905081810360008301526137c881613322565b9050919050565b600060208201905081810360008301526137e881613345565b9050919050565b6000602082019050818103600083015261380881613368565b9050919050565b600060208201905081810360008301526138288161338b565b9050919050565b60006020820190508181036000830152613848816133ae565b9050919050565b60006020820190508181036000830152613868816133d1565b9050919050565b60006020820190508181036000830152613888816133f4565b9050919050565b600060208201905081810360008301526138a881613417565b9050919050565b600060208201905081810360008301526138c88161343a565b9050919050565b600060208201905081810360008301526138e88161345d565b9050919050565b6000602082019050818103600083015261390881613480565b9050919050565b60006020820190508181036000830152613928816134a3565b9050919050565b600060208201905061394460008301846134f8565b92915050565b600060e08201905061395f600083018a6134f8565b61396c60208301896134f8565b61397960408301886134f8565b61398660608301876130d5565b6139936080830186613151565b6139a060a0830185613151565b6139ad60c0830184613151565b98975050505050505050565b600060e0820190506139ce600083018a6134f8565b6139db60208301896134f8565b6139e860408301886134f8565b6139f560608301876134f8565b613a0260808301866130d5565b613a0f60a0830185613151565b613a1c60c0830184613151565b98975050505050505050565b6000613a32613a43565b9050613a3e8282613cc1565b919050565b6000604051905090565b600067ffffffffffffffff821115613a6857613a67613df9565b5b613a7182613e28565b9050602081019050919050565b6000819050602082019050919050565b600081519050919050565b600081519050919050565b600081519050919050565b6000602082019050919050565b600082825260208201905092915050565b600081905092915050565b600082825260208201905092915050565b600081905092915050565b6000613aff82613c19565b9150613b0a83613c19565b9250827fffffffffffffffffffffffffffffffffffffffffffffffffffffffffffffffff03821115613b3f57613b3e613d6c565b5b828201905092915050565b6000613b5582613c19565b9150613b6083613c19565b925082613b7057613b6f613d9b565b5b828204905092915050565b6000613b8682613c19565b9150613b9183613c19565b925082821015613ba457613ba3613d6c565b5b828203905092915050565b6000613bba82613bf9565b9050919050565b60008115159050919050565b60007fffffffff0000000000000000000000000000000000000000000000000000000082169050919050565b600073ffffffffffffffffffffffffffffffffffffffff82169050919050565b6000819050919050565b82818337600083830152505050565b60005b83811015613c50578082015181840152602081019050613c35565b83811115613c5f576000848401525b50505050565b6000613c7082613c19565b91506000821415613c8457613c83613d6c565b5b600182039050919050565b60006002820490506001821680613ca757607f821691505b60208210811415613cbb57613cba613dca565b5b50919050565b613cca82613e28565b810181811067ffffffffffffffff82111715613ce957613ce8613df9565b5b80604052505050565b6000613cfd82613c19565b91507fffffffffffffffffffffffffffffffffffffffffffffffffffffffffffffffff821415613d3057613d2f613d6c565b5b600182019050919050565b6000613d4682613c19565b9150613d5183613c19565b925082613d6157613d60613d9b565b5b828206905092915050565b7f4e487b7100000000000000000000000000000000000000000000000000000000600052601160045260246000fd5b7f4e487b7100000000000000000000000000000000000000000000000000000000600052601260045260246000fd5b7f4e487b7100000000000000000000000000000000000000000000000000000000600052602260045260246000fd5b7f4e487b7100000000000000000000000000000000000000000000000000000000600052604160045260246000fd5b6000601f19601f8301169050919050565b7f4f776e61626c653a206e6577206f776e657220697320746865207a65726f206160008201527f6464726573730000000000000000000000000000000000000000000000000000602082015250565b7f494d616769635363726f6c6c73506c75733a2049536b696c6c4365727469666960008201527f63617465506c7573206973206e6f7420737570706f727465642062792063616c60208201527f6c65720000000000000000000000000000000000000000000000000000000000604082015250565b7f494d616769635363726f6c6c73506c75733a2074686973207363726f6c6c207460008201527f797065206973206e6f206c6f6e676572207075726368617361626c6500000000602082015250565b7f494d616769635363726f6c6c73506c75733a206f776e6572207175657279206660008201527f6f72206e6f6e6578697374656e7420746f6b656e000000000000000000000000602082015250565b7f494d616769635363726f6c6c73506c75733a2063616c6c6572206973206e6f7460008201527f2074686520617070726f766564206365727469666963617465206d616e61676560208201527f722e000000000000000000000000000000000000000000000000000000000000604082015250565b7f494d616769635363726f6c6c73506c75733a2049536b696c6c4365727469666960008201527f63617465506c7573206973206e6f7420737570706f727465642062792074686960208201527f7320616464726573730000000000000000000000000000000000000000000000604082015250565b7f494d616769635363726f6c6c73506c75733a2074686973207363726f6c6c206960008201527f73206e6f74207075726368617361626c652e0000000000000000000000000000602082015250565b7f494d616769635363726f6c6c73506c75733a2074686973207363726f6c6c206960008201527f73206e6f206c6f6e67657220636f6e73756d61626c652e000000000000000000602082015250565b7f494d616769635363726f6c6c73506c75733a207363726f6c6c20646f6573206e60008201527f6f742065786973742e0000000000000000000000000000000000000000000000602082015250565b7f494d616769635363726f6c6c73506c75733a2055524920717565727920666f7260008201527f206e6f6e6578697374656e74207363726f6c6c20747970650000000000000000602082015250565b7f4f776e61626c653a2063616c6c6572206973206e6f7420746865206f776e6572600082015250565b7f494d616769635363726f6c6c73506c75733a206f776e6572207175657279206660008201527f6f206e6f6e6578697374656e7420746f6b656e00000000000000000000000000602082015250565b7f494d616769635363726f6c6c73506c75733a20746865726520617265206e6f7460008201527f2074686174206d616e79207479706573206f66207363726f6c6c000000000000602082015250565b7f494d616769635363726f6c6c73506c75733a2063616e6e6f74207472616e736660008201527f6572204447540000000000000000000000000000000000000000000000000000602082015250565b7f494d616769635363726f6c6c73506c75733a2074686973207363726f6c6c206960008201527f73206e6f206c6f6e676572206275726e61626c652e0000000000000000000000602082015250565b7f494d616769635363726f6c6c73506c75733a2055524920717565727920666f7260008201527f206e6f6e6578697374656e74207363726f6c6c00000000000000000000000000602082015250565b7f494d616769635363726f6c6c73506c75733a2074686973207363726f6c6c207460008201527f79706520646f6573206e6f742065786973740000000000000000000000000000602082015250565b7f494d616769635363726f6c6c73506c75733a206d75737420626520636f6e737560008201527f6d656420627920746865206f776e657200000000000000000000000000000000602082015250565b7f494d616769635363726f6c6c73506c75733a2074686973207363726f6c6c206460008201527f6f6573206e6f7420657869737400000000000000000000000000000000000000602082015250565b7f494d616769635363726f6c6c73506c75733a2062616c616e636520717565727960008201527f20666f7220746865207a65726f20616464726573730000000000000000000000602082015250565b7f2f00000000000000000000000000000000000000000000000000000000000000600082015250565b6144e381613baf565b81146144ee57600080fd5b50565b6144fa81613bc1565b811461450557600080fd5b50565b61451181613bcd565b811461451c57600080fd5b50565b61452881613c19565b811461453357600080fd5b5056fea26469706673582212204a8219192e4aeb2e57fb07850894cdcb4f202ac92a9c823ae223df64ec8c4c2464736f6c6343000804003368747470733a2f2f75732d63656e7472616c312d64656775696c642d323032312e636c6f756466756e6374696f6e732e6e65742f6170702f726561644d616769635363726f6c6c2f",
  "linkReferences": {
    "contracts/Utils/EIP-55.sol": {
      "ChecksumLib": [
        {
          "length": 20,
          "start": 5046
        }
      ]
    }
  },
  "deployedLinkReferences": {
    "contracts/Utils/EIP-55.sol": {
      "ChecksumLib": [
        {
          "length": 20,
          "start": 3672
        }
      ]
    }
  }
}